:020000021000EC
:10F0000000000120B1DD0200D9DD0200DBDD0200DD
:10F01000DDDD0200DFDD0200E1DD020000000000B6
:10F02000000000000000000000000000E3DD02001E
:10F03000E5DD020000000000E7DD0200E9DD02007E
:10F04000B1520200EBDD02001D730200D96C020018
:10F05000AD510200EBDD0200855C0200F974020094
:10F06000097C0200EBDD0200EBDD0200EBDD0200BB
:10F07000EBDD0200EBDD0200EBDD0200EBDD020068
:10F08000EBDD0200151D0200EBDD0200EBDD0200EE
:10F09000551D0200EBDD02002DDD0200EBDD02005C
:10F0A000EBDD0200EBDD0200EBDD0200EBDD020038
:10F0B000EBDD0200EBDD02000000000000000000BC
:10F0C000EBDD0200EBDD0200EBDD0200EBDD020018
:10F0D000EBDD0200EBDD0200EBDD020000000000D2
:10F0E0000000000000000000000000000000000020
:10F0F0000000000000000000000000000000000010
:10F1000000000000000000000000000000000000FF
:10F1100000000000000000000000000000000000EF
:10F1200000000000000000000000000000000000DF
:10F1300000000000000000000000000000000000CF
:10F1400000000000000000000000000000000000BF
:10F1500000000000000000000000000000000000AF
:10F16000000000000000000000000000000000009F
:10F17000000000000000000000000000000000008F
:10F18000000000000000000000000000000000007F
:10F19000000000000000000000000000000000006F
:10F1A000000000000000000000000000000000005F
:10F1B000000000000000000000000000000000004F
:10F1C000000000000000000000000000000000003F
:10F1D000000000000000000000000000000000002F
:10F1E000000000000000000000000000000000001F
:10F1F000000000000000000000000000000000000F
:10F2000010B5054C237833B9044B13B10448AFF360
:10F2100000800123237010BDF425002000000000B1
:10F22000E0F902000C4B43B10C480D4910B5AFF3A7
:10F2300000800C48036823B910BD0A48036833B93D
:10F240007047094B002BF7D0BDE810401847064B1C
:10F25000002BF5D0184700BF00000000E0F90200C5
:10F26000F8250020E025002000000000154B002BB1
:10F2700008BF134B9D46A3F5803A00218B460F46ED
:10F280001348144A121A00F063F80F4B002B00D0F9
:10F2900098470E4B002B00D0984700200021040017
:10F2A0000D000D48002802D00C48AFF3008000F09C
:10F2B0002BF82000290000F017FF00F011F800BF24
:10F2C0000000080000000120000000000000000015
:10F2D000F42500200435002000000000000000009C
:10F2E00008B5074B044613B10021AFF30080054B6E
:10F2F0001868836A03B19847204600F031F800BFD0
:10F30000000000009CF8020070B50D4E0D4CA41BCF
:10F31000A4100025A54209D10B4E0C4C10F0B2FAF6
:10F32000A41BA4100025A54205D170BD56F82530B8
:10F3300098470135EEE756F8253098470135F2E752
:10F34000D8250020D8250020D8250020DC25002045
:10F3500002440346934200D1704703F8011BF9E7CA
:10F36000FEE700BF80B483B000AF78604FF0A043E9
:10F3700018460C37BD465DF8047B704780B584B0F5
:10F3800000AF7860084611461A460346FB700B46EC
:10F39000BB7013467B703B1D1846FFF7E3FFF86018
:10F3A0007A68F978BB785B0019437B789B00194336
:10F3B0003B7E1B0219433B7F1B041943FB6802F58C
:10F3C000E07243F8221000BF1037BD4680BD80B503
:10F3D00084B002AF786000230193002300930023E0
:10F3E000012201217868FFF7C9FF00BF0837BD4639
:10F3F00080BD80B584B000AF78603B1D1846FFF734
:10F40000B1FFF8607B68012202FA03F31946F8683D
:10F4100000F072F800BF1037BD4680BD80B584B0E3
:10F4200000AF78603B1D1846FFF79CFFF8607B68D3
:10F43000012202FA03F31946F86800F06CF800BFE5
:10F440001037BD4680BD80B584B000AF78603B1DED
:10F450001846FFF787FFF860FB68D3F80435BB60F8
:10F46000BB68DA437B68012101FA03F31A40FB68A9
:10F47000C3F808257B6801229A40BB681A40FB68E4
:10F48000C3F80C2500BF1037BD4680BD80B582B0E3
:10F4900000AF786039603B68002B03D17868FFF7D4
:10F4A000BDFF02E07868FFF7A4FF00BF0837BD4644
:10F4B00080BD80B584B000AF78603B1D1846FFF773
:10F4C00051FFF860F86800F00AF802467B6822FAFB
:10F4D00003F303F0010318461037BD4680BD80B426
:10F4E00083B000AF78607B68D3F8043518460C37DA
:10F4F000BD465DF8047B704780B483B000AF786090
:10F5000039607B683A68C3F8082500BF0C37BD46F0
:10F510005DF8047B704780B483B000AF78603960D9
:10F520007B683A68C3F80C2500BF0C37BD465DF810
:10F53000047B704780B584B000AF78600E4A7B686A
:10F5400013441B781846FFF7B4FF0346002B14BF83
:10F5500001230023FB73FB7B002B14BF012300233B
:10F56000DBB283F00103DBB203F00103DBB2184628
:10F570001037BD4680BD00BFA0F8020080B582B044
:10F5800000AF7860054A7B6813441B780021184659
:10F59000FFF77CFF00BF0837BD4680BDA0F8020022
:10F5A00080B582B000AF7860054A7B6813441B7851
:10F5B00001211846FFF76AFF00BF0837BD4680BD2E
:10F5C000A0F8020080B582B000AF0023FB7106E016
:10F5D000FB791846FFF7E4FFFB790133FB71FB79F8
:10F5E000022BF5D900BF0837BD4680BD80B582B07B
:10F5F00000AF0023FB7106E0FB791846FFF7BEFF62
:10F60000FB790133FB71FB79022BF5D900BF083779
:10F61000BD4680BD80B582B000AF7860054A7B688A
:10F6200013441B781846FFF70EFF00BF0837BD468E
:10F6300080BD00BFA0F8020080B582B000AF0023FB
:10F640007B6009E0094A7B6813441B781846FFF782
:10F65000BEFE7B6801337B607B68022BF2D9FFF72B
:10F66000B1FF00BF0837BD4680BD00BFA0F8020053
:10F6700080B485B000AF78604FF0FF33BB600023EB
:10F68000FB600DE00B4AFB6813441B781A467B684D
:10F690009A4202D1FB68BB6005E0FB680133FB6066
:10F6A000FB68032BEED9BB6818461437BD465DF8DE
:10F6B000047B7047A4F8020080B483B000AF786088
:10F6C000044A7B6813441B7818460C37BD465DF826
:10F6D000047B7047A4F8020076DF704700BF18462D
:10F6E000A8DF704700BF184669DF704700BF1846A3
:10F6F00066DF704700BF184632DF704700BF18460C
:10F7000080B485B000AF7860254BFB607B68002B30
:10F7100040D0244B1A68F9687B6800BF00BF00BF67
:10F7200000BF00BF00BF00BF00BF8A422FD000BF94
:10F7300000BF00BF00BF00BF00BF00BF00BF00BFD1
:10F7400000BF00BF00BF00BF00BF00BF00BF00BFC1
:10F7500000BF00BF00BF00BF00BF00BF00BF00BFB1
:10F7600000BF00BF00BF00BF00BF00BF00BF00BFA1
:10F7700000BF00BF00BF00BF00BF00BF00BF00BF91
:10F7800000BF00BF00BF00BF00BF00BF00BF013B04
:10F79000C3D17B6000BF1437BD465DF8047B704762
:10F7A0000024F400D425002080B582B000AF78603A
:10F7B0007B684FF47A7202FB03F31846FFF7A0FF51
:10F7C00000BF0837BD4680BD80B500AF0120FFF700
:10F7D000D5FE1920FFF7E8FF0120FFF7E1FE00BF8B
:10F7E00080BD80B500AF0220FFF7C8FE1920FFF7EB
:10F7F000DBFF0220FFF7D4FE00BF80BD80B582B0E2
:10F8000000AF0A49012004F069FF0246084B1A6064
:10F81000074B1B687B607B68002B02D0786804F084
:10F8200073FA00BF0837BD4680BD00BFB9FC0100B8
:10F830001834002080B582B000AF02F091FA024681
:10F840000F4B1A600E4B1B687B607B68002B02D04D
:10F85000786804F059FA0B4A01210B4802F0B6FA15
:10F860000246074B1A60064B1B683B603B68002B47
:10F8700002D0386804F048FA00BF0837BD4680BDA2
:10F8800018340020D1000200A8F8020080B582B030
:10F8900000AF0B4B002240F23331184602F0CAFA97
:10F8A0000246084B1A60074B1B687B607B68002B85
:10F8B00002D0786804F028FA00BF0837BD4680BD42
:10F8C0008C2600201834002080B584B000AF0020C2
:10F8D00004F0EAFE0246154B1A60144B1B68FB60ED
:10F8E000FB68002B02D0F86804F00EFA05F025F84A
:10F8F00002460E4B1A600D4B1B68BB60BB68002BA9
:10F9000002D0B86804F000FAFFF7F6FE0246074B93
:10F910001A60064B1B687B607B68002B02D07868FE
:10F9200004F0F2F900BF1037BD4680BD1834002046
:10F9300090B591B000AF78607B681B88112B21D007
:10F94000112B04DC012B48D0102B07D097E0512B52
:10F9500056D0562B2ED03B2B19D090E0072004F028
:10F96000A3FE0246484B1A60474B1B68FB63FB6BC8
:10F97000002B02D0F86B04F0C7F97B689A88434BE0
:10F980001A807CE0414B4FF6FF721A8077E07B686B
:10F990009B8813211846FFF79FFE02463A4B1A60D8
:10F9A000394B1B68BB63BB6B002B61D0B86B04F099
:10F9B000ABF95DE07B689B8813211846FFF78CFE4E
:10F9C0000246314B1A60304B1B687B637B6B002B0C
:10F9D00050D0786B04F098F94CE02C4B1B88002138
:10F9E0001846FFF785FE0246274B1A60264B1B6818
:10F9F0003B633B6B002B3FD0386B04F085F93BE059
:10FA00007B6807F11C040633186859689A68DB683C
:10FA10000FC43B7F002B31D097F82430042B07D044
:10FA200097F82430062B03D097F82430052B25D1E6
:10FA30003B7F022B02D102233B7301E001233B7386
:10FA40004FF4C1733B827B689B8807F10C0211461F
:10FA50001846FFF745FE02460B4B1A600A4B1B681F
:10FA6000FB62FB6A002B09D0F86A04F04DF905E04F
:10FA700000BF04E000BF02E000BF00E000BF00BF25
:10FA80004437BD4690BD00BF18340020B825002083
:10FA900080B582B000AF7860786809F075FB78684F
:10FAA0000CF014FC79680D480DF0E6FF79680C48FD
:10FAB0000DF062FF786809F093FA786804F05EFF51
:10FAC0007868FFF735FF786808F05AFB79680548D1
:10FAD0000AF078FF00BF0837BD4680BD2826002009
:10FAE000102600207826002080B582B000AF786014
:10FAF000786804F0C5F8786808F060FB00BF083744
:10FB0000BD4680BD80B590B000AF664B1B687B6181
:10FB100007F114000023D82263490EF09BF8F86324
:10FB2000FB6BBB63BB6B002B02D0B86B04F0ECF833
:10FB300000233B6107F1100318460EF013F902464B
:10FB40005A4B1A60594B1B687B637B6B002B02D0AE
:10FB5000786B04F0D9F83B1D0C2200211846FFF702
:10FB6000F7FB00233B713A693B1D19460120FFF763
:10FB7000BBFD02464D4B1A604C4B1B683B633B6B15
:10FB8000002B02D0386B04F0BFF83B1D0C22002183
:10FB90001846FFF7DDFB01233B7100237B71002337
:10FBA000BB713A693B1D19464020FFF79DFD024697
:10FBB0003E4B1A603D4B1B68FB62FB6A002B02D078
:10FBC000F86A04F0A1F83B1D0C2200211846FFF74B
:10FBD000BFFB01233B719E23FB803A693B1D194605
:10FBE0002320FFF781FD0246304B1A602F4B1B6824
:10FBF000BB62BB6A002B02D0B86A04F085F83B1DDB
:10FC00000C2200211846FFF7A3FB01233B714FF4A0
:10FC1000A0733B810123BB713A693B1D194620202B
:10FC2000FFF762FD0246214B1A60204B1B687B6286
:10FC30007B6A002B02D0786A04F066F807F11003A3
:10FC400018460EF0A3F80246184B1A60174B1B68B3
:10FC50003B623B6A002B02D0386A04F055F8144826
:10FC60000EF038F80246114B1A60104B1B68FB610E
:10FC7000FB69002B02D0F86904F046F80D480EF03D
:10FC80003FF80246094B1A60084B1B68BB61BB6911
:10FC9000002B02D0B86904F037F800BF4037BD46EA
:10FCA00080BD00BFC8F80200D8270020183400200B
:10FCB00091FA0100E9FA010080B584B000AF034673
:10FCC000FB71FB79072B1ED00A2B02D0042B03D02B
:10FCD00035E0FFF7F9FD32E01B4B1B881321184676
:10FCE000FFF7FAFC0246194B1A60184B1B68082BE9
:10FCF00022D0164B1B68FB60FB68002B1CD0F868F9
:10FD000004F002F818E0104B1B884FF6FF72934284
:10FD100014D108F081FA02460C4B1A600B4B1B6899
:10FD2000082B0BD0094B1B68BB60BB68002B05D0B0
:10FD3000B86803F0E9FF01E000BF00E000BF00BFCA
:10FD40001037BD4680BD00BFB82500201834002004
:10FD500080B584B002AF78605B4B1B780F2B00F24C
:10FD60008580594B1B781B017A681178574AD1540A
:10FD7000554B1B781B0101337A685178534AD15493
:10FD8000514B1B781B0102337A6891784F4AD1544A
:10FD90004D4B1B781B0103337A68D1784B4AD15401
:10FDA000494B1B781B0104337A681179474AD154B7
:10FDB000454B1B781B0105337A685179434AD1546E
:10FDC000414B1B781B0106337A6891793F4AD15425
:10FDD0003D4B1B781B0107337A68D1793B4AD154DC
:10FDE000394B1B781B0108337A68117A374AD15492
:10FDF000354B1B781B0109337A68517A334AD15449
:10FE0000314B1B781B010A337A68917A2F4AD154FF
:10FE10002D4B1B781B010B337A68D17A2B4AD154B6
:10FE2000294B1B781B010C337A68117B274AD1546C
:10FE3000254B1B781B010D337A68517B234AD15423
:10FE4000214B1B781B010E337A68917B1F4AD154DA
:10FE50001D4B1B781B010F337A68D17B1B4AD15491
:10FE6000194B1B780133DAB2174B1A70164B1B78FB
:10FE70000F2B24D9FFF7A8FC154B1B881A46154BEE
:10FE80001B781946144B1B8800930B46134900201E
:10FE90000EF044FF104B1B880C49184600F05AFF27
:10FEA0000D4B1B8801339AB20B4B1A804FF48072B2
:10FEB00000210648FFF74CFA034B00221A7000BFDE
:10FEC0000837BD4680BD00BFD0260020D4260020C4
:10FED000AC260020BC260020D4270020CCF802004D
:10FEE00090B583B000AF0446084611461A46234633
:10FEF000FB8003467B710B463B711346FB7010225F
:10FF000000211F48FFF724FAFB88DAB21C4B1A7055
:10FF1000FB881B0A9BB2DAB2194B5A70184A7B79DC
:10FF20009370174A3B79D370154AFB781371144AC2
:10FF30003B7E5371124B01229A71114B0122DA71EF
:10FF40000F4B01221A720E4B01225A720C4B0122E6
:10FF50009A720B4B0122DA72094B01221A73084B79
:10FF600001225A73064B01229A73054B0122DA7360
:10FF70000348FFF7EDFE00BF0C37BD4690BD00BF44
:10FF8000C026002080B500AF07F01CFD00F0ECFD9E
:10FF90000346DBB22C3BDAB2014B1A7000BF80BDC6
:10FFA000BC2600200000000090B583B002AF3E4B9D
:10FFB0001B78032B05D9FFF7E5FF3B4B00221A7096
:10FFC00005E0394B1B780133DAB2374B1A70374BE7
:10FFD0001B8801339AB2354B1A80354800F04AFB32
:10FFE000334B1B6818460FF003F84FF00002314BFB
:10FFF0000FF08EF903460C461846214628A3D3E994
:020000022000DC
:1000000000230EF0A7FE03460C46184621460FF0CB
:1000100067FA0346DAB2284B1A70254B5B6818461C
:100020000EF0E6FF4FF00002224B0FF071F903468D
:100030000C46184621464FF00002204B0EF08AFE77
:1000400003460C46184621460FF04AFA0346DAB238
:100050001B4B1A70164B9B6818460EF0C9FF4FF0E9
:100060000002184B0FF054F903460C46184621467F
:100070000FF036FA0346DAB2134B1A700B4B18889E
:10008000124B19780C4B1A780D4B1C780E4B1B78C1
:1000900000932346FFF724FF00BF0437BD4690BD01
:1000A000000000000088C340D6270020AC260020B6
:1000B000B0260020000024401D34002000006940CC
:1000C0001C34002000408F4014340020BC26002047
:1000D00080B582B000AF7860FFF776FBFFF764FF72
:1000E00000BF0837BD4680BD80B500AF1549002070
:1000F0000EF0D8FAFFF79EFBFFF780FBFFF702FD3B
:1001000000F0A4FC00F024F800F06AF900F09CFD77
:1001100000F0B2FD4FF4FA70FFF746FB00F01CFF51
:1001200003461A46084B1A80074B1B881A46074994
:1001300000200EF0F3FDFFF754FBFFF7A7FB20BFF5
:10014000FDE700BFE0F80200D4270020F0F802002D
:1001500080B586B000AF3B4600221A605A609A60B4
:10016000DA6008233B6005237B604FF0CC73BB60F3
:1001700003233B7339460023094A0A4806F050F925
:1001800078617B693B613B69002B02D0386903F0E1
:10019000BBFD044806F0BEF900BF1837BD4680BD60
:1001A000B102020008F9020080B588B002AF034630
:1001B000FB710B46BB7113467B71BB793B737B793B
:1001C0007B73114B00221A7007F10C02F97901239D
:1001D000009302230D4806F095FC78617B693B6132
:1001E0003B69002B02D0386903F08EFD00BF064B3F
:1001F0001B78DBB283F00103DBB2002BF7D100BF29
:100200001837BD4680BD00BFB028002008F90200A5
:1002100080B588B002AF03460A46FB711346BB7136
:1002200000237B61204B00221A70BA1DF97901234B
:10023000009301231D4806F065FC78617B693B61F2
:100240003B69002B02D0386903F05EFD00BF164BFE
:100250001B78DBB283F00103DBB2002BF7D17B69A3
:10026000002B1BD1104B00221A7007F10B02F979F9
:1002700001230E4806F06EFC78617B69FB60FB6829
:10028000002B02D0F86803F03FFD00BF064B1B783F
:10029000DBB283F00103DBB2002BF7D1FB7A184607
:1002A0001837BD4680BD00BFB028002008F9020005
:1002B00080B483B000AF786039607B681B78002B16
:1002C00000D003E0044B01221A7000BF00BF0C37BE
:1002D000BD465DF8047B7047B028002080B485B02F
:1002E00000AF3B600346FB710B46BB7113467B714D
:1002F0000023FB60074B00221A70FB68002B02D121
:10030000044B00221A7000BF1437BD465DF8047B11
:10031000704700BFB028002080B485B000AF78607F
:10032000254BFB607B68002B40D0244B1A68F96892
:100330007B6800BF00BF00BF00BF00BF00BF00BFA1
:1003400000BF8A422FD000BF00BF00BF00BF00BF68
:1003500000BF00BF00BF00BF00BF00BF00BF00BFA5
:1003600000BF00BF00BF00BF00BF00BF00BF00BF95
:1003700000BF00BF00BF00BF00BF00BF00BF00BF85
:1003800000BF00BF00BF00BF00BF00BF00BF00BF75
:1003900000BF00BF00BF00BF00BF00BF00BF00BF65
:1003A00000BF00BF00BF013BC3D17B6000BF14375B
:1003B000BD465DF8047B70470024F400D42500207E
:1003C00080B582B000AF78607B684FF47A7202FB30
:1003D00003F31846FFF7A0FF00BF0837BD4680BDF6
:1003E00080B582B000AFD0217620FFF711FF034621
:1003F000FB71FB79602B0DD1B622E0217620FFF74F
:10040000D3FE6420FFF7DCFF762000F007F86420BD
:10041000FFF7D6FF00BF0837BD4680BD80B582B06C
:1004200000AF0346FB717A4B1B7803F00703DAB287
:10043000FB79F2211846FFF7B7FE764B1B785B017C
:100440005AB2754B1B789B005BB213435AB2734B85
:100450001B785BB213435BB2DAB2FB79F421184626
:10046000FFF7A2FE6E4B1B785B015AB26D4B1B78F7
:100470009B005BB213435BB2DAB2FB79F5211846FD
:10048000FFF792FEF879684B1A228821FFF726FFC2
:10049000654B5B781B021AB2634B1B781BB213438C
:1004A0001BB29AB2614B1A805F4BDB781B021AB207
:1004B0005D4B9B781BB213431AB25D4B1A805A4BAB
:1004C0005B791B021AB2584B1B791BB213431AB249
:1004D000584B1A80544BDB791B021AB2524B9B7952
:1004E0001BB213431BB29AB2534B1A804E4B5B7A2A
:1004F0001B021AB24C4B1B7A1BB213431AB24F4B5E
:100500001A80494BDB7A1B021AB2474B9B7A1BB20B
:1005100013431AB24A4B1A80434B5B7B1B021AB23D
:10052000414B1B7B1BB213431AB2464B1A803E4B06
:10053000DB7B1B021AB23C4B9B7B1BB213431AB2F0
:10054000414B1A80384B5B7C1B021AB2364B1B7C2A
:100550001BB213431AB23D4B1A80334BDB7C1B0298
:100560001AB2314B9B7C1BB213431AB2384B1A8020
:100570002D4B5B7D1B021AB22B4B1B7D1BB2134311
:100580001AB2344B1A80284BDB7D1B021AB2264B61
:100590009B7D1BB213431AB22F4B1A80224B5A7EFB
:1005A0002E4B1A70F879204B0722E121FFF796FEB7
:1005B0001D4B5B781B021AB21B4B1B781BB21343FB
:1005C0001AB2274B1A80184B9A78264B1A70164B82
:1005D000DB781A02144B1B791B01DBB213431B118E
:1005E0009AB2214B1A80104B5B791A020E4B1B7981
:1005F00003F0F00313431B119AB21C4B1A800A4BF1
:100600009A791B4B1A7000BF0837BD4680BD00BFEA
:10061000BB250020BC250020BA250020BD250020D8
:10062000BF250020BE250020203400203C340020BF
:10063000403400207E340020643400204C340020FC
:10064000663400204E3400205C34002080340020CA
:100650003A340020683400207C34002042340020EA
:10066000823400207A3400203E3400207834002088
:100670005434002090B583B000AF7860424B08221C
:10068000F7217620FFF72AFE3F4B1B781A043E4BDA
:100690005B781B0213433C4A927813431B091A46AA
:1006A0003A4B1A60384BDB781A04374B1B791B0224
:1006B0001343354A527913431B091A46334B5A6088
:1006C000314B9B791B021AB22F4BDB791BB21343C0
:1006D0001BB21A462D4B9A602C4B5B682C4A136058
:1006E0002B4B1B68DA102B4B1B885B00D31A2A4A52
:1006F000B2F9002002FB03F3DB12284A1360244BFB
:100700001B681B11234A12889B1A214A1268121176
:1007100020490988521A02FB03F31B13204AB2F93D
:10072000002002FB03F39B131E4A13601B4B1A6845
:100730001C4B1B6813441C4A1360144B1A681A4B59
:100740001B681946104600F0ABF803461A467B6852
:100750001A607B681C1D144B1B68184600F08EF84D
:10076000034623607B6803F10804084B9A680E4B2C
:100770001B681946104600F019F80346236000BFB5
:100780000C37BD4690BD00BFB42800206C3400205B
:10079000583400203C3400204034002044340020F1
:1007A0007E340020603400208834002080B485B07E
:1007B00000AF786039603B68A3F59633FB607B68D7
:1007C0009A03284B1B881B05D21A274B1B881946F6
:1007D000FB6803FB01F3D31A03F58043DB13234AC1
:1007E00012781146FA6802FB01F292122049097848
:1007F0000846F96801FB00F1C91201F5004101FB4F
:1008000002F2921202F500121A49B1F9001001FB2E
:1008100002F202F50052921302FB03F3FB60FB6845
:10082000DB13FA68D21302FB03F3DB11124A1278CE
:1008300002FB03F31B11FA68D31AFB60FB6823EA7F
:10084000E373FB60FB68B3F1C85FA8BF4FF0C85308
:10085000FB60FB681B1318461437BD465DF8047B2C
:10086000704700BF3E34002078340020543400200C
:100870007A340020823400204234002080B485B0D5
:1008800000AF78607A6813469B00134480331B12D4
:10089000FB60FB6818461437BD465DF8047B704763
:1008A00080B483B000AF786039603B685B10A3F51B
:1008B0007A435A4A1360594B1B689B10574A126877
:1008C000921002FB03F3DB12554AB2F9002002FB3F
:1008D00003F3544A1360544BB3F900301A464F4B9C
:1008E0001B6803FB02F35A004E4B1B6813444D4A2E
:1008F00013604C4B1B689A104C4BB3F900301B042F
:100900001344484A13604A4BB3F900301946434B2D
:100910001B689B10414A1268921002FB03F35B13A1
:1009200003FB01F3DA10434BB3F9003019463B4B9C
:100930001B6803FB01F35B1013449B14374A1360DD
:10094000364B1B6803F500433B4A128802FB03F356
:10095000DB13324A1360314B1B68002B01D100239B
:1009600056E07B685B422F4A126812139B1A40F6CE
:10097000354202FB03F303F1434303F5A0032F4A7F
:1009800013602E4B1B68002B09DB2C4B1B685B0094
:10099000224A1268B3FBF2F3284A136008E0274B9F
:1009A0001B681E4A1268B3FBF2F35B00234A136014
:1009B000234BB3F900301946204B1B68DB081F4A54
:1009C0001268D20802FB03F35B0B03FB01F31B135A
:1009D000124A1360194B1B689B081A46194BB3F94E
:1009E000003003FB02F35B130E4A13600B4B1A68D3
:1009F0000C4B1B681344144AB2F9002013441B111A
:100A00000E4A126813441A460C4B1A600B4B1B68B3
:100A100018460C37BD465DF8047B7047483400200B
:100A200080340020503400205C3400204E340020FC
:100A3000663400204C3400206434002084340020CC
:100A40007C340020683400203A34002080B588B01F
:100A500000AF184A3B1D07CA03C31A70164900208D
:100A600006F06AFEF861FB69BB61BB69002B02D02E
:100A7000B86903F049F93B1D1946002006F0C4FE91
:100A8000F861FB697B617B69002B02D0786903F018
:100A90003BF90121094806F013FFF861FB693B614E
:100AA0003B69002B02D0386903F02EF900BF2037D4
:100AB000BD4680BD10F90200C10A0200BC2800201A
:100AC00080B584B000AF78607B681B78002B3BD189
:100AD0007B685B680121184606F0F2FEF860FB684F
:100AE000BB60BB68002B02D0B86803F00DF97B68CF
:100AF0005B68B3F9003007EE903AB8EEE77ADFEDC5
:100B0000146AC7EE267A134BC3ED007A114BD3ED6E
:100B1000007A9FED117A67EE877A9FED107A67EE83
:100B2000877A0C4BC3ED007A0A4BD3ED007A9FED28
:100B30000C7A67EE877AFCEEE77AC7ED007A3B889D
:100B40009BB21AB2074B1A8000BF1037BD4680BD5A
:100B500000008045C028002085EBB13F333353406F
:100B60000000C842C428002080B400AF034BB3F992
:100B700000301846BD465DF8047B7047C42800204D
:100B800080B485B000AF7860254BFB607B68002B9C
:100B900040D0244B1A68F9687B6800BF00BF00BFD3
:100BA00000BF00BF00BF00BF00BF8A422FD000BF00
:100BB00000BF00BF00BF00BF00BF00BF00BF00BF3D
:100BC00000BF00BF00BF00BF00BF00BF00BF00BF2D
:100BD00000BF00BF00BF00BF00BF00BF00BF00BF1D
:100BE00000BF00BF00BF00BF00BF00BF00BF00BF0D
:100BF00000BF00BF00BF00BF00BF00BF00BF00BFFD
:100C000000BF00BF00BF00BF00BF00BF00BF013B6F
:100C1000C3D17B6000BF1437BD465DF8047B7047CD
:100C20000024F400D425002080B582B000AF7860A5
:100C30007B684FF47A7202FB03F31846FFF7A0FFBC
:100C400000BF0837BD4680BD90B587B000AF084BE8
:100C50003C1D0FCB84E80F00391D002300220548FE
:100C600004F042F878617B6918461C37BD4690BD98
:100C700024F902001CF9020080B584B002AF0B4BCE
:100C80009F221A70042200210948FEF761FB042309
:100C90000093074B01220549064804F0E9F8786003
:100CA0007B6818460837BD4680BD00BFC8280020B5
:100CB000D42800201CF9020080B582B002AF0222C5
:100CC00000210E48FEF744FB0D4B05221A7002234B
:100CD00000930A4B01220A490A4804F0C9F8074B5D
:100CE0005B785B08DBB203F00103002B01D100232A
:100CF00000E001231846BD4680BD00BFD02800207B
:100D0000C82800201CF9020080B582B002AF022280
:100D100000210D48FEF71CFB0C4B05221A70022324
:100D20000093094B01220949094804F0A1F8064B38
:100D30005B7803F00103002B01D0012300E00023C6
:100D40001846BD4680BD00BFD0280020C82800201E
:100D50001CF9020080B586B002AF03463960FB8003
:100D6000FB88B3F5805F80F0928000F01DF90346A8
:100D700083F00103DBB2002B40F08B80FFF7C4FF50
:100D80000346002B40F08780FB88184600F08EF861
:100D9000034683F00103DBB2002B7ED1FB881846AB
:100DA00000F0F6F8B860842200213E48FEF7D0FA41
:100DB0003C4B02221A70BB681B14DAB2394B5A70D2
:100DC000BB681B12DAB2374B9A70BB68DAB2354B8C
:100DD000DA700023FB810423FB810AE0FB89FA8996
:100DE000043A39680A4411782E4AD154FB890133F8
:100DF000FB81FB89832BF1D90023009300238422FC
:100E00002849294804F034F80023FB810AE0142023
:100E1000FFF70AFFFFF778FF0346002B06D0FB8998
:100E20000133FB81FB89092BF1D900E000BF0023CE
:100E3000FB810AE01420FFF7F7FE00F0B5F8034647
:100E4000002B06D1FB890133FB81FB89092BF1D9EA
:100E500000E000BF134B8022DA700423FB810AE01C
:100E6000FB89FA897C3239680A4411780D4AD154D9
:100E7000FB890133FB81FB89832BF1D9002300938C
:100E8000002384220749084803F0F2FF06E000BF70
:100E900004E000BF02E000BF00E000BF1037BD4625
:100EA00080BD00BFE02800201CF9020080B586B09C
:100EB00002AF0346FB80FB88B3F5805F01D30023BC
:100EC00040E0042200212148FEF742FA08220021D6
:100ED0001F48FEF73DFAFB88184600F059F8F86005
:100EE0001A4B03221A70FB681B14DAB2174B5A70A4
:100EF000FB681B12DAB2154B9A70FB68DAB2134B1F
:100F0000DA7008230093124B04221049114803F0B1
:100F1000AFFF0F4B1B799AB20D4B5B799BB2134419
:100F20009AB20B4B9B799BB213449AB2084BDB7974
:100F30009BB213447B817B89B3F57F7F01D1012371
:100F400000E0002318461037BD4680BDCC280020A5
:100F5000D82800201CF9020080B582B000AF002321
:100F6000FB800BE0FB881846FFF7A0FF0346002B31
:100F700001D0FB8808E0FB880133FB80FB88B3F5D8
:100F8000805FEFD34FF4805318460837BD4680BDCD
:100F900080B483B000AF78607B681B0218460C37C2
:100FA000BD465DF8047B704780B584B002AF002376
:100FB000FB710D4B06221A700023009300230122BF
:100FC00009490A4803F054FFFFF776FE0346002B59
:100FD00002D00123FB7101E00023FB71FB7918466D
:100FE0000837BD4680BD00BFC82800201CF902009C
:100FF00080B588B000AF78600023FB774BE02A4BC8
:101000001A68FB7FDB001344BB61BB691B781A467F
:10101000012393407B61254B1A687B691340002BA9
:1010200036D07B69DA43214B1B6813401F4A13609B
:10103000BB691B78184604F013FE0346FB74BB69BA
:101040001B781A46012393401A46194B1B6813401C
:10105000FA7CB96909788A40934219D1FB7CBA6954
:101060005278012A0CBF01220022D2B293420CBF57
:1010700001230023DBB2FB60BB695B68002B07D058
:10108000BB695B68BA691278F968C9B210469847BB
:10109000FB7F0133FB77074B1B78FA7F9A42AED375
:1010A00000BF2037BD4680BD642900209429002060
:1010B000902900206829002080B584B000AF7860B6
:1010C0000B46FB7001227B6802FA03F3FB601E4BA8
:1010D000184600F0E3FEB860BB68002B30D11B4B14
:1010E0001A68FB681340002B22D1786804F0B8FD21
:1010F0000346002B06D0164B1A68FB681343144AAC
:10110000136006E0FB68DA43114B1B681340104A7A
:1011100013600E4B1A68FB6813430C4A13600A48AD
:101120000C4B1B680022194600F084FEB86008E0F2
:10113000FB68DA43054B1B681340044A136000E068
:1011400000BF1037BD4680BD7029002094290020C3
:10115000902900206C29002080B588B000AFF8608D
:101160000B467A60FB727B68042B01D8072349E0A9
:1011700004F0A2FC034683F00103DBB2002B07D08E
:1011800004F05AFCF861FB69002B01D0FB6939E0DF
:101190001E4AFB6813601E4AFB7A13701D4A7B6867
:1011A00013601D4B00221A601C4B00221A601EE0C7
:1011B000FB7ADB00FA681344BB6103233B75002311
:1011C0007B750023BB750023FB75BB699B787B7522
:1011D000BB691B78184607F11403114A194604F03D
:1011E0007DFCF861FB69002B01D0FB690AE0FB7A0A
:1011F0005A1EFA72002BDBD10A4A00210A4800F07D
:10120000E5FD034618462037BD4680BD6429002011
:10121000682900206C2900209029002094290020B2
:10122000B9100200F10F020034F9020080B582B05B
:1012300000AF00237B600CE00B4B1A687B68DB007F
:1012400013441B780121184604F0A2FC7B6801338B
:101250007B60064B1B781A467B689A42ECD80023C9
:1012600018460837BD4680BD642900206829002043
:1012700080B483B000AF0346FB71094997F907308A
:101280005B09FA7902F01F02012000FA02F241F82C
:10129000232000BF0C37BD465DF8047B704700BFBC
:1012A00000E100E080B483B000AF0346FB71094960
:1012B00097F907305B09FA7902F01F02012000FA62
:1012C00002F2203341F8232000BF0C37BD465DF801
:1012D000047B704700E100E080B483B000AF0346B8
:1012E000FB71094997F907305B09FA7902F01F028F
:1012F000012000FA02F2403341F8232000BF0C37EE
:10130000BD465DF8047B704700E100E080B483B027
:1013100000AF0346FB71094997F907305B09FA7979
:1013200002F01F02012000FA02F2603341F823208C
:1013300000BF0C37BD465DF8047B704700E100E05C
:1013400080B483B000AF03463960FB7197F9073072
:10135000002B0BDA0D49FB7903F00F03043B3A68CD
:10136000D2B25201D2B20B441A7609E0084997F979
:1013700007303A68D2B25201D2B20B4483F800234C
:1013800000BF0C37BD465DF8047B704700ED00E000
:1013900000E100E080B485B000AF7860254BFB60D1
:1013A0007B68002B40D0244B1A68F9687B6800BF2B
:1013B00000BF00BF00BF00BF00BF00BF00BF8A4228
:1013C0002FD000BF00BF00BF00BF00BF00BF00BFE5
:1013D00000BF00BF00BF00BF00BF00BF00BF00BF15
:1013E00000BF00BF00BF00BF00BF00BF00BF00BF05
:1013F00000BF00BF00BF00BF00BF00BF00BF00BFF5
:1014000000BF00BF00BF00BF00BF00BF00BF00BFE4
:1014100000BF00BF00BF00BF00BF00BF00BF00BFD4
:1014200000BF013BC3D17B6000BF1437BD465DF8F0
:10143000047B70470024F400D425002080B582B0DE
:1014400000AF7860054A7B68C2F808350721112093
:10145000FFF776FF00BF0837BD4680BD0010014092
:1014600080B500AF0D4B4FF48032C3F844230B4BD3
:101470004FF48032C3F804231120FFF747FF1120F7
:10148000FFF7F6FE054B01221A602F20FFF782FFBF
:10149000034B01221A7000BF80BD00BF0010014045
:1014A000B62A002080B500AF1120FFF7FBFE0F4BDE
:1014B0004FF48032C3F848230C4B4FF48032C3F80A
:1014C00008230A4B01225A602F20FFF763FF074BC6
:1014D00001229A60064B00221A602F20FFF75AFF64
:1014E000044B00221A7000BF80BD00BF00100140F5
:1014F000A82A0020B62A002080B400AF034BD3F8FE
:1015000004351846BD465DF8047B70470010014065
:1015100080B483B000AF786039607A683B68D31AD2
:1015200023F07F4318460C37BD465DF8047B7047B7
:1015300080B483B000AF7860044A7B68C2F840355D
:1015400000BF0C37BD465DF8047B704700100140BA
:1015500080B487B000AF7860294B1B68002B03D1A3
:10156000274A7B68136045E07B681A68244B1B6838
:101570001B689A4210D8224B1B68214A12681168D6
:101580007A6812688A1A1A601D4B1A687B68DA61D9
:101590001B4A7B6813602DE07B681B68FB60184B5F
:1015A0001B687B61164B1B683B6109E03B691B684C
:1015B000FA68D31AFB603B697B613B69DB693B617D
:1015C0003B69002B04D03B691A68FB689A42EDD353
:1015D0003B69002B05D03B691A68FB68D21A3B694E
:1015E0001A607B68FA681A607B683A69DA617B691D
:1015F0007A68DA6100BF1C37BD465DF8047B70472E
:10160000A42A002080B586B000AF7860294B1B6803
:10161000FB60284B1B687B617B693B6108E03A6992
:101620007B689A4208D03B697B613B69DB693B611F
:101630003B69002BF3D100E000BF3B69002B01D1D7
:10164000002333E07A693B699A4214D1194B1B6835
:10165000DB69184A1360174B1B68002B0BD1164B24
:1016600001229A60154B00221A60154B01221A7054
:101670002F20FFF78FFE3B691B68BB603B69DA696F
:101680007B69DA617B69DB693B613B69002B05D0D3
:101690003B691A68BB681A443B691A60054B1B68B2
:1016A000FA689A4214BF01230023DBB218461837A8
:1016B000BD4680BDA42A002000100140A82A0020B9
:1016C000B72A002080B500AF1120FFF705FE00BF4C
:1016D00080BD80B500AF1420FFF7FEFD00BF80BDC8
:1016E00080B582B000AF78607B685B697A68926988
:1016F0001046984700BF0837BD4680BD80B584B00E
:1017000000AF2B4B1B68002B4ED000237B60FFF7F4
:10171000F3FE0246274B1B6819461046FFF7F8FEFA
:10172000B860234B1B68FB601DE0FB681A68BB6850
:101730009A421CD8FB681B68BA68D31ABB60FB6866
:101740001B687A6813447B60FB683B60FB68DB695D
:10175000FB603B681B7C002B05D03B6800221A74A1
:101760003868FFF7BDFFFB68002BDED100E000BF4B
:10177000114B1A78114B1B789A420CD10F4B1B78E6
:101780000133DAB20D4B1A700C4B1B78022B02D1CD
:101790000A4B00221A70094B1B781946084A7B68CD
:1017A00042F82130FFF795FF00BF1037BD4680BDDE
:1017B000A42A0020A82A0020B42A0020B52A00204C
:1017C000AC2A002080B483B000AF7860194B1A783F
:1017D000194B1B789A4223D0164B1B780133DAB28F
:1017E000144B1A70134B1B78022B02D1114B0022A1
:1017F0001A70104B1B781A46104B53F822207B6846
:101800001A607B681A680E4B1B6813440C4A1360FD
:101810000B4B1B6823F07F43094A1360012303E04D
:101820007B6800221A60002318460C37BD465DF81D
:10183000047B7047B42A0020B52A0020AC2A00207F
:10184000A82A002080B489B000AFF860B9607A603F
:101850000023FB6138E0214B1B68BB61BB691A6840
:10186000FB689A4206D9BB691A68FB68D21ABB6941
:101870001A602DE0BB691B68FA68D31AFB60BB696C
:101880001B68FA691344FB61BB6900221A60134BA1
:101890001B687B61BB69DB69104A1360BB69DB684D
:1018A000002B11D0BA68FB69134423F07F42BB6957
:1018B0005A60BB69DA68BB699A607B681A68BB6961
:1018C000DA617B687A691A60044B1B68002BC2D10D
:1018D00000BF2437BD465DF8047B7047A42A002072
:1018E00080B588B000AF78600023FB77654B1B683C
:1018F0007B61A9E07B68002B05D07B68BB61BB697D
:10190000DB697B6060E0604B1B781A4613465B0026
:101910001344DB005C4A134404333B615A4B1B788D
:101920000133DAB2584B1A70574B1A78564B9B78E2
:101930009A4202D1544B00221A703B695B68BB612A
:101940003B691B78022B04D0032B1AD0012B1ED02D
:101950001CE03B695B681846FFF754FE0346002B0A
:1019600001D00123FB77BB6900221A746CE0454B60
:101970001B68FB60FB6800221A74FB68DB69414A44
:101980001360404B1B68002BF1D15DE05CE000BFB1
:10199000BB691B7C002B00D056E03B699A68BB6991
:1019A0005A603B69DA68BB699A603B691A69BB692E
:1019B000DA603B695A69BB699A61344B1B78002B2A
:1019C00002D0BB6900225A60BB695A68304B1B6861
:1019D000D31A23F07F432F4A93420ED8BB695A682B
:1019E0002B4B1B6819461046FFF792FD0246BB6958
:1019F0009B681A44BB691A6017E0254B1A68BB69DB
:101A00005B6819461046FFF783FDB860BB699A68AA
:101A1000BB689A4206D9BB699A68BB68D21ABB698F
:101A20001A6002E0BB6900221A60BB6900225A609A
:101A3000BB6900229A60BB6901221A74BB6900224B
:101A4000DA61B869FFF784FD7B68002B7FF452AF41
:101A50000D4B1A780C4B5B789A427FF44BAFFB7FAF
:101A6000002B04D1074B1A687B699A4201D00123ED
:101A700000E0002303F00103DBB218462037BD4627
:101A800080BD00BFA42A002098290020B72A00208A
:101A9000A82A0020FEFF7F0090B589B000AF7860D3
:101AA000274B1B68002B44D0254B1B681B68FB6130
:101AB000FFF722FDB861234B1B687B617969B86928
:101AC000FFF726FD034603333B611F4B1B7883F072
:101AD0000103DBB2002B01D0FFF7C2FC3A69FB69BE
:101AE000934238BF13467A6913447B617B6923F0C4
:101AF0007F437B617869FFF71BFDFFF7FDFCF86012
:101B0000B969F868FFF704FD0346DC1CB969786918
:101B1000FFF7FEFC03469C420DD9FFF7EDFC0346A0
:101B20001846FFF705FD2F20FFF734FCFFF7CAFD2D
:101B300001E0FFF7B7FC00BF2437BD4690BD00BFF2
:101B4000A42A0020A82A0020B62A002080B586B04A
:101B500000AF00237B600023FB75164B1B683B61C5
:101B6000154B1B68FB603B461846FFF72BFE0346F0
:101B7000FB72FB7A002B07D03B683A1D3969184687
:101B8000FFF760FE0123FB757B681846FFF7A8FE90
:101B90000346002B01D00123FB75FB7D002B02D0F7
:101BA000F868FFF779FF054B00221A7000BF18375D
:101BB000BD4680BDA82A0020A42A0020B72A002004
:101BC00080B483B000AF0346FB71044AFB795370C5
:101BD00000BF0C37BD465DF8047B70479829002094
:101BE00080B485B000AF7860134B5B780133FB7332
:101BF000114B9B78FA7B9A4201D10023FB730E4B69
:101C00001B78FA7B9A4201D100230EE07B68FA7BB5
:101C10001A70094B5B781A4613465B001344DB00CD
:101C2000054A13440433BB60BB6818461437BD46ED
:101C30005DF8047B704700BF9829002080B588B00C
:101C400000AFF860B9607A603B600023FB61002060
:101C500002F0B4F807F117031846FFF7C1FFB861A7
:101C6000BB69002B02D10423FB6117E0BB69012291
:101C70001A70BB69FA685A60FFF73EFC0246BB69FE
:101C80009A60BB69BA68DA60BB697A681A61BB6935
:101C90003A685A61FB7D1846FFF792FF002002F078
:101CA00097F8FB69002B01D1FFF713FDFB6918467C
:101CB0002037BD4680BD80B586B000AF78600B464A
:101CC000FB7000237B61002002F078F807F10F031E
:101CD0001846FFF785FF38613B69002B02D10423CA
:101CE0007B6109E03B69FA781A703B697A685A604F
:101CF000FB7B1846FFF764FF002002F069F87B6960
:101D0000002B01D1FFF7E5FC7B6918461837BD466B
:101D100080BD000080B500AF0D4B0022C3F840210C
:101D20000B4B0022C3F84421094B0022C3F8482181
:101D3000074B0022C3F84C21054B0022C3F80021B9
:101D4000034B0022C3F80421FFF7D8FC00BF80BD7D
:101D50000010014080B500AFFFF7F8FE00BF80BD66
:101D600080B500AFFFF79EFB134B00221A70124B99
:101D700000225A70104B0B229A70104B00221A60EE
:101D80000F4B00221A700F4B00221A701420FFF71D
:101D9000BDFA07211420FFF7D3FA1420FFF768FAE1
:101DA0000720FFF74BFBFFF7A7FB0246064B1A6025
:101DB0000023184680BD00BF98290020A42A0020D7
:101DC000B42A0020B52A0020A82A002080B487B0B9
:101DD00000AFF8600B467A60FB72154B9B78002BC6
:101DE00001D108231DE07B68002B01D1072318E0F7
:101DF000FB68002B01D1072313E0FB681B681B7CE9
:101E0000002B01D008230CE0FB681B687B617B6919
:101E100000221A747B69FA7A5A747B697A685A616B
:101E2000002318461C37BD465DF8047B704700BF91
:101E30009829002080B586B000AFF860B9607A605C
:101E4000FB687B61144B9B78002B01D108231EE0BB
:101E5000FB68002B01D1082319E0BB68042B01D8D3
:101E6000072314E07B695B69002B01D108230EE096
:101E70007B695B7C012B01D1BB6800E000233B61E7
:101E80007B683A69B9687869FFF7D8FE0346184657
:101E90001837BD4680BD00BF9829002080B584B0AA
:101EA00000AF78607B68FB600D4B9B78002B01D105
:101EB000082310E07B68002B03D0FB685B69002BD4
:101EC00001D1082307E0FB6800221A740221F86898
:101ED000FFF7F1FE034618461037BD4680BD00BF30
:101EE0009829002080B483B000AF78607B6803F04D
:101EF0000303002B0CBF01230023DBB218460C3771
:101F0000BD465DF8047B704780B483B000AF0346E4
:101F1000FB71064B1A78FB791343DAB2034B1A7044
:101F200000BF0C37BD465DF8047B7047B82A00201F
:101F300080B483B000AF0346FB7197F90730DB43F1
:101F40005AB2074B1B785BB213405BB2DAB2044B58
:101F50001A7000BF0C37BD465DF8047B704700BFA8
:101F6000B82A002080B483B000AF0346FB71084B51
:101F70001A78FB791340DBB2002B14BF0123002336
:101F8000DBB218460C37BD465DF8047B704700BFD6
:101F9000B82A002080B584B000AF78600023FB60D1
:101FA0000EE00B4AFB6852F82330002B05D0084A9C
:101FB000FB6852F8233078689847FB680133FB6070
:101FC000FB68072BEDD900BF1037BD4680BD00BFB1
:101FD000BC2A002080B483B000AF786039607B6891
:101FE0001B78013B052B5BD801A252F823F000BF00
:101FF00009200200112002003120020063200200AB
:1020000083200200992002003B6800221A7048E0F9
:102010003B6801221A707B681A893B689A817B6849
:102020009A883B68DA817B68DA683B689A6038E0B6
:102030003B6802221A707B681A893B689A817B6828
:102040009A883B68DA817B68DA683B689A607B68CB
:102050001B7C062B0CBF01230023DAB23B681A74E9
:102060001FE03B6803221A707B68DA883B689A811C
:102070007B681A893B68DA817B68DA683B689A601A
:102080000FE03B6804221A707B68DA883B689A810B
:102090003B680022DA8104E03B6805221A7000E008
:1020A00000BF00BF0C37BD465DF8047B704700BF22
:1020B00080B483B000AF78607B689B884FF6FF7276
:1020C000934205D07B681B88002B01D0012300E0E0
:1020D000002303F00103DBB218460C37BD465DF860
:1020E000047B704780B582B000AF78607B68002BBE
:1020F00011D00D4B1A687B689A420CD80A4B5A686B
:102100007B689A4207D37868FFF7ECFE0346002B02
:1021100001D0012300E0002303F00103DBB21846E5
:102120000837BD4680BD00BFE425002080B584B0DF
:1021300000AF786039600023FB6012E0FB68DB00D1
:102140007A6813441B681846FFF7CCFE034683F0F9
:102150000103DBB2002B01D0002307E0FB68013351
:10216000FB60FA683B689A42E8D3012318461037AF
:10217000BD4680BD80B483B000AF03460A46FB80F5
:102180001346BB80FB880F4A1B01134408331A888F
:10219000BB881344BB80FB880A4A1B0113440A33E3
:1021A0001A88BB881344BB80BB8840F2FF3293423D
:1021B00094BF01230023DBB218460C37BD465DF8FF
:1021C000047B7047A02B002080B485B000AF7860FE
:1021D00039600A23FB6000237B811CE07B89134A62
:1021E0001B01134404331A683B689A4210D27B895E
:1021F0000E4A1B01134404331B6803F580523B68ED
:102200009A4205D90023FB607B687A891A8005E031
:102210007B8901337B817B89012BDFD9FB681846E1
:102220001437BD465DF8047B704700BFA02B00202B
:1022300080B483B000AF78600B467B807B681A89DE
:102240007B8813449BB203339AB27B681A817B6804
:102250005A897B88D31A9BB2033B9AB27B685A8116
:1022600000BF0C37BD465DF8047B704780B582B077
:1022700002AF064B1968002300930223044A054865
:1022800001F01CFC03461846BD4680BDC02B002053
:102290003CF90200E425002080B584B002AF7860EC
:1022A000002300930223054A7968054801F006FCE3
:1022B000034618460837BD4680BD00BF44F90200FA
:1022C000E425002080B584B000AF03463960FB8070
:1022D0000023FB73FB8803337B817B8940F2FD3253
:1022E000934201D9092334E00023BB8128E0BB8954
:1022F0001A4A1B0113441B78002B1ED17A89BB8913
:1023000011461846FFF736FF0346002B15D0012370
:10231000FB733B68BA891A80BB89BA890F491201DD
:102320000A440A3211887A890A4491B20B4A1B0185
:1023300013440A330A461A8005E0BB890133BB8186
:10234000BB89012BD3D9FB7B002B01D0002300E0FC
:10235000072318461037BD4680BD00BFA02B0020C4
:1023600080B483B000AF03460A46FB801346BB80AF
:10237000BB88BA880A4912010A440A321188FA88CD
:102380008A1A92B2033A91B2054A1B0113440A33E6
:102390000A461A8000BF0C37BD465DF8047B7047C3
:1023A000A02B002080B400AF054B1B680133044A0A
:1023B0001360034B1B681846BD465DF8047B7047ED
:1023C000DC2A002080B584B000AF03463960FB8072
:1023D0003B681B68FB60FB68002B09D0FB68BB6097
:1023E000BB685B8803339B00FA681344FB601CE006
:1023F000FB88184A1B01134404331B680833FB6035
:1024000013E0FB68BB60B868FFF752FE0346002B81
:1024100004D03B68FA681A60012317E0BB685B8848
:1024200003339B00FA681344FB60FB88094A1B01D5
:10243000134404331B6803F58052FB689A4204D9A5
:10244000FB681B68B3F1FF3FDBD100231846103750
:10245000BD4680BDA02B002080B584B000AF786061
:1024600039607B685B681846FFF73CFE0346002B2B
:1024700019D07B681A89254B1B899A4213D17B6836
:102480001A687B685B689B689A420CD17B685B68C2
:1024900019463868FFF798FE0346002B0CBF01234E
:1024A0000023DBB22DE03B6800221A8024E00023E9
:1024B000BB6010E0BB68FB60FB689A687B681B68C8
:1024C0009A4208D1BA687B685A60104B1A897B68B7
:1024D0001A81012315E03B681B8807F108021146A9
:1024E0001846FFF76FFF0346002BE3D13B681B88BC
:1024F00001339AB23B681A803B681B88012BD6D9FE
:10250000002318461037BD4680BD00BFC82B0020F1
:1025100080B586B000AFF860B9607A603B60022099
:10252000FFF720FD034683F00103DBB2002B01D04F
:1025300002234FE07B68002B02D03B68002B44D184
:10254000052347E03B689B88244A1B0113441B7802
:10255000002B33D124E03B681B687B61FB68002BB8
:1025600006D07B699A88FB681B889A4200D017E0E6
:10257000BB68002B06D07B691A88BB681B889A420F
:1025800000D00DE07B699A687B681A603B681A6826
:102590007B685A60124B1A897B681A81002319E004
:1025A0003B689B883A6811461846FFF70BFF0346C5
:1025B000002BD0D13B6800221A6000E000BF3B68CE
:1025C0009B8801339AB23B689A803B689B88012BB9
:1025D000B8D90A2318461837BD4680BDA02B002065
:1025E000C82B002080B500AF124B1A6F1346DB00DA
:1025F0009B1A9B000F4A13441C2200211846FCF72B
:10260000A7FE0C4B5B6F002B0BD00A4B1B6F0133EB
:1026100003F00303074A1367064B5B6F013B054A50
:102620005367044B5B6F002B14BF01230023DBB205
:10263000184680BDE02A002080B483B000AF7860E7
:102640007B681B68084A934206D07B681B6803F1CD
:1026500008027B681A6002E07B68044A1A600C3743
:10266000BD465DF8047B7047902B0020582B00205E
:1026700080B483B000AF78600E4B5B6C002B12D03F
:102680000C4B1B6CDB000B4A1A447B681A60094B2D
:102690001B6C013303F00703064A1364054B5B6CA4
:1026A000013B044A536400BF0C37BD465DF8047B10
:1026B000704700BF582B002080B483B000AF786013
:1026C0007B681B78022B03D07B681B78032B0DD112
:1026D000094B1B6C7A68927D1344074A1364064BBE
:1026E0005B6C7A68927D9B1A034A536400BF0C3777
:1026F000BD465DF8047B7047582B0020B0B588B00C
:1027000000AFF860B9607A600023FB772E4B5B6FF7
:10271000032B54D82D4B5A6CBB68C3F108039A4263
:102720004DD8294B5A6F284B1B6F134403F00303FA
:102730007B6125497A691346DB009B1A9B00CA1806
:10274000FB6814461D460FCD0FC495E8070084E8CA
:1027500007001D4B5B6F01331B4A5367BB68002B9F
:102760002BD01A4B5A6C194B1B6C134403F0070304
:102770007B617B69DB00154A13443B610023BB612D
:1027800011E03969BB69DB007A681A440B4692E8AC
:10279000030083E8030007F110031846FFF74CFF1E
:1027A000BB690133BB61BA69BB689A42E9D3074B85
:1027B0005A6CBB681344054A53640123FB77FB7FC3
:1027C00018462037BD46B0BDE02A0020582B002017
:1027D00080B586B002AF786039607B681A1D00232F
:1027E000009301233968094801F068F90346FB604A
:1027F0007B6802221A74FB68002B01D1002300E0E1
:102800000E2318461037BD4680BD00BFE4250020CA
:1028100080B586B002AF786039603B6803F108018B
:102820007B6803F10C020023009301230B4801F0A5
:1028300045F90346FB607B689B7D002B01D003229A
:1028400000E001227B681A74FB68002B01D1002391
:1028500000E00E2318461037BD4680BDE425002059
:1028600080B586B002AF786039603B68191D7B681F
:1028700003F108020023009301230C4801F01EF924
:102880000346FB607B681B78032B01D1052200E027
:1028900006227B681A74FB68002B01D1002300E03C
:1028A0000E2318461037BD4680BD00BFE42500202A
:1028B00080B586B002AF78600B467B800023009322
:1028C00001230C4A79680C4801F0F8F80346FB73C1
:1028D000FB7B002B01D00E2307E07B88074A1B01FE
:1028E00013440E3301221A70002318461037BD46D8
:1028F00080BD00BF38F90200E4250020A02B002095
:1029000080B588B000AF786007F1080300221A6034
:102910005A609A607B68DB68BB6007F1160207F1BA
:10292000080311461846FFF797FD0346002B11D008
:10293000FB68BB61BB699A887B68DA80BB691A88CF
:102940007B681A81FB68FA8A11461846FFF7B0FFC8
:10295000F86101E00A23FB61FB6918462037BD4698
:1029600080BD000080B586B000AF78607B68981DA0
:1029700007F108020D4B0021FFF7CAFD78617B6962
:10298000002B08D1FA68094B9B8819461046FFF7BF
:102990008FFF786104E0082200210448FCF7D8FC8E
:1029A0007B6918461837BD4680BD00BFD82B002074
:1029B00080B586B002AF786039600023BB6007F154
:1029C00008031846FFF754FE7B689B8A9B003A6811
:1029D000D118BB681A68BB68988800230093034627
:1029E000114801F06BF80346FB607B689A8ABB686C
:1029F0009B8813449AB27B689A827B689B7D013BDB
:102A0000DAB27B689A757B689B7D002B02D17B686C
:102A100001221A74FB68002B01D1002300E00E2371
:102A200018461037BD4680BDE425002080B483B031
:102A300000AF154B1B8901339AB2134B1A81124B0D
:102A400000225A80104B00221A730023FB8011E0F1
:102A5000FB88FA880D4912010A441278002A0CBF3B
:102A600001220022D1B2084A13440A469A72FB8816
:102A70000133FB80FB88012BEAD900BF0C37BD4630
:102A80005DF8047B704700BFC82B0020A02B0020FE
:102A900080B485B000AF78600023FB730023BB8156
:102AA00023E0BB89164A13449B7A002B1AD0BB89BA
:102AB000134A134400229A72BB89124A1B01134421
:102AC0000C331B88002B0DD1BB890E4A1B0113440C
:102AD0000E331B78002B05D07B68BA891A8001233E
:102AE000FB7305E0BB890133BB81BB89012BD8D9BE
:102AF000FB7B18461437BD465DF8047B704700BF6A
:102B0000C82B0020A02B002080B500AF074B05226A
:102B10001A70074B02229A80054B19680023012284
:102B2000044801F035F80346184680BDC82B002044
:102B3000C02B0020E425002080B582B000AF124BEE
:102B40005B887B807B88114A1B0113440C331B88F4
:102B5000002B10D17B880D4A1B01134404331968E4
:102B6000002301220A4801F013F803467B60064B5C
:102B700004221A7002E0FFF7C7FF78607B681846EE
:102B80000837BD4680BD00BFC82B0020A02B002009
:102B9000E425002080B586B002AF104B5B68FB6077
:102BA0000F4B1A680E4B9B889B001344BB60FB685D
:102BB0005B880333FB80094B03221A70074B5A686A
:102BC000F988002300930B46B968064800F076FFA9
:102BD000034618461037BD4680BD00BFC82B0020F5
:102BE000C02B0020E425002080B582B000AF0A4B46
:102BF0005B880A491846FFF7E5FB0346002B03D024
:102C0000FFF7C8FF786002E0FFF796FF78607B6807
:102C100018460837BD4680BDC82B0020CC2B0020AD
:102C200080B500AF074B06221A70064B5B88064A38
:102C30001B01134404331B681846FFF72DFB0346A2
:102C4000184680BDC82B0020A02B002080B500AF07
:102C5000054B07221A70044B00225A60FFF706FB4F
:102C60000346184680BD00BFC82B002080B500AFCA
:102C70000C48FFF70DFF034683F00103DBB2002B86
:102C80000BD0094B00221A70074B00225A80064BCA
:102C900000225A6041F61D5302E0FFF7A5FF0346EC
:102CA000184680BDCA2B0020C82B002080B483B0FA
:102CB00000AF0A4B5B687B607B685B8803337B807B
:102CC000074B9A887B8813449AB2054B9A8000BFC1
:102CD0000C37BD465DF8047B704700BFC82B002051
:102CE000C02B002080B483B000AF144B1B687B6006
:102CF000134B5B88134A1B01134404331B680F4AB0
:102D000013600F4B5B880F4A1B01134404337A682E
:102D10001A600B4B5B881846084B9988094A0301D7
:102D2000134408330A461A80044B02229A8000BFDB
:102D30000C37BD465DF8047B704700BFC02B0020F8
:102D4000C82B0020A02B002080B500AF1A4B1B78A9
:102D5000072B2DD801A252F823F000BF7D2D0200D1
:102D6000B12D0200B12D0200892D0200952D020027
:102D7000A12D0200A12D0200A92D0200FFF756FE91
:102D80000D4B01221A7014E0FFF790FF0A4B02224C
:102D90001A700EE0FFF7A6FF074B06221A7008E034
:102DA000054B07221A7004E0034B01221A7000E061
:102DB00000BF00BF80BD00BFC82B002080B586B01B
:102DC00000AF786039600F237B617B68002B04D0F3
:102DD0000120FFF7ADF8012398E03B681B79032B36
:102DE00000F2888001A252F823F000BFFD2D0200FE
:102DF0000B2E0200732E0200932E0200FFF736FA0C
:102E000078613B6801221A7177E00023FB7400238C
:102E10003B821CE03B8A3F4A1B0113441B78022B78
:102E200012D13B8A3B4A1B01134404331B681846EA
:102E3000FFF732FA78613B8A364A1B0113440022BD
:102E40001A700123FB7405E03B8A01333B823B8A05
:102E5000012BDFD9FB7C83F00103DBB2002B4BD0CD
:102E60000220FFF751F80120FFF762F841F61D53E9
:102E70004CE0294B196800230122284800F088FE05
:102E800003467B61244B02229A803B6800221A7120
:102E900033E0214B1B681846FFF7FEF97861204BA1
:102EA0005B88FB811C4B1B68BB60FB89194A1B01BB
:102EB000134404331B68184A1360FB89154A1B012D
:102EC00013440433BA681A60FB89134A9188114A83
:102ED0001B01134408330A461A800F4B02229A80C2
:102EE000FB890C4A1B01134400221A703B68002224
:102EF0001A7102E000BF00E000BF7B69002B04D024
:102F00000120FFF715F80E2300E0002318461837BC
:102F1000BD4680BDA02B0020C02B0020E425002052
:102F2000C82B002080B586B000AF786039603B6860
:102F30005B8A1B013B4A13443B617B68002B07D033
:102F40003B68DB8819463869FFF772F9012364E0B2
:102F50003B695A683B691B899B001344FB603B68D3
:102F60001B7C062B4CD801A252F823F0AF2F020095
:102F7000D32F0200BB2F0200C72F0200892F0200AF
:102F8000DF2F0200F92F0200274B00225A603B6816
:102F90009B69254A136025492348FFF75DFA0346DC
:102FA00083F00103DBB2002B01D00A2335E0F9687E
:102FB0003868FFF70DFC786125E0F9683868FFF79D
:102FC00027FC78611FE0F9683868FFF7F1FC786149
:102FD00019E0F9683868FFF743FC786113E0124B99
:102FE0005A68124B1B8819461046FFF761FC78613E
:102FF0003B6806221A7406E041F61D537B6102E02D
:103000000F237B6100BF7B69002B05D03B68DB8809
:1030100019463869FFF70CF97B6918461837BD4621
:1030200080BD00BFA02B0020E02B0020EC2B002057
:1030300080B584B000AF786039607B68002B01D028
:10304000012323E03B681B79012B0BD0022B14D00A
:10305000002B16D13868FFF753FCF8603B6802225A
:103060001A7112E03868FFF77DFCF860FB680A2BE4
:103070000AD141F61D53FB6006E041F61D53FB608B
:1030800003E00F23FB6000E000BFFB681846103729
:10309000BD4680BD80B584B000AF78607B68002BF2
:1030A00001D001233CE0204B1B7B002B03D01E4BA7
:1030B00000221A7301E0FFF747FE1B4B1B78013B10
:1030C000062B29D801A252F823F000BFE9300200F4
:1030D000F1300200F9300200013102001931020022
:1030E0000931020011310200FFF7C0FDF86016E05F
:1030F000FFF77AFDF86012E0FFF74CFDF8600EE094
:10310000FFF71AFDF8600AE0FFF78AFDF86006E0B5
:10311000FFF79CFDF86002E00F23FB6000BFFB6837
:1031200018461037BD4680BDC82B002080B58AB038
:1031300000AF0346FB71334B1A6F1346DB009B1A3B
:103140009B00304A13443B623B6A1B78013B052BD2
:1031500029D801A252F823F0713102007F31020018
:103160007F3102008D3102008D3102009B3102005F
:10317000FB79396A1846FFF721FE786216E0FB7981
:10318000396A1846FFF7CEFE78620FE0FB79396A9C
:103190001846FFF74DFF786208E0FB791846FFF705
:1031A00079FF786202E00F237B6200BF7B6A002B0D
:1031B00023D07B6A41F61D52934202D100233B612A
:1031C00004E07B6A3B61386AFFF776FA07F10C038B
:1031D0001946386AFEF7FEFE07F10C031846FEF7A3
:1031E000D9FEFFF7FFF90346002B03D00020FFF7BD
:1031F0009DFF02E00420FEF79BFE00BF2837BD467E
:1032000080BD00BFE02A002080B500AF0420FEF79B
:10321000A9FE034683F00103DBB2002B05D0042096
:10322000FEF772FE0020FFF781FF00BF80BD80B572
:1032300082B000AF78600B46FB70FB781846FFF752
:1032400075FF00BF0837BD4680BD000080B590B057
:1032500000AFF860B9607A60FB700023FB86002342
:10326000FB870220FEF77EFE034683F00103DBB2FC
:10327000002B01D002239BE0BB68002B01D105236A
:1032800096E0BB681B884FF6FF72934203D0BB6881
:103290005B88002B01D104238AE0BB685A68BB68B5
:1032A0001B8919461046FEF741FF034683F00103D0
:1032B000DBB2002B01D003237AE07B68002B21D105
:1032C0000023BB630BE0BB685A68BB6BDB00134495
:1032D0009A88FB8F1344FB87BB6B0133BB63BB68CE
:1032E0001B891A46BB6B9A42EDD807F11202FB8F7D
:1032F00011461846FEF7E6FF38633B6B002B07D0FC
:103300003B6B55E07B681B887B827B685B88FB8717
:10331000FB783B75002387F824307B8AFB84BB68ED
:103320001B89DBB287F82A3003233B85FFF73AF885
:1033300003463B62BB681B88BB83BB685B883B83DF
:10334000FB8F7B83FB78032B05D1042387F8243084
:10335000FB681B68FB62FB8EFB83BB681B891946FD
:10336000BB685A6807F114031846FFF7C7F903460C
:1033700083F00103DBB2002B07D07A8AFB8F114662
:103380001846FEF7EDFF082312E0FB68002B0CD077
:10339000FB6800225A603A6AFB681A60FB680022E8
:1033A0009A72054B1A89FB681A81FFF72DFF0023DB
:1033B00018464037BD4680BDC82B002080B584B07C
:1033C00000AF786039607B68002B02D03B68002B2F
:1033D00001D1052328E007F10A0319467868FFF7B1
:1033E0003BF80346002B1ED07B685B68FB607B8943
:1033F0000F491A010A440C321288013291B20C4A68
:103400001B0113440C330A461A803B68FA681A60A1
:103410007B685B6803F10C023B685A607B680122A1
:103420009A72002300E00A2318461037BD4680BD7B
:10343000A02B002080B584B000AF78607B68002BA3
:1034400001D105232EE007F10A0319467868FFF73A
:1034500003F80346002B22D07B89144A1B01134436
:103460000C331B88002B17D07B689B7A002B13D062
:103470007B890E491A010A440C321288013A91B232
:103480000A4A1B0113440C330A461A807B68002247
:103490009A720023FB6004E00623FB6001E00A232C
:1034A000FB60FB6818461037BD4680BDA02B00208E
:1034B00080B584B000AF78600B467B800220FEF7B9
:1034C00051FD034683F00103DBB2002B01D0022340
:1034D00016E07B68002B01D1052311E007F10A02F9
:1034E0007B8811461846FEF7EDFEF860FB68002B5E
:1034F00005D17A897B681A807B687A885A80FB6854
:1035000018461037BD4680BD80B584B000AF7860E6
:103510000220FEF727FD034683F00103DBB2002BF8
:1035200001D002232DE07B68002B01D1052328E088
:103530007B681B88022B01D9042322E07B681B884F
:103540001B01124A1344BB60BB685B891A467B6847
:103550005B880333D31A002B10DB7B685A887B68A7
:103560001B8819461046FEF7FBFE7B6800221A8076
:103570007B6800225A800023FB6001E00423FB608B
:10358000FB6818461037BD4680BD00BFA02B002049
:1035900080B582B000AF78603960022300223968BC
:1035A0007868FFF753FE034618460837BD4680BDCE
:1035B00080B584B000AFF860B9607A607B68002B9A
:1035C00001D1052306E002237A68B968F868FFF79D
:1035D0003DFE034618461037BD4680BD80B582B01B
:1035E00000AF786039607B68002B01D1052306E0CD
:1035F0000323002239687868FFF728FE034618463F
:103600000837BD4680BD80B58AB000AF0346FB8059
:103610000220FEF7A7FC034683F00103DBB2002B78
:1036200001D002231BE0FB884FF6FF72934201D1C9
:10363000042314E005233B7301233B74FB887B8246
:1036400007F10C03002200211846FFF757F8034644
:10365000002B03D0FFF7D8FD002300E00823184615
:103660002837BD4680BD80B584B000AFBA607B60AE
:103670000346FB810B46BB8107F10C0107F10E00ED
:103680007B68BA68FEF744FF034618461037BD460C
:1036900080BD80B584B000AF0346B9607A60FB811D
:1036A00007F10E017B68BA680020FEF731FF034680
:1036B00018461037BD4680BD80B584B000AF0346C4
:1036C000B9607A60FB8107F10E007B68BA6800215F
:1036D000FEF71EFF034618461037BD4680BD80B476
:1036E00083B000AF786039607B68002B02D03B6804
:1036F000002B01D1052304E07B681A683B681A603F
:10370000002318460C37BD465DF8047B704729DF5F
:10371000704700BF184628DF704700BF184680B5C5
:1037200086B000AF78600B46FB7007F108031022EB
:1037300000211846FBF70CFE7B681B7A012B02D098
:10374000022B09D015E000233B727B681B693B61AB
:103750007B689B8ABB820CE001233B727B689A8961
:103760007B68DB89D31A9BB23B827B689B897B8217
:1037700000BF7B685B68FB607B681B689B68F978AF
:1037800007F108021046984700BF1837BD4680BDB4
:1037900080B483B000AF78607B68002B09D07B6871
:1037A000074A934205D37B68064A934201D201231C
:1037B00000E0002318460C37BD465DF8047B7047D7
:1037C000E4250020F425002080B584B000AF7860A7
:1037D0007B689B8A1A467B68DB8AD31AB3F5806FB5
:1037E00006DA7B689A8A7B68DB8AD31AFB8102E05F
:1037F0004FF48063FB817B681A697B68DB8A9B00DE
:10380000D0187B68DA687B68DB8A9B001344FA89EE
:103810001946FFF77CFF034618461037BD4680BDAA
:1038200080B582B000AF78607B689B891846FFF74F
:1038300072FF034618460837BD4680BD80B400AF0E
:10384000104B5B6E013B0F4A53660E4B5B6E002BB9
:1038500006D10D4B1B7823F00203DAB20A4B1A7023
:10386000084B1B6E0133074A1366064B1B6E042B75
:1038700002D1044B00221A6600BFBD465DF8047BEE
:10388000704700BFF02B0020EE2B002080B582B0E7
:1038900000AF1F4B1A6E13465B001344DB001C4A3B
:1038A00013443B601A4B5B6E002B2CD03B681B7A99
:1038B000012B02D0022B05D009E03868FFF784FF06
:1038C000786007E03868FFF7ABFF786002E0092313
:1038D0007B6000BF7B68112B0ED10E4B1B7823F051
:1038E0000203DAB20B4B1A700A4B1B7843F0040345
:1038F000DAB2084B1A7006E07B68002B03D009216E
:103900003868FFF70CFF00BF0837BD4680BD00BF19
:10391000F02B0020EE2B002080B500AF0B4B1B7866
:1039200003F00203002B0ED1084B1B7803F00403B5
:10393000002B08D1054B1B7843F00203DAB2034B8E
:103940001A70FFF7A3FF00BF80BD00BFEE2B002061
:1039500080B584B000AF7860284B00221A707B6875
:103960001B7A012B02D0022B27D042E07B689B8A76
:103970001A467B68DB8AD31AB3F5806F06DA7B6858
:103980009A8A7B68DB8AD31AFB8102E04FF480635A
:10399000FB817B68DA8AFB8913449AB27B68DA82FE
:1039A0007B68DA8A7B689B8A9A421FD100217868FB
:1039B000FFF7B5FEFFF742FF18E07B689B890133F4
:1039C0009AB27B689A817B68DB8901339AB27B6803
:1039D000DA817B68DA897B681B8A9A4208D10021E8
:1039E0007868FFF79CFEFFF729FF01E000BF00E0C9
:1039F00000BF00BF1037BD4680BD00BF582C00205F
:103A000080B582B000AF78600B4B1B780133DAB21F
:103A1000094B1A70084B1B78032B08D9064B002260
:103A20001A7008217868FFF77AFEFFF707FF00BFDA
:103A30000837BD4680BD00BF582C002080B584B03B
:103A400000AF78601C4B5B6E042B01D100232EE08D
:103A5000194B1A6E184B5B6E1344032B05D8164B8B
:103A60001A6E154B5B6E134405E0134B1A6E124B26
:103A70005B6E1344043BFB600F4B5B6E01330E4ADD
:103A80005366FA6813465B001344DB000A4A13448A
:103A9000182200211846FBF75BFCFA6813465B000E
:103AA0001344DB00044A1A447B681A600123184659
:103AB0001037BD4680BD00BFF02B002080B586B01A
:103AC00000AFF860B9607A607B80304B1B7803F000
:103AD0000103002B01D1012354E0F868FFF758FEE1
:103AE000034683F00103DBB2002B01D0022349E03F
:103AF0007B68002B02D0BB68002B01D1032341E07F
:103B00007B6803F00303002B04D1BB6803F00303BD
:103B1000002B01D0062335E0FB681A68BB689A4287
:103B200007D8FB685A687B889B00B9680B449A42A7
:103B300001D2052326E07B88002B01D1042321E05C
:103B400007F114031846FFF779FF034683F00103DA
:103B5000DBB2002B01D0072314E07B693A6A5A607C
:103B60007B69FA681A607B6901221A727B697A683C
:103B7000DA607B69BA681A617B697A889A82FFF792
:103B8000CBFE002318461837BD4680BDEE2B002023
:103B900080B586B000AFF860B9603B601346FB802B
:103BA0002B4B1B7803F00103002B01D101234BE0C9
:103BB000F868FFF7EDFD034683F00103DBB2002B4D
:103BC00001D0022340E0BB68002B01D103233BE07E
:103BD000BB68C3F30B03002B01D0062334E0FB6862
:103BE0001A68BB689A4207D8FB881B03BA681A4454
:103BF000FB685B689A4201D9052325E0FB88002B0E
:103C000001D1042320E007F114031846FFF716FF43
:103C1000034683F00103DBB2002B01D0072313E03E
:103C20007B693A685A607B69FA681A607B6902228C
:103C30001A727B69BA68120B92B29A817B69FA8810
:103C40001A82FFF769FE002318461837BD4680BD6B
:103C5000EE2B002080B483B000AF78607B68002B2F
:103C600001D1032304E0054B5A6E7B681A600023E0
:103C700018460C37BD465DF8047B7047F02B0020DA
:103C800080B584B000AF78601D4B1A6E13465B00A0
:103C90001344DB001A4A1344FB601A4B1B7803F0F1
:103CA0000203002B0ED07B68022B02D0032B04D022
:103CB00020E0F868FFF74CFE1CE0F868FFF7A0FE74
:103CC00000BF17E00F4B1B7803F00403002B11D04B
:103CD0000C4B1B7823F00403DAB20A4B1A70084B22
:103CE0005B6E002B06D0074B1B7843F00203DAB261
:103CF000044B1A70FFF7CAFD00BF1037BD4680BDE8
:103D0000F02B0020EE2B002080B586B000AF78604D
:103D10000023BB8100233B617B687B6107F10C03BF
:103D20001A46002144F2010000F018F800BF1837CD
:103D3000BD4680BD80B400AFBFF34F8F0549054B32
:103D4000DB6803F4E062044B1343CB60BFF34F8F97
:103D500000BFFDE700ED00E00400FA0580B584B087
:103D600000AFF860B9607A60FFF7E4FF00BF10377A
:103D7000BD4680BD80B400AF72B6054B1B680133F1
:103D8000034A136000BFBD465DF8047B704700BF67
:103D90005C2C002080B400AF074B1B68013B064A37
:103DA0001360054B1B68002B00D162B600BFBD46F7
:103DB0005DF8047B704700BF5C2C002080B582B0AA
:103DC00000AF7860FFF7D6FF00BF0837BD4680BD63
:103DD00080B582B000AF0346FB71FFF7DBFF00BF89
:103DE0000837BD4680BD80B483B000AF78600B4615
:103DF0007B807B681A687B88012101FA03F31A43F0
:103E00007B681A6000BF0C37BD465DF8047B7047C5
:103E100080B483B000AF78600B467B807B681A6803
:103E20007B88012101FA03F3DB431A407B681A60A7
:103E300000BF0C37BD465DF8047B704780B483B08B
:103E400000AF78600B467B807B88012202FA03F387
:103E50001A467B681340002B14BF01230023DBB2FA
:103E600018460C37BD465DF8047B704780B584B0BA
:103E700000AF78600023FB810CE0FB89194678686D
:103E8000FFF7DCFF0346002B01D0FB8907E0FB892D
:103E90000133FB81FB891F2BEFD94FF6FF731846C7
:103EA0001037BD4680BD80B586B002AFF860B960FE
:103EB00011461A460B46FB8013467B71FA887B79C4
:103EC000009313460122B968F86800F004F800BFB7
:103ED0001037BD4680BD80B586B000AFF860B960D0
:103EE0007A607B80FB68002B3AD0BB68002B37D010
:103EF0007B68002B34D000237B612EE07B695B0064
:103F0000FA6813441B887A889A4223D100233B61C4
:103F10001BE097F82030002B0AD03B699B00BA6861
:103F200013447A6992B211461846FFF75CFF09E024
:103F30003B699B00BA6813447A6992B211461846ED
:103F4000FFF766FF3B6901333B613A697B689A4240
:103F5000DFD305E07B6901337B617B691F2BCDD902
:103F60001837BD4680BD80B586B000AFF860B96037
:103F70001346FB80FB68002B18D000237B6112E006
:103F80007B695B00FA6813441B88FA889A4207D160
:103F90007B699BB21946B868FFF750FF034606E0FD
:103FA0007B6901337B617B691F2BE9D900231846AC
:103FB0001837BD4680BD80B596B000AFF860B960D7
:103FC0007A6000233B61BB68002B1FD000237B6518
:103FD00019E07B6D9BB219467868FFF72FFF034607
:103FE000002B0DD03B695A1C3A617A6D5200B968BA
:103FF0000A4412885B0007F158010B4423F8442C53
:104000007B6D01337B657B6D1F2BE2D9FB68184606
:1040100007F11003442219460BF019FCF8685837D1
:10402000BD4680BD80B483B000AF78604FF0A04340
:1040300018460C37BD465DF8047B704780B584B0E8
:1040400000AF78600B46FB703B1D1846FFF7EAFF98
:10405000F8607A687968FB6801F5E07153F82130FF
:1040600023F44031FB6802F5E07243F822107A68CD
:104070007968FB6801F5E07153F82130F97809049B
:104080001943FB6802F5E07243F8221000BF1037B5
:10409000BD4680BD80B586B000AF03460A46FB71C1
:1040A0001346BB710023FB7500233B61FB79184667
:1040B000FBF7DEFA38613B69032B5CD8BB79012B37
:1040C00004D0022B4CD0002B2ED054E032493A6958
:1040D00013465B0013440B441B78FB752E493A6969
:1040E00013465B0013440B4401331B78002B0DD0A7
:1040F0002A4B2B4A4FF480511846FDF79BFEF8607F
:10410000FB68002B02D1264AFB79137022493A69D9
:1041100013465B0013440B4402331978214A3B6970
:1041200013440A461A7026E01C4B1846FDF7B6FEEB
:104130001C4A3B691344197817483A6913465B00D7
:104140001344034402331B78994213D112493A694C
:1041500013465B0013440B4402331B78FB7509E0E4
:104160000D493A6913465B0013440B4401331B7835
:10417000FB7500E000BFFB7D002B08D00A4B1B68DD
:10418000002B04D0084B1B68FA7D1046984700BFEF
:104190001837BD4680BD00BFB02C0020BC2C0020CD
:1041A000DC2C0020E02C0020AC2C002080B582B05C
:1041B00000AF78607B681B7802211846FFF76AFF22
:1041C00000BF0837BD4680BD80B582B000AF0D4B43
:1041D0001B78002B0FD000237B6008E07B68022B4C
:1041E00002D07868FBF7DCF97B6801337B607B6881
:1041F000022BF3D901E0FBF7E5F900BF0837BD4614
:1042000080BD00BF682C00202DE9F04F8BB000AFBF
:104210000346FB7700237B6200233B62C64B1B787F
:10422000002B04D0C44A00231370FFF7CDFFFB7F9F
:10423000172B00F2088201A252F823F09D420200DF
:10424000A9420200A94202002D430200A943020034
:104250000F44020087440200A5440200B344020058
:10426000D1440200EF4402000D4502002B4502003C
:10427000454502004545020045450200454502000E
:1042800045450200F3450200FF45020011460200C9
:10429000234602003B4602003B460200FFF794FF24
:1042A000A64AFB7F1370CFE10020FBF743F90346DA
:1042B000002B0CD00020FBF773F9FB7F022B02D1FF
:1042C0004FF4E16301E04FF47A633B620AE00020BF
:1042D000FBF754F9FB7F022B01D1C82301E04FF417
:1042E000C8733B62954AFB7F1370954D3B6A4FF054
:1042F0000004E2037A617A6942EA53427A61DB039D
:104300003B61D7E9040110F57A6041F100014FF4F7
:10431000FA524FF000030BF003F903460C4600225B
:1043200019462846FDF786FD78628DE10020FBF7EF
:1043300001F90346002B0CD00020FBF731F9FB7F7D
:10434000032B02D14FF4487301E04FF47A633B62D0
:104350000AE00020FBF712F9FB7F032B01D1C823F1
:1043600001E04FF4C8733B62744AFB7F1370744DD5
:104370003B6A4FF000044FEAC43B4BEA534B4FEA11
:10438000C33A1AF57A604BF100014FF4FA524FF03C
:1043900000030BF0C5F803460C46002219462846D8
:1043A000FDF748FD78624FE10020FBF7C3F80346B4
:1043B000002B06D00020FBF7F3F84FF47A633B6242
:1043C00005E00020FBF7DAF84FF4C8733B625B4A64
:1043D000FB7F13705A4D3B6A4FF000044FEAC4391B
:1043E00049EA53494FEAC33818F57A6049F10001A8
:1043F0004FF4FA524FF000030BF092F803460C46CC
:10440000002219462846FDF715FD78621CE10020C0
:10441000FBF790F80346002B0BD00020FBF7C0F809
:10442000FB7F052B01D1C82301E04FF47A633B6287
:104430000AE00020FBF7A2F8FB7F052B01D1C8237F
:1044400001E04FF4C8733B623C4AFB7F13703C4B66
:104450003B613B6A4FF00004E60346EA5346DD0346
:1044600015F57A6046F100014FF4FA524FF000035F
:104470000BF056F803460C46002219463869FDF742
:10448000D9FC7862E0E00020FBF7C4F82B4AFB7F00
:1044900013702B4B00224FF4CD711846FDF7CAFC68
:1044A0007862D1E00020FBF769F8244AFB7F1370A3
:1044B000CAE0214B01221A700120FBF7ABF8204B18
:1044C00000224FF4CD711846FDF7B4FC7862BBE0D2
:1044D000194B01221A700120FBF79CF8184B00229F
:1044E0004FF400611846FDF7A5FC7862ACE0124B72
:1044F00001221A700120FBF78DF8114B00224FF4B6
:10450000CD711846FDF796FC78629DE00A4B0122BA
:104510001A700120FBF77EF8094B00224FF400616E
:104520001846FDF787FC78628EE0FBF75FF8034AD8
:10453000FB7F137088E000BF612C0020602C0020FE
:104540006C2C0020434B1846FDF7A8FC7862FB7FDB
:10455000C3F111033B623B6A002B43D07B6A002B03
:1045600040D13B6A012B36D93A4D3B6A9BB299B296
:104570004FF000020B461446DB1844EB04045B18B2
:1045800044EB0204E000F860F86840EA5370F86019
:10459000DB00BB60D7E902345B1844EB0204A204E1
:1045A0007A607A6842EA93327A609B043B60D7E98A
:1045B000003413F57A6044F100014FF4FA524FF0E1
:1045C00000030AF0ADFF03460C46002219462846B8
:1045D000FDF730FC78620220FAF7D0FF1E4B012273
:1045E0001A7031E00220FAF7DBFF1B4B00221A7031
:1045F0002AE0FFF7E9FD194AFB7F137024E0FFF77B
:10460000E3FD0020FAF7BAFF144AFB7F13701BE0AA
:10461000FFF7DAFD0120FAF7B1FF104AFB7F1370B4
:1046200012E0FFF7D1FD0020FAF7A8FF0120FAF70A
:10463000A5FF0A4AFB7F137006E0FAF7D7FF074A87
:10464000FB7F137000E000BF7B6A18462C37BD4625
:10465000BDE8F08F8C2C0020682C0020602C0020FE
:1046600080B582B000AF7860074B1B6803F0010390
:10467000002B04D0054B1B781846FFF7C5FD00BF83
:104680000837BD4680BD00BF642C0020602C002090
:1046900080B582B000AF78600220FAF7BBFF00BFA0
:1046A0000837BD4680BD000080B584B000AF03462A
:1046B000FB710023FB60084B1B6803F00103002B18
:1046C00004D0FB791846FFF79FFDF860FB68184699
:1046D0001037BD4680BD00BF642C002080B584B07B
:1046E00000AF786039600023FB60294A7B68136063
:1046F000284A3B6813607B6803F00203002B29D033
:104700000023BB6008E001220121B86800F052F8E4
:10471000F860BB680133BB60BB68032B02D8FB6841
:10472000002BF0D0FB68002B05D1CD2204211A48C4
:10473000FCF712FDF860FB68002B02D1FCF776FD58
:10474000F860FB68002B05D1144A00211448FDF7DE
:104750003DFBF8607B6803F00103002B01D0FAF702
:104760006BFFFB68002B05D10E4A00210E48FDF7B8
:104770002DFBF860FB68002B05D10C4A01210C4889
:10478000FDF724FBF860FB6818461037BD4680BD76
:10479000642C0020AC2C002058F90200AD4102002E
:1047A00054F90200614602004CF9020091460200F1
:1047B00050F9020080B485B000AF78600B46FB7002
:1047C0001346BB700023FB607B68032B35D8BB7896
:1047D000012B09D1FB78012B04D17B68DBB20E33AE
:1047E000DBB200E00023BB70FB78012B04D0022B6E
:1047F0000BD0002B13D01CE014497A6813465B00E1
:1048000013440B44BA781A7019E010497A681346B9
:104810005B0013440B440133BA781A700FE00B4964
:104820007A6813465B0013440B440233BA781A705B
:1048300005E00723FB6000BF01E00723FB60FB6886
:1048400018461437BD465DF8047B7047B02C002035
:1048500080B582B000AF78607868FAF72DFF034624
:1048600003211846FFF7EAFB002318460837BD4628
:1048700080BD80B582B000AF012200210020FFF78B
:1048800099FF78607B68002B04D07B68072B01D0F0
:104890007B681CE0072202210120FFF78BFF786074
:1048A0007B68002B04D07B68072B01D07B680EE06F
:1048B000042202210020FFF77DFF78607B68002B37
:1048C00004D07B68072B01D07B6800E000231846EA
:1048D0000837BD4680BD80B582B000AF01220221FD
:1048E0000020FFF767FF78607B68002B04D07B68AF
:1048F000072B01D07B681CE0072202210120FFF773
:1049000059FF78607B68002B04D07B68072B01D0AF
:104910007B680EE00A2200210020FFF74BFF786041
:104920007B68002B04D07B68072B01D07B6800E0FC
:10493000002318460837BD4680BD80B582B000AF61
:104940000020FFF785FF78607B68002B04D07B6830
:10495000062B01D07B680CE00120FFF779FF78601F
:104960007B68002B04D07B68062B01D07B6800E0BD
:10497000002318460837BD4680BD000080B584B0CE
:1049800000AF78607B681B88102B02D0112B18D0E9
:104990002FE01A4B1B68002B0DD1FFF76AFFF86060
:1049A000FB68002B07D0164B1B68002B03D0144B61
:1049B0001B68F8689847114B1B6801330F4A136056
:1049C00017E00E4B1B68013B0C4A13600B4B1B6836
:1049D000002B0DD1FFF77FFFF860FB68002B07D09D
:1049E000074B1B68002B03D0054B1B68F8689847E2
:1049F00000BF00BF1037BD4680BD00BFE82C0020BF
:104A0000E42C002080B485B000AF78600B467B803A
:104A10007B887A68134400221A607B887A68134482
:104A20001B68FB60FB6800BF1437BD465DF8047B64
:104A3000704780B483B000AF78600B467B807B8882
:104A40007A6813441B68002B14BF01230023DBB2D8
:104A500018460C37BD465DF8047B704780B483B0C0
:104A600000AF786039607B683A68C3F8042300BF00
:104A70000C37BD465DF8047B704780B483B000AF4F
:104A8000786039607B683A68C3F8082300BF0C3748
:104A9000BD465DF8047B704780B483B000AF78609A
:104AA0007B680122C3F8002500BF0C37BD465DF8C6
:104AB000047B704780B485B000AFF860B9607A605D
:104AC0003B60FB68BA68C3F80825FB687A68C3F8DE
