:020000021000EC
:10F0000000000120051203002D1203002F1203003F
:10F010003112030033120300351203000000000018
:10F020000000000000000000000000003712030094
:10F0300039120300000000003B1203003D120300E0
:10F04000956702003F12030001880200BD810200A3
:10F05000916602003F12030069710200DD8902001F
:10F06000ED9002003F1203003F1203003F12030025
:10F070003F1203003F1203003F1203003F12030040
:10F080003F120300652C02003F1203003F120300F1
:10F09000A52C02003F120300811103003F12030060
:10F0A0003F1203003F1203003F1203003F12030010
:10F0B0003F1203003F1203000000000000000000A8
:10F0C0003F1203003F1203003F1203003F120300F0
:10F0D0003F1203003F1203003F1203000000000034
:10F0E0000000000000000000000000000000000020
:10F0F0000000000000000000000000000000000010
:10F1000000000000000000000000000000000000FF
:10F1100000000000000000000000000000000000EF
:10F1200000000000000000000000000000000000DF
:10F1300000000000000000000000000000000000CF
:10F1400000000000000000000000000000000000BF
:10F1500000000000000000000000000000000000AF
:10F16000000000000000000000000000000000009F
:10F17000000000000000000000000000000000008F
:10F18000000000000000000000000000000000007F
:10F19000000000000000000000000000000000006F
:10F1A000000000000000000000000000000000005F
:10F1B000000000000000000000000000000000004F
:10F1C000000000000000000000000000000000003F
:10F1D000000000000000000000000000000000002F
:10F1E000000000000000000000000000000000001F
:10F1F000000000000000000000000000000000000F
:10F2000010B5054C237833B9044B13B10448AFF360
:10F2100000800123237010BD0426002000000000A0
:10F22000003103000C4B43B10C480D4910B5AFF34E
:10F2300000800C48036823B910BD0A48036833B93D
:10F240007047094B002BF7D0BDE810401847064B1C
:10F25000002BF5D0184700BF00000000003103006C
:10F2600008260020F025002000000000154B002B90
:10F2700008BF134B9D46A3F5803A00218B460F46ED
:10F280001348144A121A00F063F80F4B002B00D0F9
:10F2900098470E4B002B00D0984700200021040017
:10F2A0000D000D48002802D00C48AFF3008000F09C
:10F2B0002BF82000290001F011FC00F011F800BF2C
:10F2C0000000080000000120000000000000000015
:10F2D000042600206038002000000000000000002C
:10F2E00008B5074B044613B10021AFF30080054B6E
:10F2F0001868836A03B19847204600F031F800BFD0
:10F3000000000000242D030070B50D4E0D4CA41B11
:10F31000A4100025A54209D10B4E0C4C13F0F6FCAD
:10F32000A41BA4100025A54205D170BD56F82530B8
:10F3300098470135EEE756F8253098470135F2E752
:10F34000E8250020E8250020E8250020EC25002005
:10F3500002440346934200D1704703F8011BF9E7CA
:10F36000FEE700BF80B483B000AF78604FF0A043E9
:10F3700018460C37BD465DF8047B704780B584B0F5
:10F3800000AF7860084611461A460346FB700B46EC
:10F39000BB7013467B703B1D1846FFF7E3FFF86018
:10F3A0007A68F978BB785B0019437B789B00194336
:10F3B0003B7E1B0219433B7F1B041943FB6802F58C
:10F3C000E07243F8221000BF1037BD4680BD80B503
:10F3D00084B002AF786000230193002300930023E0
:10F3E000012201217868FFF7C9FF00BF0837BD4639
:10F3F00080BD80B584B000AF78603B1D1846FFF734
:10F40000B1FFF8607B68012202FA03F31946F8683D
:10F4100000F072F800BF1037BD4680BD80B584B0E3
:10F4200000AF78603B1D1846FFF79CFFF8607B68D3
:10F43000012202FA03F31946F86800F06CF800BFE5
:10F440001037BD4680BD80B584B000AF78603B1DED
:10F450001846FFF787FFF860FB68D3F80435BB60F8
:10F46000BB68DA437B68012101FA03F31A40FB68A9
:10F47000C3F808257B6801229A40BB681A40FB68E4
:10F48000C3F80C2500BF1037BD4680BD80B582B0E3
:10F4900000AF786039603B68002B03D17868FFF7D4
:10F4A000BDFF02E07868FFF7A4FF00BF0837BD4644
:10F4B00080BD80B584B000AF78603B1D1846FFF773
:10F4C00051FFF860F86800F00AF802467B6822FAFB
:10F4D00003F303F0010318461037BD4680BD80B426
:10F4E00083B000AF78607B68D3F8043518460C37DA
:10F4F000BD465DF8047B704780B483B000AF786090
:10F5000039607B683A68C3F8082500BF0C37BD46F0
:10F510005DF8047B704780B483B000AF78603960D9
:10F520007B683A68C3F80C2500BF0C37BD465DF810
:10F53000047B704780B584B000AF78600E4A7B686A
:10F5400013441B781846FFF7B4FF0346002B14BF83
:10F5500001230023FB73FB7B002B14BF012300233B
:10F56000DBB283F00103DBB203F00103DBB2184628
:10F570001037BD4680BD00BF282D030080B582B086
:10F5800000AF7860054A7B6813441B780021184659
:10F59000FFF77CFF00BF0837BD4680BD282D030064
:10F5A00080B582B000AF7860054A7B6813441B7851
:10F5B00001211846FFF76AFF00BF0837BD4680BD2E
:10F5C000282D030080B582B000AF0023FB7106E058
:10F5D000FB791846FFF7E4FFFB790133FB71FB79F8
:10F5E000022BF5D900BF0837BD4680BD80B582B07B
:10F5F00000AF0023FB7106E0FB791846FFF7BEFF62
:10F60000FB790133FB71FB79022BF5D900BF083779
:10F61000BD4680BD80B582B000AF7860054A7B688A
:10F6200013441B781846FFF70EFF00BF0837BD468E
:10F6300080BD00BF282D030080B582B000AF00233D
:10F640007B6009E0094A7B6813441B781846FFF782
:10F65000BEFE7B6801337B607B68022BF2D9FFF72B
:10F66000B1FF00BF0837BD4680BD00BF282D030095
:10F6700080B485B000AF78604FF0FF33BB600023EB
:10F68000FB600DE00B4AFB6813441B781A467B684D
:10F690009A4202D1FB68BB6005E0FB680133FB6066
:10F6A000FB68032BEED9BB6818461437BD465DF8DE
:10F6B000047B70472C2D030080B483B000AF7860CA
:10F6C000044A7B6813441B7818460C37BD465DF826
:10F6D000047B70472C2D030076DF704700BF18466F
:10F6E00078DF704700BF18467ADF704700BF1846C2
:10F6F0007CDF704700BF1846A8DF704700BF184680
:10F7000069DF704700BF184666DF704700BF1846C4
:10F7100032DF704700BF184680B485B000AF786014
:10F72000254BFB607B68002B40D0244B1A68F9689E
:10F730007B6800BF00BF00BF00BF00BF00BF00BFAD
:10F7400000BF8A422FD000BF00BF00BF00BF00BF74
:10F7500000BF00BF00BF00BF00BF00BF00BF00BFB1
:10F7600000BF00BF00BF00BF00BF00BF00BF00BFA1
:10F7700000BF00BF00BF00BF00BF00BF00BF00BF91
:10F7800000BF00BF00BF00BF00BF00BF00BF00BF81
:10F7900000BF00BF00BF00BF00BF00BF00BF00BF71
:10F7A00000BF00BF00BF013BC3D17B6000BF143767
:10F7B000BD465DF8047B70470024F400E42500207A
:10F7C00080B582B000AF78607B684FF47A7202FB3C
:10F7D00003F31846FFF7A0FF00BF0837BD4680BD02
:10F7E00080B500AF0120FFF7C9FE1920FFF7E8FF41
:10F7F0000120FFF7D5FE00BF80BD80B500AF02201D
:10F80000FFF7BCFE1920FFF7DBFF0220FFF7C8FE61
:10F8100000BF80BD80B582B000AF0A49012006F06C
:10F82000CFF90246084B1A60074B1B687B607B6868
:10F83000002B02D0786805F0D9FC00BF0837BD4620
:10F8400080BD00BFA50302006C37002080B582B0E8
:10F8500000AF0EF017FE0246074B1A60064B1B68FE
:10F860007B607B68002B02D0786805F0BFFC00BF8E
:10F870000837BD4680BD00BF6C37002080B584B01E
:10F8800000AF0346FB71FB79002B02D0FFF7DEFFD0
:10F890000BE0032009F012FFF860FB68BB60BB6857
:10F8A000002B02D0B86805F0A1FC00BF1037BD46A0
:10F8B00080BD80B483B000AF786000BF0C37BD4618
:10F8C0005DF8047B7047000080B588B000AF7860B9
:10F8D0007B681B780E2B72D801A252F823F000BF70
:10F8E000BFF90100BFF90100BFF90100BFF9010034
:10F8F0001DF9010033F90100ABF90100BFF9010066
:10F900006FF90100BFF9010083F9010061F90100FD
:10F9100097F90100BFF9010069F9010000233B726A
:10F920007B685B8807F10802114618460EF070FDEF
:10F9300050E005F039F80246284B1A60274B1B6847
:10F940000E2B3ED0254B1B68082B3AD0234B1B684F
:10F95000FB61FB69002B34D0F86905F047FC30E00F
:10F960000020FFF78BFF35E00EF062FD32E07B6890
:10F970001B69BB61BB69002B25D0B86905F036FC5B
:10F9800021E07B689B687B617B69002B1DD07869D7
:10F9900005F02CFC19E07B689B683B613B69002B00
:10F9A00015D0386905F022FC11E07B689B68FB608C
:10F9B000FB68002B0DD0F86805F018FC09E000BFCB
:10F9C00008E000BF06E000BF04E000BF02E000BFA7
:10F9D00000E000BF00BF2037BD4680BD6C3700206F
:10F9E00080B582B000AF03F063F902460F4B1A6096
:10F9F0000E4B1B687B607B68002B02D0786805F09B
:10FA0000F5FB0B4A01210B4803F088F90246074B2E
:10FA10001A60064B1B683B603B68002B02D03868BD
:10FA200005F0E4FB00BF0837BD4680BD6C37002001
:10FA3000C90A0200302D030080B582B000AF0B4B25
:10FA400000224FF48051184603F09CF90246084BFF
:10FA50001A60074B1B687B607B68002B02D07868BC
:10FA600005F0C4FB00BF0837BD4680BD9C260020C2
:10FA70006C37002080B586B000AF3B78012262F37E
:10FA800003033B703B78012262F307133B70254868
:10FA900013F034F903469AB23B4622491846FFF761
:10FAA00027FE0246204B1A601F4B1B687B617B6957
:10FAB000002B02D0786905F099FB40F24130FFF746
:10FAC0000FFE0246184B1A60174B1B683B613B69DF
:10FAD000002B02D0386905F089FB3B1D082200216C
:10FAE0001846FFF735FC4FF4A073BB804FF4027348
:10FAF000FB8000233B814FF4C8737B813B1D18467C
:10FB0000FFF7F2FD0246084B1A60074B1B68FB60CB
:10FB1000FB68002B02D0F86805F068FB00BF1837BF
:10FB2000BD4680BD342D03006C37002080B582B007
:10FB300000AF786039603968034811F0C9F900BF37
:10FB40000837BD4680BD00BF3826002080B582B092
:10FB500000AF0A490A480CF0DDFC0246094B1A6066
:10FB6000084B1B687B607B68002B02D0786805F02F
:10FB70003DFB00BF0837BD4680BD00BF2DFB010027
:10FB8000882600206C37002080B59EB000AF02238D
:10FB9000FB7007F15803142200211846FFF7D8FB29
:10FBA0000023BB65012387F85C30FB1C3B6697F89C
:10FBB0006430012262F3030387F8643097F86430FD
:10FBC000012262F3071387F8643097F865306FF30A
:10FBD000030387F8653097F865306FF3071387F8EC
:10FBE000653097F866306FF3030387F8663097F84F
:10FBF00066306FF3071387F8663097F86730012295
:10FC000062F3030387F8673097F86730012262F3E5
:10FC1000071387F8673097F86830012262F303030F
:10FC200087F8683097F86830012262F3071387F885
:10FC3000683007F158031946504811F08CF8024615
:10FC40004F4B1A604E4B1B687B677B6F002B02D0BB
:10FC5000786F05F0CBFA07F144031422002118460F
:10FC6000FFF776FB97F85130012262F3030387F820
:10FC7000513097F85130012262F3071387F8513061
:10FC800097F85230012262F3030387F8523097F855
:10FC90005230012262F3071387F8523097F853303D
:10FCA0006FF3030387F8533097F853306FF307135C
:10FCB00087F8533097F85430012262F3030387F832
:10FCC000543097F85430012262F3071387F8543008
:10FCD00000237B64012387F848300023FB646423FE
:10FCE00087F8503007F144031946264810F04BFAC4
:10FCF0000246234B1A60224B1B683B673B6F002B6D
:10FD000002D0386F05F072FA3B1D402200211846E0
:10FD1000FFF71EFB3B1D1C4918460BF02EF897F809
:10FD20004030012262F3030387F8403097F84030F7
:10FD3000012262F3071387F8403097F841306FF3E0
:10FD4000030387F8413097F841306FF3071387F8C2
:10FD500041303B1D184610F025FC0246084B1A6046
:10FD6000074B1B68FB66FB6E002B02D0F86E05F09C
:10FD70003DFA00BF7837BD4680BD00BF3826002061
:10FD80006C370020202600203C2D030080B584B075
:10FD900000AF78607B681B78002B11D10A4B1B8861
:10FDA0003B211846FFF798FC0246084B1A60074BA8
:10FDB0001B68FB60FB68002B02D0F86805F016FAA0
:10FDC00000BF1037BD4680BDB82500206C3700202D
:10FDD00080B582B000AF7860786805F007FA00BFA0
:10FDE0000837BD4680BD000080B588B000AF3B46F7
:10FDF0001C2200211846FFF7ABFA00233B604FF4AA
:10FE0000A0437B604FF4F033BB6003233B730E4B86
:10FE10009B89FB8100233B740C4B7B610C4BBB61CA
:10FE20003B4618460AF0E4FB02460A4B1A60094BAF
:10FE30001B68FB61FB69002B02D0F86905F0D6F95D
:10FE400000BF2037BD4680BD382600208DFD010053
:10FE5000D1FD01006C37002080B584B000AF0020D8
:10FE600005F094FE0246154B1A60144B1B68FB60AC
:10FE7000FB68002B02D0F86805F0B8F905F0CFFF59
:10FE800002460E4B1A600D4B1B68BB60BB68002B13
:10FE900002D0B86805F0AAF9FFF73AFC0246074B12
:10FEA0001A60064B1B687B607B68002B02D0786869
:10FEB00005F09CF900BF1037BD4680BD6C370020AF
:10FEC00080B584B000AF0346FB71FB79002B12D0E4
:10FED000032B00D012E0022005F058FE0246094B29
:10FEE0001A60084B1B68FB60FB68002B05D0F868A4
:10FEF00005F07CF901E000BF00E000BF00BF103753
:10FF0000BD4680BD6C37002090B593B000AF7860DF
:10FF10007B681B883B2B32D03B2B07DC102B0DD092
:10FF2000112B23D0012B00F09C80FEE0512B00F020
:10FF3000AF80562B3BD0502B51D0F6E07D490020AE
:10FF400011F0DAFD072005F021FE02467A4B1A6017
:10FF5000794B1B687B647B6C002B02D0786C05F0BE
:10FF600045F97B689A88754B1A80DEE07449002059
:10FF700011F0C2FD714B4FF6FF721A80D5E0714946
:10FF8000002011F0B9FD7B689B8813211846FFF70C
:10FF9000A3FB0246684B1A60674B1B683B643B6CD3
:10FFA000002B00F0B980386C05F020F9B4E0664908
:10FFB000002011F0A1FD7B689B8813211846FFF7F4
:10FFC0008BFB02465C4B1A605B4B1B68FB63FB6B55
:10FFD000002B00F0A380F86B05F008F99EE05B4968
:10FFE000002011F089FD7B681233BB63BB6B1B786B
:10FFF00087F8373097F837301A465549002012F005
:020000022000DC
:10000000B7F897F83730202B07D1524B00221A70DF
:100010005149002011F070FD82E097F83730212B14
:1000200007D14C4B01221A704C49002011F064FD9D
:1000300076E097F837300C2B07D1494B00221A7025
:100040004849002011F058FD6AE097F837300D2B31
:1000500066D1434B01221A704349002011F04CFD38
:100060005EE04249002011F047FD344B1B8800211F
:100070001846FFF749FB02462F4B1A602E4B1B68B0
:100080003B633B6B002B4DD0386B05F0AFF849E07C
:100090003749002011F030FD7B6807F11C0406335E
:1000A000186859689A68DB680FC43B7F002B3BD007
:1000B00097F82430042B07D097F82430062B03D070
:1000C00097F82430052B2FD13B7F022B06D102233A
:1000D0003B732849002011F00FFD05E001233B731D
:1000E0002549002011F008FD4FF4C1733B827B6865
:1000F0009B8807F10C0211461846FFF7FDFA0246ED
:100100000D4B1A600C4B1B68FB62FB6A002B0BD07B
:10011000F86A05F06BF807E000BF06E000BF04E0F6
:1001200000BF02E000BF00E000BF00BF4C37BD468B
:1001300090BD00BF502D03006C370020B825002073
:10014000682D0300842D03009C2D0300B42D0300B3
:10015000CC2D0300C8250020E02D0300FC2D03005A
:10016000C9250020182E0300302E0300482E03005E
:10017000642E0300882E0300B42E030080B582B0E5
:1001800000AF786078680AF053FC78680EF05AF88F
:1001900079680D4810F09BFB79680C480FF0CAFE97
:1001A00078680AF05BFB786805F05AFE7868FFF71C
:1001B000ABFE786809F06CFB796805480CF0D6F95D
:1001C00000BF0837BD4680BD38260020202600200D
:1001D0008826002080B582B000AF7860786804F08F
:1001E000C1FF786809F072FB00BF0837BD4680BDCB
:1001F00080B590B000AF664B1B687B6107F11400BF
:100200000023D822634910F04FFFF863FB6BBB63F8
:10021000BB6B002B02D0B86B04F0E8FF00233B61FE
:1002200007F11003184610F0C7FF02465A4B1A6038
:10023000594B1B687B637B6B002B02D0786B04F0FF
:10024000D5FF3B1D0C2200211846FFF781F8002343
:100250003B713A693B1D19460120FFF751FA0246EE
:100260004D4B1A604C4B1B683B633B6B002B02D021
:10027000386B04F0BBFF3B1D0C2200211846FFF732
:1002800067F801233B7100237B710023BB713A693E
:100290003B1D19464020FFF733FA02463E4B1A60D9
:1002A0003D4B1B68FB62FB6A002B02D0F86A04F02E
:1002B0009DFF3B1D0C2200211846FFF749F8012342
:1002C0003B719E23FB803A693B1D19462320FFF7B3
:1002D00017FA0246304B1A602F4B1B68BB62BB6A91
:1002E000002B02D0B86A04F081FF3B1D0C220021D4
:1002F0001846FFF72DF801233B714FF4A0733B81A3
:100300000123BB713A693B1D19462020FFF7F8F91C
:100310000246214B1A60204B1B687B627B6A002BD4
:1003200002D0786A04F062FF07F11003184610F05B
:1003300057FF0246184B1A60174B1B683B623B6A1B
:10034000002B02D0386A04F051FF144810F0ECFE84
:100350000246114B1A60104B1B68FB61FB69002BB6
:1003600002D0F86904F042FF0D4810F0F3FE024697
:10037000094B1A60084B1B68BB61BB69002B02D09C
:10038000B86904F033FF00BF4037BD4680BD00BFF1
:10039000E02E0300F42700206C3700207D010200CE
:1003A000D501020080B584B000AF0346FB71FB7934
:1003B000072B1ED00A2B02D0042B03D035E0FFF709
:1003C0004BFD32E01B4B1B8813211846FFF784F9C5
:1003D0000246194B1A60184B1B68082B22D0164B8B
:1003E0001B68FB60FB68002B1CD0F86804F0FEFE65
:1003F00018E0104B1B884FF6FF72934214D109F09E
:1004000093FA02460C4B1A600B4B1B68082B0BD05F
:10041000094B1B68BB60BB68002B05D0B86804F0B3
:10042000E5FE01E000BF00E000BF00BF1037BD46A1
:1004300080BD00BFB82500206C37002080B586B095
:1004400000AF0DF037FF0246334B1A60324B1B688A
:100450007B617B69002B02D0786904F0C7FE3B46C4
:10046000052200211846FEF773FF3B7843F0010395
:100470003B703B786FF341033B703B78032262F3A0
:1004800006133B703B786FF3C7133B7007237B70F9
:100490001023BB70FB7843F00103FB70FB7843F043
:1004A0000203FB703B7943F001033B713B7943F05E
:1004B00002033B713B4618460DF092FF0246164B75
:1004C0001A60154B1B683B613B69002B02D03869F1
:1004D00004F08CFE11480DF055FF02460E4B1A60D9
:1004E0000D4B1B68FB60FB68002B02D0F86804F022
:1004F0007DFE0B4804F066F80246074B1A60064B77
:100500001B68BB60BB68002B02D0B86804F06EFEAD
:1005100000BF1837BD4680BD6C370020C9F8010008
:10052000B3F8010080B59AB002AF07F120033C2276
:1005300000211846FEF70CFF022387F82030012324
:1005400087F82230062387F8233003233B86154B98
:100550007B633B46202200211846FEF7F9FE01236B
:10056000FB704FF4C8633B6164237B613A4607F13B
:100570002000002300930C4B002108F099FF024655
:100580000A4B1A60094B1B68FB65FB6D002B02D000
:10059000F86D04F02BFE012008F07AFF00BF6037F1
:1005A000BD4680BDBC250020C1FE01006C37002087
:1005B00080B584B002AF78605B4B1B780F2B00F2E4
:1005C0008580594B1B781B017A681178574AD154A2
:1005D000554B1B781B0101337A685178534AD1542B
:1005E000514B1B781B0102337A6891784F4AD154E2
:1005F0004D4B1B781B0103337A68D1784B4AD15499
:10060000494B1B781B0104337A681179474AD1544E
:10061000454B1B781B0105337A685179434AD15405
:10062000414B1B781B0106337A6891793F4AD154BC
:100630003D4B1B781B0107337A68D1793B4AD15473
:10064000394B1B781B0108337A68117A374AD15429
:10065000354B1B781B0109337A68517A334AD154E0
:10066000314B1B781B010A337A68917A2F4AD15497
:100670002D4B1B781B010B337A68D17A2B4AD1544E
:10068000294B1B781B010C337A68117B274AD15404
:10069000254B1B781B010D337A68517B234AD154BB
:1006A000214B1B781B010E337A68917B1F4AD15472
:1006B0001D4B1B781B010F337A68D17B1B4AD15429
:1006C000194B1B780133DAB2174B1A70164B1B7893
:1006D0000F2B24D9FFF784F8154B1B881A46154BAE
:1006E0001B781946144B1B8800930B4613490020B6
:1006F00011F03EFD104B1B880C49184601F0B2F872
:100700000D4B1B8801339AB20B4B1A804FF4807249
:1007100000210648FEF71CFE034B00221A7000BFA2
:100720000837BD4680BD00BFEC260020F026002023
:10073000BC260020DA260020F0270020E42E03004B
:1007400090B583B000AF0446084611461A462346CA
:10075000FB8003467B710B463B711346FB701022F6
:1007600000212848FEF7F4FDFB88DAB2254B1A7009
:10077000FB881B0A9BB2DAB2224B5A70214A7B7962
:100780009370204A3B79D3701E4AFB7813711D4A3F
:100790003B7E5371BB8BDAB21A4B9A71BB8B1B0A2F
:1007A0009BB2DAB2174BDA713B8CDAB2154B1A7284
:1007B000B7F920301B121BB2DAB2124B5A72BB8C43
:1007C000DAB2104B9A72B7F924301B121BB2DAB2AC
:1007D0000C4BDA723B8DDAB20A4B1A73B7F9283038
:1007E0001B121BB2DAB2074B5A73064B00229A73E4
:1007F000044B0022DA730348FFF7DAFE00BF0C3720
:10080000BD4690BDDC26002090B583B000AF08F057
:100810004BFB00F027FF034607EE903AF8EEE77A2D
:1008200017EE900A11F020FE4FF000021D4B11F060
:100830006FFE03460C46184621464FF000021A4B45
:1008400011F090FF03460C461846214612F072F84C
:100850000346DAB2154B1A7000F004FF0346DBB210
:100860002C3BDAB2124B1A7000237B600F4B1B78C3
:10087000194610480FF0BFFC78607B68002B0DD044
:100880007B68082B0AD07B68132B07D07B6843F268
:100890000142934202D0786804F0A8FC00BF0C37F4
:1008A000BD4690BD0000594000407A40DB26002044
:1008B000DA26002020260020F0B589B006AF724964
:1008C000002011F019F9714B1B7883F00103DBB2A2
:1008D000002B40F0D180FEF783FF6D4B1B78032B7C
:1008E00005D9FFF791FF6A4B00221A7005E0684BAB
:1008F0001B780133DAB2664B1A70664B1B880133E2
:100900009AB2644B1A80644800F032FC624B1B6858
:10091000184611F097FD4FF00002604B11F022FFD6
:1009200003460C461846214655A3D3E9002311F08F
:100930003BFC03460C461846214611F0FBFF0346DC
:10094000DAB2574B1A70544B5B68184611F07AFDB7
:100950004FF00002514B11F005FF03460C461846BC
:1009600021464FF000024F4B11F01EFC03460C468F
:100970001846214611F0DEFF0346DAB24A4B1A70E0
:10098000454B9B68184611F05DFD4FF00002474B48
:1009900011F0E8FE03460C461846214611F0CAFF46
:1009A0000346DAB2424B1A70424801F0BCF84248A2
:1009B00001F0C9F9414B1B78002B23D0354B1D8822
:1009C0003F4B1E78364B93F800E0374B93F800C04E
:1009D000374B1B78374AB2F9062092B23649B1F943
:1009E00000103548B0F90200334CB4F904400494C7
:1009F0000390029101920093634672463146284665
:100A0000FFF79EFE00237B60224B1E882C4B93F841
:100A100000E0234B93F800C0234B1B78244A127844
:100A20002449B1F9061089B22348B0F90000224CDC
:100A3000B4F90240204DB5F9045005950494039093
:100A40000291019200936346724631461D4810F0B0
:100A5000CFF978607B68002B0FD07B68082B0CD017
:100A60007B68132B09D07B6843F20142934204D088
:100A7000786804F0BBFB00E000BF0C37BD46F0BD5A
:100A8000000000000088C340F82E0300C9250020A4
:100A9000F2270020BC260020C026002000002440B1
:100AA00071370020000069407037002000408F40FF
:100AB00068370020CC260020D4260020C82500203E
:100AC000DA2600203826002080B582B000AF78609A
:100AD000FFF7F2FE00BF0837BD4680BD80B582B08B
:100AE00000AF2A49002011F007F8FEF779FFFEF762
:100AF00091FE0123FB71FFF77BFBFEF7BBFFFFF7C6
:100B000025F8FFF70FFDFFF73FF8FFF76DF9FFF747
:100B100095FC00F019FD00F03FF800F0D5F94FF416
:100B2000FA70FEF74DFE00F0EBFF4FF4FA70FEF79F
:100B300047FE01F0AFF84FF4FA70FEF741FE01F006
:100B40002FF94FF4FA70FEF73BFE01F0DBF800F0EE
:100B5000F9FD00F00DFE4FF4FA70FEF731FE00F0E3
:100B600083FF03461A460A4B1A80094B1B881A4614
:100B70000849002011F0FCFAFEF73FFEFEF75CFF8B
:100B8000FB791846FEF77AFE20BFFDE7002F030031
:100B9000F0270020102F030080B586B000AF3B4641
:100BA00000221A605A609A60DA6008233B600523CD
:100BB0007B604FF0CC73BB6003233B73394600234B
:100BC000094A0A4806F09EFE78617B693B613B69F1
:100BD000002B02D0386904F009FB044806F00CFF32
:100BE00000BF1837BD4680BD550D0200282F0300F9
:100BF00080B588B002AF0346FB710B46BB7113464C
:100C00007B71BB793B737B797B73114B00221A702C
:100C100007F10C02F9790123009302230D4807F034
:100C2000E3F978617B693B613B69002B02D038694D
:100C300004F0DCFA00BF064B1B78DBB283F0010343
:100C4000DBB2002BF7D100BF1837BD4680BD00BF17
:100C5000CC280020282F030080B586B002AF0346C1
:100C60003960FB711346BB71104B00221A70BA79C0
:100C7000F9790023009313463A680D4807F0B4F958
:100C8000F860FB68BB60BB68002B02D0B86804F05A
:100C9000ADFA00BF054B1B78DBB283F00103DBB27A
:100CA000002BF7D100BF1037BD4680BDCC280020F7
:100CB000282F030080B588B002AF03460A46FB71B7
:100CC0001346BB7100237B61204B00221A70BA1DB2
:100CD000F9790123009301231D4807F085F9786114
:100CE0007B693B613B69002B02D0386904F07EFAD6
:100CF00000BF164B1B78DBB283F00103DBB2002B85
:100D0000F7D17B69002B1BD1104B00221A7007F121
:100D10000B02F97901230E4807F08EF978617B699F
:100D2000FB60FB68002B02D0F86804F05FFA00BF9C
:100D3000064B1B78DBB283F00103DBB2002BF7D14B
:100D4000FB7A18461837BD4680BD00BFCC2800206E
:100D5000282F030080B483B000AF786039607B68CF
:100D60001B78002B00D003E0044B01221A7000BF57
:100D700000BF0C37BD465DF8047B7047CC280020CF
:100D800080B586B002AF3A601A460346FB710B4647
:100D9000BB7113467B710023FB60174B00221A7056
:100DA000BA1DF979012300930123144807F01CF9B7
:100DB000F86000BF104B1B78DBB283F00103DBB29D
:100DC000002BF7D1FB68002B12D10B4B00221A70BD
:100DD0007B79F9793A68094807F02EF9F86000BF85
:100DE000054B1B78DBB283F00103DBB2002BF7D19C
:100DF00000BF1037BD4680BDCC280020282F03003F
:100E000080B485B000AF7860254BFB607B68002B19
:100E100040D0244B1A68F9687B6800BF00BF00BF50
:100E200000BF00BF00BF00BF00BF8A422FD000BF7D
:100E300000BF00BF00BF00BF00BF00BF00BF00BFBA
:100E400000BF00BF00BF00BF00BF00BF00BF00BFAA
:100E500000BF00BF00BF00BF00BF00BF00BF00BF9A
:100E600000BF00BF00BF00BF00BF00BF00BF00BF8A
:100E700000BF00BF00BF00BF00BF00BF00BF00BF7A
:100E800000BF00BF00BF00BF00BF00BF00BF013BED
:100E9000C3D17B6000BF1437BD465DF8047B70474B
:100EA0000024F400E425002080B582B000AF786013
:100EB0007B684FF47A7202FB03F31846FFF7A0FF3A
:100EC00000BF0837BD4680BD80B582B000AFD021DD
:100ED0007620FFF7EFFE0346FB71FB791A460C49BB
:100EE000002011F045F9FB79602B0DD1B622E021ED
:100EF0007620FFF77DFE6420FFF7D6FF762000F016
:100F000009F86420FFF7D0FF00BF0837BD4680BD59
:100F1000302F030080B582B000AF0346FB717A4BDF
:100F20001B7803F00703DAB2FB79F2211846FFF7CA
:100F30005FFE764B1B785B015AB2754B1B789B00AA
:100F40005BB213435AB2734B1B785BB213435BB271
:100F5000DAB2FB79F4211846FFF74AFE6E4B1B7894
:100F60005B015AB26D4B1B789B005BB213435BB2C3
:100F7000DAB2FB79F5211846FFF73AFEF8791A2321
:100F8000674A8821FFF7FCFE654B5B781B021AB2AB
:100F9000634B1B781BB213431BB29AB2614B1A808E
:100FA0005F4BDB781B021AB25D4B9B781BB213437D
:100FB0001AB25D4B1A805A4B5B791B021AB2584B1E
:100FC0001B791BB213431AB2584B1A80544BDB796E
:100FD0001B021AB2524B9B791BB213431BB29AB23B
:100FE000534B1A804E4B5B7A1B021AB24C4B1B7A46
:100FF0001BB213431AB24F4B1A80494BDB7A1B02C8
:101000001AB2474B9B7A1BB213431AB24A4B1A804F
:10101000434B5B7B1B021AB2414B1B7B1BB213433E
:101020001AB2464B1A803E4BDB7B1B021AB23C4B7A
:101030009B7B1BB213431AB2414B1A80384B5B7C2B
:101040001B021AB2364B1B7C1BB213431AB23D4B28
:101050001A80334BDB7C1B021AB2314B9B7C1BB2D8
:1010600013431AB2384B1A802D4B5B7D1B021AB208
:101070002B4B1B7D1BB213431AB2344B1A80284BE7
:10108000DB7D1B021AB2264B9B7D1BB213431AB2A7
:101090002F4B1A80224B5A7E2E4B1A70F879072359
:1010A0002D4AE121FFF76CFE2B4B5B781B021AB235
:1010B000294B1B781BB213431AB2284B1A80264BBC
:1010C0009A78274B1A70244BDB781A02224B1B7933
:1010D0001B01DBB213431B119AB2224B1A801E4B29
:1010E0005B791A021C4B1B7903F0F00313431B11AD
:1010F0009AB21D4B1A80184B9A791C4B1A7000BF7C
:101100000837BD4680BD00BFCB250020CC25002080
:10111000CA250020CD250020CF250020CE25002087
:1011200088370020763700207A370020DA37002011
:10113000C0370020A2370020C2370020A43700208B
:10114000B8370020DC37002074370020C437002077
:10115000D83700207C370020AC370020DE37002055
:10116000D637002078370020D4370020B33700204E
:1011700090B583B000AF78600823424AF72176200B
:10118000FFF7FEFD3F4B1B781A043E4B5B781B02BA
:1011900013433C4A927813431B091A463A4B1A6090
:1011A000384BDB781A04374B1B791B021343354A43
:1011B000527913431B091A46334B5A60314B9B79C2
:1011C0001B021AB22F4BDB791BB213431BB29BB22B
:1011D0001A462D4B9A602C4B5B682C4A13602B4BA4
:1011E0001B68DA102A4B1B885B00D31A294AB2F914
:1011F000002002FB03F3DB12274A1360234B1B681A
:101200001B11234A12889B1A204A12681211204986
:101210000988521A02FB03F31B13204AB2F900207B
:1012200002FB03F39B131E4A13601B4B1A681C4BF3
:101230001B6813441B4A1360134B1A68194B1B6835
:101240001946104600F0AAF803461A467B681A6051
:101250007B681C1D134B1B68184600F08DF8034675
:1012600023607B6803F10804074B9A680D4B1B68E9
:101270001946104600F018F80346236000BF0C37EB
:10128000BD4690BDD0280020C8370020B4370020CC
:10129000763700207A37002080370020DA370020A8
:1012A000BC370020E437002080B485B000AF786000
:1012B00039603B68A3F59633FB607B689A03284B43
:1012C0001B881B05D21A274B1B881946FB6803FB9A
:1012D00001F3D31A03F58043DB13234A1278114636
:1012E000FA6802FB01F29212204909780846F9686F
:1012F00001FB00F1C91201F5004101FB02F292125B
:1013000002F500121A49B1F9001001FB02F202F5D0
:101310000052921302FB03F3FB60FB68DB13FA68D5
:10132000D21302FB03F3DB11124A127802FB03F320
:101330001B11FA68D31AFB60FB6823EAE373FB60B6
:10134000FB68B3F1C85FA8BF4FF0C853FB60FB68F0
:101350001B1318461437BD465DF8047B704700BF69
:1013600078370020D4370020B3370020D63700204C
:10137000DE3700207C37002080B485B000AF786075
:101380007A6813469B00134480331B12FB60FB6892
:1013900018461437BD465DF8047B704780B483B0AF
:1013A00000AF786039603B685B10A3F57A435A4A16
:1013B0001360594B1B689B10574A1268921002FB2E
:1013C00003F3DB12554AB2F9002002FB03F3544A3F
:1013D0001360544BB3F900301A464F4B1B6803FBA4
:1013E00002F35A004E4B1B6813444D4A13604C4B9A
:1013F0001B689A104C4BB3F900301B041344484A45
:1014000013604A4BB3F900301946434B1B689B10DD
:10141000414A1268921002FB03F35B1303FB01F3D2
:10142000DA10434BB3F9003019463B4B1B6803FB02
:1014300001F35B1013449B14374A1360364B1B684F
:1014400003F500433B4A128802FB03F3DB13324AE5
:101450001360314B1B68002B01D1002356E07B68E1
:101460005B422F4A126812139B1A40F6354202FB68
:1014700003F303F1434303F5A0032F4A13602E4BFC
:101480001B68002B09DB2C4B1B685B00224A12688F
:10149000B3FBF2F3284A136008E0274B1B681E4A8F
:1014A0001268B3FBF2F35B00234A1360234BB3F9DA
:1014B00000301946204B1B68DB081F4A1268D2080F
:1014C00002FB03F35B0B03FB01F31B13124A1360D4
:1014D000194B1B689B081A46194BB3F9003003FBE4
:1014E00002F35B130E4A13600B4B1A680C4B1B681C
:1014F0001344144AB2F9002013441B110E4A126817
:1015000013441A460C4B1A600B4B1B6818460C37D9
:10151000BD465DF8047B704784370020DC3700202F
:10152000A8370020B8370020A4370020C237002099
:10153000A2370020C0370020E0370020D837002035
:10154000C43700207437002080B588B000AF184A37
:101550003B1D07CA03C31A701649002007F05EFB43
:10156000F861FB69BB61BB69002B02D0B86903F06D
:101570003DFE3B1D1946002007F0B8FBF861FB69F2
:101580007B617B69002B02D0786903F02FFE01217B
:10159000094807F007FCF861FB693B613B69002BD8
:1015A00002D0386903F022FE00BF2037BD4680BD5F
:1015B000502F0300BD150200D828002080B584B04C
:1015C00000AF78607B681B78002B3BD17B685B6841
:1015D0000121184607F0E6FBF860FB68BB60BB68BA
:1015E000002B02D0B86803F001FE7B685B68B3F99A
:1015F000003007EE903AB8EEE77ADFED146AC7EEF6
:10160000267A134BC3ED007A114BD3ED007A9FED90
:10161000117A67EE877A9FED107A67EE877A0C4B26
:10162000C3ED007A0A4BD3ED007A9FED0C7A67EE9A
:10163000877AFCEEE77AC7ED007A3B889BB21AB254
:10164000074B1A8000BF1037BD4680BD00008045A3
:10165000DC28002085EBB13F333353400000C84203
:10166000E028002080B400AF034BB3F900301846E7
:10167000BD465DF8047B7047E028002080B485B04B
:1016800000AF7860254BFB607B68002B40D0244B7B
:101690001A68F9687B6800BF00BF00BF00BF00BFC9
:1016A00000BF00BF00BF8A422FD000BF00BF00BFF5
:1016B00000BF00BF00BF00BF00BF00BF00BF00BF32
:1016C00000BF00BF00BF00BF00BF00BF00BF00BF22
:1016D00000BF00BF00BF00BF00BF00BF00BF00BF12
:1016E00000BF00BF00BF00BF00BF00BF00BF00BF02
:1016F00000BF00BF00BF00BF00BF00BF00BF00BFF2
:1017000000BF00BF00BF00BF00BF013BC3D17B6073
:1017100000BF1437BD465DF8047B70470024F40019
:10172000E425002080B582B000AF78607B684FF47C
:101730007A7202FB03F31846FFF7A0FF00BF0837D9
:10174000BD4680BD90B585B000AF074B3C460FCB82
:1017500084E80F00394600230022044804F036FDD7
:1017600000BF1437BD4690BD642F03005C2F0300FB
:1017700080B582B002AF104B9F221A700422002164
:101780000E48FDF7E5FD042300930C4B01220A49A6
:101790000B4804F0DFFD094B5B781A46074B9B783A
:1017A0001946064BDB7800930B460649002010F0E3
:1017B000DFFC00BFBD4680BDE4280020F0280020EB
:1017C0005C2F0300742F030080B582B002AF0222A9
:1017D00000210E48FDF7BCFD0D4B05221A700223B7
:1017E00000930A4B01220A490A4804F0B3FD074B53
:1017F0005B785B08DBB203F00103002B01D100230F
:1018000000E001231846BD4680BD00BFEC28002043
:10181000E42800205C2F030080B582B002AF0222D2
:1018200000210D48FDF794FD0C4B05221A70022390
:101830000093094B01220949094804F08BFD064B2E
:101840005B7803F00103002B01D0012300E00023AB
:101850001846BD4680BD00BFEC280020E4280020CB
:101860005C2F030080B586B002AF03463960FB8071
:10187000FB88B3F5805F80F0928000F01DF903468D
:1018800083F00103DBB2002B40F08B80FFF7C4FF35
:101890000346002B40F08780FB88184600F08EF846
:1018A000034683F00103DBB2002B7ED1FB88184690
:1018B00000F0F6F8B860842200213E48FDF748FDAC
:1018C0003C4B02221A70BB681B14DAB2394B5A70B7
:1018D000BB681B12DAB2374B9A70BB68DAB2354B71
:1018E000DA700023FB810423FB810AE0FB89FA897B
:1018F000043A39680A4411782E4AD154FB890133DD
:10190000FB81FB89832BF1D90023009300238422E0
:101910002849294804F01EFD0023FB810AE0142019
:10192000FFF700FFFFF778FF0346002B06D0FB8987
:101930000133FB81FB89092BF1D900E000BF0023B3
:10194000FB810AE01420FFF7EDFE00F0B5F8034636
:10195000002B06D1FB890133FB81FB89092BF1D9CF
:1019600000E000BF134B8022DA700423FB810AE001
:10197000FB89FA897C3239680A4411780D4AD154BE
:10198000FB890133FB81FB89832BF1D90023009371
:10199000002384220749084804F0DCFC06E000BF6D
:1019A00004E000BF02E000BF00E000BF1037BD460A
:1019B00080BD00BFFC2800205C2F030080B586B0EE
:1019C00002AF0346FB80FB88B3F5805F01D30023A1
:1019D00040E0042200212148FDF7BAFC0822002142
:1019E0001F48FDF7B5FCFB88184600F059F8F86071
:1019F0001A4B03221A70FB681B14DAB2174B5A7089
:101A0000FB681B12DAB2154B9A70FB68DAB2134B03
:101A1000DA7008230093124B04221049114804F095
:101A200099FC0F4B1B799AB20D4B5B799BB2134417
:101A30009AB20B4B9B799BB213449AB2084BDB7959
:101A40009BB213447B817B89B3F57F7F01D1012356
:101A500000E0002318461037BD4680BDE82800206E
:101A6000F42800205C2F030080B582B000AF002373
:101A7000FB800BE0FB881846FFF7A0FF0346002B16
:101A800001D0FB8808E0FB880133FB80FB88B3F5BD
:101A9000805FEFD34FF4805318460837BD4680BDB2
:101AA00080B483B000AF78607B681B0218460C37A7
:101AB000BD465DF8047B704780B584B002AF00235B
:101AC000FB710D4B06221A700023009300230122A4
:101AD00009490A4804F03EFCFFF776FE0346002B56
:101AE00002D00123FB7101E00023FB71FB79184652
:101AF0000837BD4680BD00BFE42800205C2F0300EE
:101B000080B582B000AF00233B7150237B7100236E
:101B1000BB713B1D032219461020FFF79DF800BF43
:101B20000837BD4680BD80B584B000AF7860002323
:101B30003B7300237B7307F10C0202230821102062
:101B4000FFF71EF97B7B1B021AB23B7B1BB21343D0
:101B50001BB29AB27B681A8007F10C02022309219A
:101B60001020FFF70DF97B6802337A7B120211B265
:101B70003A7B12B20A4312B292B21A8007F10C02F7
:101B800002230A211020FFF7FBF87B6804337A7BDD
:101B9000120211B23A7B12B20A4312B292B21A8006
:101BA00007F10C0202230B211020FFF7E9F87B68F4
:101BB00006337A7B120211B23A7B12B20A4312B296
:101BC00092B21A8000BF1037BD4680BD80B485B088
:101BD00000AF7860254BFB607B68002B40D0244B26
:101BE0001A68F9687B6800BF00BF00BF00BF00BF74
:101BF00000BF00BF00BF8A422FD000BF00BF00BFA0
:101C000000BF00BF00BF00BF00BF00BF00BF00BFDC
:101C100000BF00BF00BF00BF00BF00BF00BF00BFCC
:101C200000BF00BF00BF00BF00BF00BF00BF00BFBC
:101C300000BF00BF00BF00BF00BF00BF00BF00BFAC
:101C400000BF00BF00BF00BF00BF00BF00BF00BF9C
:101C500000BF00BF00BF00BF00BF013BC3D17B601E
:101C600000BF1437BD465DF8047B70470024F400C4
:101C7000E425002080B582B000AF78607B684FF427
:101C80007A7202FB03F31846FFF7A0FF00BF083784
:101C9000BD4680BD80B582B000AF00211820FFF79F
:101CA00009F80346FB71FB791A461549002010F02C
:101CB0005FFA0223BB710E237B7100233B710E235D
:101CC000FB70BB791A460F211820FEF791FF7B7934
:101CD0001A4610211820FEF78BFF3B795B015AB2A0
:101CE000FB785B005BB213435BB2DBB21A46112197
:101CF0001820FEF77DFF00BF0837BD4680BD00BF3E
:101D00009C2F030080B582B000AF0823FB71022333
:101D1000BB710E237B71FB791A4610211820FEF748
:101D200067FFBB795B015AB27B795B005BB21343FF
:101D30005BB2DBB21A4611211820FEF759FF00BF33
:101D40000837BD4680BD80B584B000AF786007F12C
:101D50000802062302211820FFF712F87B7A1B02E3
:101D60001AB23B7A1BB213431AB27B681A807B68A3
:101D70000233FA7A120211B2BA7A12B20A4312B2DA
:101D80001A807B6804337A7B120211B23A7B12B25A
:101D90000A4312B21A8000BF1037BD4680BD000052
:101DA00080B586B000AF5E49002010F0E1F940F642
:101DB000B830FFF75FFF5B4B7B6121223721182092
:101DC000FEF716FF202236211820FEF711FF00BF74
:101DD00036211820FEF76EFF034603F01003DBB236
:101DE000002BF5D0402236211820FEF701FF00BF5E
:101DF00036211820FEF75EFF034603F01003DBB226
:101E0000002BF5D0602236211820FEF7F1FE00BF2E
:101E100036211820FEF74EFF034603F01003DBB215
:101E2000002BF5D007F10C02022338211820FEF711
:101E3000A7FF7B7B1B027B8207F10C020223392167
:101E40001820FEF79DFF7B7B1B023B8207F10C02F3
:101E500002233A211820FEF793FF7B7B1B02FB81B4
:101E60003149002010F084F9B7F9123007EE903AAA
:101E7000F8EEE77A9FED2D7A27EE877AD7ED057A8F
:101E800027EE277ADFED2A6AC7EE267AFDEEE77A9B
:101E9000C7ED017ABB881BB21A462649002010F014
:101EA00067F9B7F9103007EE903AF8EEE77A9FED50
:101EB0001F7A27EE877AD7ED057A27EE277ADFEDAE
:101EC0001C6AC7EE267AFDEEE77AC7ED017ABB8879
:101ED0001BB21A461849002010F04AF9B7F90E3023
:101EE00007EE903AF8EEE77A9FED107A27EE877AC0
:101EF000D7ED057A27EE277ADFED0D6AC7EE267A51
:101F0000FDEEE77AC7ED017ABB881BB21A460B4992
:101F1000002010F02DF900BF1837BD4680BD00BF6E
:101F2000BC2F03000000FA40EC2F03000000C84261
:101F300000008043083003002030030038300300E5
:101F400080B588B000AF78600023FB774BE02A4B68
:101F50001A68FB7FDB001344BB61BB691B781A4620
:101F6000012393407B61254B1A687B691340002B4A
:101F700036D07B69DA43214B1B6813401F4A13603C
:101F8000BB691B78184605F0DDF80346FB74BB6996
:101F90001B781A46012393401A46194B1B681340BD
:101FA000FA7CB96909788A40934219D1FB7CBA69F5
:101FB0005278012A0CBF01220022D2B293420CBFF8
:101FC00001230023DBB2FB60BB695B68002B07D0F9
:101FD000BB695B68BA691278F968C9B2104698475C
:101FE000FB7F0133FB77074B1B78FA7F9A42AED316
:101FF00000BF2037BD4680BD80290020B0290020C9
:10200000AC2900208429002080B584B000AF78601E
:102010000B46FB7001227B6802FA03F3FB601E4B48
:10202000184600F0E3FEB860BB68002B30D11B4BB4
:102030001A68FB681340002B22D1786805F082F8FB
:102040000346002B06D0164B1A68FB681343144A4C
:10205000136006E0FB68DA43114B1B681340104A1B
:1020600013600E4B1A68FB6813430C4A13600A484E
:102070000C4B1B680022194600F084FEB86008E093
:10208000FB68DA43054B1B681340044A136000E009
:1020900000BF1037BD4680BD8C290020B02900202C
:1020A000AC2900208829002080B588B000AFF860F6
:1020B0000B467A60FB727B68042B01D8072349E04A
:1020C00004F06CFF034683F00103DBB2002B07D062
:1020D00004F024FFF861FB69002B01D0FB6939E0B3
:1020E0001E4AFB6813601E4AFB7A13701D4A7B6808
:1020F00013601D4B00221A601C4B00221A601EE068
:10210000FB7ADB00FA681344BB6103233B750023B1
:102110007B750023BB750023FB75BB699B787B75C2
:10212000BB691B78184607F11403114A194604F0DD
:1021300047FFF861FB69002B01D0FB690AE0FB7ADD
:102140005A1EFA72002BDBD10A4A00210A4800F01D
:10215000E5FD034618462037BD4680BD8029002096
:102160008429002088290020AC290020B0290020E3
:1021700009200200411F02005030030080B582B0E8
:1021800000AF00237B600CE00B4B1A687B68DB0020
:1021900013441B780121184604F06CFF7B6801335F
:1021A0007B60064B1B781A467B689A42ECD800236A
:1021B00018460837BD4680BD8029002084290020AC
:1021C00080B483B000AF0346FB71094997F907302B
:1021D0005B09FA7902F01F02012000FA02F241F8CD
:1021E000232000BF0C37BD465DF8047B704700BF5D
:1021F00000E100E080B483B000AF0346FB71094901
:1022000097F907305B09FA7902F01F02012000FA02
:1022100002F2203341F8232000BF0C37BD465DF8A1
:10222000047B704700E100E080B483B000AF034658
:10223000FB71094997F907305B09FA7902F01F022F
:10224000012000FA02F2403341F8232000BF0C378E
:10225000BD465DF8047B704700E100E080B483B0C8
:1022600000AF0346FB71094997F907305B09FA791A
:1022700002F01F02012000FA02F2603341F823202D
:1022800000BF0C37BD465DF8047B704700E100E0FD
:1022900080B483B000AF03463960FB7197F9073013
:1022A000002B0BDA0D49FB7903F00F03043B3A686E
:1022B000D2B25201D2B20B441A7609E0084997F91A
:1022C00007303A68D2B25201D2B20B4483F80023ED
:1022D00000BF0C37BD465DF8047B704700ED00E0A1
:1022E00000E100E080B485B000AF7860254BFB6072
:1022F0007B68002B40D0244B1A68F9687B6800BFCC
:1023000000BF00BF00BF00BF00BF00BF00BF8A42C8
:102310002FD000BF00BF00BF00BF00BF00BF00BF85
:1023200000BF00BF00BF00BF00BF00BF00BF00BFB5
:1023300000BF00BF00BF00BF00BF00BF00BF00BFA5
:1023400000BF00BF00BF00BF00BF00BF00BF00BF95
:1023500000BF00BF00BF00BF00BF00BF00BF00BF85
:1023600000BF00BF00BF00BF00BF00BF00BF00BF75
:1023700000BF013BC3D17B6000BF1437BD465DF891
:10238000047B70470024F400E425002080B582B06F
:1023900000AF7860054A7B68C2F808350721112034
:1023A000FFF776FF00BF0837BD4680BD0010014033
:1023B00080B500AF0D4B4FF48032C3F844230B4B74
:1023C0004FF48032C3F804231120FFF747FF112098
:1023D000FFF7F6FE054B01221A602F20FFF782FF60
:1023E000034B01221A7000BF80BD00BF00100140E6
:1023F000D22A002080B500AF1120FFF7FBFE0F4B63
:102400004FF48032C3F848230C4B4FF48032C3F8AA
:1024100008230A4B01225A602F20FFF763FF074B66
:1024200001229A60064B00221A602F20FFF75AFF04
:10243000044B00221A7000BF80BD00BF0010014095
:10244000C42A0020D22A002080B400AF034BD3F866
:1024500004351846BD465DF8047B70470010014006
:1024600080B483B000AF786039607A683B68D31A73
:1024700023F07F4318460C37BD465DF8047B704758
:1024800080B483B000AF7860044A7B68C2F84035FE
:1024900000BF0C37BD465DF8047B7047001001405B
:1024A00080B487B000AF7860294B1B68002B03D144
:1024B000274A7B68136045E07B681A68244B1B68D9
:1024C0001B689A4210D8224B1B68214A1268116877
:1024D0007A6812688A1A1A601D4B1A687B68DA617A
:1024E0001B4A7B6813602DE07B681B68FB60184B00
:1024F0001B687B61164B1B683B6109E03B691B68ED
:10250000FA68D31AFB603B697B613B69DB693B611D
:102510003B69002B04D03B691A68FB689A42EDD3F3
:102520003B69002B05D03B691A68FB68D21A3B69EE
:102530001A607B68FA681A607B683A69DA617B69BD
:102540007A68DA6100BF1C37BD465DF8047B7047CE
:10255000C02A002080B586B000AF7860294B1B6888
:10256000FB60284B1B687B617B693B6108E03A6933
:102570007B689A4208D03B697B613B69DB693B61C0
:102580003B69002BF3D100E000BF3B69002B01D178
:10259000002333E07A693B699A4214D1194B1B68D6
:1025A000DB69184A1360174B1B68002B0BD1164BC5
:1025B00001229A60154B00221A60154B01221A70F5
:1025C0002F20FFF78FFE3B691B68BB603B69DA6910
:1025D0007B69DA617B69DB693B613B69002B05D074
:1025E0003B691A68BB681A443B691A60054B1B6853
:1025F000FA689A4214BF01230023DBB21846183749
:10260000BD4680BDC02A002000100140C42A002021
:10261000D32A002080B500AF1120FFF705FE00BFD0
:1026200080BD80B500AF1420FFF7FEFD00BF80BD68
:1026300080B582B000AF78607B685B697A68926928
:102640001046984700BF0837BD4680BD80B584B0AE
:1026500000AF2B4B1B68002B4ED000237B60FFF795
:10266000F3FE0246274B1B6819461046FFF7F8FE9B
:10267000B860234B1B68FB601DE0FB681A68BB68F1
:102680009A421CD8FB681B68BA68D31ABB60FB6807
:102690001B687A6813447B60FB683B60FB68DB69FE
:1026A000FB603B681B7C002B05D03B6800221A7442
:1026B0003868FFF7BDFFFB68002BDED100E000BFEC
:1026C000114B1A78114B1B789A420CD10F4B1B7887
:1026D0000133DAB20D4B1A700C4B1B78022B02D16E
:1026E0000A4B00221A70094B1B781946084A7B686E
:1026F00042F82130FFF795FF00BF1037BD4680BD7F
:10270000C02A0020C42A0020D02A0020D12A00207C
:10271000C82A002080B483B000AF7860194B1A78C3
:10272000194B1B789A4223D0164B1B780133DAB22F
:10273000144B1A70134B1B78022B02D1114B002241
:102740001A70104B1B781A46104B53F822207B68E6
:102750001A607B681A680E4B1B6813440C4A13609E
:102760000B4B1B6823F07F43094A1360012303E0EE
:102770007B6800221A60002318460C37BD465DF8BE
:10278000047B7047D02A0020D12A0020C82A0020CC
:10279000C42A002080B489B000AFF860B9607A60C4
:1027A0000023FB6138E0214B1B68BB61BB691A68E1
:1027B000FB689A4206D9BB691A68FB68D21ABB69E2
:1027C0001A602DE0BB691B68FA68D31AFB60BB690D
:1027D0001B68FA691344FB61BB6900221A60134B42
:1027E0001B687B61BB69DB69104A1360BB69DB68EE
:1027F000002B11D0BA68FB69134423F07F42BB69F8
:102800005A60BB69DA68BB699A607B681A68BB6901
:10281000DA617B687A691A60044B1B68002BC2D1AD
:1028200000BF2437BD465DF8047B7047C02A0020F6
:1028300080B588B000AF78600023FB77654B1B68DC
:102840007B61A9E07B68002B05D07B68BB61BB691D
:10285000DB697B6060E0604B1B781A4613465B00C7
:102860001344DB005C4A134404333B615A4B1B782E
:102870000133DAB2584B1A70574B1A78564B9B7883
:102880009A4202D1544B00221A703B695B68BB61CB
:102890003B691B78022B04D0032B1AD0012B1ED0CE
:1028A0001CE03B695B681846FFF754FE0346002BAB
:1028B00001D00123FB77BB6900221A746CE0454B01
:1028C0001B68FB60FB6800221A74FB68DB69414AE5
:1028D0001360404B1B68002BF1D15DE05CE000BF52
:1028E000BB691B7C002B00D056E03B699A68BB6932
:1028F0005A603B69DA68BB699A603B691A69BB69CF
:10290000DA603B695A69BB699A61344B1B78002BCA
:1029100002D0BB6900225A60BB695A68304B1B6801
:10292000D31A23F07F432F4A93420ED8BB695A68CB
:102930002B4B1B6819461046FFF792FD0246BB69F8
:102940009B681A44BB691A6017E0254B1A68BB697B
:102950005B6819461046FFF783FDB860BB699A684B
:10296000BB689A4206D9BB699A68BB68D21ABB6930
:102970001A6002E0BB6900221A60BB6900225A603B
:10298000BB6900229A60BB6901221A74BB690022EC
:10299000DA61B869FFF784FD7B68002B7FF452AFE2
:1029A0000D4B1A780C4B5B789A427FF44BAFFB7F50
:1029B000002B04D1074B1A687B699A4201D001238E
:1029C00000E0002303F00103DBB218462037BD46C8
:1029D00080BD00BFC02A0020B4290020D32A0020D7
:1029E000C42A0020FEFF7F0090B589B000AF786058
:1029F000274B1B68002B44D0254B1B681B68FB61D1
:102A0000FFF722FDB861234B1B687B617969B869C8
:102A1000FFF726FD034603333B611F4B1B7883F012
:102A20000103DBB2002B01D0FFF7C2FC3A69FB695E
:102A3000934238BF13467A6913447B617B6923F064
:102A40007F437B617869FFF71BFDFFF7FDFCF860B2
:102A5000B969F868FFF704FD0346DC1CB9697869B9
:102A6000FFF7FEFC03469C420DD9FFF7EDFC034641
:102A70001846FFF705FD2F20FFF734FCFFF7CAFDCE
:102A800001E0FFF7B7FC00BF2437BD4690BD00BF93
:102A9000C02A0020C42A0020D22A002080B586B097
:102AA00000AF00237B600023FB75164B1B683B6166
:102AB000154B1B68FB603B461846FFF72BFE034691
:102AC000FB72FB7A002B07D03B683A1D3969184628
:102AD000FFF760FE0123FB757B681846FFF7A8FE31
:102AE0000346002B01D00123FB75FB7D002B02D098
:102AF000F868FFF779FF054B00221A7000BF1837FE
:102B0000BD4680BDC42A0020C02A0020D32A002050
:102B100080B483B000AF0346FB71044AFB79537065
:102B200000BF0C37BD465DF8047B7047B429002018
:102B300080B485B000AF7860134B5B780133FB73D2
:102B4000114B9B78FA7B9A4201D10023FB730E4B09
:102B50001B78FA7B9A4201D100230EE07B68FA7B56
:102B60001A70094B5B781A4613465B001344DB006E
:102B7000054A13440433BB60BB6818461437BD468E
:102B80005DF8047B704700BFB429002080B588B091
:102B900000AFF860B9607A603B600023FB61002001
:102BA00002F07EFB07F117031846FFF7C1FFB8617B
:102BB000BB69002B02D10423FB6117E0BB69012232
:102BC0001A70BB69FA685A60FFF73EFC0246BB699F
:102BD0009A60BB69BA68DA60BB697A681A61BB69D6
:102BE0003A685A61FB7D1846FFF792FF002002F019
:102BF00061FBFB69002B01D1FFF713FDFB69184650
:102C00002037BD4680BD80B586B000AF78600B46EA
:102C1000FB7000237B61002002F042FB07F10F03F1
:102C20001846FFF785FF38613B69002B02D104236A
:102C30007B6109E03B69FA781A703B697A685A60EF
:102C4000FB7B1846FFF764FF002002F033FB7B6933
:102C5000002B01D1FFF7E5FC7B6918461837BD460C
:102C600080BD000080B500AF0D4B0022C3F84021AD
:102C70000B4B0022C3F84421094B0022C3F8482122
:102C8000074B0022C3F84C21054B0022C3F800215A
:102C9000034B0022C3F80421FFF7D8FC00BF80BD1E
:102CA0000010014080B500AFFFF7F8FE00BF80BD07
:102CB00080B500AFFFF79EFB134B00221A70124B3A
:102CC00000225A70104B0B229A70104B00221A608F
:102CD0000F4B00221A700F4B00221A701420FFF7BE
:102CE000BDFA07211420FFF7D3FA1420FFF768FA82
:102CF0000720FFF74BFBFFF7A7FB0246064B1A60C6
:102D00000023184680BD00BFB4290020C02A00203F
:102D1000D02A0020D12A0020C42A002080B487B005
:102D200000AFF8600B467A60FB72154B9B78002B66
:102D300001D108231DE07B68002B01D1072318E097
:102D4000FB68002B01D1072313E0FB681B681B7C89
:102D5000002B01D008230CE0FB681B687B617B69BA
:102D600000221A747B69FA7A5A747B697A685A610C
:102D7000002318461C37BD465DF8047B704700BF32
:102D8000B429002080B586B000AFF860B9607A60E1
:102D9000FB687B61144B9B78002B01D108231EE05C
:102DA000FB68002B01D1082319E0BB68042B01D874
:102DB000072314E07B695B69002B01D108230EE037
:102DC0007B695B7C012B01D1BB6800E000233B6188
:102DD0007B683A69B9687869FFF7D8FE03461846F8
:102DE0001837BD4680BD00BFB429002080B584B02F
:102DF00000AF78607B68FB600D4B9B78002B01D1A6
:102E0000082310E07B68002B03D0FB685B69002B74
:102E100001D1082307E0FB6800221A740221F86838
:102E2000FFF7F1FE034618461037BD4680BD00BFD0
:102E3000B429002080B483B000AF78607B6803F0D1
:102E40000303002B0CBF01230023DBB218460C3711
:102E5000BD465DF8047B704780B483B000AF034685
:102E6000FB71064B1A78FB791343DAB2034B1A70E5
:102E700000BF0C37BD465DF8047B7047D42A0020A4
:102E800080B483B000AF0346FB7197F90730DB4392
:102E90005AB2074B1B785BB213405BB2DAB2044BF9
:102EA0001A7000BF0C37BD465DF8047B704700BF49
:102EB000D42A002080B483B000AF0346FB71084BD6
:102EC0001A78FB791340DBB2002B14BF01230023D7
:102ED000DBB218460C37BD465DF8047B704700BF77
:102EE000D42A002080B584B000AF78600023FB6056
:102EF0000EE00B4AFB6852F82330002B05D0084A3D
:102F0000FB6852F8233078689847FB680133FB6010
:102F1000FB68072BEDD900BF1037BD4680BD00BF51
:102F2000D82A002080B483B000AF786039607B6815
:102F30001B78013B052B5BD801A252F823F000BFA0
:102F4000592F0200612F0200812F0200B32F0200CF
:102F5000D32F0200E92F02003B6800221A7048E0DC
:102F60003B6801221A707B681A893B689A817B68EA
:102F70009A883B68DA817B68DA683B689A6038E057
:102F80003B6802221A707B681A893B689A817B68C9
:102F90009A883B68DA817B68DA683B689A607B686C
:102FA0001B7C062B0CBF01230023DAB23B681A748A
:102FB0001FE03B6803221A707B68DA883B689A81BD
:102FC0007B681A893B68DA817B68DA683B689A60BB
:102FD0000FE03B6804221A707B68DA883B689A81AC
:102FE0003B680022DA8104E03B6805221A7000E0A9
:102FF00000BF00BF0C37BD465DF8047B704700BFC3
:1030000080B483B000AF78607B689B884FF6FF7216
:10301000934205D07B681B88002B01D0012300E080
:10302000002303F00103DBB218460C37BD465DF800
:10303000047B704780B582B000AF78607B68002B5E
:1030400011D00D4B1A687B689A420CD80A4B5A680B
:103050007B689A4207D37868FFF7ECFE0346002BA3
:1030600001D0012300E0002303F00103DBB2184686
:103070000837BD4680BD00BFF425002080B584B070
:1030800000AF786039600023FB6012E0FB68DB0072
:103090007A6813441B681846FFF7CCFE034683F09A
:1030A0000103DBB2002B01D0002307E0FB680133F2
:1030B000FB60FA683B689A42E8D301231846103750
:1030C000BD4680BD80B483B000AF78607B681B686C
:1030D0000C4A934201D003230DE07B6804331B6844
:1030E000094A934204D0094A934203D1012302E0E2
:1030F000002300E0032318460C37BD465DF8047B2F
:10310000704700BFDEC0ADDEFE011EF1FF011EF103
:1031100080B485B000AF78600023FB600CE0FB68F2
:103120009B007A6813441B68B3F1FF3F01D0002372
:1031300007E0FB680133FB60FB68B3F5806FEED3FB
:10314000012318461437BD465DF8047B7047000024
:1031500080B483B000AF03460A46FB801346BB80B1
:10316000FB880F4A1B01134408331A88BB88134499
:10317000BB80FB880A4A1B0113440A331A88BB88A8
:103180001344BB80BB8840F2FF32934294BF0123BB
:103190000023DBB218460C37BD465DF8047B704750
:1031A000BC2B002080B485B000AF786039600A2362
:1031B000FB6000237B811CE07B89134A1B011344C5
:1031C00004331A683B689A4210D27B890E4A1B016D
:1031D000134404331B6803F580523B689A4205D9B7
:1031E0000023FB607B687A891A8005E07B890133C4
:1031F0007B817B89012BDFD9FB6818461437BD46DC
:103200005DF8047B704700BFBC2B002080B588B000
:1032100000AFF860B9607A60FB6803F58053BB616A
:103220000023FB77FB680833FB60BB6802221A802F
:1032300028E0FB687B617869FFF7E2FE034683F0D4
:103240000103DBB2002B02D00123FB7709E07B698D
:103250009A68164B1B689A4203D97B699B68134A8C
:1032600013607B695B8803339B00FA681344FB603F
:10327000BB681A887B695B8813449BB203339AB29C
:10328000BB681A80FA68BB699A4204D2FB681B6863
:10329000B3F1FF3FCDD17B68002B02D07B68FA7F72
:1032A0001A7000BF2037BD4680BD00BFF82A00203D
:1032B00080B483B000AF78600B467B807B681A894E
:1032C0007B8813449BB203339AB27B681A817B6874
:1032D0005A897B88D31A9BB2033B9AB27B685A8186
:1032E00000BF0C37BD465DF8047B704780B582B0E7
:1032F00002AF064B1968002300930223044A0548D5
:1033000001F04EFE03461846BD4680BDDC2B002072
:1033100058300300F425002080B584B002AF7860F7
:10332000002300930223054A7968054801F038FE1E
:10333000034618460837BD4680BD00BF6030030015
:10334000F425002080B584B000AF03463960FB80CF
:103350000023FB73FB8803337B817B8940F2FD32C2
:10336000934201D9092334E00023BB8128E0BB89C3
:103370001A4A1B0113441B78002B1ED17A89BB8982
:1033800011461846FFF7E4FE0346002B15D0012333
:10339000FB733B68BA891A80BB89BA890F4912014D
:1033A0000A440A3211887A890A4491B20B4A1B01F5
:1033B00013440A330A461A8005E0BB890133BB81F6
:1033C000BB89012BD3D9FB7B002B01D0002300E06C
:1033D000072318461037BD4680BD00BFBC2B002018
:1033E00080B483B000AF03460A46FB801346BB801F
:1033F000BB88BA880A4912010A440A321188FA883D
:103400008A1A92B2033A91B2054A1B0113440A3355
:103410000A461A8000BF0C37BD465DF8047B704732
:10342000BC2B002080B400AF054B1B680133044A5D
:103430001360034B1B681846BD465DF8047B70475C
:10344000F82A002080B584B000AF03463960FB80C5
:103450003B681B68FB60FB68002B09D0FB68BB6006
:10346000BB685B8803339B00FA681344FB601CE075
:10347000FB88184A1B01134404331B680833FB60A4
:1034800013E0FB68BB60B868FFF7BAFD0346002B8A
:1034900004D03B68FA681A60012317E0BB685B88B8
:1034A00003339B00FA681344FB60FB88094A1B0145
:1034B000134404331B6803F58052FB689A4204D915
:1034C000FB681B68B3F1FF3FDBD1002318461037C0
:1034D000BD4680BDBC2B002080B584B000AF7860B5
:1034E00039607B685B681846FFF7A4FD0346002B34
:1034F00019D07B681A89254B1B899A4213D17B68A6
:103500001A687B685B689B689A420CD17B685B6831
:1035100019463868FFF746FE0346002B0CBF01230F
:103520000023DBB22DE03B6800221A8024E0002358
:10353000BB6010E0BB68FB60FB689A687B681B6837
:103540009A4208D1BA687B685A60104B1A897B6826
:103550001A81012315E03B681B8807F10802114618
:103560001846FFF76FFF0346002BE3D13B681B882B
:1035700001339AB23B681A803B681B88012BD6D96D
:10358000002318461037BD4680BD00BFE42B002045
:1035900080B586B000AFF860B9607A603B60022009
:1035A000FFF788FC034683F00103DBB2002B01D058
:1035B00002234FE07B68002B02D03B68002B44D1F4
:1035C000052347E03B689B88244A1B0113441B7872
:1035D000002B33D124E03B681B687B61FB68002B28
:1035E00006D07B699A88FB681B889A4200D017E056
:1035F000BB68002B06D07B691A88BB681B889A427F
:1036000000D00DE07B699A687B681A603B681A6895
:103610007B685A60124B1A897B681A81002319E073
:103620003B689B883A6811461846FFF70BFF034634
:10363000002BD0D13B6800221A6000E000BF3B683D
:103640009B8801339AB23B689A803B689B88012B28
:10365000B8D90A2318461837BD4680BDBC2B0020B8
:10366000E42B002080B500AF124B1A6F1346DB002D
:103670009B1A9B000F4A13441C2200211846FBF79B
:1036800067FE0C4B5B6F002B0BD00A4B1B6F01339B
:1036900003F00303074A1367064B5B6F013B054AC0
:1036A0005367044B5B6F002B14BF01230023DBB275
:1036B000184680BDFC2A002080B483B000AF78603B
:1036C0007B681B68084A934206D07B681B6803F13D
:1036D00008027B681A6002E07B68044A1A600C37B3
:1036E000BD465DF8047B7047AC2B0020742B002096
:1036F00080B483B000AF78600E4B5B6C002B12D0AF
:103700000C4B1B6CDB000B4A1A447B681A60094B9C
:103710001B6C013303F00703064A1364054B5B6C13
:10372000013B044A536400BF0C37BD465DF8047B7F
:10373000704700BF742B002080B483B000AF786066
:103740007B681B78022B03D07B681B78032B0DD181
:10375000094B1B6C7A68927D1344074A1364064B2D
:103760005B6C7A68927D9B1A034A536400BF0C37E6
:10377000BD465DF8047B7047742B0020B0B588B05F
:1037800000AFF860B9607A600023FB772E4B5B6F67
:10379000032B54D82D4B5A6CBB68C3F108039A42D3
:1037A0004DD8294B5A6F284B1B6F134403F003036A
:1037B0007B6125497A691346DB009B1A9B00CA1876
:1037C000FB6814461D460FCD0FC495E8070084E83A
:1037D00007001D4B5B6F01331B4A5367BB68002B0F
:1037E0002BD01A4B5A6C194B1B6C134403F0070374
:1037F0007B617B69DB00154A13443B610023BB619D
:1038000011E03969BB69DB007A681A440B4692E81B
:10381000030083E8030007F110031846FFF74CFF8D
:10382000BB690133BB61BA69BB689A42E9D3074BF4
:103830005A6CBB681344054A53640123FB77FB7F32
:1038400018462037BD46B0BDFC2A0020742B00204E
:1038500080B586B000AF00237B6100237B8200230C
:103860007B740023FB81A2E0564B1B68FA8912038C
:103870001344BB60B868FFF725FC0346FB71FB7976
:10388000012B63D0032B02D0002B3BD08CE0B86817
:10389000FFF73EFC0346002B2BD04B4B1B68002B45
:1038A0001AD07B8A494A1B01134402221A707B8A70
:1038B000464A1B0113440433BA681A607B8A434AA0
:1038C0001B011344083302221A80414A7B8A538029
:1038D0007B8A01337B8207E03B4ABB6813603A4B2B
:1038E00002229A8001237B747B6943F001037B6190
:1038F0005AE07B8A5A1C7A82344A1B011344032201
:103900001A7051E07B8A314A1B01134400221A705D
:103910007B8A2E4A1B0113440433BA681A607B8ADF
:103920001B010833294A99187B8A1B010833274A4F
:10393000134406331A46B868FFF768FC7B6943F006
:1039400002037B617B8A01337B822DE07B7C002B31
:1039500017D07B8A1D4A1B01134402221A707B8AEE
:10396000194A126819491B010B4404331A607B8AF7
:10397000164A1B011344083302221A807B8A013342
:103980007B82114ABB68136000221249B868FFF7B6
:103990003DFC0D4B9B88022B01D1042300E0082342
:1039A0007A6913437B6100BFFB890133FB81FB898B
:1039B000022B7FF659AF7B69DBB218461837BD463C
:1039C00080BD00BFF4250020DC2B0020BC2B002094
:1039D000E42B0020E02B002080B586B002AF786099
:1039E00039607B681A1D0023009301233968094858
:1039F00001F0D6FA0346FB607B6802221A74FB686A
:103A0000002B01D1002300E00E2318461037BD46DD
:103A100080BD00BFF425002080B586B002AF78607D
:103A200039603B6803F108017B6803F10C02002355
:103A3000009301230B4801F0B3FA0346FB607B6857
:103A40009B7D002B01D0032200E001227B681A74C9
:103A5000FB68002B01D1002300E00E23184610372D
:103A6000BD4680BDF425002080B586B002AF7860E9
:103A700039603B68191D7B6803F10802002300933D
:103A800001230C4801F08CFA0346FB607B681B782D
:103A9000032B01D1052200E006227B681A74FB6823
:103AA000002B01D1002300E00E2318461037BD463D
:103AB00080BD00BFF425002080B586B002AF7860DD
:103AC0000B467B800023009301230C4A79680C4845
:103AD00001F066FA0346FB73FB7B002B01D00E233B
:103AE00007E07B88074A1B0113440E3301221A703A
:103AF000002318461037BD4680BD00BF5430030078
:103B0000F4250020BC2B002080B588B000AF786081
:103B100007F1080300221A605A609A607B68DB682C
:103B2000BB6007F1160207F1080311461846FFF7BC
:103B3000D3FC0346002B11D0FB68BB61BB699A889C
:103B40007B68DA80BB691A887B681A81FB68FA8A0D
:103B500011461846FFF7B0FFF86101E00A23FB6148
:103B6000FB6918462037BD4680BD000080B586B091
:103B700000AF78607B68981D07F108020D4B0021AB
:103B8000FFF706FD78617B69002B08D1FA68094BC5
:103B90009B8819461046FFF78FFF786104E00822E2
:103BA00000210448FBF7D4FB7B6918461837BD4653
:103BB00080BD00BFF42B002080B586B002AF7860D6
:103BC00039600023BB6007F108031846FFF790FD3A
:103BD0007B689B8A9B003A68D118BB681A68BB68EF
:103BE0009888002300930346114801F0D9F9034651
:103BF000FB607B689A8ABB689B8813449AB27B6897
:103C00009A827B689B7D013BDAB27B689A757B6800
:103C10009B7D002B02D17B6801221A74FB68002B6C
:103C200001D1002300E00E2318461037BD4680BDA9
:103C3000F425002080B483B000AF154B1B890133FD
:103C40009AB2134B1A81124B00225A80104B002259
:103C50001A730023FB8011E0FB88FA880D491201DA
:103C60000A441278002A0CBF01220022D1B2084A6D
:103C700013440A469A72FB880133FB80FB88012BB0
:103C8000EAD900BF0C37BD465DF8047B704700BF22
:103C9000E42B0020BC2B002080B485B000AF7860FE
:103CA0000023FB730023BB8123E0BB89164A134426
:103CB0009B7A002B1AD0BB89134A134400229A72B4
:103CC000BB89124A1B0113440C331B88002B0DD1F6
:103CD000BB890E4A1B0113440E331B78002B05D001
:103CE0007B68BA891A800123FB7305E0BB89013325
:103CF000BB81BB89012BD8D9FB7B18461437BD4645
:103D00005DF8047B704700BFE42B0020BC2B002033
:103D100080B500AF074B05221A70074B02229A802C
:103D2000054B196800230122044801F0A3F903465A
:103D3000184680BDE42B0020DC2B0020F425002059
:103D400080B582B000AF124B5B887B807B88114AC4
:103D50001B0113440C331B88002B10D17B880D4AA8
:103D60001B01134404331968002301220A4801F09F
:103D700081F903467B60064B04221A7002E0FFF7CC
:103D8000C7FF78607B6818460837BD4680BD00BF16
:103D9000E42B0020BC2B0020F425002080B586B049
:103DA00002AF104B5B68FB600F4B1A680E4B9B8891
:103DB0009B001344BB60FB685B880333FB80094BAB
:103DC00003221A70074B5A68F988002300930B46A8
:103DD000B968064801F0E4F8034618461037BD46B6
:103DE00080BD00BFE42B0020DC2B0020F425002048
:103DF00080B582B000AF0A4B5B880A491846FFF7CE
:103E000021FB0346002B03D0FFF7C8FF786002E0D8
:103E1000FFF796FF78607B6818460837BD4680BD7F
:103E2000E42B0020E82B002080B500AF074B0622D2
:103E30001A70064B5B88064A1B01134404331B6847
:103E40001846FFF769FA0346184680BDE42B0020A8
:103E5000BC2B002080B500AF054B07221A70044B25
:103E600000225A60FFF742FA0346184680BD00BFA1
:103E7000E42B002080B500AF0C48FFF70DFF034690
:103E800083F00103DBB2002B0BD0094B00221A7028
:103E9000074B00225A80064B00225A6041F61D5300
:103EA00002E0FFF7A5FF0346184680BDE62B002081
:103EB000E42B002080B483B000AF0A4B5B687B60CA
:103EC0007B685B8803337B80074B9A887B8813442D
:103ED0009AB2054B9A8000BF0C37BD465DF8047B53
:103EE000704700BFE42B0020DC2B002080B483B09F
:103EF00000AF144B1B687B60134B5B88134A1B019C
:103F0000134404331B680F4A13600F4B5B880F4A3E
:103F10001B01134404337A681A600B4B5B88184604
:103F2000084B9988094A0301134408330A461A804A
:103F3000044B02229A8000BF0C37BD465DF8047B1B
:103F4000704700BFDC2B0020E42B0020BC2B00209E
:103F500080B500AF1A4B1B78072B2DD801A252F861
:103F600023F000BF853F0200B93F0200B93F0200C5
:103F7000913F02009D3F0200A93F0200A93F0200BD
:103F8000B13F0200FFF756FE0D4B01221A7014E0FC
:103F9000FFF790FF0A4B02221A700EE0FFF7A6FF10
:103FA000074B06221A7008E0054B07221A7004E03E
:103FB000034B01221A7000E000BF00BF80BD00BFAC
:103FC000E42B002080B586B000AF786039600F2305
:103FD0007B617B68002B04D00120FEF751FF012399
:103FE00098E03B681B79032B00F2888001A252F80D
:103FF00023F000BF05400200134002007B40020096
:104000009B400200FFF772F978613B6801221A7148
:1040100077E00023FB7400233B821CE03B8A3F4A8D
:104020001B0113441B78022B12D13B8A3B4A1B0114
:10403000134404331B681846FFF76EF978613B8A16
:10404000364A1B01134400221A700123FB7405E059
:104050003B8A01333B823B8A012BDFD9FB7C83F017
:104060000103DBB2002B4BD00220FEF7F5FE01204E
:10407000FEF706FF41F61D534CE0294B196800235B
:104080000122284800F0F6FF03467B61244B022200
:104090009A803B6800221A7133E0214B1B68184656
:1040A000FFF73AF97861204B5B88FB811C4B1B685A
:1040B000BB60FB89194A1B01134404331B68184A6F
:1040C0001360FB89154A1B0113440433BA681A6054
:1040D000FB89134A9188114A1B01134408330A468D
:1040E0001A800F4B02229A80FB890C4A1B01134451
:1040F00000221A703B6800221A7102E000BF00E043
:1041000000BF7B69002B04D00120FEF7B9FE0E230F
:1041100000E0002318461837BD4680BDBC2B0020A8
:10412000DC2B0020F4250020E42B002080B586B095
:1041300000AF786039603B685B8A1B013B4A1344DF
:104140003B617B68002B07D03B68DB8819463869E8
:10415000FFF7AEF8012364E03B695A683B691B89AD
:104160009B001344FB603B681B7C062B4CD801A2D0
:1041700052F823F0B7410200DB410200C3410200C4
:10418000CF41020091410200E741020001420200DA
:10419000274B00225A603B689B69254A13602549DA
:1041A0002348FFF799F9034683F00103DBB2002BA4
:1041B00001D00A2335E0F9683868FFF70DFC786113
:1041C00025E0F9683868FFF727FC78611FE0F96897
:1041D0003868FFF7F1FC786119E0F9683868FFF793
:1041E00043FC786113E0124B5A68124B1B88194646
:1041F0001046FFF761FC78613B6806221A7406E0FE
:1042000041F61D537B6102E00F237B6100BF7B6998
:10421000002B05D03B68DB8819463869FFF748F862
:104220007B6918461837BD4680BD00BFBC2B0020F7
:10423000FC2B0020082C002080B584B000AF7860F3
:1042400039607B68002B01D0012323E03B681B7998
:10425000012B0BD0022B14D0002B16D13868FFF79E
:1042600053FCF8603B6802221A7112E03868FFF7CD
:104270007DFCF860FB680A2B0AD141F61D53FB60F8
:1042800006E041F61D53FB6003E00F23FB6000E0F6
:1042900000BFFB6818461037BD4680BD80B584B0AE
:1042A00000AF78607B68002B01D001233CE0204BFD
:1042B0001B7B002B03D01E4B00221A7301E0FFF77B
:1042C00047FE1B4B1B78013B062B29D801A252F855
:1042D00023F000BFF1420200F94202000143020054
:1042E0000943020021430200114302001943020066
:1042F000FFF7C0FDF86016E0FFF77AFDF86012E006
:10430000FFF74CFDF8600EE0FFF71AFDF8600AE0D9
:10431000FFF78AFDF86006E0FFF79CFDF86002E019
:104320000F23FB6000BFFB6818461037BD4680BDF9
:10433000E42B002080B58AB000AF0346FB71334BFD
:104340001A6F1346DB009B1A9B00304A13443B62F2
:104350003B6A1B78013B052B29D801A252F823F0B8
:10436000794302008743020087430200954302001D
:1043700095430200A3430200FB79396A1846FFF710
:1043800021FE786216E0FB79396A1846FFF7CEFE07
:1043900078620FE0FB79396A1846FFF74DFF7862C3
:1043A00008E0FB791846FFF779FF786202E00F23F7
:1043B0007B6200BF7B6A002B23D07B6A41F61D52D3
:1043C000934202D100233B6104E07B6A3B61386A7F
:1043D000FFF7B2F907F10C031946386AFEF7A2FDA0
:1043E00007F10C031846FEF77DFDFFF73BF9034686
:1043F000002B03D00020FFF79DFF02E00420FEF712
:104400003FFD00BF2837BD4680BD00BFFC2A00200D
:1044100080B500AF0420FEF74DFD034683F0010395
:10442000DBB2002B05D00420FEF716FD0020FFF7BD
:1044300081FF00BF80BD80B582B000AF78600B46C1
:10444000FB70FB781846FFF775FF00BF0837BD46C5
:1044500080BD000080B590B000AFF860B9607A60B0
:10446000FB700023FB860023FB870220FEF722FD62
:10447000034683F00103DBB2002B01D002239BE053
:10448000BB68002B01D1052396E0BB681B884FF663
:10449000FF72934203D0BB685B88002B01D10423D9
:1044A0008AE0BB685A68BB681B8919461046FEF74C
:1044B000E5FD034683F00103DBB2002B01D00323AB
:1044C0007AE07B68002B21D10023BB630BE0BB6843
:1044D0005A68BB6BDB0013449A88FB8F1344FB873D
:1044E000BB6B0133BB63BB681B891A46BB6B9A422B
:1044F000EDD807F11202FB8F11461846FEF722FF96
:1045000038633B6B002B07D03B6B55E07B681B8807
:104510007B827B685B88FB87FB783B75002387F891
:1045200024307B8AFB84BB681B89DBB287F82A3086
:1045300003233B85FEF776FF03463B62BB681B887F
:10454000BB83BB685B883B83FB8F7B83FB78032B40
:1045500005D1042387F82430FB681B68FB62FB8EBF
:10456000FB83BB681B891946BB685A6807F11403B3
:104570001846FFF703F9034683F00103DBB2002B73
:1045800007D07A8AFB8F11461846FEF729FF0823C9
:1045900012E0FB68002B0CD0FB6800225A603A6ADC
:1045A000FB681A60FB6800229A72054B1A89FB6847
:1045B0001A81FFF72DFF002318464037BD4680BD06
:1045C000E42B002080B485B000AF78600E4B1B78E0
:1045D000082B02D10C23FB600EE00B4B1B78194615
:1045E0000A4A7B6842F82130074B1B780133DAB264
:1045F000054B1A700023FB60FB6818461437BD4654
:104600005DF8047B704700BFD52A0020D82A00201F
:1046100080B58EB000AF07F1200300221A605A6007
:104620009A60DA601A610220FEF744FC0346002B10
:1046300006D007F120031846FEF754FC002358E08B
:104640000120FEF737FC0346002B01D0002350E089
:104650000120FEF701FC00F015FC01233B71FFF780
:10466000F7F8034687F8373097F837300B2B36D8F2
:1046700001A252F823F000BFA9460200C74602007B
:10468000A9460200C7460200DF460200D9460200E2
:10469000AD460200D9460200DF460200CD460200C8
:1046A000D3460200CD4602000B2322E00220FEF793
:1046B000D3FB0120FEF7E4FB07F120031846FEF7C9
:1046C00011FC002315E000233B7209E003233B7239
:1046D00006E002233B7203E001233B7200E000BFCF
:1046E0003B1D002200211846FFF748F8FFF790FE17
:1046F000002318463837BD4680BD00BF80B584B062
:1047000000AF786039607B68002B02D03B68002BDB
:1047100001D1052328E007F10A0319467868FEF75E
:10472000DBFE0346002B1ED07B685B68FB607B8949
:104730000F491A010A440C321288013291B20C4A14
:104740001B0113440C330A461A803B68FA681A604E
:104750007B685B6803F10C023B685A607B6801224E
:104760009A72002300E00A2318461037BD4680BD28
:10477000BC2B002080B584B000AF78607B68002B34
:1047800001D105232EE007F10A0319467868FEF7E8
:10479000A3FE0346002B22D07B89144A1B0113443D
:1047A0000C331B88002B17D07B689B7A002B13D00F
:1047B0007B890E491A010A440C321288013A91B2DF
:1047C0000A4A1B0113440C330A461A807B680022F4
:1047D0009A720023FB6004E00623FB6001E00A23D9
:1047E000FB60FB6818461037BD4680BDBC2B00201F
:1047F00080B584B000AF78600B467B800220FEF766
:1048000059FB034683F00103DBB2002B01D00223E6
:1048100016E07B68002B01D1052311E007F10A02A5
:104820007B8811461846FEF78DFDF860FB68002B6B
:1048300005D17A897B681A807B687A885A80FB6800
:1048400018461037BD4680BD80B584B000AF786093
:104850000220FEF72FFB034683F00103DBB2002B9F
:1048600001D002232DE07B68002B01D1052328E035
:104870007B681B88022B01D9042322E07B681B88FC
:104880001B01124A1344BB60BB685B891A467B68F4
:104890005B880333D31A002B10DB7B685A887B6854
:1048A0001B8819461046FEF79BFD7B6800221A8084
:1048B0007B6800225A800023FB6001E00423FB6038
:1048C000FB6818461037BD4680BD00BFBC2B0020DA
:1048D00080B582B000AF7860396002230022396869
:1048E0007868FFF7B7FD034618460837BD4680BD18
:1048F00080B584B000AFF860B9607A607B68002B47
:1049000001D1052306E002237A68B968F868FFF749
:10491000A1FD034618461037BD4680BD80B582B064
:1049200000AF786039607B68002B01D1052306E079
:104930000323002239687868FFF78CFD0346184688
:104940000837BD4680BD80B58AB000AF0346FB8006
:104950000220FEF7AFFA034683F00103DBB2002B1F
:1049600001D002231BE0FB884FF6FF72934201D176
:10497000042314E005233B7301233B74FB887B82F3
:1049800007F10C03002200211846FEF7F7FE03464C
:10499000002B03D0FFF73CFD002300E0082318465E
:1049A0002837BD4680BD000080B588B000AF02202A
:1049B000FEF780FA034683F00103DBB2002B01D03F
:1049C000022316E006233B713B1D002200211846FE
:1049D000FEF7D4FE0346002B0AD0084B1B78002BB1
:1049E00002D0064B01221A73FFF712FD002300E0EC
:1049F000082318462037BD4680BD00BFE42B0020A9
:104A000080B584B000AFBA607B600346FB810B4683
:104A1000BB8107F10C0107F10E007B68BA68FEF755
:104A2000B7FD034618461037BD4680BD80B584B03B
:104A300000AF0346B9607A60FB8107F10E017B6825
:104A4000BA680020FEF7A4FD034618461037BD469D
:104A500080BD80B584B000AF0346B9607A60FB8149
:104A600007F10E007B68BA680021FEF791FD03464E
:104A700018461037BD4680BD80B483B000AF786063
:104A800039607B68002B02D03B68002B01D10523E5
:104A900004E07B681A683B681A60002318460C37EC
:104AA000BD465DF8047B704780B483B000AF4FF023
:104AB00010235B697B607B68B3F1FF3F04D14FF04B
:104AC00080535B691B0300E07B6818460C37BD46CA
