:020000021000EC
:10F0000000000120297802005178020053780200A4
:10F01000557802005778020059780200000000007D
:10F020000000000000000000000000005B7802000B
:10F030005D780200000000005F7802006178020045
:10F04000493D020063780200B55D0200715702007D
:10F05000593A0200637802001D470200915F0200E6
:10F06000A166020063780200637802006378020000
:10F07000637802006378020063780200637802001C
:10F0800063780200A1120200637802006378020034
:10F09000E112020063780200F17702006378020057
:10F0A00063780200637802006378020063780200EC
:10F0B0006378020063780200000000000000000096
:10F0C00063780200637802006378020063780200CC
:10F0D0006378020063780200637802000000000099
:10F0E0000000000000000000000000000000000020
:10F0F0000000000000000000000000000000000010
:10F1000000000000000000000000000000000000FF
:10F1100000000000000000000000000000000000EF
:10F1200000000000000000000000000000000000DF
:10F1300000000000000000000000000000000000CF
:10F1400000000000000000000000000000000000BF
:10F1500000000000000000000000000000000000AF
:10F16000000000000000000000000000000000009F
:10F17000000000000000000000000000000000008F
:10F18000000000000000000000000000000000007F
:10F19000000000000000000000000000000000006F
:10F1A000000000000000000000000000000000005F
:10F1B000000000000000000000000000000000004F
:10F1C000000000000000000000000000000000003F
:10F1D000000000000000000000000000000000002F
:10F1E000000000000000000000000000000000001F
:10F1F000000000000000000000000000000000000F
:10F2000010B5054C237833B9044B13B10448AFF360
:10F2100000800123237010BDE025002000000000C5
:10F22000FC9302000C4B43B10C480D4910B5AFF3F1
:10F2300000800C48036823B910BD0A48036833B93D
:10F240007047094B002BF7D0BDE810401847064B1C
:10F25000002BF5D0184700BF00000000FC9302000F
:10F26000E4250020CC25002000000000154B002BD9
:10F2700008BF134B9D46A3F5803A00218B460F46ED
:10F280001348144A121A00F063F80F4B002B00D0F9
:10F2900098470E4B002B00D0984700200021040017
:10F2A0000D000D48002802D00C48AFF3008000F09C
:10F2B0002BF82000290000F04BFD00F011F800BFF2
:10F2C0000000080000000120000000000000000015
:10F2D000E0250020842F0020000000000000000036
:10F2E00008B5074B044613B10021AFF30080054B6E
:10F2F0001868836A03B19847204600F031F800BFD0
:10F3000000000000F892020070B50D4E0D4CA41BD9
:10F31000A4100025A54209D10B4E0C4C09F0E0FFCA
:10F32000A41BA4100025A54205D170BD56F82530B8
:10F3300098470135EEE756F8253098470135F2E752
:10F34000C4250020C4250020C4250020C825002095
:10F3500002440346934200D1704703F8011BF9E7CA
:10F36000FEE700BF80B483B000AF78604FF0A043E9
:10F3700018460C37BD465DF8047B704780B584B0F5
:10F3800000AF7860084611461A460346FB700B46EC
:10F39000BB7013467B703B1D1846FFF7E3FFF86018
:10F3A0007A68F978BB785B0019437B789B00194336
:10F3B0003B7E1B0219433B7F1B041943FB6802F58C
:10F3C000E07243F8221000BF1037BD4680BD80B503
:10F3D00084B002AF786000230193002300930023E0
:10F3E000012201217868FFF7C9FF00BF0837BD4639
:10F3F00080BD80B584B000AF78603B1D1846FFF734
:10F40000B1FFF8607B68012202FA03F31946F8683D
:10F4100000F072F800BF1037BD4680BD80B584B0E3
:10F4200000AF78603B1D1846FFF79CFFF8607B68D3
:10F43000012202FA03F31946F86800F06CF800BFE5
:10F440001037BD4680BD80B584B000AF78603B1DED
:10F450001846FFF787FFF860FB68D3F80435BB60F8
:10F46000BB68DA437B68012101FA03F31A40FB68A9
:10F47000C3F808257B6801229A40BB681A40FB68E4
:10F48000C3F80C2500BF1037BD4680BD80B582B0E3
:10F4900000AF786039603B68002B03D17868FFF7D4
:10F4A000BDFF02E07868FFF7A4FF00BF0837BD4644
:10F4B00080BD80B584B000AF78603B1D1846FFF773
:10F4C00051FFF860F86800F00AF802467B6822FAFB
:10F4D00003F303F0010318461037BD4680BD80B426
:10F4E00083B000AF78607B68D3F8043518460C37DA
:10F4F000BD465DF8047B704780B483B000AF786090
:10F5000039607B683A68C3F8082500BF0C37BD46F0
:10F510005DF8047B704780B483B000AF78603960D9
:10F520007B683A68C3F80C2500BF0C37BD465DF810
:10F53000047B704780B584B000AF78600E4A7B686A
:10F5400013441B781846FFF7B4FF0346002B14BF83
:10F5500001230023FB73FB7B002B14BF012300233B
:10F56000DBB283F00103DBB203F00103DBB2184628
:10F570001037BD4680BD00BFFC92020080B582B04E
:10F5800000AF7860054A7B6813441B780021184659
:10F59000FFF77CFF00BF0837BD4680BDFC9202002C
:10F5A00080B582B000AF7860054A7B6813441B7851
:10F5B00001211846FFF76AFF00BF0837BD4680BD2E
:10F5C000FC92020080B582B000AF0023FB7106E020
:10F5D000FB791846FFF7E4FFFB790133FB71FB79F8
:10F5E000022BF5D900BF0837BD4680BD80B582B07B
:10F5F00000AF0023FB7106E0FB791846FFF7BEFF62
:10F60000FB790133FB71FB79022BF5D900BF083779
:10F61000BD4680BD80B582B000AF7860054A7B688A
:10F6200013441B781846FFF70EFF00BF0837BD468E
:10F6300080BD00BFFC92020080B582B000AF002305
:10F640007B6009E0094A7B6813441B781846FFF782
:10F65000BEFE7B6801337B607B68022BF2D9FFF72B
:10F66000B1FF00BF0837BD4680BD00BFFC9202005D
:10F6700080B485B000AF78604FF0FF33BB600023EB
:10F68000FB600DE00B4AFB6813441B781A467B684D
:10F690009A4202D1FB68BB6005E0FB680133FB6066
:10F6A000FB68032BEED9BB6818461437BD465DF8DE
:10F6B000047B70470093020080B483B000AF786091
:10F6C000044A7B6813441B7818460C37BD465DF826
:10F6D000047B70470093020076DF704700BF184636
:10F6E00032DF704700BF184680B485B000AF786045
:10F6F000254BFB607B68002B40D0244B1A68F968CF
:10F700007B6800BF00BF00BF00BF00BF00BF00BFDD
:10F7100000BF8A422FD000BF00BF00BF00BF00BFA4
:10F7200000BF00BF00BF00BF00BF00BF00BF00BFE1
:10F7300000BF00BF00BF00BF00BF00BF00BF00BFD1
:10F7400000BF00BF00BF00BF00BF00BF00BF00BFC1
:10F7500000BF00BF00BF00BF00BF00BF00BF00BFB1
:10F7600000BF00BF00BF00BF00BF00BF00BF00BFA1
:10F7700000BF00BF00BF013BC3D17B6000BF143797
:10F78000BD465DF8047B70470024F400C0250020CE
:10F7900080B582B000AF78607B684FF47A7202FB6C
:10F7A00003F31846FFF7A0FF00BF0837BD4680BD32
:10F7B00080B500AF0120FFF7E1FE1920FFF7E8FF59
:10F7C0000120FFF7EDFE00BF80BD80B500AF022035
:10F7D000FFF7D4FE1920FFF7DBFF0220FFF7E0FE62
:10F7E00000BF80BD80B582B000AF0A49012003F0A0
:10F7F00073FC0246084B1A60074B1B687B607B68F2
:10F80000002B02D0786803F09BF800BF0837BD4694
:10F8100080BD00BF4DF90100982E002080B582B058
:10F8200000AF01F063FD02460F4B1A600E4B1B68E0
:10F830007B607B68002B02D0786803F081F80B4A6C
:10F8400001210B4801F088FD0246074B1A60064B68
:10F850001B683B603B68002B02D0386803F070F8EF
:10F8600000BF0837BD4680BD982E002039FD01003D
:10F870000493020080B582B000AF0B4B002240F22F
:10F880003331184601F09CFD0246084B1A60074BC5
:10F890001B687B607B68002B02D0786803F050F80F
:10F8A00000BF0837BD4680BDFC250020982E0020F3
:10F8B00080B584B000AF002003F0F4FB0246154B86
:10F8C0001A60144B1B68FB60FB68002B02D0F868C1
:10F8D00003F036F803F0CBFC02460E4B1A600D4BDA
:10F8E0001B68BB60BB68002B02D0B86803F028F827
:10F8F000FFF7F6FE0246074B1A60064B1B687B605B
:10F900007B68002B02D0786803F01AF800BF10372C
:10F91000BD4680BD982E002080B582B000AF04F0B7
:10F9200055F90246084B1A60074B1B687B607B68E1
:10F93000002B02D0786803F003F8002004F0A4F94B
:10F9400000BF0837BD4680BD982E002080B584B02A
:10F9500000AF0346FB71FB79072B1ED00A2B02D0A8
:10F96000042B03D035E0FFF7A3FF32E01B4B1B88CD
:10F9700013211846FFF7B0FE0246194B1A60184BC8
:10F980001B68082B22D0164B1B68FB60FB68002B02
:10F990001CD0F86802F0D4FF18E0104B1B884FF61B
:10F9A000FF72934214D107F0BDF802460C4B1A6067
:10F9B0000B4B1B68082B0BD0094B1B68BB60BB684B
:10F9C000002B05D0B86802F0BBFF01E000BF00E0EB
:10F9D00000BF00BF1037BD4680BD00BFB825002066
:10F9E000982E002080B582B000AF7860524B1B7813
:10F9F0000F2B00F28580504B1B781B017A68117821
:10FA00004E4AD1544C4B1B781B0101337A68517814
:10FA10004A4AD154484B1B781B0102337A689178CB
:10FA2000464AD154444B1B781B0103337A68D17882
:10FA3000424AD154404B1B781B0104337A68117938
:10FA40003E4AD1543C4B1B781B0105337A685179EF
:10FA50003A4AD154384B1B781B0106337A689179A6
:10FA6000364AD154344B1B781B0107337A68D1795D
:10FA7000324AD154304B1B781B0108337A68117A13
:10FA80002E4AD1542C4B1B781B0109337A68517ACA
:10FA90002A4AD154284B1B781B010A337A68917A81
:10FAA000264AD154244B1B781B010B337A68D17A38
:10FAB000224AD154204B1B781B010C337A68117BEE
:10FAC0001E4AD1541C4B1B781B010D337A68517BA5
:10FAD0001A4AD154184B1B781B010E337A68917B5C
:10FAE000164AD154144B1B781B010F337A68D17B13
:10FAF000124AD154104B1B780133DAB20E4B1A70F4
:10FB00000D4B1B780F2B13D9FFF752FE0C4B1B88A4
:10FB10001A460C4B1B780C49002008F03BFE4FF4B2
:10FB2000807200210548FFF713FC034B00221A7076
:10FB300000BF0837BD4680BD402600204426002077
:10FB40001C2600202C2600202893020090B583B0AC
:10FB500000AF0446084611461A462346FB8003467A
:10FB60007B710B463B711346FB70102200211F482E
:10FB7000FFF7EEFBFB88DAB21C4B1A70FB881B0AFE
:10FB80009BB2DAB2194B5A70184A7B799370174AB4
:10FB90003B79D370154AFB781371144A3B7E53713D
:10FBA000124B01229A71114B0122DA710F4B012283
:10FBB0001A720E4B01225A720C4B01229A720B4B95
:10FBC0000122DA72094B01221A73084B01225A737F
:10FBD000064B01229A73054B0122DA730348FFF7A3
:10FBE00001FF00BF0C37BD4690BD00BF302600208E
:10FBF00080B500AF06F032FC00F0FEFB0346DBB23E
:10FC00002C3BDAB2014B1A7000BF80BD2C260020BD
:10FC100090B583B002AF3E4B1B78032B05D9FFF79D
:10FC2000E7FF3B4B00221A7005E0394B1B7801338C
:10FC3000DAB2374B1A70374B1B8801339AB2354B07
:10FC40001A80354B1B68184608F00EFF4FF0000273
:10FC5000324B09F099F803460C46184621462AA370
:10FC6000D3E9002308F0B2FD03460C4618462146AE
:10FC700009F072F90346DAB2294B1A70264B5B6819
:10FC8000184608F0F1FE4FF00002244B09F07CF812
:10FC900003460C46184621464FF00002214B08F05F
:10FCA00095FD03460C461846214609F055F90346D2
:10FCB000DAB21D4B1A70184B9B68184608F0D4FE38
:10FCC0004FF00002194B09F05FF803460C46184646
:10FCD000214609F041F90346DAB2154B1A700D4B73
:10FCE0001888144B19780E4B1A780F4B1C78104B50
:10FCF0001B7800932346FFF729FF00BF0437BD465A
:10FD000090BD00BFAFF30080000000000088C3403A
:10FD1000462700201C26002020260020000024402A
:10FD20009D2E0020000069409C2E002000408F4046
:10FD3000942E00202C26002080B582B000AF786081
:10FD4000FFF736FDFFF764FF00BF0837BD4680BDF3
:10FD500080B500AF1549002008F0E0F9FFF75EFD1F
:10FD6000FFF740FDFFF7D8FD00F0B8FA00F024F8E7
:10FD700000F06AF900F04CFB00F062FB4FF4FA70FF
:10FD8000FFF706FD00F0D2FB03461A46084B1A8027
:10FD9000074B1B881A460749002008F0FBFCFFF7B9
:10FDA00014FDFFF767FD20BFFDE700BF3893020099
:10FDB000442700204893020080B586B000AF3B4640
:10FDC00000221A605A609A60DA6008233B600523BB
:10FDD0007B604FF0CC73BB6003233B733946002339
:10FDE000094A0A4805F068F878617B693B613B691C
:10FDF000002B02D0386902F0A3FD044805F0D6F8C4
:10FE000000BF1837BD4680BD19FF01006093020096
:10FE100080B588B002AF0346FB710B46BB71134639
:10FE20007B71BB793B737B797B73114B00221A701A
:10FE300007F10C02F9790123009302230D4805F024
:10FE4000ADFB78617B693B613B69002B02D038696F
:10FE500002F076FD00BF064B1B78DBB283F0010396
:10FE6000DBB2002BF7D100BF1837BD4680BD00BF05
:10FE7000472700206093020080B588B002AF034698
:10FE80000A46FB711346BB7100237B61204B0022A5
:10FE90001A70BA1DF9790123009301231D4805F05A
:10FEA0007DFB78617B693B613B69002B02D038693F
:10FEB00002F046FD00BF164B1B78DBB283F0010356
:10FEC000DBB2002BF7D17B69002B1BD1104B00223A
:10FED0001A7007F10B02F97901230E4805F086FB31
:10FEE00078617B69FB60FB68002B02D0F86802F048
:10FEF00027FD00BF064B1B78DBB283F00103DBB2AA
:10FF0000002BF7D1FB7A18461837BD4680BD00BFDD
:10FF1000472700206093020080B483B000AF786070
:10FF200039607B681B78002B00D003E0044B012272
:10FF30001A7000BF00BF0C37BD465DF8047B7047E8
:10FF40004727002080B485B000AF3B600346FB71BB
:10FF50000B46BB7113467B710023FB60074B0022ED
:10FF60001A70FB68002B02D1044B00221A7000BFEC
:10FF70001437BD465DF8047B704700BF472700205B
:10FF800080B485B000AF7860254BFB607B68002BA8
:10FF900040D0244B1A68F9687B6800BF00BF00BFDF
:10FFA00000BF00BF00BF00BF00BF8A422FD000BF0C
:10FFB00000BF00BF00BF00BF00BF00BF00BF00BF49
:10FFC00000BF00BF00BF00BF00BF00BF00BF00BF39
:10FFD00000BF00BF00BF00BF00BF00BF00BF00BF29
:10FFE00000BF00BF00BF00BF00BF00BF00BF00BF19
:10FFF00000BF00BF00BF00BF00BF00BF00BF00BF09
:020000022000DC
:1000000000BF00BF00BF00BF00BF00BF00BF013B7B
:10001000C3D17B6000BF1437BD465DF8047B7047D9
:100020000024F400C025002080B582B000AF7860C5
:100030007B684FF47A7202FB03F31846FFF7A0FFC8
:1000400000BF0837BD4680BD80B582B000AFD0216B
:100050007620FFF711FF0346FB71FB79602B0DD172
:10006000B622E0217620FFF7D3FE6420FFF7DCFF05
:10007000762000F007F86420FFF7D6FF00BF0837AE
:10008000BD4680BD80B582B000AF0346FB717A4BA0
:100090001B7803F00703DAB2FB79F2211846FFF769
:1000A000B7FE764B1B785B015AB2754B1B789B00F1
:1000B0005BB213435AB2734B1B785BB213435BB210
:1000C000DAB2FB79F4211846FFF7A2FE6E4B1B78DB
:1000D0005B015AB26D4B1B789B005BB213435BB262
:1000E000DAB2FB79F5211846FFF792FEF879684BF2
:1000F0001A228821FFF726FF654B5B781B021AB294
:10010000634B1B781BB213431BB29AB2614B1A802C
:100110005F4BDB781B021AB25D4B9B781BB213431B
:100120001AB25D4B1A805A4B5B791B021AB2584BBC
:100130001B791BB213431AB2584B1A80544BDB790C
:100140001B021AB2524B9B791BB213431BB29AB2D9
:10015000534B1A804E4B5B7A1B021AB24C4B1B7AE4
:100160001BB213431AB24F4B1A80494BDB7A1B0266
:100170001AB2474B9B7A1BB213431AB24A4B1A80EE
:10018000434B5B7B1B021AB2414B1B7B1BB21343DD
:100190001AB2464B1A803E4BDB7B1B021AB23C4B19
:1001A0009B7B1BB213431AB2414B1A80384B5B7CCA
:1001B0001B021AB2364B1B7C1BB213431AB23D4BC7
:1001C0001A80334BDB7C1B021AB2314B9B7C1BB277
:1001D00013431AB2384B1A802D4B5B7D1B021AB2A7
:1001E0002B4B1B7D1BB213431AB2344B1A80284B86
:1001F000DB7D1B021AB2264B9B7D1BB213431AB246
:100200002F4B1A80224B5A7E2E4B1A70F879204BB6
:100210000722E121FFF796FE1D4B5B781B021AB205
:100220001B4B1B781BB213431AB2274B1A80184B77
:100230009A78264B1A70164BDB781A02144B1B79EE
:100240001B01DBB213431B119AB2214B1A80104BD6
:100250005B791A020E4B1B7903F0F00313431B1159
:100260009AB21C4B1A800A4B9A791B4B1A7000BF2A
:100270000837BD4680BD00BFBB250020BC2500203F
:10028000BA250020BD250020BF250020BE25002066
:10029000A02E0020BC2E0020C02E0020FE2E00200C
:1002A000E42E0020CC2E0020E62E0020CE2E0020B2
:1002B000DC2E0020002F0020BA2E0020E82E002087
:1002C000FC2E0020C22E0020022F0020FA2E00203B
:1002D000BE2E0020F82E0020D42E002080B588B03D
:1002E00000AF184A3B1D07CA03C31A701649002005
:1002F00005F06EFFF861FB69BB61BB69002B02D0A2
:10030000B86902F01DFB3B1D1946002005F0C8FF2F
:10031000F861FB697B617B69002B02D0786902F090
:100320000FFB0121094806F017F8F861FB693B61F2
:100330003B69002B02D0386902F002FB00BF203776
:10034000BD4680BD6893020051030200482700208B
:1003500080B584B000AF78607B681B78002B3BD100
:100360007B685B680121184605F0F6FFF860FB68C2
:10037000BB60BB68002B02D0B86802F0E1FA7B6872
:100380005B68B3F9003007EE903AB8EEE77ADFED3C
:10039000146AC7EE267A134BC3ED007A114BD3EDE6
:1003A000007A9FED117A67EE877A9FED107A67EEFB
:1003B000877A0C4BC3ED007A0A4BD3ED007A9FEDA0
:1003C0000C7A67EE877AFCEEE77AC7ED007A3B8815
:1003D0009BB21AB2074B1A8000BF1037BD4680BDD2
:1003E000000080454C27002085EBB13F333353405C
:1003F0000000C8425027002080B400AF034BB3F97F
:1004000000301846BD465DF8047B70475027002039
:1004100090B587B000AF084B3C1D0FCB84E80F00B0
:10042000391D00230022054803F0B4F878617B6988
:1004300018461C37BD4690BD7C93020074930200A1
:1004400080B584B002AF0B4B9F221A7004220021AA
:100450000948FEF77DFF04230093074B012205495D
:10046000064803F05BF978607B6818460837BD469C
:1004700080BD00BF542700205C2700207493020039
:1004800080B586B002AF0346FB80FB88B3F5805F82
:1004900001D3002340E0042200212148FEF758FF49
:1004A000082200211F48FEF753FFFB88184600F082
:1004B00059F8F8601A4B03221A70FB681B14DAB261
:1004C000174B5A70FB681B12DAB2154B9A70FB6817
:1004D000DAB2134BDA7008230093124B042210494E
:1004E000114803F01BF90F4B1B799AB20D4B5B7946
:1004F0009BB213449AB20B4B9B799BB213449AB2B2
:10050000084BDB799BB213447B817B89B3F57F7FFA
:1005100001D1012300E0002318461037BD4680BDFD
:1005200058270020602700207493020080B582B015
:1005300000AF0023FB800BE0FB881846FFF7A0FF0D
:100540000346002B01D0FB8808E0FB880133FB80C9
:10055000FB88B3F5805FEFD34FF48053184608371C
:10056000BD4680BD80B483B000AF78607B681B025D
:1005700018460C37BD465DF8047B704780B588B0DF
:1005800000AF78600023FB774BE02A4B1A68FB7FB3
:10059000DB001344BB61BB691B781A4601239340FF
:1005A0007B61254B1A687B691340002B36D07B6931
:1005B000DA43214B1B6813401F4A1360BB691B7849
:1005C000184604F099F80346FB74BB691B781A4679
:1005D000012393401A46194B1B681340FA7CB969F2
:1005E00009788A40934219D1FB7CBA695278012A72
:1005F0000CBF01220022D2B293420CBF0123002380
:10060000DBB2FB60BB695B68002B07D0BB695B6832
:10061000BA691278F968C9B210469847FB7F01336E
:10062000FB77074B1B78FA7F9A42AED300BF203787
:10063000BD4680BD68270020982700209427002011
:100640006C27002080B584B000AF78600B46FB704B
:1006500001227B6802FA03F3FB601E4B184600F090
:10066000E3FEB860BB68002B30D11B4B1A68FB68F7
:100670001340002B22D1786804F03EF80346002B8B
:1006800006D0164B1A68FB681343144A136006E041
:10069000FB68DA43114B1B681340104A13600E4B82
:1006A0001A68FB6813430C4A13600A480C4B1B681A
:1006B0000022194600F084FEB86008E0FB68DA43C7
:1006C000054B1B681340044A136000E000BF10375D
:1006D000BD4680BD74270020982700209427002065
:1006E0007027002080B588B000AFF8600B467A60B4
:1006F000FB727B68042B01D8072349E003F028FF35
:10070000034683F00103DBB2002B07D003F0E0FEC9
:10071000F861FB69002B01D0FB6939E01E4AFB68D8
:1007200013601E4AFB7A13701D4A7B6813601D4BD1
:1007300000221A601C4B00221A601EE0FB7ADB00CC
:10074000FA681344BB6103233B7500237B750023C8
:10075000BB750023FB75BB699B787B75BB691B78F8
:10076000184607F11403114A194603F003FFF86114
:10077000FB69002B01D0FB690AE0FB7A5A1EFA7272
:10078000002BDBD10A4A00210A4800F0E5FD0346B0
:1007900018462037BD4680BD682700206C27002002
:1007A000702700209427002098270020450602008B
:1007B0007D0502008C93020080B582B000AF00235B
:1007C0007B600CE00B4B1A687B68DB0013441B78E2
:1007D0000121184603F028FF7B6801337B60064B3C
:1007E0001B781A467B689A42ECD8002318460837D3
:1007F000BD4680BD682700206C27002080B483B0F0
:1008000000AF0346FB71094997F907305B09FA7994
:1008100002F01F02012000FA02F241F8232000BF7B
:100820000C37BD465DF8047B704700BF00E100E077
:1008300080B483B000AF0346FB71094997F90730D4
:100840005B09FA7902F01F02012000FA02F220335C
:1008500041F8232000BF0C37BD465DF8047B70478C
:1008600000E100E080B483B000AF0346FB710949AA
:1008700097F907305B09FA7902F01F02012000FAAC
:1008800002F2403341F8232000BF0C37BD465DF82B
:10089000047B704700E100E080B483B000AF034602
:1008A000FB71094997F907305B09FA7902F01F02D9
:1008B000012000FA02F2603341F8232000BF0C3718
:1008C000BD465DF8047B704700E100E080B483B072
:1008D00000AF03463960FB7197F90730002B0BDA44
:1008E0000D49FB7903F00F03043B3A68D2B2520181
:1008F000D2B20B441A7609E0084997F907303A68F2
:10090000D2B25201D2B20B4483F8002300BF0C379D
:10091000BD465DF8047B704700ED00E000E100E0BB
:1009200080B485B000AF7860254BFB607B68002BFE
:1009300040D0244B1A68F9687B6800BF00BF00BF35
:1009400000BF00BF00BF00BF00BF8A422FD000BF62
:1009500000BF00BF00BF00BF00BF00BF00BF00BF9F
:1009600000BF00BF00BF00BF00BF00BF00BF00BF8F
:1009700000BF00BF00BF00BF00BF00BF00BF00BF7F
:1009800000BF00BF00BF00BF00BF00BF00BF00BF6F
:1009900000BF00BF00BF00BF00BF00BF00BF00BF5F
:1009A00000BF00BF00BF00BF00BF00BF00BF013BD2
:1009B000C3D17B6000BF1437BD465DF8047B704730
:1009C0000024F400C025002080B582B000AF78601C
:1009D000054A7B68C2F8083507211120FFF776FF2A
:1009E00000BF0837BD4680BD0010014080B500AF94
:1009F0000D4B4FF48032C3F844230B4B4FF480323D
:100A0000C3F804231120FFF747FF1120FFF7F6FE7C
:100A1000054B01221A602F20FFF782FF034B0122B2
:100A20001A7000BF80BD00BF00100140BA2800202E
:100A300080B500AF1120FFF7FBFE0F4B4FF4803263
:100A4000C3F848230C4B4FF48032C3F808230A4BF9
:100A500001225A602F20FFF763FF074B01229A60A3
:100A6000064B00221A602F20FFF75AFF044B00228A
:100A70001A7000BF80BD00BF00100140AC280020EC
:100A8000BA28002080B400AF034BD3F804351846D1
:100A9000BD465DF8047B70470010014080B483B010
:100AA00000AF786039607A683B68D31A23F07F43DF
:100AB00018460C37BD465DF8047B704780B483B0A0
:100AC00000AF7860044A7B68C2F8403500BF0C373D
:100AD000BD465DF8047B70470010014080B487B0CC
:100AE00000AF7860294B1B68002B03D1274A7B6835
:100AF000136045E07B681A68244B1B681B689A42A8
:100B000010D8224B1B68214A126811687A68126853
:100B10008A1A1A601D4B1A687B68DA611B4A7B6867
:100B200013602DE07B681B68FB60184B1B687B61C2
:100B3000164B1B683B6109E03B691B68FA68D31AD6
:100B4000FB603B697B613B69DB693B613B69002B77
:100B500004D03B691A68FB689A42EDD33B69002BCD
:100B600005D03B691A68FB68D21A3B691A607B683A
:100B7000FA681A607B683A69DA617B697A68DA61D7
:100B800000BF1C37BD465DF8047B7047A8280020D5
:100B900080B586B000AF7860294B1B68FB60284B9E
:100BA0001B687B617B693B6108E03A697B689A421C
:100BB00008D03B697B613B69DB693B613B69002B8A
:100BC000F3D100E000BF3B69002B01D1002333E0EB
:100BD0007A693B699A4214D1194B1B68DB69184A40
:100BE0001360174B1B68002B0BD1164B01229A6028
:100BF000154B00221A60154B01221A702F20FFF7A7
:100C00008FFE3B691B68BB603B69DA697B69DA610F
:100C10007B69DB693B613B69002B05D03B691A6846
:100C2000BB681A443B691A60054B1B68FA689A4214
:100C300014BF01230023DBB218461837BD4680BD20
:100C4000A828002000100140AC280020BB2800206C
:100C500080B500AF1120FFF705FE00BF80BD80B555
:100C600000AF1420FFF7FEFD00BF80BD80B582B04D
:100C700000AF78607B685B697A6892691046984734
:100C800000BF0837BD4680BD80B584B000AF2B4B98
:100C90001B68002B4ED000237B60FFF7F3FE02465B
:100CA000274B1B6819461046FFF7F8FEB860234B28
:100CB0001B68FB601DE0FB681A68BB689A421CD881
:100CC000FB681B68BA68D31ABB60FB681B687A684C
:100CD00013447B60FB683B60FB68DB69FB603B683F
:100CE0001B7C002B05D03B6800221A743868FFF784
:100CF000BDFFFB68002BDED100E000BF114B1A786E
:100D0000114B1B789A420CD10F4B1B780133DAB28E
:100D10000D4B1A700C4B1B78022B02D10A4B002290
:100D20001A70094B1B781946084A7B6842F8213033
:100D3000FFF795FF00BF1037BD4680BDA8280020F3
:100D4000AC280020B8280020B9280020B0280020B6
:100D500080B483B000AF7860194B1A78194B1B78B8
:100D60009A4223D0164B1B780133DAB2144B1A7017
:100D7000134B1B78022B02D1114B00221A70104B1F
:100D80001B781A46104B53F822207B681A607B6848
:100D90001A680E4B1B6813440C4A13600B4B1B68FC
:100DA00023F07F43094A1360012303E07B6800229C
:100DB0001A60002318460C37BD465DF8047B704767
:100DC000B8280020B9280020B0280020AC28002036
:100DD00080B489B000AFF860B9607A600023FB612D
:100DE00038E0214B1B68BB61BB691A68FB689A42FB
:100DF00006D9BB691A68FB68D21ABB691A602DE074
:100E0000BB691B68FA68D31AFB60BB691B68FA6987
:100E10001344FB61BB6900221A60134B1B687B61A2
:100E2000BB69DB69104A1360BB69DB68002B11D01A
:100E3000BA68FB69134423F07F42BB695A60BB69FF
:100E4000DA68BB699A607B681A68BB69DA617B689B
:100E50007A691A60044B1B68002BC2D100BF24378B
:100E6000BD465DF8047B7047A828002080B588B097
:100E700000AF78600023FB77654B1B687B61A9E0BE
:100E80007B68002B05D07B68BB61BB69DB697B603D
:100E900060E0604B1B781A4613465B001344DB008E
:100EA0005C4A134404333B615A4B1B780133DAB27A
:100EB000584B1A70574B1A78564B9B789A4202D16E
:100EC000544B00221A703B695B68BB613B691B781D
:100ED000022B04D0032B1AD0012B1ED01CE03B693F
:100EE0005B681846FFF754FE0346002B01D0012330
:100EF000FB77BB6900221A746CE0454B1B68FB60F2
:100F0000FB6800221A74FB68DB69414A1360404B9E
:100F10001B68002BF1D15DE05CE000BFBB691B7C6E
:100F2000002B00D056E03B699A68BB695A603B6968
:100F3000DA68BB699A603B691A69BB69DA603B6928
:100F40005A69BB699A61344B1B78002B02D0BB698C
:100F500000225A60BB695A68304B1B68D31A23F0D1
:100F60007F432F4A93420ED8BB695A682B4B1B68AC
:100F700019461046FFF792FD0246BB699B681A446A
:100F8000BB691A6017E0254B1A68BB695B68194694
:100F90001046FFF783FDB860BB699A68BB689A4248
:100FA00006D9BB699A68BB68D21ABB691A6002E0AD
:100FB000BB6900221A60BB6900225A60BB6900222B
:100FC0009A60BB6901221A74BB690022DA61B869B0
:100FD000FFF784FD7B68002B7FF452AF0D4B1A782E
:100FE0000C4B5B789A427FF44BAFFB7F002B04D114
:100FF000074B1A687B699A4201D0012300E0002365
:1010000003F00103DBB218462037BD4680BD00BFA8
:10101000A82800209C270020BB280020AC28002006
:10102000FEFF7F0090B589B000AF7860274B1B684A
:10103000002B44D0254B1B681B68FB61FFF722FD8A
:10104000B861234B1B687B617969B869FFF726FD9E
:10105000034603333B611F4B1B7883F00103DBB274
:10106000002B01D0FFF7C2FC3A69FB69934238BFFD
:1010700013467A6913447B617B6923F07F437B616C
:101080007869FFF71BFDFFF7FDFCF860B969F868A8
:10109000FFF704FD0346DC1CB9697869FFF7FEFC25
:1010A00003469C420DD9FFF7EDFC03461846FFF7B7
:1010B00005FD2F20FFF734FCFFF7CAFD01E0FFF725
:1010C000B7FC00BF2437BD4690BD00BFA828002054
:1010D000AC280020BA28002080B586B000AF0023DD
:1010E0007B600023FB75164B1B683B61154B1B682F
:1010F000FB603B461846FFF72BFE0346FB72FB7A6C
:10110000002B07D03B683A1D39691846FFF760FE8F
:101110000123FB757B681846FFF7A8FE0346002BEA
:1011200001D00123FB75FB7D002B02D0F868FFF78F
:1011300079FF054B00221A7000BF1837BD4680BDED
:10114000AC280020A8280020BB28002080B483B051
:1011500000AF0346FB71044AFB79537000BF0C37A4
:10116000BD465DF8047B70479C27002080B485B0A5
:1011700000AF7860134B5B780133FB73114B9B78A6
:10118000FA7B9A4201D10023FB730E4B1B78FA7B4A
:101190009A4201D100230EE07B68FA7B1A70094B5A
:1011A0005B781A4613465B001344DB00054A134480
:1011B0000433BB60BB6818461437BD465DF8047B3A
:1011C000704700BF9C27002080B588B000AFF86052
:1011D000B9607A603B600023FB61002001F00AFCEB
:1011E00007F117031846FFF7C1FFB861BB69002B71
:1011F00002D10423FB6117E0BB6901221A70BB69AD
:10120000FA685A60FFF73EFC0246BB699A60BB6908
:10121000BA68DA60BB697A681A61BB693A685A6170
:10122000FB7D1846FFF792FF002001F0EDFBFB6904
:10123000002B01D1FFF713FDFB6918462037BD468F
:1012400080BD80B586B000AF78600B46FB70002390
:101250007B61002001F0CEFB07F10F031846FFF77A
:1012600085FF38613B69002B02D104237B6109E0D3
:101270003B69FA781A703B697A685A60FB7B1846BA
:10128000FFF764FF002001F0BFFB7B69002B01D159
:10129000FFF7E5FC7B6918461837BD4680BD0000A6
:1012A00080B500AF0D4B0022C3F840210B4B00224C
:1012B000C3F84421094B0022C3F84821074B002200
:1012C000C3F84C21054B0022C3F80021034B002238
:1012D000C3F80421FFF7D8FC00BF80BD0010014017
:1012E00080B500AFFFF7F8FE00BF80BD80B500AF4E
:1012F000FFF79EFB134B00221A70124B00225A700C
:10130000104B0B229A70104B00221A600F4B0022D8
:101310001A700F4B00221A701420FFF7BDFA072134
:101320001420FFF7D3FA1420FFF768FA0720FFF71D
:101330004BFBFFF7A7FB0246064B1A60002318463B
:1013400080BD00BF9C270020A8280020B8280020CE
:10135000B9280020AC28002080B487B000AFF86026
:101360000B467A60FB72154B9B78002B01D108234A
:101370001DE07B68002B01D1072318E0FB68002BE0
:1013800001D1072313E0FB681B681B7C002B01D0F5
:1013900008230CE0FB681B687B617B6900221A74E0
:1013A0007B69FA7A5A747B697A685A610023184615
:1013B0001C37BD465DF8047B704700BF9C270020AA
:1013C00080B586B000AFF860B9607A60FB687B6179
:1013D000144B9B78002B01D108231EE0FB68002BE7
:1013E00001D1082319E0BB68042B01D8072314E0BE
:1013F0007B695B69002B01D108230EE07B695B7C74
:10140000012B01D1BB6800E000233B617B683A6996
:10141000B9687869FFF7D8FE034618461837BD4605
:1014200080BD00BF9C27002080B584B000AF7860ED
:101430007B68FB600D4B9B78002B01D1082310E0EB
:101440007B68002B03D0FB685B69002B01D108236C
:1014500007E0FB6800221A740221F868FFF7F1FE2A
:10146000034618461037BD4680BD00BF9C270020AC
:1014700080B483B000AF78607B6803F00303002B77
:101480000CBF01230023DBB218460C37BD465DF8C4
:10149000047B704780B483B000AF0346FB71064BFA
:1014A0001A78FB791343DAB2034B1A7000BF0C377A
:1014B000BD465DF8047B7047BC28002080B483B033
:1014C00000AF0346FB7197F90730DB435AB2074B75
:1014D0001B785BB213405BB2DAB2044B1A7000BFE8
:1014E0000C37BD465DF8047B704700BFBC28002068
:1014F00080B483B000AF0346FB71084B1A78FB79C8
:101500001340DBB2002B14BF01230023DBB21846CB
:101510000C37BD465DF8047B704700BFBC28002037
:1015200080B584B000AF78600023FB600EE00B4A0A
:10153000FB6852F82330002B05D0084AFB6852F8AC
:10154000233078689847FB680133FB60FB68072B02
:10155000EDD900BF1037BD4680BD00BFC0280020B8
:1015600080B483B000AF786039607B681B78013B42
:10157000052B5BD801A252F823F000BF951502009D
:101580009D150200BD150200EF1502000F160200A6
:10159000251602003B6800221A7048E03B680122D1
:1015A0001A707B681A893B689A817B689A883B68C5
:1015B000DA817B68DA683B689A6038E03B6802222F
:1015C0001A707B681A893B689A817B689A883B68A5
:1015D000DA817B68DA683B689A607B681B7C062B43
:1015E0000CBF01230023DAB23B681A741FE03B688A
:1015F00003221A707B68DA883B689A817B681A89B3
:101600003B68DA817B68DA683B689A600FE03B6888
:1016100004221A707B68DA883B689A813B68002252
:10162000DA8104E03B6805221A7000E000BF00BFC9
:101630000C37BD465DF8047B704700BF80B483B0B3
:1016400000AF78607B689B884FF6FF72934205D0AD
:101650007B681B88002B01D0012300E0002303F0EE
:101660000103DBB218460C37BD465DF8047B7047BA
:1016700080B582B000AF78607B68002B11D00D4B35
:101680001A687B689A420CD80A4B5A687B689A425F
:1016900007D37868FFF7ECFE0346002B01D0012347
:1016A00000E0002303F00103DBB218460837BD4613
:1016B00080BD00BFD025002080B485B000AF786029
:1016C00039600A23FB6000237B811CE07B89134A7D
:1016D0001B01134404331A683B689A4210D27B8979
:1016E0000E4A1B01134404331B6803F580523B6808
:1016F0009A4205D90023FB607B687A891A8005E04D
:101700007B8901337B817B89012BDFD9FB681846FC
:101710001437BD465DF8047B704700BFA029002048
:1017200080B483B000AF78600B467B807B681A89F9
:101730007B8813449BB203339AB27B681A817B681F
:101740005A897B88D31A9BB2033B9AB27B685A8131
:1017500000BF0C37BD465DF8047B704780B582B092
:1017600002AF064B1968002300930223044A054880
:1017700001F004F803461846BD4680BDC02900208C
:1017800094930200D025002080B584B002AF786029
:10179000002300930223054A7968054800F0EEFF14
:1017A000034618460837BD4680BD00BF9C93020023
:1017B000D025002080B584B000AF03463960FB809F
:1017C0003B681B68FB60FB68002B09D0FB68BB60B3
:1017D000BB685B8803339B00FA681344FB601CE022
:1017E000FB88184A1B01134404331B680833FB6051
:1017F00013E0FB68BB60B868FFF720FF0346002BCF
:1018000004D03B68FA681A60012317E0BB685B8864
:1018100003339B00FA681344FB60FB88094A1B01F1
:10182000134404331B6803F58052FB689A4204D9C1
:10183000FB681B68B3F1FF3FDBD10023184610376C
:10184000BD4680BDA029002080B584B000AF78607F
:1018500039607B685B681846FFF70AFF0346002B78
:1018600019D07B681A89254B1B899A4213D17B6852
:101870001A687B685B689B689A420CD17B685B68DE
:1018800019463868FFF718FF0346002B0CBF0123E9
:101890000023DBB22DE03B6800221A8024E0002305
:1018A000BB6010E0BB68FB60FB689A687B681B68E4
:1018B0009A4208D1BA687B685A60104B1A897B68D3
:1018C0001A81012315E03B681B8807F108021146C5
:1018D0001846FFF76FFF0346002BE3D13B681B88D8
:1018E00001339AB23B681A803B681B88012BD6D91A
:1018F000002318461037BD4680BD00BFC829002010
:1019000080B586B000AFF860B9607A603B600220B5
:10191000FFF7EEFD034683F00103DBB2002B01D09D
:1019200002234FE07B68002B02D03B68002B44D1A0
:10193000052347E03B689B88244A1B0113441B781E
:10194000002B33D124E03B681B687B61FB68002BD4
:1019500006D07B699A88FB681B889A4200D017E002
:10196000BB68002B06D07B691A88BB681B889A422B
:1019700000D00DE07B699A687B681A603B681A6842
:101980007B685A60124B1A897B681A81002319E020
:101990003B689B883A6811461846FFF70BFF0346E1
:1019A000002BD0D13B6800221A6000E000BF3B68EA
:1019B0009B8801339AB23B689A803B689B88012BD5
:1019C000B8D90A2318461837BD4680BDA029002083
:1019D000C829002080B500AF124B1A6F1346DB00F8
:1019E0009B1A9B000F4A13441C2200211846FDF746
:1019F000AFFC0C4B5B6F002B0BD00A4B1B6F013302
:101A000003F00303074A1367064B5B6F013B054A6C
:101A10005367044B5B6F002B14BF01230023DBB221
:101A2000184680BDE028002080B483B000AF786005
:101A30000E4B5B6C002B12D00C4B1B6CDB000B4A6B
:101A40001A447B681A60094B1B6C013303F00703CF
:101A5000064A1364054B5B6C013B044A536400BFA8
:101A60000C37BD465DF8047B704700BF5829002045
:101A700080B483B000AF78607B681B78022B03D002
:101A80007B681B78032B0DD1094B1B6C7A68927D08
:101A90001344074A1364064B5B6C7A68927D9B1A69
:101AA000034A536400BF0C37BD465DF8047B7047A2
:101AB0005829002080B586B002AF786039607B6815
:101AC0001A1D0023009301233968094800F056FECF
:101AD0000346FB607B6802221A74FB68002B01D16D
:101AE000002300E00E2318461037BD4680BD00BF1E
:101AF000D025002080B586B002AF786039603B68A1
:101B000003F108017B6803F10C0200230093012319
:101B10000B4800F033FE0346FB607B689B7D002B87
:101B200001D0032200E001227B681A74FB68002BBD
:101B300001D1002300E00E2318461037BD4680BDBA
:101B4000D025002080B586B002AF786039603B6850
:101B5000191D7B6803F108020023009301230C4840
:101B600000F00CFE0346FB607B681B78032B01D161
:101B7000052200E006227B681A74FB68002B01D165
:101B8000002300E00E2318461037BD4680BD00BF7D
:101B9000D025002080B586B002AF78600B467B80F0
:101BA0000023009301230C4A79680C4800F0E6FDFD
:101BB0000346FB73FB7B002B01D00E2307E07B88E1
:101BC000074A1B0113440E3301221A7000231846E2
:101BD0001037BD4680BD00BF90930200D025002085
:101BE000A029002080B588B000AF786007F1080315
:101BF00000221A605A609A607B68DB68BB6007F15C
:101C0000160207F1080311461846FFF71DFE0346AA
:101C1000002B11D0FB68BB61BB699A887B68DA80B6
:101C2000BB691A887B681A81FB68FA8A11461846D4
:101C3000FFF7B0FFF86101E00A23FB61FB6918467A
:101C40002037BD4680BD000080B586B000AF78600B
:101C50007B68981D07F108020D4B0021FFF750FE2D
:101C600078617B69002B08D1FA68094B9B8819467B
:101C70001046FFF78FFF786104E008220021044836
:101C8000FDF766FB7B6918461837BD4680BD00BF6F
:101C9000D829002080B586B002AF78603960002373
:101CA000BB6007F108031846FFF7BEFE7B689B8AFE
:101CB0009B003A68D118BB681A68BB6898880023F3
:101CC00000930346114800F059FD0346FB607B6812
:101CD0009A8ABB689B8813449AB27B689A827B6815
:101CE0009B7D013BDAB27B689A757B689B7D002BFC
:101CF00002D17B6801221A74FB68002B01D10023FA
:101D000000E00E2318461037BD4680BDD0250020C8
:101D100080B483B000AF154B1B8901339AB2134BCB
:101D20001A81124B00225A80104B00221A73002392
:101D3000FB8011E0FB88FA880D4912010A441278F1
:101D4000002A0CBF01220022D1B2084A13440A46DD
:101D50009A72FB880133FB80FB88012BEAD900BF14
:101D60000C37BD465DF8047B704700BFC8290020D2
:101D7000A029002080B485B000AF78600023FB73F9
:101D80000023BB8123E0BB89164A13449B7A002BB6
:101D90001AD0BB89134A134400229A72BB89124A93
:101DA0001B0113440C331B88002B0DD1BB890E4A39
:101DB0001B0113440E331B78002B05D07B68BA89B6
:101DC0001A800123FB7305E0BB890133BB81BB890A
:101DD000012BD8D9FB7B18461437BD465DF8047B30
:101DE000704700BFC8290020A029002080B500AF9F
:101DF000074B05221A70074B02229A80054B19687F
:101E000000230122044800F023FD0346184680BD4C
:101E1000C8290020C0290020D025002080B582B02C
:101E200000AF124B5B887B807B88114A1B011344F7
:101E30000C331B88002B10D17B880D4A1B011344E7
:101E400004331968002301220A4800F001FD03460B
:101E50007B60064B04221A7002E0FFF7C7FF786030
:101E60007B6818460837BD4680BD00BFC8290020E2
:101E7000A0290020D025002080B586B002AF104BED
:101E80005B68FB600F4B1A680E4B9B889B001344EA
:101E9000BB60FB685B880333FB80094B03221A702D
:101EA000074B5A68F988002300930B46B968064827
:101EB00000F064FC034618461037BD4680BD00BFE5
:101EC000C8290020C0290020D025002080B582B07C
:101ED00000AF0A4B5B880A491846FFF76BFC0346C4
:101EE000002B03D0FFF7C8FF786002E0FFF796FFF2
:101EF00078607B6818460837BD4680BDC829002039
:101F0000CC29002080B500AF074B06221A70064B83
:101F10005B88064A1B01134404331B681846FFF70D
:101F200033FC0346184680BDC8290020A0290020A4
:101F300080B500AF054B07221A70044B00225A608F
:101F4000FFF70CFC0346184680BD00BFC8290020DF
:101F500080B500AF0C48FFF70DFF034683F0010387
:101F6000DBB2002B0BD0094B00221A70074B00226A
:101F70005A80064B00225A6041F61D5302E0FFF7DB
:101F8000A5FF0346184680BDCA290020C8290020A5
:101F900080B483B000AF0A4B5B687B607B685B8872
:101FA00003337B80074B9A887B8813449AB2054B96
:101FB0009A8000BF0C37BD465DF8047B704700BFB8
:101FC000C8290020C029002080B483B000AF144B82
:101FD0001B687B60134B5B88134A1B01134404335B
:101FE0001B680F4A13600F4B5B880F4A1B01134499
:101FF00004337A681A600B4B5B881846084B998843
:10200000094A0301134408330A461A80044B02228A
:102010009A8000BF0C37BD465DF8047B704700BF57
:10202000C0290020C8290020A029002080B500AFC9
:102030001A4B1B78072B2DD801A252F823F000BFB2
:102040006120020095200200952002006D20020010
:102050007920020085200200852002008D200200E8
:10206000FFF756FE0D4B01221A7014E0FFF790FFA8
:102070000A4B02221A700EE0FFF7A6FF074B06225A
:102080001A7008E0054B07221A7004E0034B012286
:102090001A7000E000BF00BF80BD00BFC82900204B
:1020A00080B586B000AF786039600F237B617B68B4
:1020B000002B04D00120FFF701FA012398E03B68D0
:1020C0001B79032B00F2888001A252F823F000BF95
:1020D000E1200200EF2002005721020077210200D8
:1020E000FFF73CFB78613B6801221A7177E000231F
:1020F000FB7400233B821CE03B8A3F4A1B011344D4
:102100001B78022B12D13B8A3B4A1B011344043338
:102110001B681846FFF738FB78613B8A364A1B017B
:10212000134400221A700123FB7405E03B8A01333B
:102130003B823B8A012BDFD9FB7C83F00103DBB2BE
:10214000002B4BD00220FFF7A5F90120FFF7B6F9CD
:1021500041F61D534CE0294B196800230122284801
:1021600000F076FB03467B61244B02229A803B6899
:1021700000221A7133E0214B1B681846FFF704FB5D
:102180007861204B5B88FB811C4B1B68BB60FB8923
:10219000194A1B01134404331B68184A1360FB8956
:1021A000154A1B0113440433BA681A60FB89134AA9
:1021B0009188114A1B01134408330A461A800F4BB9
:1021C00002229A80FB890C4A1B01134400221A70D8
:1021D0003B6800221A7102E000BF00E000BF7B698B
:1021E000002B04D00120FFF769F90E2300E0002343
:1021F00018461837BD4680BDA0290020C029002000
:10220000D0250020C829002080B586B000AF7860B6
:1022100039603B685B8A1B013B4A13443B617B6826
:10222000002B07D03B68DB8819463869FFF778FA3E
:10223000012364E03B695A683B691B899B00134496
:10224000FB603B681B7C062B4CD801A252F823F0A4
:1022500093220200B72202009F220200AB2202005A
:102260006D220200C3220200DD220200274B002261
:102270005A603B689B69254A136025492348FFF74C
:10228000E3FA034683F00103DBB2002B01D00A23FB
:1022900035E0F9683868FFF70DFC786125E0F968EA
:1022A0003868FFF727FC78611FE0F9683868FFF7A6
:1022B000F1FC786119E0F9683868FFF743FC786150
:1022C00013E0124B5A68124B1B8819461046FFF751
:1022D00061FC78613B6806221A7406E041F61D53E2
:1022E0007B6102E00F237B6100BF7B69002B05D07F
:1022F0003B68DB8819463869FFF712FA7B69184694
:102300001837BD4680BD00BFA0290020E02900206D
:10231000EC29002080B584B000AF786039607B681C
:10232000002B01D0012323E03B681B79012B0BD04C
:10233000022B14D0002B16D13868FFF753FCF8603D
:102340003B6802221A7112E03868FFF77DFCF860E2
:10235000FB680A2B0AD141F61D53FB6006E041F6EB
:102360001D53FB6003E00F23FB6000E000BFFB6830
:1023700018461037BD4680BD80B584B000AF786088
:102380007B68002B01D001233CE0204B1B7B002B02
:1023900003D01E4B00221A7301E0FFF747FE1B4BD0
:1023A0001B78013B062B29D801A252F823F000BF6D
:1023B000CD230200D5230200DD230200E523020025
:1023C000FD230200ED230200F5230200FFF7C0FD0C
:1023D000F86016E0FFF77AFDF86012E0FFF74CFDB9
:1023E000F8600EE0FFF71AFDF8600AE0FFF78AFDDB
:1023F000F86006E0FFF79CFDF86002E00F23FB6049
:1024000000BFFB6818461037BD4680BDC8290020B4
:1024100080B58AB000AF0346FB71334B1A6F134689
:10242000DB009B1A9B00304A13443B623B6A1B78DB
:10243000013B052B29D801A252F823F055240200B4
:10244000632402006324020071240200712402004C
:102450007F240200FB79396A1846FFF721FE786273
:1024600016E0FB79396A1846FFF7CEFE78620FE076
:10247000FB79396A1846FFF74DFF786208E0FB796F
:102480001846FFF779FF786202E00F237B6200BFF6
:102490007B6A002B23D07B6A41F61D52934202D106
:1024A00000233B6104E07B6A3B61386AFFF7E0FA96
:1024B00007F10C031946386AFFF752F807F10C03CD
:1024C0001846FFF72DF8FFF785FA0346002B03D0D7
:1024D0000020FFF79DFF02E00420FEF7EFFF00BFA2
:1024E0002837BD4680BD00BFE028002080B582B0FF
:1024F00000AF78600B46FB70FB781846FFF788FF4B
:1025000000BF0837BD4680BD29DF704700BF1846B1
:1025100028DF704700BF184680B586B000AF7860EE
:102520000B46FB7007F10803102200211846FCF748
:102530000FFF7B681B7A012B02D0022B09D015E01C
:1025400000233B727B681B693B617B689B8ABB8273
:102550000CE001233B727B689A897B68DB89D31A84
:102560009BB23B827B689B897B8200BF7B685B68F8
:10257000FB607B681B689B68F97807F108021046CE
:10258000984700BF1837BD4680BD000080B483B0B7
:1025900000AF78607B68002B09D07B68074A9342C4
:1025A00005D37B68064A934201D2012300E0002351
:1025B00018460C37BD465DF8047B7047D0250020D7
:1025C000E025002080B584B000AF78607B689B8AEE
:1025D0001A467B68DB8AD31AB3F5806F06DA7B680C
:1025E0009A8A7B68DB8AD31AFB8102E04FF480630E
:1025F000FB817B681A697B68DB8A9B00D0187B684B
:10260000DA687B68DB8A9B001344FA891946FFF776
:102610007BFF034618461037BD4680BD80B582B0AB
:1026200000AF78607B689B891846FFF771FF03460F
:1026300018460837BD4680BD80B582B000AF1F4B3D
:102640001A6E13465B001344DB001C4A13443B60C4
:102650001A4B5B6E002B2CD03B681B7A012B02D0EF
:10266000022B05D009E03868FFF7ACFF786007E07F
:102670003868FFF7D3FF786002E009237B6000BF72
:102680007B68112B0ED10E4B1B7823F00203DAB2BC
:102690000B4B1A700A4B1B7843F00403DAB2084B59
:1026A0001A7006E07B68002B03D009213868FFF719
:1026B00033FF00BF0837BD4680BD00BFF0290020B2
:1026C000EE29002080B500AF0B4B1B7803F002030E
:1026D000002B0ED1084B1B7803F00403002B08D10C
:1026E000054B1B7843F00203DAB2034B1A70FFF775
:1026F000A3FF00BF80BD00BFEE29002080B584B0DD
:1027000000AF78601C4B5B6E042B01D100232EE0E0
:10271000194B1A6E184B5B6E1344032B05D8164BDE
:102720001A6E154B5B6E134405E0134B1A6E124B79
:102730005B6E1344043BFB600F4B5B6E01330E4A30
:102740005366FA6813465B001344DB000A4A1344DD
:10275000182200211846FCF7FBFDFA6813465B00BF
:102760001344DB00044A1A447B681A6001231846AC
:102770001037BD4680BD00BFF029002080B586B06F
:1027800000AFF860B9607A607B80304B1B7803F053
:102790000103002B01D1012354E0F868FFF7F6FE96
:1027A000034683F00103DBB2002B01D0022349E092
:1027B0007B68002B02D0BB68002B01D1032341E0D2
:1027C0007B6803F00303002B04D1BB6803F0030311
:1027D000002B01D0062335E0FB681A68BB689A42DB
:1027E00007D8FB685A687B889B00B9680B449A42FB
:1027F00001D2052326E07B88002B01D1042321E0B0
:1028000007F114031846FFF779FF034683F001032D
:10281000DBB2002B01D0072314E07B693A6A5A60CF
:102820007B69FA681A607B6901221A727B697A688F
:10283000DA607B69BA681A617B697A889A82FFF7E5
:1028400041FF002318461837BD4680BDEE29002001
:1028500080B586B000AFF860B9603B601346FB807E
:102860002B4B1B7803F00103002B01D101234BE01C
:10287000F868FFF78BFE034683F00103DBB2002B01
:1028800001D0022340E0BB68002B01D103233BE0D1
:10289000BB68C3F30B03002B01D0062334E0FB68B5
:1028A0001A68BB689A4207D8FB881B03BA681A44A7
:1028B000FB685B689A4201D9052325E0FB88002B61
:1028C00001D1042320E007F114031846FFF716FF97
:1028D000034683F00103DBB2002B01D0072313E092
:1028E0007B693A685A607B69FA681A607B690222E0
:1028F0001A727B69BA68120B92B29A817B69FA8864
:102900001A82FFF7DFFE002318461837BD4680BD48
:10291000EE29002080B483B000AF78607B68002B84
:1029200001D1032304E0054B5A6E7B681A60002333
:1029300018460C37BD465DF8047B7047F02900202F
:1029400080B586B000AF78600023BB8100233B6177
:102950007B687B6107F10C031A46002144F20100F9
:1029600000F018F800BF1837BD4680BD80B400AF36
:10297000BFF34F8F0549054BDB6803F4E062044B5E
:102980001343CB60BFF34F8F00BFFDE700ED00E0C6
:102990000400FA0580B584B000AFF860B9607A60D1
:1029A000FFF7E4FF00BF1037BD4680BD80B400AF25
:1029B00072B6054B1B680133034A136000BFBD4666
:1029C0005DF8047B704700BF582A002080B400AF38
:1029D000074B1B68013B064A1360054B1B68002B25
:1029E00000D162B600BFBD465DF8047B704700BFF2
:1029F000582A002080B582B000AF7860FFF7D6FF7C
:102A000000BF0837BD4680BD80B582B000AF034629
:102A1000FB71FFF7DBFF00BF0837BD4680BD80B408
:102A200083B000AF78604FF0A04318460C37BD4626
:102A30005DF8047B704780B584B000AF78600B46CA
:102A4000FB703B1D1846FFF7EAFFF8607A6879686B
:102A5000FB6801F5E07153F8213023F44031FB6845
:102A600002F5E07243F822107A687968FB6801F594
:102A7000E07153F82130F97809041943FB6802F535
:102A8000E07243F8221000BF1037BD4680BD000041
:102A900080B586B000AF03460A46FB711346BB7192
:102AA0000023FB7500233B61FB791846FCF7E0FD32
:102AB00038613B69032B5CD8BB79012B04D0022B16
:102AC0004CD0002B2ED054E032493A6913465B00BB
:102AD00013440B441B78FB752E493A6913465B007F
:102AE00013440B4401331B78002B0DD02A4B2B4A87
:102AF0004FF480511846FEF763FCF860FB68002B2A
:102B000002D1264AFB79137022493A6913465B00C9
:102B100013440B4402331978214A3B6913440A4693
:102B20001A7026E01C4B1846FEF77EFC1C4A3B69D7
:102B30001344197817483A6913465B001344034459
:102B400002331B78994213D112493A6913465B004C
:102B500013440B4402331B78FB7509E00D493A69B5
:102B600013465B0013440B4401331B78FB7500E0F4
:102B700000BFFB7D002B08D00A4B1B68002B04D044
:102B8000084B1B68FA7D1046984700BF1837BD46B2
:102B900080BD00BFAC2A0020B82A0020D82A00201F
:102BA000DC2A0020A82A002080B582B000AF78601F
:102BB0007B681B7802211846FFF76AFF00BF0837C1
:102BC000BD4680BD80B582B000AF0D4B1B78002B99
:102BD0000FD000237B6008E07B68022B02D078686E
:102BE000FCF7DEFC7B6801337B607B68022BF3D94A
:102BF00001E0FCF7E7FC00BF0837BD4680BD00BF21
:102C0000642A00202DE9F04F8BB000AF0346FB771C
:102C100000237B6200233B62C64B1B78002B04D051
:102C2000C44A00231370FFF7CDFFFB7F172B00F280
:102C3000088201A252F823F0992C0200A52C020070
:102C4000A52C0200292D0200A52D02000B2E02004A
:102C5000832E0200A12E0200AF2E0200CD2E020014
:102C6000EB2E0200092F0200272F0200412F020045
:102C7000412F0200412F0200412F0200412F02008C
:102C8000EF2F0200FB2F02000D3002001F30020068
:102C90003730020037300200FFF794FFA64AFB7F6F
:102CA0001370CFE10020FCF745FC0346002B0CD04D
:102CB0000020FCF775FCFB7F022B02D14FF4E1638F
:102CC00001E04FF47A633B620AE00020FCF756FC17
:102CD000FB7F022B01D1C82301E04FF4C8733B6294
:102CE000954AFB7F1370954D3B6A4FF00004E20359
:102CF0007A617A6942EA53427A61DB033B61D7E940
:102D0000040110F57A6041F100014FF4FA524FF0DE
:102D1000000306F041F903460C46002219462846F6
:102D2000FEF74EFB78628DE10020FCF703FC0346C2
:102D3000002B0CD00020FCF733FCFB7F032B02D1CF
:102D40004FF4487301E04FF47A633B620AE00020DD
:102D5000FCF714FCFB7F032B01D1C82301E04FF4E7
:102D6000C8733B62744AFB7F1370744D3B6A4FF02B
:102D700000044FEAC43B4BEA534B4FEAC33A1AF5FF
:102D80007A604BF100014FF4FA524FF0000306F065
:102D900003F903460C46002219462846FEF710FBAD
:102DA00078624FE10020FCF7C5FB0346002B06D0FC
:102DB0000020FCF7F5FB4FF47A633B6205E000204E
:102DC000FCF7DCFB4FF4C8733B625B4AFB7F13707C
:102DD0005A4D3B6A4FF000044FEAC43949EA53495F
:102DE0004FEAC33818F57A6049F100014FF4FA52FE
:102DF0004FF0000306F0D0F803460C4600221946B7
:102E00002846FEF7DDFA78621CE10020FCF792FB11
:102E10000346002B0BD00020FCF7C2FBFB7F052BE9
:102E200001D1C82301E04FF47A633B620AE000203D
:102E3000FCF7A4FBFB7F052B01D1C82301E04FF475
:102E4000C8733B623C4AFB7F13703C4B3B613B6A5F
:102E50004FF00004E60346EA5346DD0315F57A60B9
:102E600046F100014FF4FA524FF0000306F094F8D7
:102E700003460C46002219463869FEF7A1FA78622B
:102E8000E0E00020FCF7C6FB2B4AFB7F13702B4BC6
:102E900000224FF4CD711846FEF792FA7862D1E025
:102EA0000020FCF76BFB244AFB7F1370CAE0214B28
:102EB00001221A700120FCF7ADFB204B00224FF4D9
:102EC000CD711846FEF77CFA7862BBE0194B0122FF
:102ED0001A700120FCF79EFB184B00224FF4006192
:102EE0001846FEF76DFA7862ACE0124B01221A70B8
:102EF0000120FCF78FFB114B00224FF4CD711846D7
:102F0000FEF75EFA78629DE00A4B01221A700120FA
:102F1000FCF780FB094B00224FF400611846FEF7D6
:102F20004FFA78628EE0FCF761FB034AFB7F137077
:102F300088E000BF5D2A00205C2A0020682A00206B
:102F4000434B1846FEF770FA7862FB7FC3F111031A
:102F50003B623B6A002B43D07B6A002B40D13B6A2B
:102F6000012B36D93A4D3B6A9BB299B24FF0000221
:102F70000B461446DB1844EB04045B1844EB0204D4
:102F8000E000F860F86840EA5370F860DB00BB606E
:102F9000D7E902345B1844EB0204A2047A607A6831
:102FA00042EA93327A609B043B60D7E9003413F520
:102FB0007A6044F100014FF4FA524FF0000305F03B
:102FC000EBFF03460C46002219462846FEF7F8F9A7
:102FD00078620220FCF7D2FA1E4B01221A7031E00F
:102FE0000220FCF7DDFA1B4B00221A702AE0FFF7E3
:102FF000E9FD194AFB7F137024E0FFF7E3FD002091
:10300000FCF7BCFA144AFB7F13701BE0FFF7DAFDF4
:103010000120FCF7B3FA104AFB7F137012E0FFF7B0
:10302000D1FD0020FCF7AAFA0120FCF7A7FA0A4A12
:10303000FB7F137006E0FCF7D9FA074AFB7F137099
:1030400000E000BF7B6A18462C37BD46BDE8F08F14
:10305000882A0020642A00205C2A002080B582B0E3
:1030600000AF7860074B1B6803F00103002B04D00E
:10307000054B1B781846FFF7C5FD00BF0837BD4656
:1030800080BD00BF602A00205C2A002080B582B08D
:1030900000AF78600220FCF7BDFA00BF0837BD46DC
:1030A00080BD000080B584B000AF0346FB710023F3
:1030B000FB60084B1B6803F00103002B04D0FB7975
:1030C0001846FFF79FFDF860FB6818461037BD46AD
:1030D00080BD00BF602A002080B584B000AF78605A
:1030E00039600023FB60294A7B681360284A3B68EB
:1030F00013607B6803F00203002B29D00023BB6020
:1031000008E001220121B86800F052F8F860BB68BD
:103110000133BB60BB68032B02D8FB68002BF0D0E7
:10312000FB68002B05D1CD2204211A48FDF7DAFAFD
:10313000F860FB68002B02D1FDF73EFBF860FB68EE
:10314000002B05D1144A00211448FEF705F9F86058
:103150007B6803F00103002B01D0FCF76DFAFB68DC
:10316000002B05D10E4A00210E48FEF7F5F8F86055
:10317000FB68002B05D10C4A01210C48FEF7ECF846
:10318000F860FB6818461037BD4680BD602A0020F5
:10319000A82A0020B0930200A92B0200AC930200E1
:1031A0005D300200A49302008D300200A89302005B
:1031B00080B485B000AF78600B46FB701346BB70DF
:1031C0000023FB607B68032B35D8BB78012B09D12A
:1031D000FB78012B04D17B68DBB20E33DBB200E05D
:1031E0000023BB70FB78012B04D0022B0BD0002BEB
:1031F00013D01CE014497A6813465B0013440B4457
:10320000BA781A7019E010497A6813465B001344C3
:103210000B440133BA781A700FE00B497A681346F1
:103220005B0013440B440233BA781A7005E007239D
:10323000FB6000BF01E00723FB60FB681846143702
:10324000BD465DF8047B7047AC2A002080B582B093
:1032500000AF78607868FCF72FFA03460321184620
:10326000FFF7E9FB002318460837BD4680BD80B54F
:1032700082B000AF0020FFF7E9FF78607B68002B89
:1032800004D07B68062B01D07B680CE00120FFF79F
:10329000DDFF78607B68002B04D07B68062B01D0B3
:1032A0007B6800E0002318460837BD4680BD80B427
:1032B00085B000AF78600B467B807B887A681344CA
:1032C00000221A607B887A6813441B68FB60FB68E5
:1032D00000BF1437BD465DF8047B704780B483B0EF
:1032E00000AF78600B467B807B887A6813441B684C
:1032F000002B14BF01230023DBB218460C37BD4658
:103300005DF8047B704780B483B000AF78603960AB
:103310007B683A68C3F8042300BF0C37BD465DF8EC
:10332000047B704780B483B000AF786039607B68FD
:103330003A68C3F8082300BF0C37BD465DF8047B2C
:10334000704780B483B000AF78607B680122C3F817
:10335000002500BF0C37BD465DF8047B704780B484
:1033600085B000AFF860B9607A603B60FB68BA680E
:10337000C3F80825FB687A68C3F80C25FB683A682F
:10338000C3F8102500BF1437BD465DF8047B7047B5
:1033900080B483B000AF78600B46FB70FA787B682E
:1033A000C3F81C2500BF0C37BD465DF8047B704791
:1033B00080B483B000AF78607B68D3F81835DBB297
:1033C00018460C37BD465DF8047B704780B483B067
:1033D00000AF786039603A687B68C3F8242500BF85
:1033E0000C37BD465DF8047B704780B485B000AFF4
:1033F00078600B46FB701346BB70BB78002B14BF84
:1034000001230023DBB2FB60FB78022B09D0032BE6
:103410000CD0012B00D00EE0FB6843F00203FB60F0
:1034200009E0FB6843F00403FB6004E0FB6843F041
:103430000603FB6000BF7B68FA68C3F8542500BF31
:103440001437BD465DF8047B704780B483B000AF8D
:1034500078604FF0A04318460C37BD465DF8047BFA
:10346000704780B584B000AF7860084611461A46B0
:103470000346FB700B46BB7013467B703B1D184622
:10348000FFF7E3FFF8607A68F978BB785B001943CF
:103490007B789B0019433B7E1B0219433B7F1B0437
:1034A0001943FB6802F5E07243F8221000BF1037A1
:1034B000BD4680BD80B584B002AF78600023019323
:1034C000002300930023012201217868FFF7C9FF40
:1034D00000BF0837BD4680BD80B584B002AF7860BC
:1034E0000B46FB70FA7800230193002300931346E8
:1034F000002200217868FFF7B4FF00BF0837BD46FF
:1035000080BD80B584B000AF78603B1D1846FFF7E2
:103510009CFFF8607B68012202FA03F31946F86801
:1035200000F019F800BF1037BD4680BD80B584B0EB
:1035300000AF78603B1D1846FFF787FFF8607B6897
:10354000012202FA03F31946F86800F013F800BFED
:103550001037BD4680BD80B483B000AF786039605D
:103560007B683A68C3F8082500BF0C37BD465DF894
:10357000047B704780B483B000AF786039607B68AB
:103580003A68C3F80C2500BF0C37BD465DF8047BD4
:103590007047000080B58CB002AFF860B9607A6007
:1035A0003B60FB685B791A461346DB0013449B00C3
:1035B000594A1344FB61FB691B7F002B03D008238E
:1035C000BB61BB69A4E0FB697A681A60FB693A6871
:1035D0005A60BB681B7B012B05D8BB681B7818465B
:1035E000FFF7A4FF04E0BB681B781846FFF789FFCC
:1035F000BB681B7818460023019300230093002327
:1036000000220121FFF72DFFBB685B78FF2B09D05B
:10361000BB685B787B62786AFFF788FF786AFFF7A0
:1036200049FF02E04FF0FF337B62BB689B78FF2BC2
:1036300007D0BB689B783B620021386AFFF74CFFDC
:1036400002E04FF0FF333B62BB68DB78FF2B09D011
:10365000BB68DB781846FFF754FFBB68DB78184679
:10366000FFF728FFFB685B791946BB68D8782A4AC0
:103670000B46DB000B449B0013441E3302461A70BA
:10368000FB681B687B61BB681B7819463B6A7A6ADA
:103690007869FFF764FEBB689B6819467869FFF795
:1036A00095FEBB68197BBB685B7B1A467869FFF7A0
:1036B0009CFEFB685B791946BB685879164A0B4635
:1036C000DB000B449B0013441F3302461A70FB6956
:1036D0001B68002B03D004217869FFF714FE78697A
:1036E000FFF72FFEFB691B68002B08D0FB6893F9DE
:1036F0000420BB681B791946104600F0B1FBFB693A
:1037000000225A77FB6901221A770023BB61BB694B
:1037100018462837BD4680BDE02A002080B588B015
:1037200000AFF860B9603B601346FB71BB683B615A
:103730003B68BB61FB793B7597F828303B7707F115
:10374000100300221946F86800F006F903461846EF
:103750002037BD4680BD80B582B000AF78607B6801
:103760009B7FFF2B04D07B689B7F1846FFF7C9FE29
:103770007B6800225A777B6800221A727B681B687C
:103780007A6802F108007A6852681146984700BFCB
:103790000837BD4680BD80B584B000AF7860396021
:1037A0007868FFF705FE03467B733B6893F820209B
:1037B0003B681B7E9A4208D23B685B693A6892F884
:1037C000202013447A7BD2B21A703B6893F82030E1
:1037D0000133DAB23B6883F820203B6893F820304D
:1037E0009BB20133FB813B6893F8213003F0040363
:1037F000DBB2002B13D03B681B7C9BB2FA899A4248
:1038000003D2FB89DAB23B681A743B681B7E9BB219
:10381000FA899A4203D2FB89DAB23B681A763B688E
:103820001B7C9BB2FA899A420AD23B68DA68FB8910
:1038300013441B7819467868FFF7AAFD012321E09D
:103840003B681B7E9BB2FA899A4207D23B68DB7FBA
:1038500019467868FFF79CFD012313E03B6893F855
:1038600020203B681B7C9A4206D33B6893F82020BB
:103870003B681B7E9A4201D2012300E0002303F043
:103880000103DBB218461037BD4680BD80B584B059
:1038900000AFF860B9607A60BB68002283F820202E
:1038A0000421F868FFF73EFD4FF48471F868FFF7D4
:1038B000FEFC7B681B79002B03D07B681B681B78A0
:1038C00001E0BB68DB7F1946F868FFF761FD7B68A4
:1038D0001B79012B08D97B681B6801331B781946BB
:1038E000F868FFF755FD09E07B681B7B012B05D9C4
:1038F000BB68DB7F1946F868FFF74AFDBB681B68A9
:10390000002B04D00421F868FFF7FDFC20E000BF85
:103910004FF48471F868FFF7E1FC034683F001037C
:10392000DBB2002BF4D14FF48471F868FFF7BFFCD1
:10393000B968F868FFF72FFF0346002BE7D1BB6893
:103940009B7FFF2B04D0BB689B7F1846FFF7D9FDF8
:1039500000BF1037BD4680BD90B587B000AFF8609E
:10396000B9607A60FB685B791A461346DB00134442
:103970009B002A4A13443B6100237B613B695B7FC8
:10398000DBB2002B03D011237B617B6942E03B69F2
:103990001B68002B07D07B6803F01403002B02D1B7
:1039A0003B6901225A773B69BA6803F10C0413465C
:1039B0000FCB84E80F003A6992F821306FF30003CF
:1039C00082F821303A6992F821306FF3410382F88E
:1039D00021303A6992F821306FF3820382F8213066
:1039E0003B699B7FFF2B04D03B699B7F1846FFF709
:1039F0009DFD7B68002B05D03B6900225A7706238A
:103A00007B6106E0FB681B68BA6839691846FFF7F6
:103A10003DFF7B6918461C37BD4690BDE02A00205B
:103A200080B582B000AF786039604FF484717868F7
:103A3000FFF73DFC39687868FFF7ADFE034683F079
:103A40000103DBB2002B02D03868FFF784FE00BF11
:103A50000837BD4680BD000080B582B000AF054B81
:103A60007B6079684FF04020FFF7DAFF00BF08372E
:103A7000BD4680BDE02A002080B483B000AF7860EE
:103A80004FF080427B68C2F8043300BF0C37BD465C
:103A90005DF8047B704780B483B000AF78604FF06E
:103AA00080427B68C2F8083300BF0C37BD465DF822
:103AB000047B704780B483B000AF0346FB71FB7991
:103AC00003F1804301221A6000BF0C37BD465DF848
:103AD000047B704780B485B000AF0346FB80FB8851
:103AE00003F1804300221A60FB8803F180431B68C6
:103AF000FB60FB6800BF1437BD465DF8047B704770
:103B000080B483B000AF0346FB80FB8803F18043A1
:103B10001B68002B14BF01230023DBB218460C37AF
:103B2000BD465DF8047B704780B483B000AF0346A8
:103B3000FB714FF08042FB7903F00303C2F81835A4
:103B400000BF0C37BD465DF8047B704780B483B07E
:103B500000AF0346FB710C4A97F907305B0952F836
:103B60002320FB7903F01F0322FA03F303F0010380
:103B7000002B14BF01230023DBB218460C37BD46CF
:103B80005DF8047B704700BF00E100E080B500AF46
:103B90000020FFF7DBFF034683F00103DBB2002BBD
:103BA00003D00721002000F05BF900BF80BD80B585
:103BB00000AF4FF48270FFF78DFF0220FFF75CFF2C
:103BC0000820FFF777FF00BF80BD000080B582B0FE
:103BD00000AF00237B60104B1B78002B02D08523A5
:103BE0007B6013E00C4B00229A600B4B00225A6062
:103BF000094B00221A61084B0022DA60FFF7C6FF6A
:103C00000120FFF791FF044B01221A707B681846D0
:103C10000837BD4680BD00BF042B002080B485B0AE
:103C200000AF786039607B681B68FB6006E0FA686B
:103C30003B689A420DD0FB681B68FB60FB68002B59
:103C4000F5D17B681A683B681A607B683A681A602D
:103C500000E000BF1437BD465DF8047B704780B4B8
:103C600085B000AF78607B681B68FB60FB68002B49
:103C700003D0FB681A687B681A60FB681846143723
:103C8000BD465DF8047B704780B582B000AF7860B8
:103C9000194B9B78DBB2002B12D07B68002B03D032
:103CA0007B685B68012098470020FEF7A3FE124B5B
:103CB000DB680133104AD3600020FEF7A5FE17E051
:103CC0000020FEF797FE7B68002B03D079680B4835
:103CD000FFF7A4FF084BDB68002B01D1FFF767FF5C
:103CE000054BDB680133044AD3600020FEF78CFEED
:103CF00000BF0837BD4680BD042B0020142B0020D8
:103D000080B584B000AF0346FB71FB79002B02D174
:103D10000B4BFB6001E00B4BFB60F868FFF79FFF6C
:103D2000B860BB68002B05D0BB685B68FA791046A9
:103D30009847F2E700BF00BF1037BD4680BD00BF07
:103D40000C2B0020142B002080B500AF4FF48070A6
:103D5000FFF7D6FE0346002B0CD04FF48070FFF720
:103D6000B9FE0120FFF797FE0D4B01225A7000208B
:103D7000FFF7C6FF4FF48270FFF7C2FE0346002B29
:103D80000CD04FF48270FFF7A5FE0220FFF783FEF0
:103D9000034B01229A700120FFF7B2FF00BF80BDE4
:103DA000042B002080B483B000AF0346FB710949A7
:103DB00097F907305B09FA7902F01F02012000FA37
:103DC00002F241F8232000BF0C37BD465DF8047BAA
:103DD000704700BF00E100E080B483B000AF03464D
:103DE000FB71094997F907305B09FA7902F01F0264
:103DF000012000FA02F2603341F8232000BF0C37A3
:103E0000BD465DF8047B704700E100E080B483B0FC
:103E100000AF03463960FB7197F90730002B0BDACE
:103E20000D49FB7903F00F03043B3A68D2B252010B
:103E3000D2B20B441A7609E0084997F907303A687C
:103E4000D2B25201D2B20B4483F8002300BF0C3728
:103E5000BD465DF8047B704700ED00E000E100E046
:103E600080B582B000AF03460A46FB711346BB71B2
:103E7000BA7997F9073011461846FFF7C7FF97F947
:103E800007301846FFF7A8FF97F907301846FFF7E5
:103E900089FF00BF0837BD4680BD80B582B000AF46
:103EA0000346FB80FB88184600F024F803461B6895
:103EB000012B0CBF01230023DBB218460837BD4697
:103EC00080BD80B584B000AF0346FB80FB881846F8
:103ED00000F010F803461A4600231360FB881846CA
:103EE00000F008F803461B68FB60FB6800BF103752
:103EF000BD4680BD80B483B000AF0346FB80FB8825
:103F000003F1804303F5C04318460C37BD465DF806
:103F1000047B704780B483B000AF7860044A7B684C
:103F2000C2F8043300BF0C37BD465DF8047B704710
:103F30000060004080B483B000AF7860054BD3F8D8
:103F400004237B68134018460C37BD465DF8047B9C
:103F5000704700BF0060004080B483B000AF78605D
:103F60000949094A7B6803F5A27352F8233043F0EC
:103F700001027B6803F5A27341F8232000BF0C37D0
:103F8000BD465DF8047B70470060004080B485B09A
:103F900000AFF860B9601346FB711649154AFB681B
:103FA00003F5A27352F8233023F4473323F440730C
:103FB000FA6802F5A27241F822300E480D4AFB68F9
:103FC00003F5A27352F82320BB681B0203F4F851D7
:103FD000FB791B0403F440330B431A43FB6803F5DE
:103FE000A27340F8232000BF1437BD465DF8047B60
:103FF000704700BF0060004080B483B000AF7860BD
:10400000074A7B6803F5A27352F823301B0A03F0BA
:104010001F0318460C37BD465DF8047B704700BF90
:104020000060004080B483B000AF7860074A7B68CE
:1040300003F5A27352F823301B0C03F00303DBB229
:1040400018460C37BD465DF8047B704700600040A1
:1040500080B483B000AF78604FF0A04318460C37AF
:10406000BD465DF8047B704780B584B000AF7860D2
:10407000084611461A460346FB700B46BB701346B2
:104080007B703B1D1846FFF7E3FFF8607A68F9780C
:10409000BB785B0019437B789B0019433B7E1B0276
:1040A00019433B7F1B041943FB6802F5E07243F898
:1040B000221000BF1037BD4680BD80B584B002AF6E
:1040C00078600B46FB70FA7800230193002300937D
:1040D0001346002200217868FFF7C6FF00BF0837AB
:1040E000BD4680BD80B584B000AF78603B1D1846EA
:1040F000FFF7AEFFF8607A68FB6802F5E07253F8EC
:10410000223023F00203BB607A68FB6802F5E0729C
:10411000B96843F8221000BF1037BD4680BD80B596
:1041200084B000AF78600B46FB703B1D1846FFF76C
:104130008FFFF8607A687968FB6801F5E07153F8E1
:10414000213023F44031FB6802F5E07243F822107D
:104150007A687968FB6801F5E07153F82130F978E5
:1041600009041943FB6802F5E07243F8221000BF0E
:104170001037BD4680BD80B584B000AF78603B1D70
:104180001846FFF765FFF860F86800F021F802466E
:104190007B6822FA03F303F0010318461037BD468B
:1041A00080BD80B584B000AF78603B1D1846FFF736
:1041B0004FFFF8607A68FB6802F5E07253F822302E
:1041C0001B0C03F00303DBB218461037BD4680BD5D
:1041D00080B483B000AF78607B68D3F810351846A0
:1041E0000C37BD465DF8047B704780B586B000AFE4
:1041F000F860B9607A604FF0A0433B61FB687B6177
:1042000012E07B699B0007F11802134453F8083C45
:104210001846FFF7DDFF02467B681A607B680433AF
:104220007B607B6901337B61FA68BB681A447B69F8
:104230009A42E6D800BF1837BD4680BD80B485B02D
:1042400000AF786039603B68FB607B68DB08BB606F
:104250007B6803F007037B6001227B6802FA03F3AB
:10426000F968BA680A441278134018461437BD46F4
:104270005DF8047B704780B485B000AF786039602A
:104280003B68FB607B68DB08BB607B6803F007036F
:104290007B60FA68BB681344F968BA680A4412780C
:1042A00051B201207A6800FA02F252B20A4352B2C5
:1042B000D2B21A7000BF1437BD465DF8047B704758
:1042C00080B483B000AF78600D4A7B68134430330C
:1042D00093F90030002B09DB094A7B681344303323
:1042E00093F90030072B01DC012300E0002303F0E9
:1042F0000103DBB218460C37BD465DF8047B7047FE
:10430000182B002080B483B000AF7860084A7B6827
:104310001344303393F90030072BCCBF0123002323
:10432000DBB218460C37BD465DF8047B704700BF12
:10433000182B002080B483B000AF7860074A7B68F8
:104340001344303393F90030DB43DBB2DB09DBB2DB
:1043500018460C37BD465DF8047B7047182B0020CB
:1043600080B485B000AFF860B9607A60FB70BB685C
:1043700059B2104AFB68134430330A461A700D498B
:10438000BB687A6841F82320FB7883F00103DBB235
:10439000002B08D0BB68083BFA6851B2054A1344A9
:1043A0000A4683F8502000BF1437BD465DF8047BF1
:1043B000704700BF182B002080B483B000AF786036
:1043C000054A7B6813443033FF221A7000BF0C3754
:1043D000BD465DF8047B7047182B002080B483B085
:1043E00000AF7860054A7B681344303393F900309E
:1043F00018460C37BD465DF8047B7047182B00202B
:1044000080B483B000AF7860044A7B6852F82330F0
:1044100018460C37BD465DF8047B7047182B00200A
:1044200080B588B000AFF860B9601346FB71FF2318
:10443000FB77FB79002B01D0002300E008237B6190
:10444000FB79002B01D0082300E00C233B617B6942
:10445000BB6112E00E4ABB6952F82330B3F1FF3F53
:1044600008D1FB79BA68B969F868FFF779FFBB69C9
:10447000FB7706E0BB690133BB61BA693B699A42CD
:10448000E8D397F91F3018462037BD4680BD00BFDE
:10449000182B002080B483B000AF0346FB71FB797A
:1044A0000A4A4FF0FF3142F82310FB79072B06D957
:1044B000FB79083B054A1344FF2283F8502000BFD4
:1044C0000C37BD465DF8047B704700BF182B0020F9
:1044D00080B582B000AF1D4B93F85430002B03D051
:1044E00008233B603B682CE00023FB7106E0FB796E
:1044F0001846FFF761FFFB790133FB71FB791F2B36
:10450000F5D90023FB7106E0FB791846FFF7C2FFDF
:10451000FB790133FB71FB790B2BF5D907210620C1
:10452000FFF79EFC4FF4BE70FFF7CBFC4FF000404E
:10453000FFF7F0FC054B012283F8542000233B6079
:104540003B6818460837BD4680BD00BF182B0020C9
:1045500080B400AF064B93F85430002B14BF0123F6
:104560000023DBB21846BD465DF8047B704700BFF0
:10457000182B002080B586B000AFF860B9607A6073
:1045800000237B61F868FFF7D5FE0346002B02D0BD
:1045900008237B6140E0BB68DB781A467968F868DD
:1045A000FFF73EFF0346FB7497F91330B3F1FF3F6B
:1045B00030D0BB689B78002B03D0F868FFF792FDE2
:1045C00005E0BB685B781946F868FFF776FDBB68C5
:1045D000DB78002B08D097F91300BB681B781A46CC
:1045E000F968FFF7D3FC17E097F91330083B97F908
:1045F0001320083A0B490A4492F95010BA6812780D
:10460000920152B20A4351B2064A13440A4683F851
:10461000502001E004237B617B6918461837BD46B2
:1046200080BD00BF182B002080B586B000AF786039
:104630000B46FB707868FFF765FE0346002B27D01A
:104640007868FFF7CBFE0346083B2A4A134493F9E8
:104650005030BB75BB7D9B097B757B7D032B0AD1DD
:104660007868FFF788FD0346002B01D0032300E0A4
:104670000223FB7506E07B7D012B01D1022300E0C4
:104680000323FB75FB7D19467868FFF748FD2DE095
:104690007868FFF715FE0346002B27D07868FFF7F0
:1046A0009DFE03463B613B699BB240339BB29B003E
:1046B000FB813B691846FFF74FFCFB891846FFF763
:1046C00000FCFB78002B11D07868FFF787FE0346CB
:1046D0001846FFF795FEB860BB68002B06D0012294
:1046E0003B6902FA03F31846FFF714FC00BF1837C2
:1046F000BD4680BD182B002080B582B000AF786029
:104700007868FFF738FD0346002B14BF0123002310
:10471000DBB218460837BD4680BD000080B594B0B6
:1047200000AF0023FB640023FB604FF48073A7F805
:10473000463001233B640023BB6421E0B7F84630D8
:104740001846FFF7AAFB0346002B0ED0386CFFF784
:10475000F1FB0346002B08D0B7F846301846FFF7A8
:10476000B0FBFA6C3B6C1343FB643B6C5B003B643B
:10477000B7F846300433A7F84630BB6C0133BB644E
:10478000BB6C072BDAD94FF4BE70FFF786FB0346EC
:10479000002B0ED04FF4BE70FFF793FBFB6C43F081
:1047A0000043FB6407F10C031A4601210020FFF7C8
:1047B0001CFDFB6CDBB2002B29D001233B640023E2
:1047C000BB6421E03A6CFB6C1340002B16D0B86C34
:1047D000FFF712FC7863B86CFFF724FC034687F8F8
:1047E0003330B86CFFF70CFEF862FB6A002B05D083
:1047F00097F83320FB6A1146786B98473B6C5B0057
:104800003B64BB6C0133BB64BB6C072BDAD9FB6C1C
:10481000002B80F2F180002387F83B300023BB603F
:104820000023FB630BE0FB6B9B0007F1500213447A
:104830004FF0FF3243F84C2CFB6B0133FB63FB6BF7
:10484000002BF0D0002387F83B300023BB6474E0DA
:104850006B4ABB6C1344503393F9003087F82B300C
:1048600097F82B3023F0C0037B62654ABB6C13447E
:10487000503393F90030B3F1FF3F5BD03B1D194635
:10488000786AFFF7DBFC0346002B53D097F82B30F8
:104890009B0987F82330786AFFF7A0FD0346184686
:1048A000FFF7AEFDF861FB69002B03D197F82330C9
:1048B000032B3FD197F82330032B05D107F10803D1
:1048C0001946786AFFF7D7FC786AFFF76AFC034657
:1048D000FB7607F10C031946786AFFF7AFFC7861A5
:1048E0007B69002B02D0FB7E022B05D07B69002B5D
:1048F00020D1FB7E032B1DD197F82330032B10D141
:10490000FB7E022B01D1032300E00223FB74FB7C1E
:104910001946786AFFF703FC97F83B30013387F8B4
:104920003B30FB69002B05D097F82320FB6911462B
:10493000786A9847BB6C0133BB64BB6C032B87D987
:1049400097F83B30002B52D0012387F83A303B4692
:104950001A4601210020FFF748FC0023FB6316E004
:10496000FB6B9B0007F15002134453F8502CFB6B78
:104970009B0007F150010B4453F8443C9A4203D08A
:10498000002387F83A3005E0FB6B0133FB63FB6BD8
:10499000002BE5D097F83A30002B03D0002387F89E
:1049A0003B3024E00023FB631EE0FB6B9B0007F120
:1049B0005002134453F8502CFB6B9B0007F150013D
:1049C0000B4443F8442CFB6B9B0007F1500213444B
:1049D00053F8482CFB6B9B0007F150010B4443F844
:1049E0004C2CFB6B0133FB63FB6B002BDDD097F88A
:1049F0003B30002B7FF426AF00BF5037BD4680BD53
:104A0000182B002080B483B000AF78600B46FB7099
:104A1000FB787A68134401221A6000BF0C37BD4648
:104A20005DF8047B704780B485B000AF78600B46BA
:104A30007B807B887A68134400221A607B887A68BE
:104A400013441B68FB60FB6800BF1437BD465DF86C
:104A5000047B704780B483B000AF78600B467B80E6
:104A60007B887A6813441B68002B14BF0123002342
:104A7000DBB218460C37BD465DF8047B704780B446
:104A800083B000AF786039607B683A68C3F804236C
:104A900000BF0C37BD465DF8047B704780B483B01F
:104AA00000AF786039607B683A68C3F8082300BFBC
:104AB0000C37BD465DF8047B704780B483B000AF0F
:104AC00078607B680522C3F8002500BF0C37BD461F
