:020000021000EC
:10F0000000000120117C0200397C02003B7C0200E0
:10F010003D7C02003F7C0200417C020000000000B9
:10F02000000000000000000000000000437C02001F
:10F03000457C020000000000477C0200497C020081
:10F04000314102004B7C02009D610200595B0200CD
:10F05000413E02004B7C0200054B02007963020036
:10F06000896A02004B7C02004B7C02004B7C020050
:10F070004B7C02004B7C02004B7C02004B7C02006C
:10F080004B7C0200891602004B7C02004B7C020084
:10F09000C91602004B7C0200D97B02004B7C0200A7
:10F0A0004B7C02004B7C02004B7C02004B7C02003C
:10F0B0004B7C02004B7C02000000000000000000BE
:10F0C0004B7C02004B7C02004B7C02004B7C02001C
:10F0D0004B7C02004B7C02004B7C020000000000D5
:10F0E0000000000000000000000000000000000020
:10F0F0000000000000000000000000000000000010
:10F1000000000000000000000000000000000000FF
:10F1100000000000000000000000000000000000EF
:10F1200000000000000000000000000000000000DF
:10F1300000000000000000000000000000000000CF
:10F1400000000000000000000000000000000000BF
:10F1500000000000000000000000000000000000AF
:10F16000000000000000000000000000000000009F
:10F17000000000000000000000000000000000008F
:10F18000000000000000000000000000000000007F
:10F19000000000000000000000000000000000006F
:10F1A000000000000000000000000000000000005F
:10F1B000000000000000000000000000000000004F
:10F1C000000000000000000000000000000000003F
:10F1D000000000000000000000000000000000002F
:10F1E000000000000000000000000000000000001F
:10F1F000000000000000000000000000000000000F
:10F2000010B5054C237833B9044B13B10448AFF360
:10F2100000800123237010BDE025002000000000C5
:10F22000E49702000C4B43B10C480D4910B5AFF305
:10F2300000800C48036823B910BD0A48036833B93D
:10F240007047094B002BF7D0BDE810401847064B1C
:10F25000002BF5D0184700BF00000000E497020023
:10F26000E4250020CC25002000000000154B002BD9
:10F2700008BF134B9D46A3F5803A00218B460F46ED
:10F280001348144A121A00F063F80F4B002B00D0F9
:10F2900098470E4B002B00D0984700200021040017
:10F2A0000D000D48002802D00C48AFF3008000F09C
:10F2B0002BF82000290000F053FD00F011F800BFEA
:10F2C0000000080000000120000000000000000015
:10F2D000E02500208C2F002000000000000000002E
:10F2E00008B5074B044613B10021AFF30080054B6E
:10F2F0001868836A03B19847204600F031F800BFD0
:10F3000000000000E096020070B50D4E0D4CA41BED
:10F31000A4100025A54209D10B4E0C4C0AF0D4F9DB
:10F32000A41BA4100025A54205D170BD56F82530B8
:10F3300098470135EEE756F8253098470135F2E752
:10F34000C4250020C4250020C4250020C825002095
:10F3500002440346934200D1704703F8011BF9E7CA
:10F36000FEE700BF80B483B000AF78604FF0A043E9
:10F3700018460C37BD465DF8047B704780B584B0F5
:10F3800000AF7860084611461A460346FB700B46EC
:10F39000BB7013467B703B1D1846FFF7E3FFF86018
:10F3A0007A68F978BB785B0019437B789B00194336
:10F3B0003B7E1B0219433B7F1B041943FB6802F58C
:10F3C000E07243F8221000BF1037BD4680BD80B503
:10F3D00084B002AF786000230193002300930023E0
:10F3E000012201217868FFF7C9FF00BF0837BD4639
:10F3F00080BD80B584B000AF78603B1D1846FFF734
:10F40000B1FFF8607B68012202FA03F31946F8683D
:10F4100000F072F800BF1037BD4680BD80B584B0E3
:10F4200000AF78603B1D1846FFF79CFFF8607B68D3
:10F43000012202FA03F31946F86800F06CF800BFE5
:10F440001037BD4680BD80B584B000AF78603B1DED
:10F450001846FFF787FFF860FB68D3F80435BB60F8
:10F46000BB68DA437B68012101FA03F31A40FB68A9
:10F47000C3F808257B6801229A40BB681A40FB68E4
:10F48000C3F80C2500BF1037BD4680BD80B582B0E3
:10F4900000AF786039603B68002B03D17868FFF7D4
:10F4A000BDFF02E07868FFF7A4FF00BF0837BD4644
:10F4B00080BD80B584B000AF78603B1D1846FFF773
:10F4C00051FFF860F86800F00AF802467B6822FAFB
:10F4D00003F303F0010318461037BD4680BD80B426
:10F4E00083B000AF78607B68D3F8043518460C37DA
:10F4F000BD465DF8047B704780B483B000AF786090
:10F5000039607B683A68C3F8082500BF0C37BD46F0
:10F510005DF8047B704780B483B000AF78603960D9
:10F520007B683A68C3F80C2500BF0C37BD465DF810
:10F53000047B704780B584B000AF78600E4A7B686A
:10F5400013441B781846FFF7B4FF0346002B14BF83
:10F5500001230023FB73FB7B002B14BF012300233B
:10F56000DBB283F00103DBB203F00103DBB2184628
:10F570001037BD4680BD00BFE496020080B582B062
:10F5800000AF7860054A7B6813441B780021184659
:10F59000FFF77CFF00BF0837BD4680BDE496020040
:10F5A00080B582B000AF7860054A7B6813441B7851
:10F5B00001211846FFF76AFF00BF0837BD4680BD2E
:10F5C000E496020080B582B000AF0023FB7106E034
:10F5D000FB791846FFF7E4FFFB790133FB71FB79F8
:10F5E000022BF5D900BF0837BD4680BD80B582B07B
:10F5F00000AF0023FB7106E0FB791846FFF7BEFF62
:10F60000FB790133FB71FB79022BF5D900BF083779
:10F61000BD4680BD80B582B000AF7860054A7B688A
:10F6200013441B781846FFF70EFF00BF0837BD468E
:10F6300080BD00BFE496020080B582B000AF002319
:10F640007B6009E0094A7B6813441B781846FFF782
:10F65000BEFE7B6801337B607B68022BF2D9FFF72B
:10F66000B1FF00BF0837BD4680BD00BFE496020071
:10F6700080B485B000AF78604FF0FF33BB600023EB
:10F68000FB600DE00B4AFB6813441B781A467B684D
:10F690009A4202D1FB68BB6005E0FB680133FB6066
:10F6A000FB68032BEED9BB6818461437BD465DF8DE
:10F6B000047B7047E896020080B483B000AF7860A6
:10F6C000044A7B6813441B7818460C37BD465DF826
:10F6D000047B7047E896020076DF704700BF18464B
:10F6E00032DF704700BF184680B485B000AF786045
:10F6F000254BFB607B68002B40D0244B1A68F968CF
:10F700007B6800BF00BF00BF00BF00BF00BF00BFDD
:10F7100000BF8A422FD000BF00BF00BF00BF00BFA4
:10F7200000BF00BF00BF00BF00BF00BF00BF00BFE1
:10F7300000BF00BF00BF00BF00BF00BF00BF00BFD1
:10F7400000BF00BF00BF00BF00BF00BF00BF00BFC1
:10F7500000BF00BF00BF00BF00BF00BF00BF00BFB1
:10F7600000BF00BF00BF00BF00BF00BF00BF00BFA1
:10F7700000BF00BF00BF013BC3D17B6000BF143797
:10F78000BD465DF8047B70470024F400C0250020CE
:10F7900080B582B000AF78607B684FF47A7202FB6C
:10F7A00003F31846FFF7A0FF00BF0837BD4680BD32
:10F7B00080B500AF0120FFF7E1FE1920FFF7E8FF59
:10F7C0000120FFF7EDFE00BF80BD80B500AF022035
:10F7D000FFF7D4FE1920FFF7DBFF0220FFF7E0FE62
:10F7E00000BF80BD80B582B000AF0A49012003F0A0
:10F7F00067FE0246084B1A60074B1B687B607B68FC
:10F80000002B02D0786803F08FFA00BF0837BD469E
:10F8100080BD00BF4DF90100A02E002080B582B050
:10F8200000AF01F057FF02460F4B1A600E4B1B68EA
:10F830007B607B68002B02D0786803F075FA0B4A76
:10F8400001210B4801F07CFF0246074B1A60064B72
:10F850001B683B603B68002B02D0386803F064FAF9
:10F8600000BF0837BD4680BDA02E002049FD010025
:10F87000EC96020080B582B000AF0B4B002240F244
:10F880003331184601F090FF0246084B1A60074BCF
:10F890001B687B607B68002B02D0786803F044FA19
:10F8A00000BF0837BD4680BDFC250020A02E0020EB
:10F8B00080B584B000AF002003F0E8FD0246154B90
:10F8C0001A60144B1B68FB60FB68002B02D0F868C1
:10F8D00003F02AFA03F0BFFE02460E4B1A600D4BEE
:10F8E0001B68BB60BB68002B02D0B86803F01CFA31
:10F8F000FFF7F6FE0246074B1A60064B1B687B605B
:10F900007B68002B02D0786803F00EFA00BF103736
:10F91000BD4680BDA02E002080B582B000AF04F0AF
:10F9200049FB0246084B1A60074B1B687B607B68EB
:10F93000002B02D0786803F0F7F9002004F098FB60
:10F9400000BF0837BD4680BDA02E002080B584B022
:10F9500000AF0346FB71FB79072B1ED00A2B02D0A8
:10F96000042B03D035E0FFF7A3FF32E01B4B1B88CD
:10F9700013211846FFF7B0FE0246194B1A60184BC8
:10F980001B68082B22D0164B1B68FB60FB68002B02
:10F990001CD0F86803F0C8F918E0104B1B884FF62C
:10F9A000FF72934214D107F0B1FA02460C4B1A6071
:10F9B0000B4B1B68082B0BD0094B1B68BB60BB684B
:10F9C000002B05D0B86803F0AFF901E000BF00E0FC
:10F9D00000BF00BF1037BD4680BD00BFB825002066
:10F9E000A02E002080B582B000AF7860554B1B7808
:10F9F0000F2B00F28580534B1B781B017A6811781E
:10FA0000514AD1544F4B1B781B0101337A6851780E
:10FA10004D4AD1544B4B1B781B0102337A689178C5
:10FA2000494AD154474B1B781B0103337A68D1787C
:10FA3000454AD154434B1B781B0104337A68117932
:10FA4000414AD1543F4B1B781B0105337A685179E9
:10FA50003D4AD1543B4B1B781B0106337A689179A0
:10FA6000394AD154374B1B781B0107337A68D17957
:10FA7000354AD154334B1B781B0108337A68117A0D
:10FA8000314AD1542F4B1B781B0109337A68517AC4
:10FA90002D4AD1542B4B1B781B010A337A68917A7B
:10FAA000294AD154274B1B781B010B337A68D17A32
:10FAB000254AD154234B1B781B010C337A68117BE8
:10FAC000214AD1541F4B1B781B010D337A68517B9F
:10FAD0001D4AD1541B4B1B781B010E337A68917B56
:10FAE000194AD154174B1B781B010F337A68D17B0D
:10FAF000154AD154134B1B780133DAB2114B1A70EB
:10FB0000104B1B780F2B19D9FFF752FE0F4B1B8898
:10FB10001A460F4B1B780F49002009F02FF80E4BA7
:10FB20001B8801339AB20C4B1A804FF4807200216B
:10FB30000548FFF70DFC034B00221A7000BF083781
:10FB4000BD4680BD40260020442600201C26002003
:10FB50002C260020109702004427002090B583B087
:10FB600000AF0446084611461A462346FB8003466A
:10FB70007B710B463B711346FB70102200211F481E
:10FB8000FFF7E6FBFB88DAB21C4B1A70FB881B0AF6
:10FB90009BB2DAB2194B5A70184A7B799370174AA4
:10FBA0003B79D370154AFB781371144A3B7E53712D
:10FBB000124B01229A71114B0122DA710F4B012273
:10FBC0001A720E4B01225A720C4B01229A720B4B85
:10FBD0000122DA72094B01221A73084B01225A736F
:10FBE000064B01229A73054B0122DA730348FFF793
:10FBF000F9FE00BF0C37BD4690BD00BF3026002087
:10FC000080B500AF06F01EFE00F0EAFD0346DBB251
:10FC10002C3BDAB2014B1A7000BF80BD2C260020AD
:10FC200090B583B002AF3E4B1B78032B05D9FFF78D
:10FC3000E7FF3B4B00221A7005E0394B1B7801337C
:10FC4000DAB2374B1A70374B1B8801339AB2354BF7
:10FC50001A80354800F04AFB334B1B68184609F000
:10FC6000F7F84FF00002314B09F082FA03460C46D8
:10FC70001846214628A3D3E9002308F09BFF03463A
:10FC80000C461846214609F05BFB0346DAB2284BC6
:10FC90001A70254B5B68184609F0DAF84FF000023D
:10FCA000224B09F065FA03460C46184621464FF0F0
:10FCB0000002204B08F07EFF03460C461846214602
:10FCC00009F03EFB0346DAB21B4B1A70164B9B68D9
:10FCD000184609F0BDF84FF00002184B09F048FA39
:10FCE00003460C461846214609F02AFB0346DAB2C1
:10FCF000134B1A700B4B1888124B19780C4B1A784F
:10FD00000D4B1C780E4B1B7800932346FFF726FF04
:10FD100000BF0437BD4690BD000000000088C3400E
:10FD2000462700201C26002020260020000024401A
:10FD3000A52E002000006940A42E002000408F4026
:10FD40009C2E00202C26002080B582B000AF786069
:10FD5000FFF72EFDFFF764FF00BF0837BD4680BDEB
:10FD600080B500AF1549002008F0CCFBFFF756FD29
:10FD7000FFF738FDFFF7D0FD00F0A4FC00F024F8F9
:10FD800000F06AF900F038FD00F04EFD4FF4FA7013
:10FD9000FFF7FEFC00F0BEFD03461A46084B1A8032
:10FDA000074B1B881A460749002008F0E7FEFFF7BB
:10FDB0000CFDFFF75FFD20BFFDE700BF20970200AD
:10FDC000442700203097020080B586B000AF3B4644
:10FDD00000221A605A609A60DA6008233B600523AB
:10FDE0007B604FF0CC73BB6003233B733946002329
:10FDF000094A0A4805F054FA78617B693B613B691E
:10FE0000002B02D0386902F08FFF044805F0C2FAD7
:10FE100000BF1837BD4680BD29FF0100489702008A
:10FE200080B588B002AF0346FB710B46BB71134629
:10FE30007B71BB793B737B797B73114B00221A700A
:10FE400007F10C02F9790123009302230D4805F014
:10FE500099FD78617B693B613B69002B02D0386971
:10FE600002F062FF00BF064B1B78DBB283F0010398
:10FE7000DBB2002BF7D100BF1837BD4680BD00BFF5
:10FE8000472700204897020080B588B002AF03469C
:10FE90000A46FB711346BB7100237B61204B002295
:10FEA0001A70BA1DF9790123009301231D4805F04A
:10FEB00069FD78617B693B613B69002B02D0386941
:10FEC00002F032FF00BF164B1B78DBB283F0010358
:10FED000DBB2002BF7D17B69002B1BD1104B00222A
:10FEE0001A7007F10B02F97901230E4805F072FD33
:10FEF00078617B69FB60FB68002B02D0F86802F038
:10FF000013FF00BF064B1B78DBB283F00103DBB2AB
:10FF1000002BF7D1FB7A18461837BD4680BD00BFCD
:10FF2000472700204897020080B483B000AF786074
:10FF300039607B681B78002B00D003E0044B012262
:10FF40001A7000BF00BF0C37BD465DF8047B7047D8
:10FF50004727002080B485B000AF3B600346FB71AB
:10FF60000B46BB7113467B710023FB60074B0022DD
:10FF70001A70FB68002B02D1044B00221A7000BFDC
:10FF80001437BD465DF8047B704700BF472700204B
:10FF900080B485B000AF7860254BFB607B68002B98
:10FFA00040D0244B1A68F9687B6800BF00BF00BFCF
:10FFB00000BF00BF00BF00BF00BF8A422FD000BFFC
:10FFC00000BF00BF00BF00BF00BF00BF00BF00BF39
:10FFD00000BF00BF00BF00BF00BF00BF00BF00BF29
:10FFE00000BF00BF00BF00BF00BF00BF00BF00BF19
:10FFF00000BF00BF00BF00BF00BF00BF00BF00BF09
:020000022000DC
:1000000000BF00BF00BF00BF00BF00BF00BF00BFF8
:1000100000BF00BF00BF00BF00BF00BF00BF013B6B
:10002000C3D17B6000BF1437BD465DF8047B7047C9
:100030000024F400C025002080B582B000AF7860B5
:100040007B684FF47A7202FB03F31846FFF7A0FFB8
:1000500000BF0837BD4680BD80B582B000AFD0215B
:100060007620FFF711FF0346FB71FB79602B0DD162
:10007000B622E0217620FFF7D3FE6420FFF7DCFFF5
:10008000762000F007F86420FFF7D6FF00BF08379E
:10009000BD4680BD80B582B000AF0346FB717A4B90
:1000A0001B7803F00703DAB2FB79F2211846FFF759
:1000B000B7FE764B1B785B015AB2754B1B789B00E1
:1000C0005BB213435AB2734B1B785BB213435BB200
:1000D000DAB2FB79F4211846FFF7A2FE6E4B1B78CB
:1000E0005B015AB26D4B1B789B005BB213435BB252
:1000F000DAB2FB79F5211846FFF792FEF879684BE2
:100100001A228821FFF726FF654B5B781B021AB283
:10011000634B1B781BB213431BB29AB2614B1A801C
:100120005F4BDB781B021AB25D4B9B781BB213430B
:100130001AB25D4B1A805A4B5B791B021AB2584BAC
:100140001B791BB213431AB2584B1A80544BDB79FC
:100150001B021AB2524B9B791BB213431BB29AB2C9
:10016000534B1A804E4B5B7A1B021AB24C4B1B7AD4
:100170001BB213431AB24F4B1A80494BDB7A1B0256
:100180001AB2474B9B7A1BB213431AB24A4B1A80DE
:10019000434B5B7B1B021AB2414B1B7B1BB21343CD
:1001A0001AB2464B1A803E4BDB7B1B021AB23C4B09
:1001B0009B7B1BB213431AB2414B1A80384B5B7CBA
:1001C0001B021AB2364B1B7C1BB213431AB23D4BB7
:1001D0001A80334BDB7C1B021AB2314B9B7C1BB267
:1001E00013431AB2384B1A802D4B5B7D1B021AB297
:1001F0002B4B1B7D1BB213431AB2344B1A80284B76
:10020000DB7D1B021AB2264B9B7D1BB213431AB235
:100210002F4B1A80224B5A7E2E4B1A70F879204BA6
:100220000722E121FFF796FE1D4B5B781B021AB2F5
:100230001B4B1B781BB213431AB2274B1A80184B67
:100240009A78264B1A70164BDB781A02144B1B79DE
:100250001B01DBB213431B119AB2214B1A80104BC6
:100260005B791A020E4B1B7903F0F00313431B1149
:100270009AB21C4B1A800A4B9A791B4B1A7000BF1A
:100280000837BD4680BD00BFBB250020BC2500202F
:10029000BA250020BD250020BF250020BE25002056
:1002A000A82E0020C42E0020C82E0020062F0020DB
:1002B000EC2E0020D42E0020EE2E0020D62E002082
:1002C000E42E0020082F0020C22E0020F02E002057
:1002D000042F0020CA2E00200A2F0020022F002009
:1002E000C62E0020002F0020DC2E002090B583B009
:1002F00000AF7860424B0822F7217620FFF72AFEF4
:100300003F4B1B781A043E4B5B781B0213433C4A5D
:10031000927813431B091A463A4B1A60384BDB7824
:100320001A04374B1B791B021343354A5279134386
:100330001B091A46334B5A60314B9B791B021AB288
:100340002F4BDB791BB213431BB21A462D4B9A601D
:100350002C4B5B682C4A13602B4B1B68DA102B4B21
:100360001B885B00D31A2A4AB2F9002002FB03F370
:10037000DB12284A1360244B1B681B11234A128886
:100380009B1A214A1268121120490988521A02FB4D
:1003900003F31B13204AB2F9002002FB03F39B1363
:1003A0001E4A13601B4B1A681C4B1B6813441C4AE3
:1003B0001360144B1A681A4B1B681946104600F05C
:1003C000ABF803461A467B681A607B681C1D144B09
:1003D0001B68184600F08EF8034623607B6803F123
:1003E0000804084B9A680E4B1B681946104600F02B
:1003F00019F80346236000BF0C37BD4690BD00BF0F
:1004000048270020F42E0020E02E0020C42E0020DB
:10041000C82E0020CC2E0020062F0020E82E002021
:10042000102F002080B485B000AF786039603B6841
:10043000A3F59633FB607B689A03284B1B881B054A
:10044000D21A274B1B881946FB6803FB01F3D31A0A
:1004500003F58043DB13234A12781146FA6802FB46
:1004600001F29212204909780846F96801FB00F16F
:10047000C91201F5004101FB02F2921202F50012CD
:100480001A49B1F9001001FB02F202F50052921371
:1004900002FB03F3FB60FB68DB13FA68D21302FB79
:1004A00003F3DB11124A127802FB03F31B11FA6803
:1004B000D31AFB60FB6823EAE373FB60FB68B3F1CC
:1004C000C85FA8BF4FF0C853FB60FB681B131846FA
:1004D0001437BD465DF8047B704700BFC62E002070
:1004E000002F0020DC2E0020022F00200A2F0020E9
:1004F000CA2E002080B485B000AF78607A681346B9
:100500009B00134480331B12FB60FB6818461437B2
:10051000BD465DF8047B704780B483B000AF78605F
:1005200039603B685B10A3F57A435A4A1360594B14
:100530001B689B10574A1268921002FB03F3DB12F0
:10054000554AB2F9002002FB03F3544A1360544B9E
:10055000B3F900301A464F4B1B6803FB02F35A00F5
:100560004E4B1B6813444D4A13604C4B1B689A104A
:100570004C4BB3F900301B041344484A13604A4BF8
:10058000B3F900301946434B1B689B10414A12686F
:10059000921002FB03F35B1303FB01F3DA10434BEE
:1005A000B3F9003019463B4B1B6803FB01F35B10AA
:1005B00013449B14374A1360364B1B6803F5004302
:1005C0003B4A128802FB03F3DB13324A1360314BC0
:1005D0001B68002B01D1002356E07B685B422F4A49
:1005E000126812139B1A40F6354202FB03F303F123
:1005F000434303F5A0032F4A13602E4B1B68002BC7
:1006000009DB2C4B1B685B00224A1268B3FBF2F338
:10061000284A136008E0274B1B681E4A1268B3FB88
:10062000F2F35B00234A1360234BB3F90030194601
:10063000204B1B68DB081F4A1268D20802FB03F339
:100640005B0B03FB01F31B13124A1360194B1B686E
:100650009B081A46194BB3F9003003FB02F35B13F6
:100660000E4A13600B4B1A680C4B1B681344144A58
:10067000B2F9002013441B110E4A126813441A46A3
:100680000C4B1A600B4B1B6818460C37BD465DF8C7
:10069000047B7047D02E0020082F0020D82E002089
:1006A000E42E0020D62E0020EE2E0020D42E002096
:1006B000EC2E00200C2F0020042F0020F02E002014
:1006C000C22E002080B588B000AF184A3B1D07CA73
:1006D00003C31A701649002005F06EFFF861FB692C
:1006E000BB61BB69002B02D0B86902F01DFB3B1D4A
:1006F0001946002005F0C8FFF861FB697B617B6942
:10070000002B02D0786902F00FFB0121094806F0A6
:1007100017F8F861FB693B613B69002B02D038692F
:1007200002F002FB00BF2037BD4680BD509702009B
:10073000390702005027002080B584B000AF7860F0
:100740007B681B78002B3BD17B685B6801211846D6
:1007500005F0F6FFF860FB68BB60BB68002B02D0B9
:10076000B86802F0E1FA7B685B68B3F9003007EE25
:10077000903AB8EEE77ADFED146AC7EE267A134BAB
:10078000C3ED007A114BD3ED007A9FED117A67EE3D
:10079000877A9FED107A67EE877A0C4BC3ED007A6B
:1007A0000A4BD3ED007A9FED0C7A67EE877AFCEE68
:1007B000E77AC7ED007A3B889BB21AB2074B1A80E2
:1007C00000BF1037BD4680BD000080455427002083
:1007D00085EBB13F333353400000C8425827002017
:1007E00080B400AF034BB3F900301846BD465DF846
:1007F000047B70475827002090B587B000AF084BA6
:100800003C1D0FCB84E80F00391D00230022054852
:1008100003F0B4F878617B6918461C37BD4690BD7B
:10082000649702005C97020080B584B002AF0B4B66
:100830009F221A70042200210948FEF789FD042333
:100840000093074B01220549064803F05BF97860E5
:100850007B6818460837BD4680BD00BF5C27002076
:10086000642700205C97020080B586B002AF034683
:10087000FB80FB88B3F5805F01D3002340E00422B6
:1008800000212148FEF764FD082200211F48FEF7E1
:100890005FFDFB88184600F059F8F8601A4B0322F8
:1008A0001A70FB681B14DAB2174B5A70FB681B12E4
:1008B000DAB2154B9A70FB68DAB2134BDA70082380
:1008C0000093124B04221049114803F01BF90F4BFF
:1008D0001B799AB20D4B5B799BB213449AB20B4BC6
:1008E0009B799BB213449AB2084BDB799BB21344B9
:1008F0007B817B89B3F57F7F01D1012300E0002359
:1009000018461037BD4680BD6027002068270020AC
:100910005C97020080B582B000AF0023FB800BE043
:10092000FB881846FFF7A0FF0346002B01D0FB8889
:1009300008E0FB880133FB80FB88B3F5805FEFD3D1
:100940004FF4805318460837BD4680BD80B483B04D
:1009500000AF78607B681B0218460C37BD465DF817
:10096000047B704780B588B000AF78600023FB77C8
:100970004BE02A4B1A68FB7FDB001344BB61BB6969
:100980001B781A46012393407B61254B1A687B69CB
:100990001340002B36D07B69DA43214B1B68134090
:1009A0001F4A1360BB691B78184604F099F8034688
:1009B000FB74BB691B781A46012393401A46194BF6
:1009C0001B681340FA7CB96909788A40934219D1AF
:1009D000FB7CBA695278012A0CBF01220022D2B2F4
:1009E00093420CBF01230023DBB2FB60BB695B6851
:1009F000002B07D0BB695B68BA691278F968C9B285
:100A000010469847FB7F0133FB77074B1B78FA7F33
:100A10009A42AED300BF2037BD4680BD702700206C
:100A2000A02700209C2700207427002080B584B0D8
:100A300000AF78600B46FB7001227B6802FA03F37B
:100A4000FB601E4B184600F0E3FEB860BB68002B4D
:100A500030D11B4B1A68FB681340002B22D17868F9
:100A600004F03EF80346002B06D0164B1A68FB68CC
:100A70001343144A136006E0FB68DA43114B1B680A
:100A80001340104A13600E4B1A68FB6813430C4A5C
:100A900013600A480C4B1B680022194600F084FEC4
:100AA000B86008E0FB68DA43054B1B681340044A52
:100AB000136000E000BF1037BD4680BD7C270020DA
:100AC000A02700209C2700207827002080B588B030
:100AD00000AFF8600B467A60FB727B68042B01D88C
:100AE000072349E003F028FF034683F00103DBB24C
:100AF000002B07D003F0E0FEF861FB69002B01D06A
:100B0000FB6939E01E4AFB6813601E4AFB7A1370CA
:100B10001D4A7B6813601D4B00221A601C4B00228B
:100B20001A601EE0FB7ADB00FA681344BB61032302
:100B30003B7500237B750023BB750023FB75BB69E8
:100B40009B787B75BB691B78184607F11403114A23
:100B5000194603F003FFF861FB69002B01D0FB6924
:100B60000AE0FB7A5A1EFA72002BDBD10A4A0021F6
:100B70000A4800F0E5FD034618462037BD4680BD13
:100B80007027002074270020782700209C27002051
:100B9000A02700202D0A02006509020074970200B8
:100BA00080B582B000AF00237B600CE00B4B1A686D
:100BB0007B68DB0013441B780121184603F028FFF3
:100BC0007B6801337B60064B1B781A467B689A4230
:100BD000ECD8002318460837BD4680BD702700209A
:100BE0007427002080B483B000AF0346FB7109492D
:100BF00097F907305B09FA7902F01F02012000FA29
:100C000002F241F8232000BF0C37BD465DF8047B9B
:100C1000704700BF00E100E080B483B000AF03463E
:100C2000FB71094997F907305B09FA7902F01F0255
:100C3000012000FA02F2203341F8232000BF0C37D4
:100C4000BD465DF8047B704700E100E080B483B0EE
:100C500000AF0346FB71094997F907305B09FA7940
:100C600002F01F02012000FA02F2403341F8232073
:100C700000BF0C37BD465DF8047B704700E100E023
:100C800080B483B000AF0346FB71094997F9073080
:100C90005B09FA7902F01F02012000FA02F26033C8
:100CA00041F8232000BF0C37BD465DF8047B704738
:100CB00000E100E080B483B000AF03463960FB710F
:100CC00097F90730002B0BDA0D49FB7903F00F037E
:100CD000043B3A68D2B25201D2B20B441A7609E010
:100CE000084997F907303A68D2B25201D2B20B44A0
:100CF00083F8002300BF0C37BD465DF8047B7047C6
:100D000000ED00E000E100E080B485B000AF786065
:100D1000254BFB607B68002B40D0244B1A68F96898
:100D20007B6800BF00BF00BF00BF00BF00BF00BFA7
:100D300000BF8A422FD000BF00BF00BF00BF00BF6E
:100D400000BF00BF00BF00BF00BF00BF00BF00BFAB
:100D500000BF00BF00BF00BF00BF00BF00BF00BF9B
:100D600000BF00BF00BF00BF00BF00BF00BF00BF8B
:100D700000BF00BF00BF00BF00BF00BF00BF00BF7B
:100D800000BF00BF00BF00BF00BF00BF00BF00BF6B
:100D900000BF00BF00BF013BC3D17B6000BF143761
:100DA000BD465DF8047B70470024F400C025002098
:100DB00080B582B000AF7860054A7B68C2F808351C
:100DC00007211120FFF776FF00BF0837BD4680BD21
:100DD0000010014080B500AF0D4B4FF48032C3F8D6
:100DE00044230B4B4FF48032C3F804231120FFF748
:100DF00047FF1120FFF7F6FE054B01221A602F2056
:100E0000FFF782FF034B01221A7000BF80BD00BFB5
:100E100000100140C228002080B500AF1120FFF76C
:100E2000FBFE0F4B4FF48032C3F848230C4B4FF4BA
:100E30008032C3F808230A4B01225A602F20FFF7A3
:100E400063FF074B01229A60064B00221A602F2095
:100E5000FFF75AFF044B00221A7000BF80BD00BF8D
:100E600000100140B4280020C228002080B400AF48
:100E7000034BD3F804351846BD465DF8047B704734
:100E80000010014080B483B000AF786039607A68A8
:100E90003B68D31A23F07F4318460C37BD465DF8F4
:100EA000047B704780B483B000AF7860044A7B68ED
:100EB000C2F8403500BF0C37BD465DF8047B704773
:100EC0000010014080B487B000AF7860294B1B68E8
:100ED000002B03D1274A7B68136045E07B681A68C2
:100EE000244B1B681B689A4210D8224B1B68214A6E
:100EF000126811687A6812688A1A1A601D4B1A689B
:100F00007B68DA611B4A7B6813602DE07B681B6895
:100F1000FB60184B1B687B61164B1B683B6109E04B
:100F20003B691B68FA68D31AFB603B697B613B69CC
:100F3000DB693B613B69002B04D03B691A68FB68A5
:100F40009A42EDD33B69002B05D03B691A68FB68D8
:100F5000D21A3B691A607B68FA681A607B683A6942
:100F6000DA617B697A68DA6100BF1C37BD465DF8DB
:100F7000047B7047B028002080B586B000AF786051
:100F8000294B1B68FB60284B1B687B617B693B61BD
:100F900008E03A697B689A4208D03B697B613B690B
:100FA000DB693B613B69002BF3D100E000BF3B698B
:100FB000002B01D1002333E07A693B699A4214D1B6
:100FC000194B1B68DB69184A1360174B1B68002B11
:100FD0000BD1164B01229A60154B00221A60154B5B
:100FE00001221A702F20FFF78FFE3B691B68BB6040
:100FF0003B69DA697B69DA617B69DB693B613B6983
:10100000002B05D03B691A68BB681A443B691A601B
:10101000054B1B68FA689A4214BF01230023DBB218
:1010200018461837BD4680BDB0280020001001408A
:10103000B4280020C328002080B500AF1120FFF79E
:1010400005FE00BF80BD80B500AF1420FFF7FEFD98
:1010500000BF80BD80B582B000AF78607B685B69FF
:101060007A6892691046984700BF0837BD4680BD30
:1010700080B584B000AF2B4B1B68002B4ED00023F3
:101080007B60FFF7F3FE0246274B1B6819461046AC
:10109000FFF7F8FEB860234B1B68FB601DE0FB68A0
:1010A0001A68BB689A421CD8FB681B68BA68D31AD6
:1010B000BB60FB681B687A6813447B60FB683B601D
:1010C000FB68DB69FB603B681B7C002B05D03B6841
:1010D00000221A743868FFF7BDFFFB68002BDED1D1
:1010E00000E000BF114B1A78114B1B789A420CD1CB
:1010F0000F4B1B780133DAB20D4B1A700C4B1B7877
:10110000022B02D10A4B00221A70094B1B78194698
:10111000084A7B6842F82130FFF795FF00BF10377F
:10112000BD4680BDB0280020B4280020C028002083
:10113000C1280020B828002080B483B000AF7860B8
:10114000194B1A78194B1B789A4223D0164B1B78EF
:101150000133DAB2144B1A70134B1B78022B02D1F5
:10116000114B00221A70104B1B781A46104B53F883
:1011700022207B681A607B681A680E4B1B68134438
:101180000C4A13600B4B1B6823F07F43094A136022
:10119000012303E07B6800221A60002318460C3705
:1011A000BD465DF8047B7047C0280020C1280020A0
:1011B000B8280020B428002080B489B000AFF860BF
:1011C000B9607A600023FB6138E0214B1B68BB618A
:1011D000BB691A68FB689A4206D9BB691A68FB6842
:1011E000D21ABB691A602DE0BB691B68FA68D31A72
:1011F000FB60BB691B68FA691344FB61BB69002291
:101200001A60134B1B687B61BB69DB69104A136072
:10121000BB69DB68002B11D0BA68FB69134423F06B
:101220007F42BB695A60BB69DA68BB699A607B68B8
:101230001A68BB69DA617B687A691A60044B1B68BB
:10124000002BC2D100BF2437BD465DF8047B704738
:10125000B028002080B588B000AF78600023FB770D
:10126000654B1B687B61A9E07B68002B05D07B6820
:10127000BB61BB69DB697B6060E0604B1B781A4631
:1012800013465B001344DB005C4A134404333B61A8
:101290005A4B1B780133DAB2584B1A70574B1A78F5
:1012A000564B9B789A4202D1544B00221A703B69EC
:1012B0005B68BB613B691B78022B04D0032B1AD0FF
:1012C000012B1ED01CE03B695B681846FFF754FEFB
:1012D0000346002B01D00123FB77BB6900221A745F
:1012E0006CE0454B1B68FB60FB6800221A74FB68CE
:1012F000DB69414A1360404B1B68002BF1D15DE074
:101300005CE000BFBB691B7C002B00D056E03B6952
:101310009A68BB695A603B69DA68BB699A603B6945
:101320001A69BB69DA603B695A69BB699A61344BD7
:101330001B78002B02D0BB6900225A60BB695A6837
:10134000304B1B68D31A23F07F432F4A93420ED8A9
:10135000BB695A682B4B1B6819461046FFF792FD74
:101360000246BB699B681A44BB691A6017E0254BAB
:101370001A68BB695B6819461046FFF783FDB860C1
:10138000BB699A68BB689A4206D9BB699A68BB6810
:10139000D21ABB691A6002E0BB6900221A60BB69FD
:1013A00000225A60BB6900229A60BB6901221A744C
:1013B000BB690022DA61B869FFF784FD7B68002B06
:1013C0007FF452AF0D4B1A780C4B5B789A427FF446
:1013D0004BAFFB7F002B04D1074B1A687B699A4205
:1013E00001D0012300E0002303F00103DBB2184623
:1013F0002037BD4680BD00BFB0280020A4270020B4
:10140000C3280020B4280020FEFF7F0090B589B0DB
:1014100000AF7860274B1B68002B44D0254B1B681E
:101420001B68FB61FFF722FDB861234B1B687B61E2
:101430007969B869FFF726FD034603333B611F4B0B
:101440001B7883F00103DBB2002B01D0FFF7C2FC55
:101450003A69FB69934238BF13467A6913447B614A
:101460007B6923F07F437B617869FFF71BFDFFF702
:10147000FDFCF860B969F868FFF704FD0346DC1C61
:10148000B9697869FFF7FEFC03469C420DD9FFF766
:10149000EDFC03461846FFF705FD2F20FFF734FC4F
:1014A000FFF7CAFD01E0FFF7B7FC00BF2437BD46D8
:1014B00090BD00BFB0280020B4280020C228002022
:1014C00080B586B000AF00237B600023FB75164B10
:1014D0001B683B61154B1B68FB603B461846FFF7DA
:1014E0002BFE0346FB72FB7A002B07D03B683A1DAC
:1014F00039691846FFF760FE0123FB757B681846C3
:10150000FFF7A8FE0346002B01D00123FB75FB7DEE
:10151000002B02D0F868FFF779FF054B00221A7004
:1015200000BF1837BD4680BDB4280020B028002079
:10153000C328002080B483B000AF0346FB71044A87
:10154000FB79537000BF0C37BD465DF8047B7047D4
:10155000A427002080B485B000AF7860134B5B787F
:101560000133FB73114B9B78FA7B9A4201D1002324
:10157000FB730E4B1B78FA7B9A4201D100230EE0DD
:101580007B68FA7B1A70094B5B781A4613465B003E
:101590001344DB00054A13440433BB60BB681846A0
:1015A0001437BD465DF8047B704700BFA4270020B8
:1015B00080B588B000AFF860B9607A603B60002306
:1015C000FB61002001F00AFC07F117031846FFF742
:1015D000C1FFB861BB69002B02D10423FB6117E096
:1015E000BB6901221A70BB69FA685A60FFF73EFCBA
:1015F0000246BB699A60BB69BA68DA60BB697A68FF
:101600001A61BB693A685A61FB7D1846FFF792FF81
:10161000002001F0EDFBFB69002B01D1FFF713FD6A
:10162000FB6918462037BD4680BD80B586B000AF47
:1016300078600B46FB7000237B61002001F0CEFB3D
:1016400007F10F031846FFF785FF38613B69002B50
:1016500002D104237B6109E03B69FA781A703B6987
:101660007A685A60FB7B1846FFF764FF002001F0A0
:10167000BFFB7B69002B01D1FFF7E5FC7B691846B6
:101680001837BD4680BD000080B500AF0D4B00226D
:10169000C3F840210B4B0022C3F84421094B002220
:1016A000C3F84821074B0022C3F84C21054B002208
:1016B000C3F80021034B0022C3F80421FFF7D8FC34
:1016C00000BF80BD0010014080B500AFFFF7F8FEFD
:1016D00000BF80BD80B500AFFFF79EFB134B00221B
:1016E0001A70124B00225A70104B0B229A70104B3A
:1016F00000221A600F4B00221A700F4B00221A7042
:101700001420FFF7BDFA07211420FFF7D3FA1420A5
:10171000FFF768FA0720FFF74BFBFFF7A7FB02462E
:10172000064B1A600023184680BD00BFA427002086
:10173000B0280020C0280020C1280020B4280020A4
:1017400080B487B000AFF8600B467A60FB72154B2F
:101750009B78002B01D108231DE07B68002B01D171
:10176000072318E0FB68002B01D1072313E0FB6877
:101770001B681B7C002B01D008230CE0FB681B6856
:101780007B617B6900221A747B69FA7A5A747B69DF
:101790007A685A61002318461C37BD465DF8047B01
:1017A000704700BFA427002080B586B000AFF86066
:1017B000B9607A60FB687B61144B9B78002B01D188
:1017C00008231EE0FB68002B01D1082319E0BB6849
:1017D000042B01D8072314E07B695B69002B01D13E
:1017E00008230EE07B695B7C012B01D1BB6800E024
:1017F00000233B617B683A69B9687869FFF7D8FED6
:10180000034618461837BD4680BD00BFA4270020F8
:1018100080B584B000AF78607B68FB600D4B9B782F
:10182000002B01D1082310E07B68002B03D0FB685C
:101830005B69002B01D1082307E0FB6800221A74C2
:101840000221F868FFF7F1FE034618461037BD463F
:1018500080BD00BFA427002080B483B000AF7860B3
:101860007B6803F00303002B0CBF01230023DBB2D2
:1018700018460C37BD465DF8047B704780B483B0D2
:1018800000AF0346FB71064B1A78FB791343DAB2BB
:10189000034B1A7000BF0C37BD465DF8047B7047E0
:1018A000C428002080B483B000AF0346FB7197F9D1
:1018B0000730DB435AB2074B1B785BB213405BB275
:1018C000DAB2044B1A7000BF0C37BD465DF8047BDA
:1018D000704700BFC428002080B483B000AF034627
:1018E000FB71084B1A78FB791340DBB2002B14BF55
:1018F00001230023DBB218460C37BD465DF8047B9C
:10190000704700BFC428002080B584B000AF786065
:101910000023FB600EE00B4AFB6852F82330002BDB
:1019200005D0084AFB6852F8233078689847FB686E
:101930000133FB60FB68072BEDD900BF1037BD46B4
:1019400080BD00BFC828002080B483B000AF78609D
:1019500039607B681B78013B052B5BD801A252F8EC
:1019600023F000BF7D19020085190200A5190200AD
:10197000D7190200F71902000D1A02003B68002275
:101980001A7048E03B6801221A707B681A893B682C
:101990009A817B689A883B68DA817B68DA683B6861
:1019A0009A6038E03B6802221A707B681A893B68AB
:1019B0009A817B689A883B68DA817B68DA683B6841
:1019C0009A607B681B7C062B0CBF01230023DAB2D4
:1019D0003B681A741FE03B6803221A707B68DA8840
:1019E0003B689A817B681A893B68DA817B68DA6890
:1019F0003B689A600FE03B6804221A707B68DA88C3
:101A00003B689A813B680022DA8104E03B6805224A
:101A10001A7000E000BF00BF0C37BD465DF8047BC4
:101A2000704700BF80B483B000AF78607B689B884C
:101A30004FF6FF72934205D07B681B88002B01D0C4
:101A4000012300E0002303F00103DBB218460C374A
:101A5000BD465DF8047B704780B582B000AF78600A
:101A60007B68002B11D00D4B1A687B689A420CD80A
:101A70000A4B5A687B689A4207D37868FFF7ECFEF6
:101A80000346002B01D0012300E0002303F00103F3
:101A9000DBB218460837BD4680BD00BFD025002008
:101AA00080B485B000AF786039600A23FB60002302
:101AB0007B811CE07B89134A1B01134404331A68A1
:101AC0003B689A4210D27B890E4A1B0113440433AF
:101AD0001B6803F580523B689A4205D90023FB60DE
:101AE0007B687A891A8005E07B8901337B817B8959
:101AF000012BDFD9FB6818461437BD465DF8047B1F
:101B0000704700BFA829002080B483B000AF786080
:101B10000B467B807B681A897B8813449BB2033316
:101B20009AB27B681A817B685A897B88D31A9BB2E8
:101B3000033B9AB27B685A8100BF0C37BD465DF803
:101B4000047B704780B582B002AF064B1968002352
:101B500000930223044A054801F004F8034618469E
:101B6000BD4680BDC82900207C970200D0250020FA
:101B700080B584B002AF7860002300930223054A49
:101B80007968054800F0EEFF034618460837BD4661
:101B900080BD00BF84970200D025002080B584B0AE
:101BA00000AF03463960FB803B681B68FB60FB6845
:101BB000002B09D0FB68BB60BB685B8803339B00CC
:101BC000FA681344FB601CE0FB88184A1B011344AD
:101BD00004331B680833FB6013E0FB68BB60B86824
:101BE000FFF720FF0346002B04D03B68FA681A6019
:101BF000012317E0BB685B8803339B00FA6813443A
:101C0000FB60FB88094A1B01134404331B6803F57E
:101C10008052FB689A4204D9FB681B68B3F1FF3F0E
:101C2000DBD1002318461037BD4680BDA82900200F
:101C300080B584B000AF786039607B685B68184617
:101C4000FFF70AFF0346002B19D07B681A89254B42
:101C50001B899A4213D17B681A687B685B689B6812
:101C60009A420CD17B685B6819463868FFF718FF09
:101C70000346002B0CBF01230023DBB22DE03B68A1
:101C800000221A8024E00023BB6010E0BB68FB60E8
:101C9000FB689A687B681B689A4208D1BA687B68BF
:101CA0005A60104B1A897B681A81012315E03B6842
:101CB0001B8807F1080211461846FFF76FFF03461D
:101CC000002BE3D13B681B8801339AB23B681A8032
:101CD0003B681B88012BD6D9002318461037BD4618
:101CE00080BD00BFD029002080B586B000AFF8606D
:101CF000B9607A603B600220FFF7EEFD034683F097
:101D00000103DBB2002B01D002234FE07B68002BE4
:101D100002D03B68002B44D1052347E03B689B88F9
:101D2000244A1B0113441B78002B33D124E03B6869
:101D30001B687B61FB68002B06D07B699A88FB6877
:101D40001B889A4200D017E0BB68002B06D07B6945
:101D50001A88BB681B889A4200D00DE07B699A689C
:101D60007B681A603B681A687B685A60124B1A8954
:101D70007B681A81002319E03B689B883A6811460A
:101D80001846FFF70BFF0346002BD0D13B6800221B
:101D90001A6000E000BF3B689B8801339AB23B6841
:101DA0009A803B689B88012BB8D90A2318461837BC
:101DB000BD4680BDA8290020D029002080B500AFF5
:101DC000124B1A6F1346DB009B1A9B000F4A1344F9
:101DD0001C2200211846FDF7BBFA0C4B5B6F002B51
:101DE0000BD00A4B1B6F013303F00303074A136741
:101DF000064B5B6F013B054A5367044B5B6F002B3F
:101E000014BF01230023DBB2184680BDE828002060
:101E100080B483B000AF78600E4B5B6C002B12D0A7
:101E20000C4B1B6CDB000B4A1A447B681A60094B95
:101E30001B6C013303F00703064A1364054B5B6C0C
:101E4000013B044A536400BF0C37BD465DF8047B78
:101E5000704700BF6029002080B483B000AF786075
:101E60007B681B78022B03D07B681B78032B0DD17A
:101E7000094B1B6C7A68927D1344074A1364064B26
:101E80005B6C7A68927D9B1A034A536400BF0C37DF
:101E9000BD465DF8047B70476029002080B586B0A0
:101EA00002AF786039607B681A1D0023009301231C
:101EB0003968094800F056FE0346FB607B68022241
:101EC0001A74FB68002B01D1002300E00E23184692
:101ED0001037BD4680BD00BFD025002080B586B03C
:101EE00002AF786039603B6803F108017B6803F159
:101EF0000C020023009301230B4800F033FE03463D
:101F0000FB607B689B7D002B01D0032200E0012257
:101F10007B681A74FB68002B01D1002300E00E23BC
:101F200018461037BD4680BDD025002080B586B04C
:101F300002AF786039603B68191D7B6803F10802C5
:101F40000023009301230C4800F00CFE0346FB60C5
:101F50007B681B78032B01D1052200E006227B68F9
:101F60001A74FB68002B01D1002300E00E231846F1
:101F70001037BD4680BD00BFD025002080B586B09B
:101F800002AF78600B467B800023009301230C4A4C
:101F900079680C4800F0E6FD0346FB73FB7B002BE1
:101FA00001D00E2307E07B88074A1B0113440E3340
:101FB00001221A70002318461037BD4680BD00BFAD
:101FC00078970200D0250020A829002080B588B08D
:101FD00000AF786007F1080300221A605A609A6027
:101FE0007B68DB68BB6007F1160207F10803114646
:101FF0001846FFF71DFE0346002B11D0FB68BB619E
:10200000BB699A887B68DA80BB691A887B681A8109
:10201000FB68FA8A11461846FFF7B0FFF86101E045
:102020000A23FB61FB6918462037BD4680BD0000CE
:1020300080B586B000AF78607B68981D07F1080214
:102040000D4B0021FFF750FE78617B69002B08D112
:10205000FA68094B9B8819461046FFF78FFF786195
:1020600004E0082200210448FDF772F97B69184654
:102070001837BD4680BD00BFE029002080B586B07E
:1020800002AF786039600023BB6007F1080318468F
:10209000FFF7BEFE7B689B8A9B003A68D118BB683D
:1020A0001A68BB689888002300930346114800F023
:1020B00059FD0346FB607B689A8ABB689B88134482
:1020C0009AB27B689A827B689B7D013BDAB27B681F
:1020D0009A757B689B7D002B02D17B6801221A7464
:1020E000FB68002B01D1002300E00E2318461037B7
:1020F000BD4680BDD025002080B483B000AF154B15
:102100001B8901339AB2134B1A81124B00225A8059
:10211000104B00221A730023FB8011E0FB88FA8821
:102120000D4912010A441278002A0CBF0122002234
:10213000D1B2084A13440A469A72FB880133FB80E5
:10214000FB88012BEAD900BF0C37BD465DF8047B44
:10215000704700BFD0290020A829002080B485B096
:1021600000AF78600023FB730023BB8123E0BB89B1
:10217000164A13449B7A002B1AD0BB89134A134486
:1021800000229A72BB89124A1B0113440C331B882C
:10219000002B0DD1BB890E4A1B0113440E331B7853
:1021A000002B05D07B68BA891A800123FB7305E0F8
:1021B000BB890133BB81BB89012BD8D9FB7B184676
:1021C0001437BD465DF8047B704700BFD02900205E
:1021D000A829002080B500AF074B05221A70074BD5
:1021E00002229A80054B196800230122044800F05E
:1021F00023FD0346184680BDD0290020C8290020B1
:10220000D025002080B582B000AF124B5B887B8068
:102210007B88114A1B0113440C331B88002B10D1FF
:102220007B880D4A1B0113440433196800230122E3
:102230000A4800F001FD03467B60064B04221A7039
:1022400002E0FFF7C7FF78607B6818460837BD4695
:1022500080BD00BFD0290020A8290020D025002063
:1022600080B586B002AF104B5B68FB600F4B1A68FD
:102270000E4B9B889B001344BB60FB685B88033359
:10228000FB80094B03221A70074B5A68F988002318
:1022900000930B46B968064800F064FC03461846F4
:1022A0001037BD4680BD00BFD0290020C8290020BE
:1022B000D025002080B582B000AF0A4B5B880A4968
:1022C0001846FFF76BFC0346002B03D0FFF7C8FF4F
:1022D000786002E0FFF796FF78607B681846083761
:1022E000BD4680BDD0290020D429002080B500AF94
:1022F000074B06221A70064B5B88064A1B011344E3
:1023000004331B681846FFF733FC0346184680BDAC
:10231000D0290020A829002080B500AF054B072256
:102320001A70044B00225A60FFF70CFC0346184653
:1023300080BD00BFD029002080B500AF0C48FFF75A
:102340000DFF034683F00103DBB2002B0BD0094BDA
:1023500000221A70074B00225A80064B00225A6056
:1023600041F61D5302E0FFF7A5FF0346184680BD66
:10237000D2290020D029002080B483B000AF0A4BBE
:102380005B687B607B685B8803337B80074B9A8844
:102390007B8813449AB2054B9A8000BF0C37BD4628
:1023A0005DF8047B704700BFD0290020C8290020B9
:1023B00080B483B000AF144B1B687B60134B5B8809
:1023C000134A1B01134404331B680F4A13600F4B5D
:1023D0005B880F4A1B01134404337A681A600B4B65
:1023E0005B881846084B9988094A0301134408334F
:1023F0000A461A80044B02229A8000BF0C37BD4661
:102400005DF8047B704700BFC8290020D029002058
:10241000A829002080B500AF1A4B1B78072B2DD8B8
:1024200001A252F823F000BF492402007D240200DB
:102430007D24020055240200612402006D24020064
:102440006D24020075240200FFF756FE0D4B012299
:102450001A7014E0FFF790FF0A4B02221A700EE088
:10246000FFF7A6FF074B06221A7008E0054B07226C
:102470001A7004E0034B01221A7000E000BF00BF95
:1024800080BD00BFD029002080B586B000AF786045
:1024900039600F237B617B68002B04D00120FFF79C
:1024A00001FA012398E03B681B79032B00F2888036
:1024B00001A252F823F000BFC9240200D724020071
:1024C0003F2502005F250200FFF73CFB78613B6877
:1024D00001221A7177E00023FB7400233B821CE089
:1024E0003B8A3F4A1B0113441B78022B12D13B8AC3
:1024F0003B4A1B01134404331B681846FFF738FBA3
:1025000078613B8A364A1B01134400221A7001236A
:10251000FB7405E03B8A01333B823B8A012BDFD908
:10252000FB7C83F00103DBB2002B4BD00220FFF7D2
:10253000A5F90120FFF7B6F941F61D534CE0294BF0
:10254000196800230122284800F076FB03467B61CE
:10255000244B02229A803B6800221A7133E0214BFF
:102560001B681846FFF704FB7861204B5B88FB81F2
:102570001C4B1B68BB60FB89194A1B0113440433C5
:102580001B68184A1360FB89154A1B011344043366
:10259000BA681A60FB89134A9188114A1B011344D7
:1025A00008330A461A800F4B02229A80FB890C4A94
:1025B0001B01134400221A703B6800221A7102E0CA
:1025C00000BF00E000BF7B69002B04D00120FFF7B3
:1025D00069F90E2300E0002318461837BD4680BD78
:1025E000A8290020C8290020D0250020D0290020BB
:1025F00080B586B000AF786039603B685B8A1B01AC
:102600003B4A13443B617B68002B07D03B68DB8867
:1026100019463869FFF778FA012364E03B695A6884
:102620003B691B899B001344FB603B681B7C062BAA
:102630004CD801A252F823F07B2602009F2602000C
:10264000872602009326020055260200AB260200D0
:10265000C5260200274B00225A603B689B69254A29
:10266000136025492348FFF7E3FA034683F001038B
:10267000DBB2002B01D00A2335E0F9683868FFF798
:102680000DFC786125E0F9683868FFF727FC786170
:102690001FE0F9683868FFF7F1FC786119E0F96824
:1026A0003868FFF743FC786113E0124B5A68124B0D
:1026B0001B8819461046FFF761FC78613B680622CB
:1026C0001A7406E041F61D537B6102E00F237B6123
:1026D00000BF7B69002B05D03B68DB881946386951
:1026E000FFF712FA7B6918461837BD4680BD00BF58
:1026F000A8290020E8290020F429002080B584B012
:1027000000AF786039607B68002B01D0012323E0A3
:102710003B681B79012B0BD0022B14D0002B16D158
:102720003868FFF753FCF8603B6802221A7112E028
:102730003868FFF77DFCF860FB680A2B0AD141F688
:102740001D53FB6006E041F61D53FB6003E00F23C1
:10275000FB6000E000BFFB6818461037BD4680BD37
:1027600080B584B000AF78607B68002B01D0012376
:102770003CE0204B1B7B002B03D01E4B00221A7326
:1027800001E0FFF747FE1B4B1B78013B062B29D8C6
:1027900001A252F823F000BFB5270200BD270200B6
:1027A000C5270200CD270200E5270200D527020039
:1027B000DD270200FFF7C0FDF86016E0FFF77AFDA5
:1027C000F86012E0FFF74CFDF8600EE0FFF71AFD2D
:1027D000F8600AE0FFF78AFDF86006E0FFF79CFD6D
:1027E000F86002E00F23FB6000BFFB68184610375B
:1027F000BD4680BDD029002080B58AB000AF034619
:10280000FB71334B1A6F1346DB009B1A9B00304A57
:1028100013443B623B6A1B78013B052B29D801A27C
:1028200052F823F03D2802004B2802004B280200FA
:10283000592802005928020067280200FB79396AEA
:102840001846FFF721FE786216E0FB79396A1846D0
:10285000FFF7CEFE78620FE0FB79396A1846FFF782
:102860004DFF786208E0FB791846FFF779FF786240
:1028700002E00F237B6200BF7B6A002B23D07B6AC0
:1028800041F61D52934202D100233B6104E07B6A72
:102890003B61386AFFF7E0FA07F10C031946386A22
:1028A000FFF752F807F10C031846FFF72DF8FFF772
:1028B00085FA0346002B03D00020FFF79DFF02E0BE
:1028C0000420FEF7EFFF00BF2837BD4680BD00BFE4
:1028D000E828002080B582B000AF78600B46FB701E
:1028E000FB781846FFF788FF00BF0837BD4680BD5C
:1028F00029DF704700BF184628DF704700BF184621
:1029000080B586B000AF78600B46FB7007F1080316
:10291000102200211846FCF71BFD7B681B7A012B57
:1029200002D0022B09D015E000233B727B681B69A3
:102930003B617B689B8ABB820CE001233B727B6816
:102940009A897B68DB89D31A9BB23B827B689B891F
:102950007B8200BF7B685B68FB607B681B689B6851
:10296000F97807F108021046984700BF1837BD46AE
:1029700080BD000080B483B000AF78607B68002B1E
:1029800009D07B68074A934205D37B68064A934285
:1029900001D2012300E0002318460C37BD465DF844
:1029A000047B7047D0250020E025002080B584B04E
:1029B00000AF78607B689B8A1A467B68DB8AD31AF3
:1029C000B3F5806F06DA7B689A8A7B68DB8AD31A54
:1029D000FB8102E04FF48063FB817B681A697B68AE
:1029E000DB8A9B00D0187B68DA687B68DB8A9B00F7
:1029F0001344FA891946FFF77BFF03461846103740
:102A0000BD4680BD80B582B000AF78607B689B8991
:102A10001846FFF771FF034618460837BD4680BDCC
:102A200080B582B000AF1F4B1A6E13465B00134493
:102A3000DB001C4A13443B601A4B5B6E002B2CD00E
:102A40003B681B7A012B02D0022B05D009E03868C5
:102A5000FFF7ACFF786007E03868FFF7D3FF7860D6
:102A600002E009237B6000BF7B68112B0ED10E4B67
:102A70001B7823F00203DAB20B4B1A700A4B1B7857
:102A800043F00403DAB2084B1A7006E07B68002BAF
:102A900003D009213868FFF733FF00BF0837BD4670
:102AA00080BD00BFF8290020F629002080B500AFC6
:102AB0000B4B1B7803F00203002B0ED1084B1B7845
:102AC00003F00403002B08D1054B1B7843F00203ED
:102AD000DAB2034B1A70FFF7A3FF00BF80BD00BF3F
:102AE000F629002080B584B000AF78601C4B5B6E87
:102AF000042B01D100232EE0194B1A6E184B5B6E8C
:102B00001344032B05D8164B1A6E154B5B6E1344FA
:102B100005E0134B1A6E124B5B6E1344043BFB60D3
:102B20000F4B5B6E01330E4A5366FA6813465B0027
:102B30001344DB000A4A1344182200211846FCF70C
:102B400007FCFA6813465B001344DB00044A1A448E
:102B50007B681A60012318461037BD4680BD00BF50
:102B6000F829002080B586B000AFF860B9607A60BF
:102B70007B80304B1B7803F00103002B01D1012334
:102B800054E0F868FFF7F6FE034683F00103DBB27A
:102B9000002B01D0022349E07B68002B02D0BB68E8
:102BA000002B01D1032341E07B6803F00303002BDA
:102BB00004D1BB6803F00303002B01D0062335E0EA
:102BC000FB681A68BB689A4207D8FB685A687B881A
:102BD0009B00B9680B449A4201D2052326E07B880A
:102BE000002B01D1042321E007F114031846FFF75D
:102BF00079FF034683F00103DBB2002B01D00723EA
:102C000014E07B693A6A5A607B69FA681A607B69EA
:102C100001221A727B697A68DA607B69BA681A6184
:102C20007B697A889A82FFF741FF0023184618379C
:102C3000BD4680BDF629002080B586B000AFF860A3
:102C4000B9603B601346FB802B4B1B7803F00103FC
:102C5000002B01D101234BE0F868FFF78BFE034600
:102C600083F00103DBB2002B01D0022340E0BB68FC
:102C7000002B01D103233BE0BB68C3F30B03002B04
:102C800001D0062334E0FB681A68BB689A4207D873
:102C9000FB881B03BA681A44FB685B689A4201D937
:102CA000052325E0FB88002B01D1042320E007F158
:102CB00014031846FFF716FF034683F00103DBB247
:102CC000002B01D0072313E07B693A685A607B69C7
:102CD000FA681A607B6902221A727B69BA68120B61
:102CE00092B29A817B69FA881A82FFF7DFFE00238D
:102CF00018461837BD4680BDF629002080B483B041
:102D000000AF78607B68002B01D1032304E0054B02
:102D10005A6E7B681A60002318460C37BD465DF872
:102D2000047B7047F829002080B586B000AF78603A
:102D30000023BB8100233B617B687B6107F10C03AF
:102D40001A46002144F2010000F018F800BF1837BD
:102D5000BD4680BD80B400AFBFF34F8F0549054B22
:102D6000DB6803F4E062044B1343CB60BFF34F8F87
:102D700000BFFDE700ED00E00400FA0580B584B077
:102D800000AFF860B9607A60FFF7E4FF00BF10376A
:102D9000BD4680BD80B400AF72B6054B1B680133E1
:102DA000034A136000BFBD465DF8047B704700BF57
:102DB000602A002080B400AF074B1B68013B064A25
:102DC0001360054B1B68002B00D162B600BFBD46E7
:102DD0005DF8047B704700BF602A002080B582B098
:102DE00000AF7860FFF7D6FF00BF0837BD4680BD53
:102DF00080B582B000AF0346FB71FFF7DBFF00BF79
:102E00000837BD4680BD80B483B000AF78604FF016
:102E1000A04318460C37BD465DF8047B704780B56B
:102E200084B000AF78600B46FB703B1D1846FFF77F
:102E3000EAFFF8607A687968FB6801F5E07153F899
:102E4000213023F44031FB6802F5E07243F8221090
:102E50007A687968FB6801F5E07153F82130F978F8
:102E600009041943FB6802F5E07243F8221000BF21
:102E70001037BD4680BD000080B586B000AF034668
:102E80000A46FB711346BB710023FB7500233B61AF
:102E9000FB791846FCF7ECFB38613B69032B5CD8E7
:102EA000BB79012B04D0022B4CD0002B2ED054E048
:102EB00032493A6913465B0013440B441B78FB7597
:102EC0002E493A6913465B0013440B4401331B78C7
:102ED000002B0DD02A4B2B4A4FF480511846FEF799
:102EE00063FCF860FB68002B02D1264AFB79137063
:102EF00022493A6913465B0013440B4402331978A4
:102F0000214A3B6913440A461A7026E01C4B1846B6
:102F1000FEF77EFC1C4A3B691344197817483A694E
:102F200013465B001344034402331B78994213D1C8
:102F300012493A6913465B0013440B4402331B7871
:102F4000FB7509E00D493A6913465B0013440B44D5
:102F500001331B78FB7500E000BFFB7D002B08D020
:102F60000A4B1B68002B04D0084B1B68FA7D1046E7
:102F7000984700BF1837BD4680BD00BFB42A002067
:102F8000C02A0020E02A0020E42A0020B02A0020E5
:102F900080B582B000AF78607B681B78022118464C
:102FA000FFF76AFF00BF0837BD4680BD80B582B01D
:102FB00000AF0D4B1B78002B0FD000237B6008E087
:102FC0007B68022B02D07868FCF7EAFA7B68013351
:102FD0007B607B68022BF3D901E0FCF7F3FA00BFBA
:102FE0000837BD4680BD00BF6C2A00202DE9F04F98
:102FF0008BB000AF0346FB7700237B6200233B626C
:10300000C64B1B78002B04D0C44A00231370FFF773
:10301000CDFFFB7F172B00F2088201A252F823F0AC
:10302000813002008D3002008D300200113102002B
:103030008D310200F33102006B320200893202004E
:1030400097320200B5320200D3320200F1320200A0
:103050000F33020029330200293302002933020012
:103060002933020029330200D7330200E333020080
:10307000F5330200073402001F3402001F3402003F
:10308000FFF794FFA64AFB7F1370CFE10020FCF707
:1030900051FA0346002B0CD00020FCF781FAFB7F8D
:1030A000022B02D14FF4E16301E04FF47A633B62FB
:1030B0000AE00020FCF762FAFB7F022B01D1C82353
:1030C00001E04FF4C8733B62954AFB7F1370954D46
:1030D0003B6A4FF00004E2037A617A6942EA5342A4
:1030E0007A61DB033B61D7E9040110F57A6041F1B5
:1030F00000014FF4FA524FF0000306F041F9034685
:103100000C46002219462846FEF74EFB78628DE1F8
:103110000020FCF70FFA0346002B0CD00020FCF730
:103120003FFAFB7F032B02D14FF4487301E04FF4C9
:103130007A633B620AE00020FCF720FAFB7F032B56
:1031400001D1C82301E04FF4C8733B62744AFB7F8E
:103150001370744D3B6A4FF000044FEAC43B4BEAD6
:10316000534B4FEAC33A1AF57A604BF100014FF422
:10317000FA524FF0000306F003F903460C46002212
:1031800019462846FEF710FB78624FE10020FCF755
:10319000D1F90346002B06D00020FCF701FA4FF4CA
:1031A0007A633B6205E00020FCF7E8F94FF4C8734E
:1031B0003B625B4AFB7F13705A4D3B6A4FF0000441
:1031C0004FEAC43949EA53494FEAC33818F57A60DF
:1031D00049F100014FF4FA524FF0000306F0D0F825
:1031E00003460C46002219462846FEF7DDFA7862AF
:1031F0001CE10020FCF79EF90346002B0BD00020B9
:10320000FCF7CEF9FB7F052B01D1C82301E04FF479
:103210007A633B620AE00020FCF7B0F9FB7F052BE4
:1032200001D1C82301E04FF4C8733B623C4AFB7FE5
:1032300013703C4B3B613B6A4FF00004E60346EAE7
:103240005346DD0315F57A6046F100014FF4FA525A
:103250004FF0000306F094F803460C46002219468E
:103260003869FEF7A1FA7862E0E00020FCF7D2F9B5
:103270002B4AFB7F13702B4B00224FF4CD71184665
:10328000FEF792FA7862D1E00020FCF777F9244A41
:10329000FB7F1370CAE0214B01221A700120FCF75A
:1032A000B9F9204B00224FF4CD711846FEF77CFA95
:1032B0007862BBE0194B01221A700120FCF7AAF9D1
:1032C000184B00224FF400611846FEF76DFA786241
:1032D000ACE0124B01221A700120FCF79BF9114B54
:1032E00000224FF4CD711846FEF75EFA78629DE039
:1032F0000A4B01221A700120FCF78CF9094B0022BD
:103300004FF400611846FEF74FFA78628EE0FCF742
:103310006DF9034AFB7F137088E000BF652A002027
:10332000642A0020702A0020434B1846FEF770FAEA
:103330007862FB7FC3F111033B623B6A002B43D0F1
:103340007B6A002B40D13B6A012B36D93A4D3B6A50
:103350009BB299B24FF000020B461446DB1844EBC7
:1033600004045B1844EB0204E000F860F86840EAEB
:103370005370F860DB00BB60D7E902345B1844EBA4
:103380000204A2047A607A6842EA93327A609B046B
:103390003B60D7E9003413F57A6044F100014FF443
:1033A000FA524FF0000305F0EBFF03460C460022F3
:1033B00019462846FEF7F8F978620220FCF7DEF895
:1033C0001E4B01221A7031E00220FCF7E9F81B4B7A
:1033D00000221A702AE0FFF7E9FD194AFB7F1370FB
:1033E00024E0FFF7E3FD0020FCF7C8F8144AFB7F58
:1033F00013701BE0FFF7DAFD0120FCF7BFF8104A5D
:10340000FB7F137012E0FFF7D1FD0020FCF7B6F848
:103410000120FCF7B3F80A4AFB7F137006E0FCF7C3
:10342000E5F8074AFB7F137000E000BF7B6A18468F
:103430002C37BD46BDE8F08F902A00206C2A002072
:10344000642A002080B582B000AF7860074B1B680B
:1034500003F00103002B04D0054B1B781846FFF73F
:10346000C5FD00BF0837BD4680BD00BF682A0020EB
:10347000642A002080B582B000AF78600220FCF79B
:10348000C9F800BF0837BD4680BD000080B584B0D4
:1034900000AF0346FB710023FB60084B1B6803F081
:1034A0000103002B04D0FB791846FFF79FFDF8605D
:1034B000FB6818461037BD4680BD00BF682A002053
:1034C00080B584B000AF786039600023FB60294A82
:1034D0007B681360284A3B6813607B6803F0020333
:1034E000002B29D00023BB6008E001220121B8682D
:1034F00000F052F8F860BB680133BB60BB68032B77
:1035000002D8FB68002BF0D0FB68002B05D1CD2240
:1035100004211A48FDF7DAFAF860FB68002B02D1A3
:10352000FDF73EFBF860FB68002B05D1144A002133
:103530001448FEF705F9F8607B6803F00103002BDF
:1035400001D0FCF779F8FB68002B05D10E4A002169
:103550000E48FEF7F5F8F860FB68002B05D10C4A21
:1035600001210C48FEF7ECF8F860FB6818461037AC
:10357000BD4680BD682A0020B02A0020989702002E
:10358000912F020094970200453402008C970200AC
:10359000753402009097020080B485B000AF786067
:1035A0000B46FB701346BB700023FB607B68032B4C
:1035B00035D8BB78012B09D1FB78012B04D17B686E
:1035C000DBB20E33DBB200E00023BB70FB78012BD3
:1035D00004D0022B0BD0002B13D01CE014497A68C6
:1035E00013465B0013440B44BA781A7019E0104973
:1035F0007A6813465B0013440B440133BA781A709F
:103600000FE00B497A6813465B0013440B44023306
:10361000BA781A7005E00723FB6000BF01E00723BA
:10362000FB60FB6818461437BD465DF8047B7047A5
:10363000B42A002080B582B000AF78607868FCF7CB
:103640003BF8034603211846FFF7E9FB0023184621
:103650000837BD4680BD80B582B000AF0020FFF7BF
:10366000E9FF78607B68002B04D07B68062B01D0D3
:103670007B680CE00120FFF7DDFF78607B68002BA2
:1036800004D07B68062B01D07B6800E0002318463D
:103690000837BD4680BD80B485B000AF78600B466A
:1036A0007B807B887A68134400221A607B887A6862
:1036B00013441B68FB60FB6800BF1437BD465DF810
:1036C000047B704780B483B000AF78600B467B808A
:1036D0007B887A6813441B68002B14BF01230023E6
:1036E000DBB218460C37BD465DF8047B704780B4EA
:1036F00083B000AF786039607B683A68C3F8042310
:1037000000BF0C37BD465DF8047B704780B483B0C2
:1037100000AF786039607B683A68C3F8082300BF5F
:103720000C37BD465DF8047B704780B483B000AFB2
:1037300078607B680122C3F8002500BF0C37BD46C6
:103740005DF8047B704780B485B000AFF860B96065
:103750007A603B60FB68BA68C3F80825FB687A6842
:10376000C3F80C25FB683A68C3F8102500BF14376E
:10377000BD465DF8047B704780B483B000AF7860CD
:103780000B46FB70FA787B68C3F81C2500BF0C372A
:10379000BD465DF8047B704780B483B000AF7860AD
:1037A0007B68D3F81835DBB218460C37BD465DF898
:1037B000047B704780B483B000AF786039603A68AA
:1037C0007B68C3F8242500BF0C37BD465DF8047B39
:1037D000704780B485B000AF78600B46FB7013462D
:1037E000BB70BB78002B14BF01230023DBB2FB604E
:1037F000FB78022B09D0032B0CD0012B00D00EE05C
:10380000FB6843F00203FB6009E0FB6843F004033C
:10381000FB6004E0FB6843F00603FB6000BF7B68CD
:10382000FA68C3F8542500BF1437BD465DF8047B21
:10383000704780B483B000AF78604FF0A043184663
:103840000C37BD465DF8047B704780B584B000AF8F
:103850007860084611461A460346FB700B46BB705B
:1038600013467B703B1D1846FFF7E3FFF8607A684C
:10387000F978BB785B0019437B789B0019433B7E4A
:103880001B0219433B7F1B041943FB6802F5E072DE
:1038900043F8221000BF1037BD4680BD80B584B00C
:1038A00002AF7860002301930023009300230122DC
:1038B00001217868FFF7C9FF00BF0837BD4680BD0A
:1038C00080B584B002AF78600B46FB70FA780023B5
:1038D0000193002300931346002200217868FFF72C
:1038E000B4FF00BF0837BD4680BD80B584B000AFCF
:1038F00078603B1D1846FFF79CFFF8607B6801224B
:1039000002FA03F31946F86800F019F800BF1037FF
:10391000BD4680BD80B584B000AF78603B1D1846C1
:10392000FFF787FFF8607B68012202FA03F319466C
:10393000F86800F013F800BF1037BD4680BD80B4B2
:1039400083B000AF786039607B683A68C3F80825B7
:1039500000BF0C37BD465DF8047B704780B483B070
:1039600000AF786039607B683A68C3F80C2500BF07
:103970000C37BD465DF8047B7047000080B58CB005
:1039800002AFF860B9607A603B60FB685B791A4609
:103990001346DB0013449B00594A1344FB61FB6947
:1039A0001B7F002B03D00823BB61BB69A4E0FB692C
:1039B0007A681A60FB693A685A60BB681B7B012B06
:1039C00005D8BB681B781846FFF7A4FF04E0BB6866
:1039D0001B781846FFF789FFBB681B781846002341
:1039E000019300230093002300220121FFF72DFF04
:1039F000BB685B78FF2B09D0BB685B787B62786A19
:103A0000FFF788FF786AFFF749FF02E04FF0FF33C6
:103A10007B62BB689B78FF2B07D0BB689B783B62BF
:103A20000021386AFFF74CFF02E04FF0FF333B62A2
:103A3000BB68DB78FF2B09D0BB68DB781846FFF743
:103A400054FFBB68DB781846FFF728FFFB685B79FB
:103A50001946BB68D8782A4A0B46DB000B449B000A
:103A600013441E3302461A70FB681B687B61BB68F7
:103A70001B7819463B6A7A6A7869FFF764FEBB686F
:103A80009B6819467869FFF795FEBB68197BBB6890
:103A90005B7B1A467869FFF79CFEFB685B791946E9
:103AA000BB685879164A0B46DB000B449B00134455
:103AB0001F3302461A70FB691B68002B03D00421D8
:103AC0007869FFF714FE7869FFF72FFEFB691B6822
:103AD000002B08D0FB6893F90420BB681B791946BA
:103AE000104600F0B1FBFB6900225A77FB69012206
:103AF0001A770023BB61BB6918462837BD4680BDD5
:103B0000E82A002080B588B000AFF860B9603B605B
:103B10001346FB71BB683B613B68BB61FB793B753E
:103B200097F828303B7707F1100300221946F86810
:103B300000F006F9034618462037BD4680BD80B523
:103B400082B000AF78607B689B7FFF2B04D07B68DE
:103B50009B7F1846FFF7C9FE7B6800225A777B6877
:103B600000221A727B681B687A6802F108007A6882
:103B700052681146984700BF0837BD4680BD80B5E2
:103B800084B000AF786039607868FFF705FE0346BF
:103B90007B733B6893F820203B681B7E9A4208D2D7
:103BA0003B685B693A6892F8202013447A7BD2B272
:103BB0001A703B6893F820300133DAB23B6883F81F
:103BC00020203B6893F820309BB20133FB813B6897
:103BD00093F8213003F00403DBB2002B13D03B68D1
:103BE0001B7C9BB2FA899A4203D2FB89DAB23B680A
:103BF0001A743B681B7E9BB2FA899A4203D2FB89F6
:103C0000DAB23B681A763B681B7C9BB2FA899A420F
:103C10000AD23B68DA68FB8913441B781946786836
:103C2000FFF7AAFD012321E03B681B7E9BB2FA89C6
:103C30009A4207D23B68DB7F19467868FFF79CFD04
:103C4000012313E03B6893F820203B681B7C9A42D9
:103C500006D33B6893F820203B681B7E9A4201D232
:103C6000012300E0002303F00103DBB21846103704
:103C7000BD4680BD80B584B000AFF860B9607A60A1
:103C8000BB68002283F820200421F868FFF73EFD7E
:103C90004FF48471F868FFF7FEFC7B681B79002BFA
:103CA00003D07B681B681B7801E0BB68DB7F19468B
:103CB000F868FFF761FD7B681B79012B08D97B68E9
:103CC0001B6801331B781946F868FFF755FD09E0BA
:103CD0007B681B7B012B05D9BB68DB7F1946F86825
:103CE000FFF74AFDBB681B68002B04D00421F8686D
:103CF000FFF7FDFC20E000BF4FF48471F868FFF788
:103D0000E1FC034683F00103DBB2002BF4D14FF456
:103D10008471F868FFF7BFFCB968F868FFF72FFFF8
:103D20000346002BE7D1BB689B7FFF2B04D0BB6809
:103D30009B7F1846FFF7D9FD00BF1037BD4680BDF9
:103D400090B587B000AFF860B9607A60FB685B79C6
:103D50001A461346DB0013449B002A4A13443B6176
:103D600000237B613B695B7FDBB2002B03D0112317
:103D70007B617B6942E03B691B68002B07D07B6855
:103D800003F01403002B02D13B6901225A773B69EF
:103D9000BA6803F10C0413460FCB84E80F003A69AC
:103DA00092F821306FF3000382F821303A6992F8DB
:103DB00021306FF3410382F821303A6992F82130C3
:103DC0006FF3820382F821303B699B7FFF2B04D085
:103DD0003B699B7F1846FFF79DFD7B68002B05D054
:103DE0003B6900225A7706237B6106E0FB681B686B
:103DF000BA6839691846FFF73DFF7B6918461C37DA
:103E0000BD4690BDE82A002080B582B000AF786042
:103E100039604FF484717868FFF73DFC3968786841
:103E2000FFF7ADFE034683F00103DBB2002B02D0A7
:103E30003868FFF784FE00BF0837BD4680BD00002C
:103E400080B582B000AF054B7B6079684FF04020B1
:103E5000FFF7DAFF00BF0837BD4680BDE82A002023
:103E600080B483B000AF78604FF080427B68C2F8C6
:103E7000043300BF0C37BD465DF8047B704780B447
:103E800083B000AF78604FF080427B68C2F808339F
:103E900000BF0C37BD465DF8047B704780B483B02B
:103EA00000AF0346FB71FB7903F1804301221A60E6
:103EB00000BF0C37BD465DF8047B704780B485B009
:103EC00000AF0346FB80FB8803F1804300221A60A9
:103ED000FB8803F180431B68FB60FB6800BF14375D
:103EE000BD465DF8047B704780B483B000AF0346E5
:103EF000FB80FB8803F180431B68002B14BF012368
:103F00000023DBB218460C37BD465DF8047B7047D2
:103F100080B483B000AF0346FB714FF08042FB7961
:103F200003F00303C2F8183500BF0C37BD465DF837
:103F3000047B704780B483B000AF0346FB710C4A2A
:103F400097F907305B0952F82320FB7903F01F0330
:103F500022FA03F303F00103002B14BF0123002313
:103F6000DBB218460C37BD465DF8047B704700BFD6
:103F700000E100E080B500AF0020FFF7DBFF034663
:103F800083F00103DBB2002B03D00721002000F0F7
:103F90005BF900BF80BD80B500AF4FF48270FFF7C2
:103FA0008DFF0220FFF75CFF0820FFF777FF00BFBF
:103FB00080BD000080B582B000AF00237B60104B55
:103FC0001B78002B02D085237B6013E00C4B002272
:103FD0009A600B4B00225A60094B00221A61084B71
:103FE0000022DA60FFF7C6FF0120FFF791FF044BC4
:103FF00001221A707B6818460837BD4680BD00BF95
:104000000C2B002080B485B000AF786039607B68ED
:104010001B68FB6006E0FA683B689A420DD0FB68BB
:104020001B68FB60FB68002BF5D17B681A683B6856
:104030001A607B683A681A6000E000BF1437BD461A
:104040005DF8047B704780B485B000AF78607B6812
:104050001B68FB60FB68002B03D0FB681A687B6859
:104060001A60FB6818461437BD465DF8047B70473C
:1040700080B582B000AF7860194B9B78DBB2002B23
:1040800012D07B68002B03D07B685B6801209847C7
:104090000020FEF7A3FE124BDB680133104AD36009
:1040A0000020FEF7A5FE17E00020FEF797FE7B68D4
:1040B000002B03D079680B48FFF7A4FF084BDB689F
:1040C000002B01D1FFF767FF054BDB680133044A82
:1040D000D3600020FEF78CFE00BF0837BD4680BDD0
:1040E0000C2B00201C2B002080B584B000AF0346B1
:1040F000FB71FB79002B02D10B4BFB6001E00B4BFA
:10410000FB60F868FFF79FFFB860BB68002B05D025
:10411000BB685B68FA7910469847F2E700BF00BFBA
:104120001037BD4680BD00BF142B00201C2B002083
:1041300080B500AF4FF48070FFF7D6FE0346002B2A
:104140000CD04FF48070FFF7B9FE0120FFF797FE07
:104150000D4B01225A700020FFF7C6FF4FF482700A
:10416000FFF7C2FE0346002B0CD04FF48270FFF71E
:10417000A5FE0220FFF783FE034B01229A70012067
:10418000FFF7B2FF00BF80BD0C2B002080B483B0CE
:1041900000AF0346FB71094997F907305B09FA79CB
:1041A00002F01F02012000FA02F241F8232000BFB2
:1041B0000C37BD465DF8047B704700BF00E100E0AE
:1041C00080B483B000AF0346FB71094997F907300B
:1041D0005B09FA7902F01F02012000FA02F2603353
:1041E00041F8232000BF0C37BD465DF8047B7047C3
:1041F00000E100E080B483B000AF03463960FB719A
:1042000097F90730002B0BDA0D49FB7903F00F0308
:10421000043B3A68D2B25201D2B20B441A7609E09A
:10422000084997F907303A68D2B25201D2B20B442A
:1042300083F8002300BF0C37BD465DF8047B704750
:1042400000ED00E000E100E080B582B000AF034681
:104250000A46FB711346BB71BA7997F907301146CC
:104260001846FFF7C7FF97F907301846FFF7A8FF72
:1042700097F907301846FFF789FF00BF0837BD469A
:1042800080BD80B582B000AF0346FB80FB88184636
:1042900000F024F803461B68012B0CBF0123002308
:1042A000DBB218460837BD4680BD80B584B000AF8C
:1042B0000346FB80FB88184600F010F803461A46B8
:1042C00000231360FB88184600F008F803461B68BB
:1042D000FB60FB6800BF1037BD4680BD80B483B073
:1042E00000AF0346FB80FB8803F1804303F5C04326
:1042F00018460C37BD465DF8047B704780B483B028
:1043000000AF7860044A7B68C2F8043300BF0C3702
:10431000BD465DF8047B70470060004080B483B008
:1043200000AF7860054BD3F804237B681340184630
:104330000C37BD465DF8047B704700BF006000404D
:1043400080B483B000AF78600949094A7B6803F5FF
:10435000A27352F8233043F001027B6803F5A27385
:1043600041F8232000BF0C37BD465DF8047B704741
:104370000060004080B485B000AFF860B9601346BB
:10438000FB711649154AFB6803F5A27352F82330F6
:1043900023F4473323F44073FA6802F5A27241F81C
:1043A00022300E480D4AFB6803F5A27352F8232011
:1043B000BB681B0203F4F851FB791B0403F4403380
:1043C0000B431A43FB6803F5A27340F8232000BF98
:1043D0001437BD465DF8047B704700BF00600040A5
:1043E00080B483B000AF7860074A7B6803F5A2739E
:1043F00052F823301B0A03F01F0318460C37BD4642
:104400005DF8047B704700BF0060004080B483B05B
:1044100000AF7860074A7B6803F5A27352F8233037
:104420001B0C03F00303DBB218460C37BD465DF8E6
:10443000047B70470060004080B483B000AF7860B8
:104440004FF0A04318460C37BD465DF8047B70471B
:1044500080B584B000AF7860084611461A4603461E
:10446000FB700B46BB7013467B703B1D1846FFF775
:10447000E3FFF8607A68F978BB785B0019437B78D2
:104480009B0019433B7E1B0219433B7F1B041943CE
:10449000FB6802F5E07243F8221000BF1037BD46FA
:1044A00080BD80B584B002AF78600B46FB70FA78AF
:1044B0000023019300230093134600220021786813
:1044C000FFF7C6FF00BF0837BD4680BD80B584B08A
:1044D00000AF78603B1D1846FFF7AEFFF8607A68C2
:1044E000FB6802F5E07253F8223023F00203BB6050
:1044F0007A68FB6802F5E072B96843F8221000BFE1
:104500001037BD4680BD80B584B000AF78600B46E3
:10451000FB703B1D1846FFF78FFFF8607A687968DB
:10452000FB6801F5E07153F8213023F44031FB685A
:1045300002F5E07243F822107A687968FB6801F5A9
:10454000E07153F82130F97809041943FB6802F54A
:10455000E07243F8221000BF1037BD4680BD80B521
:1045600084B000AF78603B1D1846FFF765FFF86028
:10457000F86800F021F802467B6822FA03F303F0A2
:10458000010318461037BD4680BD80B584B000AF2A
:1045900078603B1D1846FFF74FFFF8607A68FB68AC
:1045A00002F5E07253F822301B0C03F00303DBB278
:1045B00018461037BD4680BD80B483B000AF786028
:1045C0007B68D3F8103518460C37BD465DF8047B80
:1045D000704780B586B000AFF860B9607A604FF080
:1045E000A0433B61FB687B6112E07B699B0007F1A4
:1045F0001802134453F8083C1846FFF7DDFF024643
:104600007B681A607B6804337B607B6901337B6164
:10461000FA68BB681A447B699A42E6D800BF18372B
:10462000BD4680BD80B485B000AF786039603B681E
:10463000FB607B68DB08BB607B6803F007037B6083
:1046400001227B6802FA03F3F968BA680A44127817
:10465000134018461437BD465DF8047B704780B49C
:1046600085B000AF786039603B68FB607B68DB0831
:10467000BB607B6803F007037B60FA68BB68134488
:10468000F968BA680A44127851B201207A6800FACF
:1046900002F252B20A4352B2D2B21A7000BF1437B9
:1046A000BD465DF8047B704780B483B000AF78608E
:1046B0000D4A7B681344303393F90030002B09DB3B
:1046C000094A7B681344303393F90030072B01DC2F
:1046D000012300E0002303F00103DBB218460C378E
:1046E000BD465DF8047B7047202B002080B483B06A
:1046F00000AF7860084A7B681344303393F9003088
:10470000072BCCBF01230023DBB218460C37BD4674
:104710005DF8047B704700BF202B002080B483B07D
:1047200000AF7860074A7B681344303393F9003058
:10473000DB43DBB2DB09DBB218460C37BD465DF864
:10474000047B7047202B002080B485B000AFF86058
:10475000B9607A60FB70BB6859B2104AFB681344B9
:1047600030330A461A700D49BB687A6841F8232035
:10477000FB7883F00103DBB2002B08D0BB68083B59
:10478000FA6851B2054A13440A4683F8502000BF24
:104790001437BD465DF8047B704700BF202B002016
:1047A00080B483B000AF7860054A7B68134430332F
:1047B000FF221A7000BF0C37BD465DF8047B7047BE
:1047C000202B002080B483B000AF7860054A7B685E
:1047D0001344303393F9003018460C37BD465DF86A
:1047E000047B7047202B002080B483B000AF78603A
:1047F000044A7B6852F8233018460C37BD465DF8F2
:10480000047B7047202B002080B588B000AFF86093
:10481000B9601346FB71FF23FB77FB79002B01D0B6
:10482000002300E008237B61FB79002B01D00823E3
:1048300000E00C233B617B69BB6112E00E4ABB695F
:1048400052F82330B3F1FF3F08D1FB79BA68B96958
:10485000F868FFF779FFBB69FB7706E0BB690133B6
:10486000BB61BA693B699A42E8D397F91F30184691
:104870002037BD4680BD00BF202B002080B483B010
:1048800000AF0346FB71FB790A4A4FF0FF3142F853
:104890002310FB79072B06D9FB79083B054A134403
:1048A000FF2283F8502000BF0C37BD465DF8047B23
:1048B000704700BF202B002080B582B000AF1D4B99
:1048C00093F85430002B03D008233B603B682CE066
:1048D0000023FB7106E0FB791846FFF761FFFB79C7
:1048E0000133FB71FB791F2BF5D90023FB7106E027
:1048F000FB791846FFF7C2FFFB790133FB71FB79A7
:104900000B2BF5D907210620FFF79EFC4FF4BE7054
:10491000FFF7CBFC4FF00040FFF7F0FC054B012206
:1049200083F8542000233B603B6818460837BD4697
:1049300080BD00BF202B002080B400AF064B93F851
:104940005430002B14BF01230023DBB21846BD46B0
:104950005DF8047B704700BF202B002080B586B037
:1049600000AFF860B9607A6000237B61F868FFF7F8
:10497000D5FE0346002B02D008237B6140E0BB68D4
:10498000DB781A467968F868FFF73EFF0346FB7448
:1049900097F91330B3F1FF3F30D0BB689B78002B01
:1049A00003D0F868FFF792FD05E0BB685B78194615
:1049B000F868FFF776FDBB68DB78002B08D097F925
:1049C0001300BB681B781A46F968FFF7D3FC17E0A1
:1049D00097F91330083B97F91320083A0B490A441A
:1049E00092F95010BA681278920152B20A4351B249
:1049F000064A13440A4683F8502001E004237B61F1
:104A00007B6918461837BD4680BD00BF202B0020AB
:104A100080B586B000AF78600B46FB707868FFF712
:104A200065FE0346002B27D07868FFF7CBFE0346D0
:104A3000083B2A4A134493F95030BB75BB7D9B0950
:104A40007B757B7D032B0AD17868FFF788FD0346D1
:104A5000002B01D0032300E00223FB7506E07B7DE1
:104A6000012B01D1022300E00323FB75FB7D1946D6
:104A70007868FFF748FD2DE07868FFF715FE0346DC
:104A8000002B27D07868FFF79DFE03463B613B690A
:104A90009BB240339BB29B00FB813B691846FFF7FA
:104AA0004FFCFB891846FFF700FCFB78002B11D068
:104AB0007868FFF787FE03461846FFF795FEB86053
:104AC000BB68002B06D001223B6902FA03F31846AB
