:020000021000EC
:10F0000000000120F1E3020019E402001BE4020009
:10F010001DE402001FE4020021E4020000000000E1
:10F0200000000000000000000000000023E40200D7
:10F0300025E402000000000027E4020029E40200A9
:10F04000F15802002BE402005D79020019730200FE
:10F05000ED5702002BE40200C5620200397B02007A
:10F06000498202002BE402002BE402002BE40200A0
:10F070002BE402002BE402002BE402002BE402004C
:10F080002BE40200552302002BE402002BE40200D3
:10F09000952302002BE402006DE302002BE4020042
:10F0A0002BE402002BE402002BE402002BE402001C
:10F0B0002BE402002BE4020000000000000000002E
:10F0C0002BE402002BE402002BE402002BE40200FC
:10F0D0002BE402002BE402002BE4020000000000FD
:10F0E0000000000000000000000000000000000020
:10F0F0000000000000000000000000000000000010
:10F1000000000000000000000000000000000000FF
:10F1100000000000000000000000000000000000EF
:10F1200000000000000000000000000000000000DF
:10F1300000000000000000000000000000000000CF
:10F1400000000000000000000000000000000000BF
:10F1500000000000000000000000000000000000AF
:10F16000000000000000000000000000000000009F
:10F17000000000000000000000000000000000008F
:10F18000000000000000000000000000000000007F
:10F19000000000000000000000000000000000006F
:10F1A000000000000000000000000000000000005F
:10F1B000000000000000000000000000000000004F
:10F1C000000000000000000000000000000000003F
:10F1D000000000000000000000000000000000002F
:10F1E000000000000000000000000000000000001F
:10F1F000000000000000000000000000000000000F
:10F2000010B5054C237833B9044B13B10448AFF360
:10F2100000800123237010BDFC25002000000000A9
:10F22000380503000C4B43B10C480D4910B5AFF342
:10F2300000800C48036823B910BD0A48036833B93D
:10F240007047094B002BF7D0BDE810401847064B1C
:10F25000002BF5D0184700BF000000003805030060
:10F2600000260020E825002000000000154B002BA0
:10F2700008BF134B9D46A3F5803A00218B460F46ED
:10F280001348144A121A00F063F80F4B002B00D0F9
:10F2900098470E4B002B00D0984700200021040017
:10F2A0000D000D48002802D00C48AFF3008000F09C
:10F2B0002BF82000290000F0A5FF00F011F800BF96
:10F2C0000000080000000120000000000000000015
:10F2D000FC25002020350020000000000000000078
:10F2E00008B5074B044613B10021AFF30080054B6E
:10F2F0001868836A03B19847204600F031F800BFD0
:10F30000000000001803030070B50D4E0D4CA41B47
:10F31000A4100025A54209D10B4E0C4C10F0F0FFB3
:10F32000A41BA4100025A54205D170BD56F82530B8
:10F3300098470135EEE756F8253098470135F2E752
:10F34000E0250020E0250020E0250020E425002025
:10F3500002440346934200D1704703F8011BF9E7CA
:10F36000FEE700BF80B483B000AF78604FF0A043E9
:10F3700018460C37BD465DF8047B704780B584B0F5
:10F3800000AF7860084611461A460346FB700B46EC
:10F39000BB7013467B703B1D1846FFF7E3FFF86018
:10F3A0007A68F978BB785B0019437B789B00194336
:10F3B0003B7E1B0219433B7F1B041943FB6802F58C
:10F3C000E07243F8221000BF1037BD4680BD80B503
:10F3D00084B002AF786000230193002300930023E0
:10F3E000012201217868FFF7C9FF00BF0837BD4639
:10F3F00080BD80B584B000AF78603B1D1846FFF734
:10F40000B1FFF8607B68012202FA03F31946F8683D
:10F4100000F072F800BF1037BD4680BD80B584B0E3
:10F4200000AF78603B1D1846FFF79CFFF8607B68D3
:10F43000012202FA03F31946F86800F06CF800BFE5
:10F440001037BD4680BD80B584B000AF78603B1DED
:10F450001846FFF787FFF860FB68D3F80435BB60F8
:10F46000BB68DA437B68012101FA03F31A40FB68A9
:10F47000C3F808257B6801229A40BB681A40FB68E4
:10F48000C3F80C2500BF1037BD4680BD80B582B0E3
:10F4900000AF786039603B68002B03D17868FFF7D4
:10F4A000BDFF02E07868FFF7A4FF00BF0837BD4644
:10F4B00080BD80B584B000AF78603B1D1846FFF773
:10F4C00051FFF860F86800F00AF802467B6822FAFB
:10F4D00003F303F0010318461037BD4680BD80B426
:10F4E00083B000AF78607B68D3F8043518460C37DA
:10F4F000BD465DF8047B704780B483B000AF786090
:10F5000039607B683A68C3F8082500BF0C37BD46F0
:10F510005DF8047B704780B483B000AF78603960D9
:10F520007B683A68C3F80C2500BF0C37BD465DF810
:10F53000047B704780B584B000AF78600E4A7B686A
:10F5400013441B781846FFF7B4FF0346002B14BF83
:10F5500001230023FB73FB7B002B14BF012300233B
:10F56000DBB283F00103DBB203F00103DBB2184628
:10F570001037BD4680BD00BF1C03030080B582B0BC
:10F5800000AF7860054A7B6813441B780021184659
:10F59000FFF77CFF00BF0837BD4680BD1C0303009A
:10F5A00080B582B000AF7860054A7B6813441B7851
:10F5B00001211846FFF76AFF00BF0837BD4680BD2E
:10F5C0001C03030080B582B000AF0023FB7106E08E
:10F5D000FB791846FFF7E4FFFB790133FB71FB79F8
:10F5E000022BF5D900BF0837BD4680BD80B582B07B
:10F5F00000AF0023FB7106E0FB791846FFF7BEFF62
:10F60000FB790133FB71FB79022BF5D900BF083779
:10F61000BD4680BD80B582B000AF7860054A7B688A
:10F6200013441B781846FFF70EFF00BF0837BD468E
:10F6300080BD00BF1C03030080B582B000AF002373
:10F640007B6009E0094A7B6813441B781846FFF782
:10F65000BEFE7B6801337B607B68022BF2D9FFF72B
:10F66000B1FF00BF0837BD4680BD00BF1C030300CB
:10F6700080B485B000AF78604FF0FF33BB600023EB
:10F68000FB600DE00B4AFB6813441B781A467B684D
:10F690009A4202D1FB68BB6005E0FB680133FB6066
:10F6A000FB68032BEED9BB6818461437BD465DF8DE
:10F6B000047B70472003030080B483B000AF786000
:10F6C000044A7B6813441B7818460C37BD465DF826
:10F6D000047B70472003030076DF704700BF1846A5
:10F6E000A8DF704700BF184669DF704700BF1846A3
:10F6F00066DF704700BF184632DF704700BF18460C
:10F7000080B485B000AF7860254BFB607B68002B30
:10F7100040D0244B1A68F9687B6800BF00BF00BF67
:10F7200000BF00BF00BF00BF00BF8A422FD000BF94
:10F7300000BF00BF00BF00BF00BF00BF00BF00BFD1
:10F7400000BF00BF00BF00BF00BF00BF00BF00BFC1
:10F7500000BF00BF00BF00BF00BF00BF00BF00BFB1
:10F7600000BF00BF00BF00BF00BF00BF00BF00BFA1
:10F7700000BF00BF00BF00BF00BF00BF00BF00BF91
:10F7800000BF00BF00BF00BF00BF00BF00BF013B04
:10F79000C3D17B6000BF1437BD465DF8047B704762
:10F7A0000024F400D825002080B582B000AF786036
:10F7B0007B684FF47A7202FB03F31846FFF7A0FF51
:10F7C00000BF0837BD4680BD80B500AF0120FFF700
:10F7D000D5FE1920FFF7E8FF0120FFF7E1FE00BF8B
:10F7E00080BD80B500AF0220FFF7C8FE1920FFF7EB
:10F7F000DBFF0220FFF7D4FE00BF80BD80B582B0E2
:10F8000000AF0A49012005F089FA0246084B1A6048
:10F81000074B1B687B607B68002B02D0786804F084
:10F8200093FD00BF0837BD4680BD00BFB9FC010095
:10F830002C34002080B582B000AF02F0B1FD02464A
:10F840000F4B1A600E4B1B687B607B68002B02D04D
:10F85000786804F079FD0B4A01210B4802F0D6FDCF
:10F860000246074B1A60064B1B683B603B68002B47
:10F8700002D0386804F068FD00BF0837BD4680BD7F
:10F880002C340020ED0102002403030080B582B077
:10F8900000AF0B4B00224FF44051184602F0EAFD36
:10F8A0000246084B1A60074B1B687B607B68002B85
:10F8B00002D0786804F048FD00BF0837BD4680BD1F
:10F8C000942600202C34002080B584B000AF0020A6
:10F8D00005F00AFA0246154B1A60144B1B68FB60D0
:10F8E000FB68002B02D0F86804F02EFD05F045FB04
:10F8F00002460E4B1A600D4B1B68BB60BB68002BA9
:10F9000002D0B86804F020FDFFF7F6FE0246074B70
:10F910001A60064B1B687B607B68002B02D07868FE
:10F9200004F012FD00BF1037BD4680BD2C3400200E
:10F9300090B591B000AF78607B681B88112B21D007
:10F94000112B04DC012B48D0102B07D097E0512B52
:10F9500056D0562B2ED03B2B19D090E0072005F027
:10F96000C3F90246484B1A60474B1B68FB63FB6BAD
:10F97000002B02D0F86B04F0E7FC7B689A88434BBD
:10F980001A807CE0414B4FF6FF721A8077E07B686B
:10F990009B8813211846FFF79FFE02463A4B1A60D8
:10F9A000394B1B68BB63BB6B002B61D0B86B04F099
:10F9B000CBFC5DE07B689B8813211846FFF78CFE2B
:10F9C0000246314B1A60304B1B687B637B6B002B0C
:10F9D00050D0786B04F0B8FC4CE02C4B1B88002115
:10F9E0001846FFF785FE0246274B1A60264B1B6818
:10F9F0003B633B6B002B3FD0386B04F0A5FC3BE036
:10FA00007B6807F11C040633186859689A68DB683C
:10FA10000FC43B7F002B31D097F82430042B07D044
:10FA200097F82430062B03D097F82430052B25D1E6
:10FA30003B7F022B02D102233B7301E001233B7386
:10FA40004FF4C1733B827B689B8807F10C0211461F
:10FA50001846FFF745FE02460B4B1A600A4B1B681F
:10FA6000FB62FB6A002B09D0F86A04F06DFC05E02C
:10FA700000BF04E000BF02E000BF00E000BF00BF25
:10FA80004437BD4690BD00BF2C340020BC2500206B
:10FA900080B582B000AF7860786809F095FE78682C
:10FAA0000CF034FF79680D480EF006FB79680C48BD
:10FAB0000EF082FA786809F0B3FD786805F07EFAF6
:10FAC0007868FFF735FF786808F07AFE79680548AE
:10FAD0000BF098FA00BF0837BD4680BD30260020E5
:10FAE000182600208026002080B582B000AF786004
:10FAF000786804F0E5FB786808F080FE00BF0837FE
:10FB0000BD4680BD80B590B000AF664B1B687B6181
:10FB100007F114000023D82263490EF0BBFBF86301
:10FB2000FB6BBB63BB6B002B02D0B86B04F00CFC0F
:10FB300000233B6107F1100318460EF033FC024628
:10FB40005A4B1A60594B1B687B637B6B002B02D0AE
:10FB5000786B04F0F9FB3B1D0C2200211846FFF7DF
:10FB6000F7FB00233B713A693B1D19460120FFF763
:10FB7000BBFD02464D4B1A604C4B1B683B633B6B15
:10FB8000002B02D0386B04F0DFFB3B1D0C22002160
:10FB90001846FFF7DDFB01233B7100237B71002337
:10FBA000BB713A693B1D19464020FFF79DFD024697
:10FBB0003E4B1A603D4B1B68FB62FB6A002B02D078
:10FBC000F86A04F0C1FB3B1D0C2200211846FFF728
:10FBD000BFFB01233B719E23FB803A693B1D194605
:10FBE0002320FFF781FD0246304B1A602F4B1B6824
:10FBF000BB62BB6A002B02D0B86A04F0A5FB3B1DB8
:10FC00000C2200211846FFF7A3FB01233B714FF4A0
:10FC1000A0733B810123BB713A693B1D194620202B
:10FC2000FFF762FD0246214B1A60204B1B687B6286
:10FC30007B6A002B02D0786A04F086FB07F1100380
:10FC400018460EF0C3FB0246184B1A60174B1B6890
:10FC50003B623B6A002B02D0386A04F075FB144803
:10FC60000EF058FB0246114B1A60104B1B68FB61EB
:10FC7000FB69002B02D0F86904F066FB0D480EF01A
:10FC80005FFB0246094B1A60084B1B68BB61BB69EE
:10FC9000002B02D0B86904F057FB00BF4037BD46C7
:10FCA00080BD00BF44030300EC2700202C3400205B
:10FCB00091FA0100E9FA010080B584B000AF034673
:10FCC000FB71FB79072B1ED00A2B02D0042B03D02B
:10FCD00035E0FFF7F9FD32E01B4B1B881321184676
:10FCE000FFF7FAFC0246194B1A60184B1B68082BE9
:10FCF00022D0164B1B68FB60FB68002B1CD0F868F9
:10FD000004F022FB18E0104B1B884FF6FF72934261
:10FD100014D108F0A1FD02460C4B1A600B4B1B6876
:10FD2000082B0BD0094B1B68BB60BB68002B05D0B0
:10FD3000B86804F009FB01E000BF00E000BF00BFAD
:10FD40001037BD4680BD00BFBC2500202C340020EC
:10FD500080B584B002AF78605B4B1B780F2B00F24C
:10FD60008580594B1B781B017A681178574AD1540A
:10FD7000554B1B781B0101337A685178534AD15493
:10FD8000514B1B781B0102337A6891784F4AD1544A
:10FD90004D4B1B781B0103337A68D1784B4AD15401
:10FDA000494B1B781B0104337A681179474AD154B7
:10FDB000454B1B781B0105337A685179434AD1546E
:10FDC000414B1B781B0106337A6891793F4AD15425
:10FDD0003D4B1B781B0107337A68D1793B4AD154DC
:10FDE000394B1B781B0108337A68117A374AD15492
:10FDF000354B1B781B0109337A68517A334AD15449
:10FE0000314B1B781B010A337A68917A2F4AD154FF
:10FE10002D4B1B781B010B337A68D17A2B4AD154B6
:10FE2000294B1B781B010C337A68117B274AD1546C
:10FE3000254B1B781B010D337A68517B234AD15423
:10FE4000214B1B781B010E337A68917B1F4AD154DA
:10FE50001D4B1B781B010F337A68D17B1B4AD15491
:10FE6000194B1B780133DAB2174B1A70164B1B78FB
:10FE70000F2B24D9FFF7A8FC154B1B881A46154BEE
:10FE80001B781946144B1B8800930B46134900201E
:10FE90000FF064FA104B1B880C49184601F05AF811
:10FEA0000D4B1B8801339AB20B4B1A804FF48072B2
:10FEB00000210648FFF74CFA034B00221A7000BFDE
:10FEC0000837BD4680BD00BFE4260020E82600209C
:10FED000B4260020D2260020E82700204803030093
:10FEE00090B583B000AF0446084611461A46234633
:10FEF000FB8003467B710B463B711346FB7010225F
:10FF000000212948FFF724FAFB88DAB2264B1A7041
:10FF1000FB881B0A9BB2DAB2234B5A70224A7B79C8
:10FF20009370214A3B79D3701F4AFB7813711E4AA4
:10FF30003B7E5371BB8BDAB21B4B9A71BB8B1B0A96
:10FF40009BB2DAB2184BDA713B8CDAB2164B1A72EA
:10FF50003B8C1B0A9BB2DAB2134B5A72BB8CDAB2DF
:10FF6000114B9A72BB8C1B0A9BB2DAB20E4BDA723F
:10FF70003B8DDAB20C4B1A733B8D1B0A9BB2DAB283
:10FF8000094B5A73BB8DDAB2074B9A73BB8D1B0AB0
:10FF90009BB2DAB2044BDA730348FFF7D9FE00BF15
:10FFA0000C37BD4690BD00BFD426002080B500AF01
:10FFB00008F028F800F0D8FE0346DBB22C3BDAB29A
:10FFC000014B1A7000BF80BDD22600200000000047
:10FFD0002DE9F0418CB006AF774B1B78032B05D988
:10FFE000FFF7E4FF744B00221A7005E0724B1B7898
:10FFF0000133DAB2704B1A70704B1B8801339AB21E
:020000022000DC
:100000006E4B1A806E4800F035FC6D4B1B6818462D
:100010000FF038FC4FF000026A4B0FF0C3FD0346AF
:100020000C461846214662A3D3E900230FF0DCFA00
:1000300003460C46184621460FF03AFF0346DAB253
:10004000614B1A705E4B5B6818460FF01BFC4FF05B
:1000500000025C4B0FF0A6FD03460C4618462146F5
:100060004FF00002594B0FF0BFFA03460C461846FA
:1000700021460FF01DFF0346DAB2554B1A70504B64
:100080009B6818460FF0FEFB4FF00002514B0FF03B
:1000900089FD03460C46184621460FF009FF03462A
:1000A000DAB24D4B1A704D4801F0B5F84C4801F0EA
:1000B000C2F94B4BB3F9003007EE903AF8EEE77A0D
:1000C000C7ED057A464BB3F9023007EE903AF8EEE9
:1000D000E77AC7ED047A424BB3F9043007EE903A61
:1000E000F8EEE77A9FED3F7A77EEC77AC7ED037AAD
:1000F00097ED057AD7ED057A27EE277AD7ED046AD2
:10010000D7ED047A66EEA77A37EE277AD7ED036A41
:10011000D7ED037A66EEA77A77EE277AC7ED027AF3
:10012000B8680FF0C1FB03460C4644EC103B0FF0DF
:100130002DF954EC103B184621460FF0D9FE03462A
:10014000BB601E4B1E88284B93F800E01E4B93F8B3
:1001500000C01F4B93F800801F4B1B781F4AB2F959
:10016000002092B21D49B1F9021089B21B48B0F9C2
:10017000040080B2194CB4F90640A4B2D7ED027A5B
:10018000FCEEE77AC7ED017ABD88ADB2059504941F
:1001900003900291019200934346624671463046B5
:1001A000FFF79EFE00BF1837BD46BDE8F08100BFD7
:1001B000000000000088C340EA270020B426002089
:1001C000B82600200000244031340020000069409F
:1001D0003034002000408F4028340020C426002006
:1001E000CC26002000008046D226002080B582B0B8
:1001F00000AF7860FFF7E8FAFFF7EAFE00BF0837C4
:10020000BD4680BD80B500AF214900200EF06AFDDB
:10021000FFF710FBFFF7F2FAFFF774FC00F016FD92
:1002200000F03CF800F0D2F94FF4FA70FFF7BCFA96
:1002300000F0DEFF4FF4FA70FFF7B6FA01F0A2F813
:100240004FF4FA70FFF7B0FA01F022F94FF4FA70A8
:10025000FFF7AAFA01F0CEF800F0F6FD00F00CFE70
:100260004FF4FA70FFF7A0FA00F076FF03461A4643
:10027000084B1A80074B1B881A46074900200FF0CD
:100280006DF8FFF7AEFAFFF701FB20BFFDE700BFF7
:100290005C030300E82700206C03030080B586B0F0
:1002A00000AF3B4600221A605A609A60DA60082369
:1002B0003B6005237B604FF0CC73BB6003233B7333
:1002C00039460023094A0A4806F0CAFB78617B696F
:1002D0003B613B69002B02D0386904F035F80448D3
:1002E00006F038FC00BF1837BD4680BD5904020037
:1002F0008403030080B588B002AF0346FB710B4650
:10030000BB7113467B71BB793B737B797B73114B5C
:1003100000221A7007F10C02F979012300930223DD
:100320000D4806F00FFF78617B693B613B69002B4C
:1003300002D0386904F008F800BF064B1B78DBB226
:1003400083F00103DBB2002BF7D100BF1837BD46A5
:1003500080BD00BFC42800208403030080B586B0A0
:1003600002AF03463960FB711346BB71104B00228C
:100370001A70BA79F9790023009313463A680D4848
:1003800006F0E0FEF860FB68BB60BB68002B02D0A3
:10039000B86803F0D9FF00BF054B1B78DBB283F0D0
:1003A0000103DBB2002BF7D100BF1037BD4680BD83
:1003B000C42800208403030080B588B002AF034640
:1003C0000A46FB711346BB7100237B61204B002260
:1003D0001A70BA1DF9790123009301231D4806F014
:1003E000B1FE78617B693B613B69002B02D03869C3
:1003F00003F0AAFF00BF164B1B78DBB283F00103AA
:10040000DBB2002BF7D17B69002B1BD1104B0022F4
:100410001A7007F10B02F97901230E4806F0BAFEB3
:1004200078617B69FB60FB68002B02D0F86803F001
:100430008BFF00BF064B1B78DBB283F00103DBB2FE
:10044000002BF7D1FB7A18461837BD4680BD00BF98
:10045000C42800208403030080B483B000AF786018
:1004600039607B681B78002B00D003E0044B01222D
:100470001A7000BF00BF0C37BD465DF8047B7047A3
:10048000C428002080B586B002AF3A601A46034601
:10049000FB710B46BB7113467B710023FB60174B4E
:1004A00000221A70BA1DF979012300930123144820
:1004B00006F048FEF86000BF104B1B78DBB283F0FB
:1004C0000103DBB2002BF7D1FB68002B12D10B4BE1
:1004D00000221A707B79F9793A68094806F05AFEC9
:1004E000F86000BF054B1B78DBB283F00103DBB281
:1004F000002BF7D100BF1037BD4680BDC4280020B7
:100500008403030080B485B000AF7860254BFB60A6
:100510007B68002B40D0244B1A68F9687B6800BFC9
:1005200000BF00BF00BF00BF00BF00BF00BF8A42C6
:100530002FD000BF00BF00BF00BF00BF00BF00BF83
:1005400000BF00BF00BF00BF00BF00BF00BF00BFB3
:1005500000BF00BF00BF00BF00BF00BF00BF00BFA3
:1005600000BF00BF00BF00BF00BF00BF00BF00BF93
:1005700000BF00BF00BF00BF00BF00BF00BF00BF83
:1005800000BF00BF00BF00BF00BF00BF00BF00BF73
:1005900000BF013BC3D17B6000BF1437BD465DF88F
:1005A000047B70470024F400D825002080B582B079
:1005B00000AF78607B684FF47A7202FB03F3184651
:1005C000FFF7A0FF00BF0837BD4680BD80B582B0F1
:1005D00000AFD0217620FFF7EFFE0346FB71FB79D9
:1005E0001A460C4900200EF0B9FEFB79602B0DD1A4
:1005F000B622E0217620FFF77DFE6420FFF7D6FFCC
:10060000762000F009F86420FFF7D0FF00BF08371C
:10061000BD4680BD8C03030080B582B000AF0346A9
:10062000FB717A4B1B7803F00703DAB2FB79F221F6
:100630001846FFF75FFE764B1B785B015AB2754B8D
:100640001B789B005BB213435AB2734B1B785BB2AF
:1006500013435BB2DAB2FB79F4211846FFF74AFE86
:100660006E4B1B785B015AB26D4B1B789B005BB2E3
:1006700013435BB2DAB2FB79F5211846FFF73AFE75
:10068000F8791A23674A8821FFF7FCFE654B5B78EF
:100690001B021AB2634B1B781BB213431BB29AB2F4
:1006A000614B1A805F4BDB781B021AB25D4B9B7863
:1006B0001BB213431AB25D4B1A805A4B5B791B0273
:1006C0001AB2584B1B791BB213431AB2584B1A80FB
:1006D000544BDB791B021AB2524B9B791BB213436A
:1006E0001BB29AB2534B1A804E4B5B7A1B021AB262
:1006F0004C4B1B7A1BB213431AB24F4B1A80494B17
:10070000DB7A1B021AB2474B9B7A1BB213431AB215
:100710004A4B1A80434B5B7B1B021AB2414B1B7B3B
:100720001BB213431AB2464B1A803E4BDB7B1B02B3
:100730001AB23C4B9B7B1BB213431AB2414B1A803B
:10074000384B5B7C1B021AB2364B1B7C1BB213432B
:100750001AB23D4B1A80334BDB7C1B021AB2314B71
:100760009B7C1BB213431AB2384B1A802D4B5B7D16
:100770001B021AB22B4B1B7D1BB213431AB2344B14
:100780001A80284BDB7D1B021AB2264B9B7D1BB2C5
:1007900013431AB22F4B1A80224B5A7E2E4B1A70DB
:1007A000F87907232D4AE121FFF76CFE2B4B5B788C
:1007B0001B021AB2294B1B781BB213431AB2284BE7
:1007C0001A80264B9A78274B1A70244BDB781A0232
:1007D000224B1B791B01DBB213431B119AB2224B34
:1007E0001A801E4B5B791A021C4B1B7903F0F00335
:1007F00013431B119AB21D4B1A80184B9A791C4B4C
:100800001A7000BF0837BD4680BD00BFBF2500205D
:10081000C0250020BE250020C1250020C3250020C2
:10082000C225002048340020363400203A3400200D
:100830009A3400208034002062340020823400206A
:1008400064340020783400209C34002034340020AC
:1008500084340020983400203C3400206C34002084
:100860009E34002096340020383400209434002038
:100870007334002090B583B000AF78600823424AFB
:10088000F7217620FFF7FEFD3F4B1B781A043E4B05
:100890005B781B0213433C4A927813431B091A46A8
:1008A0003A4B1A60384BDB781A04374B1B791B0222
:1008B0001343354A527913431B091A46334B5A6086
:1008C000314B9B791B021AB22F4BDB791BB21343BE
:1008D0001BB21A462D4B9A602C4B5B682C4A136056
:1008E0002B4B1B68DA102B4B1B885B00D31A2A4A50
:1008F000B2F9002002FB03F3DB12284A1360244BF9
:100900001B681B11234A12889B1A214A1268121174
:1009100020490988521A02FB03F31B13204AB2F93B
:10092000002002FB03F39B131E4A13601B4B1A6843
:100930001C4B1B6813441C4A1360144B1A681A4B57
:100940001B681946104600F0ABF803461A467B6850
:100950001A607B681C1D144B1B68184600F08EF84B
:10096000034623607B6803F10804084B9A680E4B2A
:100970001B681946104600F019F80346236000BFB3
:100980000C37BD4690BD00BFC82800208834002029
:1009900074340020363400203A34002040340020E3
:1009A0009A3400207C340020A434002080B485B028
:1009B00000AF786039603B68A3F59633FB607B68D5
:1009C0009A03284B1B881B05D21A274B1B881946F4
:1009D000FB6803FB01F3D31A03F58043DB13234ABF
:1009E00012781146FA6802FB01F292122049097846
:1009F0000846F96801FB00F1C91201F5004101FB4D
:100A000002F2921202F500121A49B1F9001001FB2C
:100A100002F202F50052921302FB03F3FB60FB6843
:100A2000DB13FA68D21302FB03F3DB11124A1278CC
:100A300002FB03F31B11FA68D31AFB60FB6823EA7D
:100A4000E373FB60FB68B3F1C85FA8BF4FF0C85306
:100A5000FB60FB681B1318461437BD465DF8047B2A
:100A6000704700BF383400209434002073340020D5
:100A7000963400209E3400203C34002080B485B0A1
:100A800000AF78607A6813469B00134480331B12D2
:100A9000FB60FB6818461437BD465DF8047B704761
:100AA00080B483B000AF786039603B685B10A3F519
:100AB0007A435A4A1360594B1B689B10574A126875
:100AC000921002FB03F3DB12554AB2F9002002FB3D
:100AD00003F3544A1360544BB3F900301A464F4B9A
:100AE0001B6803FB02F35A004E4B1B6813444D4A2C
:100AF00013604C4B1B689A104C4BB3F900301B042D
:100B00001344484A13604A4BB3F900301946434B2B
:100B10001B689B10414A1268921002FB03F35B139F
:100B200003FB01F3DA10434BB3F9003019463B4B9A
:100B30001B6803FB01F35B1013449B14374A1360DB
:100B4000364B1B6803F500433B4A128802FB03F354
:100B5000DB13324A1360314B1B68002B01D1002399
:100B600056E07B685B422F4A126812139B1A40F6CC
:100B7000354202FB03F303F1434303F5A0032F4A7D
:100B800013602E4B1B68002B09DB2C4B1B685B0092
:100B9000224A1268B3FBF2F3284A136008E0274B9D
:100BA0001B681E4A1268B3FBF2F35B00234A136012
:100BB000234BB3F900301946204B1B68DB081F4A52
:100BC0001268D20802FB03F35B0B03FB01F31B1358
:100BD000124A1360194B1B689B081A46194BB3F94C
:100BE000003003FB02F35B130E4A13600B4B1A68D1
:100BF0000C4B1B681344144AB2F9002013441B1118
:100C00000E4A126813441A460C4B1A600B4B1B68B1
:100C100018460C37BD465DF8047B7047443400200D
:100C20009C34002068340020783400206434002094
:100C3000823400206234002080340020A034002060
:100C400098340020843400203434002080B588B0EB
:100C500000AF184A3B1D07CA03C31A70164900208B
:100C600007F08AF8F861FB69BB61BB69002B02D011
:100C7000B86903F069FB3B1D1946002007F0E4F852
:100C8000F861FB697B617B69002B02D0786903F016
:100C90005BFB0121094807F033F9F861FB693B610F
:100CA0003B69002B02D0386903F04EFB00BF2037B0
:100CB000BD4680BDAC030300C10C0200D02800205B
:100CC00080B584B000AF78607B681B78002B3BD187
:100CD0007B685B680121184607F012F9F860FB6831
:100CE000BB60BB68002B02D0B86803F02DFB7B68AB
:100CF0005B68B3F9003007EE903AB8EEE77ADFEDC3
:100D0000146AC7EE267A134BC3ED007A114BD3ED6C
:100D1000007A9FED117A67EE877A9FED107A67EE81
:100D2000877A0C4BC3ED007A0A4BD3ED007A9FED26
:100D30000C7A67EE877AFCEEE77AC7ED007A3B889B
:100D40009BB21AB2074B1A8000BF1037BD4680BD58
:100D500000008045D428002085EBB13F3333534059
:100D60000000C842D828002080B400AF034BB3F97C
:100D700000301846BD465DF8047B7047D828002037
:100D800080B485B000AF7860254BFB607B68002B9A
:100D900040D0244B1A68F9687B6800BF00BF00BFD1
:100DA00000BF00BF00BF00BF00BF8A422FD000BFFE
:100DB00000BF00BF00BF00BF00BF00BF00BF00BF3B
:100DC00000BF00BF00BF00BF00BF00BF00BF00BF2B
:100DD00000BF00BF00BF00BF00BF00BF00BF00BF1B
:100DE00000BF00BF00BF00BF00BF00BF00BF00BF0B
:100DF00000BF00BF00BF00BF00BF00BF00BF00BFFB
:100E000000BF00BF00BF00BF00BF00BF00BF013B6D
:100E1000C3D17B6000BF1437BD465DF8047B7047CB
:100E20000024F400D825002080B582B000AF78609F
:100E30007B684FF47A7202FB03F31846FFF7A0FFBA
:100E400000BF0837BD4680BD90B587B000AF084BE6
:100E50003C1D0FCB84E80F00391D002300220548FC
:100E600004F062FA78617B6918461C37BD4690BD74
:100E7000C0030300B803030080B584B002AF0B4B7E
:100E80009F221A70042200210948FEF761FA042308
:100E90000093074B01220549064804F009FB7860DE
:100EA0007B6818460837BD4680BD00BFDC2800209F
:100EB000E8280020B803030080B582B002AF022208
:100EC00000210E48FEF744FA0D4B05221A7002234A
:100ED00000930A4B01220A490A4804F0E9FA074B39
:100EE0005B785B08DBB203F00103002B01D1002328
:100EF00000E001231846BD4680BD00BFE428002065
:100F0000DC280020B803030080B582B002AF0222C3
:100F100000210D48FEF71CFA0C4B05221A70022323
:100F20000093094B01220949094804F0C1FA064B14
:100F30005B7803F00103002B01D0012300E00023C4
:100F40001846BD4680BD00BFE4280020DC280020F4
:100F5000B803030080B586B002AF03463960FB805A
:100F6000FB88B3F5805F80F0928000F01DF90346A6
:100F700083F00103DBB2002B40F08B80FFF7C4FF4E
:100F80000346002B40F08780FB88184600F08EF85F
:100F9000034683F00103DBB2002B7ED1FB881846A9
:100FA00000F0F6F8B860842200213E48FEF7D0F940
:100FB0003C4B02221A70BB681B14DAB2394B5A70D0
:100FC000BB681B12DAB2374B9A70BB68DAB2354B8A
:100FD000DA700023FB810423FB810AE0FB89FA8994
:100FE000043A39680A4411782E4AD154FB890133F6
:100FF000FB81FB89832BF1D90023009300238422FA
:101000002849294804F054FA0023FB810AE01420FF
:10101000FFF70AFFFFF778FF0346002B06D0FB8996
:101020000133FB81FB89092BF1D900E000BF0023CC
:10103000FB810AE01420FFF7F7FE00F0B5F8034645
:10104000002B06D1FB890133FB81FB89092BF1D9E8
:1010500000E000BF134B8022DA700423FB810AE01A
:10106000FB89FA897C3239680A4411780D4AD154D7
:10107000FB890133FB81FB89832BF1D9002300938A
:10108000002384220749084804F012FA06E000BF52
:1010900004E000BF02E000BF00E000BF1037BD4623
:1010A00080BD00BFF4280020B803030080B586B0DF
:1010B00002AF0346FB80FB88B3F5805F01D30023BA
:1010C00040E0042200212148FEF742F908220021D5
:1010D0001F48FEF73DF9FB88184600F059F8F86004
:1010E0001A4B03221A70FB681B14DAB2174B5A70A2
:1010F000FB681B12DAB2154B9A70FB68DAB2134B1D
:10110000DA7008230093124B04221049114804F0AE
:10111000CFF90F4B1B799AB20D4B5B799BB21344FD
:101120009AB20B4B9B799BB213449AB2084BDB7972
:101130009BB213447B817B89B3F57F7F01D101236F
:1011400000E0002318461037BD4680BDE02800208F
:10115000EC280020B803030080B582B000AF002364
:10116000FB800BE0FB881846FFF7A0FF0346002B2F
:1011700001D0FB8808E0FB880133FB80FB88B3F5D6
:10118000805FEFD34FF4805318460837BD4680BDCB
:1011900080B483B000AF78607B681B0218460C37C0
:1011A000BD465DF8047B704780B584B002AF002374
:1011B000FB710D4B06221A700023009300230122BD
:1011C00009490A4804F074F9FFF776FE0346002B3C
:1011D00002D00123FB7101E00023FB71FB7918466B
:1011E0000837BD4680BD00BFDC280020B8030300DF
:1011F00080B582B000AF00233B7150237B71002388
:10120000BB713B1D032219461020FFF7A7F800BF52
:101210000837BD4680BD80B584B000AF786000233C
:101220003B7300237B7307F10C020223082110207B
:10123000FFF728F97B7B1B021AB23B7B1BB21343DF
:101240001BB29AB27B681A8007F10C0202230921B3
:101250001020FFF717F97B6802337A7B120211B274
:101260003A7B12B20A4312B292B21A8007F10C0210
:1012700002230A211020FFF705F97B6804337A7BEB
:10128000120211B23A7B12B20A4312B292B21A801F
:1012900007F10C0202230B211020FFF7F3F87B6803
:1012A00006337A7B120211B23A7B12B20A4312B2AF
:1012B00092B21A8000BF1037BD4680BD80B485B0A1
:1012C00000AF7860254BFB607B68002B40D0244B3F
:1012D0001A68F9687B6800BF00BF00BF00BF00BF8D
:1012E00000BF00BF00BF8A422FD000BF00BF00BFB9
:1012F00000BF00BF00BF00BF00BF00BF00BF00BFF6
:1013000000BF00BF00BF00BF00BF00BF00BF00BFE5
:1013100000BF00BF00BF00BF00BF00BF00BF00BFD5
:1013200000BF00BF00BF00BF00BF00BF00BF00BFC5
:1013300000BF00BF00BF00BF00BF00BF00BF00BFB5
:1013400000BF00BF00BF00BF00BF013BC3D17B6037
:1013500000BF1437BD465DF8047B70470024F400DD
:10136000D825002080B582B000AF78607B684FF44C
:101370007A7202FB03F31846FFF7A0FF00BF08379D
:10138000BD4680BD80B582B000AF00211820FFF7B8
:1013900013F80346FB71FB791A46154900200DF03E
:1013A000DDFF0223BB710E237B7100233B710E23F3
:1013B000FB70BB791A460F211820FEF79BFF7B7943
:1013C0001A4610211820FEF795FF3B795B015AB2AF
:1013D000FB785B005BB213435BB2DBB21A461121B0
:1013E0001820FEF787FF00BF0837BD4680BD00BF4D
:1013F000D003030080B582B000AF0823FB71022345
:10140000BB710E237B71FB791A4610211820FEF761
:1014100071FFBB795B015AB27B795B005BB213430E
:101420005BB2DBB21A4611211820FEF763FF00BF42
:101430000837BD4680BD80B584B000AF786007F145
:101440000802062302211820FFF71CF87B7A1B02F2
:101450001AB23B7A1BB213431AB27B681A807B68BC
:101460000233FA7A120211B2BA7A12B20A4312B2F3
:101470001A807B6804337A7B120211B23A7B12B273
:101480000A4312B21A8000BF1037BD4680BD00006B
:1014900080B586B000AF5E4900200DF05FFF40F6DA
:1014A000B830FFF75FFF5B4B7B61212237211820AB
:1014B000FEF720FF202236211820FEF71BFF00BF79
:1014C00036211820FEF778FF034603F01003DBB245
:1014D000002BF5D0402236211820FEF70BFF00BF6D
:1014E00036211820FEF768FF034603F01003DBB235
:1014F000002BF5D0602236211820FEF7FBFE00BF3E
:1015000036211820FEF758FF034603F01003DBB224
:10151000002BF5D007F10C02022338211820FEF72A
:10152000B1FF7B7B1B027B8207F10C020223392176
:101530001820FEF7A7FF7B7B1B023B8207F10C0202
:1015400002233A211820FEF79DFF7B7B1B02FB81C3
:10155000314900200DF002FFB7F9123007EE903A42
:10156000F8EEE77A9FED2D7A27EE877AD7ED057AA8
:1015700027EE277ADFED2A6AC7EE267AFDEEE77AB4
:10158000C7ED017ABB881BB21A46264900200DF030
:10159000E5FEB7F9103007EE903AF8EEE77A9FEDE6
:1015A0001F7A27EE877AD7ED057A27EE277ADFEDC7
:1015B0001C6AC7EE267AFDEEE77AC7ED017ABB8892
:1015C0001BB21A46184900200DF0C8FEB7F90E30BC
:1015D00007EE903AF8EEE77A9FED107A27EE877AD9
:1015E000D7ED057A27EE277ADFED0D6AC7EE267A6A
:1015F000FDEEE77AC7ED017ABB881BB21A460B49AC
:1016000000200DF0ABFE00BF1837BD4680BD00BF07
:10161000F00303000000FA40200403000000C84269
:10162000000080433C040300540403006C040300E6
:1016300080B588B000AF78600023FB774BE02A4B81
:101640001A68FB7FDB001344BB61BB691B781A4639
:10165000012393407B61254B1A687B691340002B63
:1016600036D07B69DA43214B1B6813401F4A136055
:10167000BB691B78184604F013FE0346FB74BB6974
:101680001B781A46012393401A46194B1B681340D6
:10169000FA7CB96909788A40934219D1FB7CBA690E
:1016A0005278012A0CBF01220022D2B293420CBF11
:1016B00001230023DBB2FB60BB695B68002B07D012
:1016C000BB695B68BA691278F968C9B21046984775
:1016D000FB7F0133FB77074B1B78FA7F9A42AED32F
:1016E00000BF2037BD4680BD78290020A8290020F2
:1016F000A42900207C29002080B584B000AF786048
:101700000B46FB7001227B6802FA03F3FB601E4B61
:10171000184600F0E3FEB860BB68002B30D11B4BCD
:101720001A68FB681340002B22D1786804F0B8FDDA
:101730000346002B06D0164B1A68FB681343144A65
:10174000136006E0FB68DA43114B1B681340104A34
:1017500013600E4B1A68FB6813430C4A13600A4867
:101760000C4B1B680022194600F084FEB86008E0AC
:10177000FB68DA43054B1B681340044A136000E022
:1017800000BF1037BD4680BD84290020A829002055
:10179000A42900208029002080B588B000AFF8601F
:1017A0000B467A60FB727B68042B01D8072349E063
:1017B00004F0A2FC034683F00103DBB2002B07D048
:1017C00004F05AFCF861FB69002B01D0FB6939E099
:1017D0001E4AFB6813601E4AFB7A13701D4A7B6821
:1017E00013601D4B00221A601C4B00221A601EE081
:1017F000FB7ADB00FA681344BB6103233B750023CB
:101800007B750023BB750023FB75BB699B787B75DB
:10181000BB691B78184607F11403114A194604F0F6
:101820007DFCF861FB69002B01D0FB690AE0FB7AC3
:101830005A1EFA72002BDBD10A4A00210A4800F036
:10184000E5FD034618462037BD4680BD78290020B7
:101850007C29002080290020A4290020A82900201C
:10186000F9160200311602008404030080B582B02C
:1018700000AF00237B600CE00B4B1A687B68DB0039
:1018800013441B780121184604F0A2FC7B68013345
:101890007B60064B1B781A467B689A42ECD8002383
:1018A00018460837BD4680BD782900207C290020D5
:1018B00080B483B000AF0346FB71094997F9073044
:1018C0005B09FA7902F01F02012000FA02F241F8E6
:1018D000232000BF0C37BD465DF8047B704700BF76
:1018E00000E100E080B483B000AF0346FB7109491A
:1018F00097F907305B09FA7902F01F02012000FA1C
:1019000002F2203341F8232000BF0C37BD465DF8BA
:10191000047B704700E100E080B483B000AF034671
:10192000FB71094997F907305B09FA7902F01F0248
:10193000012000FA02F2403341F8232000BF0C37A7
:10194000BD465DF8047B704700E100E080B483B0E1
:1019500000AF0346FB71094997F907305B09FA7933
:1019600002F01F02012000FA02F2603341F8232046
:1019700000BF0C37BD465DF8047B704700E100E016
:1019800080B483B000AF03463960FB7197F907302C
:10199000002B0BDA0D49FB7903F00F03043B3A6887
:1019A000D2B25201D2B20B441A7609E0084997F933
:1019B00007303A68D2B25201D2B20B4483F8002306
:1019C00000BF0C37BD465DF8047B704700ED00E0BA
:1019D00000E100E080B485B000AF7860254BFB608B
:1019E0007B68002B40D0244B1A68F9687B6800BFE5
:1019F00000BF00BF00BF00BF00BF00BF00BF8A42E2
:101A00002FD000BF00BF00BF00BF00BF00BF00BF9E
:101A100000BF00BF00BF00BF00BF00BF00BF00BFCE
:101A200000BF00BF00BF00BF00BF00BF00BF00BFBE
:101A300000BF00BF00BF00BF00BF00BF00BF00BFAE
:101A400000BF00BF00BF00BF00BF00BF00BF00BF9E
:101A500000BF00BF00BF00BF00BF00BF00BF00BF8E
:101A600000BF013BC3D17B6000BF1437BD465DF8AA
:101A7000047B70470024F400D825002080B582B094
:101A800000AF7860054A7B68C2F80835072111204D
:101A9000FFF776FF00BF0837BD4680BD001001404C
:101AA00080B500AF0D4B4FF48032C3F844230B4B8D
:101AB0004FF48032C3F804231120FFF747FF1120B1
:101AC000FFF7F6FE054B01221A602F20FFF782FF79
:101AD000034B01221A7000BF80BD00BF00100140FF
:101AE000CA2A002080B500AF1120FFF7FBFE0F4B84
:101AF0004FF48032C3F848230C4B4FF48032C3F8C4
:101B000008230A4B01225A602F20FFF763FF074B7F
:101B100001229A60064B00221A602F20FFF75AFF1D
:101B2000044B00221A7000BF80BD00BF00100140AE
:101B3000BC2A0020CA2A002080B400AF034BD3F88F
:101B400004351846BD465DF8047B7047001001401F
:101B500080B483B000AF786039607A683B68D31A8C
:101B600023F07F4318460C37BD465DF8047B704771
:101B700080B483B000AF7860044A7B68C2F8403517
:101B800000BF0C37BD465DF8047B70470010014074
:101B900080B487B000AF7860294B1B68002B03D15D
:101BA000274A7B68136045E07B681A68244B1B68F2
:101BB0001B689A4210D8224B1B68214A1268116890
:101BC0007A6812688A1A1A601D4B1A687B68DA6193
:101BD0001B4A7B6813602DE07B681B68FB60184B19
:101BE0001B687B61164B1B683B6109E03B691B6806
:101BF000FA68D31AFB603B697B613B69DB693B6137
:101C00003B69002B04D03B691A68FB689A42EDD30C
:101C10003B69002B05D03B691A68FB68D21A3B6907
:101C20001A607B68FA681A607B683A69DA617B69D6
:101C30007A68DA6100BF1C37BD465DF8047B7047E7
:101C4000B82A002080B586B000AF7860294B1B68A9
:101C5000FB60284B1B687B617B693B6108E03A694C
:101C60007B689A4208D03B697B613B69DB693B61D9
:101C70003B69002BF3D100E000BF3B69002B01D191
:101C8000002333E07A693B699A4214D1194B1B68EF
:101C9000DB69184A1360174B1B68002B0BD1164BDE
:101CA00001229A60154B00221A60154B01221A700E
:101CB0002F20FFF78FFE3B691B68BB603B69DA6929
:101CC0007B69DA617B69DB693B613B69002B05D08D
:101CD0003B691A68BB681A443B691A60054B1B686C
:101CE000FA689A4214BF01230023DBB21846183762
:101CF000BD4680BDB82A002000100140BC2A00204B
:101D0000CB2A002080B500AF1120FFF705FE00BFF1
:101D100080BD80B500AF1420FFF7FEFD00BF80BD81
:101D200080B582B000AF78607B685B697A68926941
:101D30001046984700BF0837BD4680BD80B584B0C7
:101D400000AF2B4B1B68002B4ED000237B60FFF7AE
:101D5000F3FE0246274B1B6819461046FFF7F8FEB4
:101D6000B860234B1B68FB601DE0FB681A68BB680A
:101D70009A421CD8FB681B68BA68D31ABB60FB6820
:101D80001B687A6813447B60FB683B60FB68DB6917
:101D9000FB603B681B7C002B05D03B6800221A745B
:101DA0003868FFF7BDFFFB68002BDED100E000BF05
:101DB000114B1A78114B1B789A420CD10F4B1B78A0
:101DC0000133DAB20D4B1A700C4B1B78022B02D187
:101DD0000A4B00221A70094B1B781946084A7B6887
:101DE00042F82130FFF795FF00BF1037BD4680BD98
:101DF000B82A0020BC2A0020C82A0020C92A0020B6
:101E0000C02A002080B483B000AF7860194B1A78E4
:101E1000194B1B789A4223D0164B1B780133DAB248
:101E2000144B1A70134B1B78022B02D1114B00225A
:101E30001A70104B1B781A46104B53F822207B68FF
:101E40001A607B681A680E4B1B6813440C4A1360B7
:101E50000B4B1B6823F07F43094A1360012303E007
:101E60007B6800221A60002318460C37BD465DF8D7
:101E7000047B7047C82A0020C92A0020C02A0020FD
:101E8000BC2A002080B489B000AFF860B9607A60E5
:101E90000023FB6138E0214B1B68BB61BB691A68FA
:101EA000FB689A4206D9BB691A68FB68D21ABB69FB
:101EB0001A602DE0BB691B68FA68D31AFB60BB6926
:101EC0001B68FA691344FB61BB6900221A60134B5B
:101ED0001B687B61BB69DB69104A1360BB69DB6807
:101EE000002B11D0BA68FB69134423F07F42BB6911
:101EF0005A60BB69DA68BB699A607B681A68BB691B
:101F0000DA617B687A691A60044B1B68002BC2D1C6
:101F100000BF2437BD465DF8047B7047B82A002017
:101F200080B588B000AF78600023FB77654B1B68F5
:101F30007B61A9E07B68002B05D07B68BB61BB6936
:101F4000DB697B6060E0604B1B781A4613465B00E0
:101F50001344DB005C4A134404333B615A4B1B7847
:101F60000133DAB2584B1A70574B1A78564B9B789C
:101F70009A4202D1544B00221A703B695B68BB61E4
:101F80003B691B78022B04D0032B1AD0012B1ED0E7
:101F90001CE03B695B681846FFF754FE0346002BC4
:101FA00001D00123FB77BB6900221A746CE0454B1A
:101FB0001B68FB60FB6800221A74FB68DB69414AFE
:101FC0001360404B1B68002BF1D15DE05CE000BF6B
:101FD000BB691B7C002B00D056E03B699A68BB694B
:101FE0005A603B69DA68BB699A603B691A69BB69E8
:101FF000DA603B695A69BB699A61344B1B78002BE4
:1020000002D0BB6900225A60BB695A68304B1B681A
:10201000D31A23F07F432F4A93420ED8BB695A68E4
:102020002B4B1B6819461046FFF792FD0246BB6911
:102030009B681A44BB691A6017E0254B1A68BB6994
:102040005B6819461046FFF783FDB860BB699A6864
:10205000BB689A4206D9BB699A68BB68D21ABB6949
:102060001A6002E0BB6900221A60BB6900225A6054
:10207000BB6900229A60BB6901221A74BB69002205
:10208000DA61B869FFF784FD7B68002B7FF452AFFB
:102090000D4B1A780C4B5B789A427FF44BAFFB7F69
:1020A000002B04D1074B1A687B699A4201D00123A7
:1020B00000E0002303F00103DBB218462037BD46E1
:1020C00080BD00BFB82A0020AC290020CB2A002008
:1020D000BC2A0020FEFF7F0090B589B000AF786079
:1020E000274B1B68002B44D0254B1B681B68FB61EA
:1020F000FFF722FDB861234B1B687B617969B869E2
:10210000FFF726FD034603333B611F4B1B7883F02B
:102110000103DBB2002B01D0FFF7C2FC3A69FB6977
:10212000934238BF13467A6913447B617B6923F07D
:102130007F437B617869FFF71BFDFFF7FDFCF860CB
:10214000B969F868FFF704FD0346DC1CB9697869D2
:10215000FFF7FEFC03469C420DD9FFF7EDFC03465A
:102160001846FFF705FD2F20FFF734FCFFF7CAFDE7
:1021700001E0FFF7B7FC00BF2437BD4690BD00BFAC
:10218000B82A0020BC2A0020CA2A002080B586B0C8
:1021900000AF00237B600023FB75164B1B683B617F
:1021A000154B1B68FB603B461846FFF72BFE0346AA
:1021B000FB72FB7A002B07D03B683A1D3969184641
:1021C000FFF760FE0123FB757B681846FFF7A8FE4A
:1021D0000346002B01D00123FB75FB7D002B02D0B1
:1021E000F868FFF779FF054B00221A7000BF183717
:1021F000BD4680BDBC2A0020B82A0020CB2A002082
:1022000080B483B000AF0346FB71044AFB7953707E
:1022100000BF0C37BD465DF8047B7047AC29002039
:1022200080B485B000AF7860134B5B780133FB73EB
:10223000114B9B78FA7B9A4201D10023FB730E4B22
:102240001B78FA7B9A4201D100230EE07B68FA7B6F
:102250001A70094B5B781A4613465B001344DB0087
:10226000054A13440433BB60BB6818461437BD46A7
:102270005DF8047B704700BFAC29002080B588B0B2
:1022800000AFF860B9607A603B600023FB6100201A
:1022900002F0B4F807F117031846FFF7C1FFB86161
:1022A000BB69002B02D10423FB6117E0BB6901224B
:1022B0001A70BB69FA685A60FFF73EFC0246BB69B8
:1022C0009A60BB69BA68DA60BB697A681A61BB69EF
:1022D0003A685A61FB7D1846FFF792FF002002F032
:1022E00097F8FB69002B01D1FFF713FDFB69184636
:1022F0002037BD4680BD80B586B000AF78600B4604
:10230000FB7000237B61002002F078F807F10F03D7
:102310001846FFF785FF38613B69002B02D1042383
:102320007B6109E03B69FA781A703B697A685A6008
:10233000FB7B1846FFF764FF002002F069F87B6919
:10234000002B01D1FFF7E5FC7B6918461837BD4625
:1023500080BD000080B500AF0D4B0022C3F84021C6
:102360000B4B0022C3F84421094B0022C3F848213B
:10237000074B0022C3F84C21054B0022C3F8002173
:10238000034B0022C3F80421FFF7D8FC00BF80BD37
:102390000010014080B500AFFFF7F8FE00BF80BD20
:1023A00080B500AFFFF79EFB134B00221A70124B53
:1023B00000225A70104B0B229A70104B00221A60A8
:1023C0000F4B00221A700F4B00221A701420FFF7D7
:1023D000BDFA07211420FFF7D3FA1420FFF768FA9B
:1023E0000720FFF74BFBFFF7A7FB0246064B1A60DF
:1023F0000023184680BD00BFAC290020B82A002069
:10240000C82A0020C92A0020BC2A002080B487B036
:1024100000AFF8600B467A60FB72154B9B78002B7F
:1024200001D108231DE07B68002B01D1072318E0B0
:10243000FB68002B01D1072313E0FB681B681B7CA2
:10244000002B01D008230CE0FB681B687B617B69D3
:1024500000221A747B69FA7A5A747B697A685A6125
:10246000002318461C37BD465DF8047B704700BF4B
:10247000AC29002080B586B000AFF860B9607A6002
:10248000FB687B61144B9B78002B01D108231EE075
:10249000FB68002B01D1082319E0BB68042B01D88D
:1024A000072314E07B695B69002B01D108230EE050
:1024B0007B695B7C012B01D1BB6800E000233B61A1
:1024C0007B683A69B9687869FFF7D8FE0346184611
:1024D0001837BD4680BD00BFAC29002080B584B050
:1024E00000AF78607B68FB600D4B9B78002B01D1BF
:1024F000082310E07B68002B03D0FB685B69002B8E
:1025000001D1082307E0FB6800221A740221F86851
:10251000FFF7F1FE034618461037BD4680BD00BFE9
:10252000AC29002080B483B000AF78607B6803F0F2
:102530000303002B0CBF01230023DBB218460C372A
:10254000BD465DF8047B704780B483B000AF03469E
:10255000FB71064B1A78FB791343DAB2034B1A70FE
:1025600000BF0C37BD465DF8047B7047CC2A0020C5
:1025700080B483B000AF0346FB7197F90730DB43AB
:102580005AB2074B1B785BB213405BB2DAB2044B12
:102590001A7000BF0C37BD465DF8047B704700BF62
:1025A000CC2A002080B483B000AF0346FB71084BF7
:1025B0001A78FB791340DBB2002B14BF01230023F0
:1025C000DBB218460C37BD465DF8047B704700BF90
:1025D000CC2A002080B584B000AF78600023FB6077
:1025E0000EE00B4AFB6852F82330002B05D0084A56
:1025F000FB6852F8233078689847FB680133FB602A
:10260000FB68072BEDD900BF1037BD4680BD00BF6A
:10261000D02A002080B483B000AF786039607B6836
:102620001B78013B052B5BD801A252F823F000BFB9
:10263000492602005126020071260200A32602004C
:10264000C3260200D92602003B6800221A7048E027
:102650003B6801221A707B681A893B689A817B6803
:102660009A883B68DA817B68DA683B689A6038E070
:102670003B6802221A707B681A893B689A817B68E2
:102680009A883B68DA817B68DA683B689A607B6885
:102690001B7C062B0CBF01230023DAB23B681A74A3
:1026A0001FE03B6803221A707B68DA883B689A81D6
:1026B0007B681A893B68DA817B68DA683B689A60D4
:1026C0000FE03B6804221A707B68DA883B689A81C5
:1026D0003B680022DA8104E03B6805221A7000E0C2
:1026E00000BF00BF0C37BD465DF8047B704700BFDC
:1026F00080B483B000AF78607B689B884FF6FF7230
:10270000934205D07B681B88002B01D0012300E099
:10271000002303F00103DBB218460C37BD465DF819
:10272000047B704780B582B000AF78607B68002B77
:1027300011D00D4B1A687B689A420CD80A4B5A6824
:102740007B689A4207D37868FFF7ECFE0346002BBC
:1027500001D0012300E0002303F00103DBB218469F
:102760000837BD4680BD00BFEC25002080B584B091
:1027700000AF786039600023FB6012E0FB68DB008B
:102780007A6813441B681846FFF7CCFE034683F0B3
:102790000103DBB2002B01D0002307E0FB6801330B
:1027A000FB60FA683B689A42E8D301231846103769
:1027B000BD4680BD80B483B000AF03460A46FB80AF
:1027C0001346BB80FB880F4A1B01134408331A8849
:1027D000BB881344BB80FB880A4A1B0113440A339D
:1027E0001A88BB881344BB80BB8840F2FF329342F7
:1027F00094BF01230023DBB218460C37BD465DF8B9
:10280000047B7047B42B002080B485B000AF7860A3
:1028100039600A23FB6000237B811CE07B89134A1B
:102820001B01134404331A683B689A4210D27B8917
:102830000E4A1B01134404331B6803F580523B68A6
:102840009A4205D90023FB607B687A891A8005E0EB
:102850007B8901337B817B89012BDFD9FB6818469B
:102860001437BD465DF8047B704700BFB42B0020D1
:1028700080B483B000AF78600B467B807B681A8998
:102880007B8813449BB203339AB27B681A817B68BE
:102890005A897B88D31A9BB2033B9AB27B685A81D0
:1028A00000BF0C37BD465DF8047B704780B582B031
:1028B00002AF064B1968002300930223044A05481F
:1028C00001F01CFC03461846BD4680BDD42B0020F9
:1028D0008C040300EC25002080B584B002AF786042
:1028E000002300930223054A7968054801F006FC9D
:1028F000034618460837BD4680BD00BF9404030058
:10290000EC25002080B584B000AF03463960FB8021
:102910000023FB73FB8803337B817B8940F2FD320C
:10292000934201D9092334E00023BB8128E0BB890D
:102930001A4A1B0113441B78002B1ED17A89BB89CC
:1029400011461846FFF736FF0346002B15D001232A
:10295000FB733B68BA891A80BB89BA890F49120197
:102960000A440A3211887A890A4491B20B4A1B013F
:1029700013440A330A461A8005E0BB890133BB8140
:10298000BB89012BD3D9FB7B002B01D0002300E0B6
:10299000072318461037BD4680BD00BFB42B00206A
:1029A00080B483B000AF03460A46FB801346BB8069
:1029B000BB88BA880A4912010A440A321188FA8887
:1029C0008A1A92B2033A91B2054A1B0113440A33A0
:1029D0000A461A8000BF0C37BD465DF8047B70477D
:1029E000B42B002080B400AF054B1B680133044AB0
:1029F0001360034B1B681846BD465DF8047B7047A7
:102A0000F02A002080B584B000AF03463960FB8017
:102A10003B681B68FB60FB68002B09D0FB68BB6050
:102A2000BB685B8803339B00FA681344FB601CE0BF
:102A3000FB88184A1B01134404331B680833FB60EE
:102A400013E0FB68BB60B868FFF752FE0346002B3B
:102A500004D03B68FA681A60012317E0BB685B8802
:102A600003339B00FA681344FB60FB88094A1B018F
:102A7000134404331B6803F58052FB689A4204D95F
:102A8000FB681B68B3F1FF3FDBD10023184610370A
:102A9000BD4680BDB42B002080B584B000AF786007
:102AA00039607B685B681846FFF73CFE0346002BE5
:102AB00019D07B681A89254B1B899A4213D17B68F0
:102AC0001A687B685B689B689A420CD17B685B687C
:102AD00019463868FFF798FE0346002B0CBF012308
:102AE0000023DBB22DE03B6800221A8024E00023A3
:102AF000BB6010E0BB68FB60FB689A687B681B6882
:102B00009A4208D1BA687B685A60104B1A897B6870
:102B10001A81012315E03B681B8807F10802114662
:102B20001846FFF76FFF0346002BE3D13B681B8875
:102B300001339AB23B681A803B681B88012BD6D9B7
:102B4000002318461037BD4680BD00BFDC2B002097
:102B500080B586B000AFF860B9607A603B60022053
:102B6000FFF720FD034683F00103DBB2002B01D009
:102B700002234FE07B68002B02D03B68002B44D13E
:102B8000052347E03B689B88244A1B0113441B78BC
:102B9000002B33D124E03B681B687B61FB68002B72
:102BA00006D07B699A88FB681B889A4200D017E0A0
:102BB000BB68002B06D07B691A88BB681B889A42C9
:102BC00000D00DE07B699A687B681A603B681A68E0
:102BD0007B685A60124B1A897B681A81002319E0BE
:102BE0003B689B883A6811461846FFF70BFF03467F
:102BF000002BD0D13B6800221A6000E000BF3B6888
:102C00009B8801339AB23B689A803B689B88012B72
:102C1000B8D90A2318461837BD4680BDB42B00200A
:102C2000DC2B002080B500AF124B1A6F1346DB007F
:102C30009B1A9B000F4A13441C2200211846FCF7E4
:102C400087FB0C4B5B6F002B0BD00A4B1B6F0133C8
:102C500003F00303074A1367064B5B6F013B054A0A
:102C60005367044B5B6F002B14BF01230023DBB2BF
:102C7000184680BDF42A002080B483B000AF78608D
:102C80007B681B68084A934206D07B681B6803F187
:102C900008027B681A6002E07B68044A1A600C37FD
:102CA000BD465DF8047B7047A42B00206C2B0020F0
:102CB00080B483B000AF78600E4B5B6C002B12D0F9
:102CC0000C4B1B6CDB000B4A1A447B681A60094BE7
:102CD0001B6C013303F00703064A1364054B5B6C5E
:102CE000013B044A536400BF0C37BD465DF8047BCA
:102CF000704700BF6C2B002080B483B000AF7860B9
:102D00007B681B78022B03D07B681B78032B0DD1CB
:102D1000094B1B6C7A68927D1344074A1364064B77
:102D20005B6C7A68927D9B1A034A536400BF0C3730
:102D3000BD465DF8047B70476C2B0020B0B588B0B1
:102D400000AFF860B9607A600023FB772E4B5B6FB1
:102D5000032B54D82D4B5A6CBB68C3F108039A421D
:102D60004DD8294B5A6F284B1B6F134403F00303B4
:102D70007B6125497A691346DB009B1A9B00CA18C0
:102D8000FB6814461D460FCD0FC495E8070084E884
:102D900007001D4B5B6F01331B4A5367BB68002B59
:102DA0002BD01A4B5A6C194B1B6C134403F00703BE
:102DB0007B617B69DB00154A13443B610023BB61E7
:102DC00011E03969BB69DB007A681A440B4692E866
:102DD000030083E8030007F110031846FFF74CFFD8
:102DE000BB690133BB61BA69BB689A42E9D3074B3F
:102DF0005A6CBB681344054A53640123FB77FB7F7D
:102E000018462037BD46B0BDF42A00206C2B0020A8
:102E100080B586B002AF786039607B681A1D0023E8
:102E2000009301233968094801F068F90346FB6003
:102E30007B6802221A74FB68002B01D1002300E09A
:102E40000E2318461037BD4680BD00BFEC2500207C
:102E500080B586B002AF786039603B6803F1080145
:102E60007B6803F10C020023009301230B4801F05F
:102E700045F90346FB607B689B7D002B01D0032254
:102E800000E001227B681A74FB68002B01D100234B
:102E900000E00E2318461037BD4680BDEC2500200B
:102EA00080B586B002AF786039603B68191D7B68D9
:102EB00003F108020023009301230C4801F01EF9DE
:102EC0000346FB607B681B78032B01D1052200E0E1
:102ED00006227B681A74FB68002B01D1002300E0F6
:102EE0000E2318461037BD4680BD00BFEC250020DC
:102EF00080B586B002AF78600B467B8000230093DC
:102F000001230C4A79680C4801F0F8F80346FB737A
:102F1000FB7B002B01D00E2307E07B88074A1B01B7
:102F200013440E3301221A70002318461037BD4691
:102F300080BD00BF88040300EC250020B42B0020D6
:102F400080B588B000AF786007F1080300221A60EE
:102F50005A609A607B68DB68BB6007F1160207F174
:102F6000080311461846FFF797FD0346002B11D0C2
:102F7000FB68BB61BB699A887B68DA80BB691A8889
:102F80007B681A81FB68FA8A11461846FFF7B0FF82
:102F9000F86101E00A23FB61FB6918462037BD4652
:102FA00080BD000080B586B000AF78607B68981D5A
:102FB00007F108020D4B0021FFF7CAFD78617B691C
:102FC000002B08D1FA68094B9B8819461046FFF779
:102FD0008FFF786104E0082200210448FCF7B8F96B
:102FE0007B6918461837BD4680BD00BFEC2B00201A
:102FF00080B586B002AF786039600023BB6007F10E
:1030000008031846FFF754FE7B689B8A9B003A68CA
:10301000D118BB681A68BB689888002300930346E0
:10302000114801F06BF80346FB607B689A8ABB6825
:103030009B8813449AB27B689A827B689B7D013B94
:10304000DAB27B689A757B689B7D002B02D17B6826
:1030500001221A74FB68002B01D1002300E00E232B
:1030600018461037BD4680BDEC25002080B483B0E3
:1030700000AF154B1B8901339AB2134B1A81124BC7
:1030800000225A80104B00221A730023FB8011E0AB
:10309000FB88FA880D4912010A441278002A0CBFF5
:1030A00001220022D1B2084A13440A469A72FB88D0
:1030B0000133FB80FB88012BEAD900BF0C37BD46EA
:1030C0005DF8047B704700BFDC2B0020B42B002090
:1030D00080B485B000AF78600023FB730023BB8110
:1030E00023E0BB89164A13449B7A002B1AD0BB8974
:1030F000134A134400229A72BB89124A1B011344DB
:103100000C331B88002B0DD1BB890E4A1B011344C5
:103110000E331B78002B05D07B68BA891A800123F7
:10312000FB7305E0BB890133BB81BB89012BD8D977
:10313000FB7B18461437BD465DF8047B704700BF23
:10314000DC2B0020B42B002080B500AF074B0522FC
:103150001A70074B02229A80054B1968002301223E
:10316000044801F035F80346184680BDDC2B0020EA
:10317000D42B0020EC25002080B582B000AF124B8C
:103180005B887B807B88114A1B0113440C331B88AE
:10319000002B10D17B880D4A1B011344043319689E
:1031A000002301220A4801F013F803467B60064B16
:1031B00004221A7002E0FFF7C7FF78607B681846A8
:1031C0000837BD4680BD00BFDC2B0020B42B00209B
:1031D000EC25002080B586B002AF104B5B68FB6029
:1031E0000F4B1A680E4B9B889B001344BB60FB6817
:1031F0005B880333FB80094B03221A70074B5A6824
:10320000F988002300930B46B968064800F076FF62
:10321000034618461037BD4680BD00BFDC2B00209A
:10322000D42B0020EC25002080B582B000AF0A4BE3
:103230005B880A491846FFF7E5FB0346002B03D0DD
:10324000FFF7C8FF786002E0FFF796FF78607B68C1
:1032500018460837BD4680BDDC2B0020E02B00203F
:1032600080B500AF074B06221A70064B5B88064AF2
:103270001B01134404331B681846FFF72DFB03465C
:10328000184680BDDC2B0020B42B002080B500AF99
:10329000054B07221A70044B00225A60FFF706FB09
:1032A0000346184680BD00BFDC2B002080B500AF70
:1032B0000C48FFF70DFF034683F00103DBB2002B40
:1032C0000BD0094B00221A70074B00225A80064B84
:1032D00000225A6041F61D5302E0FFF7A5FF0346A6
:1032E000184680BDDE2B0020DC2B002080B483B08C
:1032F00000AF0A4B5B687B607B685B8803337B8035
:10330000074B9A887B8813449AB2054B9A8000BF7A
:103310000C37BD465DF8047B704700BFDC2B0020F6
:10332000D42B002080B483B000AF144B1B687B60AB
:10333000134B5B88134A1B01134404331B680F4A69
:1033400013600F4B5B880F4A1B01134404337A68E8
:103350001A600B4B5B881846084B9988094A030191
:10336000134408330A461A80044B02229A8000BF95
:103370000C37BD465DF8047B704700BFD42B00209E
:10338000DC2B0020B42B002080B500AF1A4B1B783B
:10339000072B2DD801A252F823F000BFBD33020045
:1033A000F1330200F1330200C9330200D5330200C9
:1033B000E1330200E1330200E9330200FFF756FE79
:1033C0000D4B01221A7014E0FFF790FF0A4B022206
:1033D0001A700EE0FFF7A6FF074B06221A7008E0EE
:1033E000054B07221A7004E0034B01221A7000E01B
:1033F00000BF00BF80BD00BFDC2B002080B586B0C1
:1034000000AF786039600F237B617B68002B04D0AC
:103410000120FFF7ADF8012398E03B681B79032BEF
:1034200000F2888001A252F823F000BF3D34020070
:103430004B340200B3340200D3340200FFF736FAF3
:1034400078613B6801221A7177E00023FB74002346
:103450003B821CE03B8A3F4A1B0113441B78022B32
:1034600012D13B8A3B4A1B01134404331B681846A4
:10347000FFF732FA78613B8A364A1B011344002277
:103480001A700123FB7405E03B8A01333B823B8ABF
:10349000012BDFD9FB7C83F00103DBB2002B4BD087
:1034A0000220FFF751F80120FFF762F841F61D53A3
:1034B0004CE0294B196800230122284800F088FEBF
:1034C00003467B61244B02229A803B6800221A71DA
:1034D00033E0214B1B681846FFF7FEF97861204B5B
:1034E0005B88FB811C4B1B68BB60FB89194A1B0175
:1034F000134404331B68184A1360FB89154A1B01E7
:1035000013440433BA681A60FB89134A9188114A3C
:103510001B01134408330A461A800F4B02229A807B
:10352000FB890C4A1B01134400221A703B680022DD
:103530001A7102E000BF00E000BF7B69002B04D0DD
:103540000120FFF715F80E2300E000231846183776
:10355000BD4680BDB42B0020D42B0020EC250020DC
:10356000DC2B002080B586B000AF786039603B6806
:103570005B8A1B013B4A13443B617B68002B07D0ED
:103580003B68DB8819463869FFF772F9012364E06C
:103590003B695A683B691B899B001344FB603B688D
:1035A0001B7C062B4CD801A252F823F0EF35020009
:1035B00013360200FB35020007360200C93502004F
:1035C0001F36020039360200274B00225A603B6842
:1035D0009B69254A136025492348FFF75DFA034696
:1035E00083F00103DBB2002B01D00A2335E0F96838
:1035F0003868FFF70DFC786125E0F9683868FFF757
:1036000027FC78611FE0F9683868FFF7F1FC786102
:1036100019E0F9683868FFF743FC786113E0124B52
:103620005A68124B1B8819461046FFF761FC7861F7
:103630003B6806221A7406E041F61D537B6102E0E6
:103640000F237B6100BF7B69002B05D03B68DB88C3
:1036500019463869FFF70CF97B6918461837BD46DB
:1036600080BD00BFB42B0020F42B0020002C0020D4
:1036700080B584B000AF786039607B68002B01D0E2
:10368000012323E03B681B79012B0BD0022B14D0C4
:10369000002B16D13868FFF753FCF8603B68022214
:1036A0001A7112E03868FFF77DFCF860FB680A2B9E
:1036B0000AD141F61D53FB6006E041F61D53FB6045
:1036C00003E00F23FB6000E000BFFB6818461037E3
:1036D000BD4680BD80B584B000AF78607B68002BAC
:1036E00001D001233CE0204B1B7B002B03D01E4B61
:1036F00000221A7301E0FFF747FE1B4B1B78013BCA
:10370000062B29D801A252F823F000BF2937020066
:1037100031370200393702004137020059370200C1
:103720004937020051370200FFF7C0FDF86016E08C
:10373000FFF77AFDF86012E0FFF74CFDF8600EE04D
:10374000FFF71AFDF8600AE0FFF78AFDF86006E06F
:10375000FFF79CFDF86002E00F23FB6000BFFB68F1
:1037600018461037BD4680BDDC2B002080B58AB0DE
:1037700000AF0346FB71334B1A6F1346DB009B1AF5
:103780009B00304A13443B623B6A1B78013B052B8C
:1037900029D801A252F823F0B1370200BF37020046
:1037A000BF370200CD370200CD370200DB37020001
:1037B000FB79396A1846FFF721FE786216E0FB793B
:1037C000396A1846FFF7CEFE78620FE0FB79396A56
:1037D0001846FFF74DFF786208E0FB791846FFF7BF
:1037E00079FF786202E00F237B6200BF7B6A002BC7
:1037F00023D07B6A41F61D52934202D100233B61E4
:1038000004E07B6A3B61386AFFF776FA07F10C0344
:103810001946386AFEF7FEFE07F10C031846FEF75C
:10382000D9FEFFF7FFF90346002B03D00020FFF776
:103830009DFF02E00420FEF79BFE00BF2837BD4637
:1038400080BD00BFF42A002080B500AF0420FEF741
:10385000A9FE034683F00103DBB2002B05D0042050
:10386000FEF772FE0020FFF781FF00BF80BD80B52C
:1038700082B000AF78600B46FB70FB781846FFF70C
:1038800075FF00BF0837BD4680BD000080B590B011
:1038900000AFF860B9607A60FB700023FB860023FC
:1038A000FB870220FEF77EFE034683F00103DBB2B6
:1038B000002B01D002239BE0BB68002B01D1052324
:1038C00096E0BB681B884FF6FF72934203D0BB683B
:1038D0005B88002B01D104238AE0BB685A68BB686F
:1038E0001B8919461046FEF741FF034683F001038A
:1038F000DBB2002B01D003237AE07B68002B21D1BF
:103900000023BB630BE0BB685A68BB6BDB0013444E
:103910009A88FB8F1344FB87BB6B0133BB63BB6887
:103920001B891A46BB6B9A42EDD807F11202FB8F36
:1039300011461846FEF7E6FF38633B6B002B07D0B5
:103940003B6B55E07B681B887B827B685B88FB87D1
:10395000FB783B75002387F824307B8AFB84BB68A7
:103960001B89DBB287F82A3003233B85FFF73AF83F
:1039700003463B62BB681B88BB83BB685B883B8399
:10398000FB8F7B83FB78032B05D1042387F824303E
:10399000FB681B68FB62FB8EFB83BB681B891946B7
:1039A000BB685A6807F114031846FFF7C7F90346C6
:1039B00083F00103DBB2002B07D07A8AFB8F11461C
:1039C0001846FEF7EDFF082312E0FB68002B0CD031
:1039D000FB6800225A603A6AFB681A60FB680022A2
:1039E0009A72054B1A89FB681A81FFF72DFF002395
:1039F00018464037BD4680BDDC2B002080B584B022
:103A000000AF786039607B68002B02D03B68002BE8
:103A100001D1052328E007F10A0319467868FFF76A
:103A20003BF80346002B1ED07B685B68FB607B89FC
:103A30000F491A010A440C321288013291B20C4A21
:103A40001B0113440C330A461A803B68FA681A605B
:103A50007B685B6803F10C023B685A607B6801225B
:103A60009A72002300E00A2318461037BD4680BD35
:103A7000B42B002080B584B000AF78607B68002B49
:103A800001D105232EE007F10A0319467868FFF7F4
:103A900003F80346002B22D07B89144A1B011344F0
:103AA0000C331B88002B17D07B689B7A002B13D01C
:103AB0007B890E491A010A440C321288013A91B2EC
:103AC0000A4A1B0113440C330A461A807B68002201
:103AD0009A720023FB6004E00623FB6001E00A23E6
:103AE000FB60FB6818461037BD4680BDB42B002034
:103AF00080B584B000AF78600B467B800220FEF773
:103B000051FD034683F00103DBB2002B01D00223F9
:103B100016E07B68002B01D1052311E007F10A02B2
:103B20007B8811461846FEF7EDFEF860FB68002B17
:103B300005D17A897B681A807B687A885A80FB680D
:103B400018461037BD4680BD80B584B000AF7860A0
:103B50000220FEF727FD034683F00103DBB2002BB2
:103B600001D002232DE07B68002B01D1052328E042
:103B70007B681B88022B01D9042322E07B681B8809
:103B80001B01124A1344BB60BB685B891A467B6801
:103B90005B880333D31A002B10DB7B685A887B6861
:103BA0001B8819461046FEF7FBFE7B6800221A8030
:103BB0007B6800225A800023FB6001E00423FB6045
:103BC000FB6818461037BD4680BD00BFB42B0020EF
:103BD00080B582B000AF7860396002230022396876
:103BE0007868FFF753FE034618460837BD4680BD88
:103BF00080B584B000AFF860B9607A607B68002B54
:103C000001D1052306E002237A68B968F868FFF756
:103C10003DFE034618461037BD4680BD80B582B0D4
:103C200000AF786039607B68002B01D1052306E086
:103C30000323002239687868FFF728FE03461846F8
:103C40000837BD4680BD80B58AB000AF0346FB8013
:103C50000220FEF7A7FC034683F00103DBB2002B32
:103C600001D002231BE0FB884FF6FF72934201D183
:103C7000042314E005233B7301233B74FB887B8200
:103C800007F10C03002200211846FFF757F80346FE
:103C9000002B03D0FFF7D8FD002300E008231846CF
:103CA0002837BD4680BD80B584B000AFBA607B6068
:103CB0000346FB810B46BB8107F10C0107F10E00A7
:103CC0007B68BA68FEF744FF034618461037BD46C6
:103CD00080BD80B584B000AF0346B9607A60FB81D7
:103CE00007F10E017B68BA680020FEF731FF03463A
:103CF00018461037BD4680BD80B584B000AF03467E
:103D0000B9607A60FB8107F10E007B68BA68002118
:103D1000FEF71EFF034618461037BD4680BD80B42F
:103D200083B000AF786039607B68002B02D03B68BD
:103D3000002B01D1052304E07B681A683B681A60F8
:103D4000002318460C37BD465DF8047B704729DF19
:103D5000704700BF184628DF704700BF184680B57F
:103D600086B000AF78600B46FB7007F108031022A5
:103D700000211846FBF7ECFA7B681B7A012B02D076
:103D8000022B09D015E000233B727B681B693B6165
:103D90007B689B8ABB820CE001233B727B689A891B
:103DA0007B68DB89D31A9BB23B827B689B897B82D1
:103DB00000BF7B685B68FB607B681B689B68F97869
:103DC00007F108021046984700BF1837BD4680BD6E
:103DD00080B483B000AF78607B68002B09D07B682B
:103DE000074A934205D37B68064A934201D20123D6
:103DF00000E0002318460C37BD465DF8047B704791
:103E0000EC250020FC25002080B584B000AF786050
:103E10007B689B8A1A467B68DB8AD31AB3F5806F6E
:103E200006DA7B689A8A7B68DB8AD31AFB8102E018
:103E30004FF48063FB817B681A697B68DB8A9B0097
:103E4000D0187B68DA687B68DB8A9B001344FA89A8
:103E50001946FFF77CFF034618461037BD4680BD64
:103E600080B582B000AF78607B689B891846FFF709
:103E700072FF034618460837BD4680BD80B400AFC8
:103E8000104B5B6E013B0F4A53660E4B5B6E002B73
:103E900006D10D4B1B7823F00203DAB20A4B1A70DD
:103EA000084B1B6E0133074A1366064B1B6E042B2F
:103EB00002D1044B00221A6600BFBD465DF8047BA8
:103EC000704700BF042C0020022C002080B582B077
:103ED00000AF1F4B1A6E13465B001344DB001C4AF5
:103EE00013443B601A4B5B6E002B2CD03B681B7A53
:103EF000012B02D0022B05D009E03868FFF784FFC0
:103F0000786007E03868FFF7ABFF786002E00923CC
:103F10007B6000BF7B68112B0ED10E4B1B7823F00A
:103F20000203DAB20B4B1A700A4B1B7843F00403FE
:103F3000DAB2084B1A7006E07B68002B03D0092127
:103F40003868FFF70CFF00BF0837BD4680BD00BFD3
:103F5000042C0020022C002080B500AF0B4B1B78F6
:103F600003F00203002B0ED1084B1B7803F004036F
:103F7000002B08D1054B1B7843F00203DAB2034B48
:103F80001A70FFF7A3FF00BF80BD00BF022C002006
:103F900080B584B000AF7860284B00221A707B682F
:103FA0001B7A012B02D0022B27D042E07B689B8A30
:103FB0001A467B68DB8AD31AB3F5806F06DA7B6812
:103FC0009A8A7B68DB8AD31AFB8102E04FF4806314
:103FD000FB817B68DA8AFB8913449AB27B68DA82B8
:103FE0007B68DA8A7B689B8A9A421FD100217868B5
:103FF000FFF7B5FEFFF742FF18E07B689B890133AE
:104000009AB27B689A817B68DB8901339AB27B68BC
:10401000DA817B68DA897B681B8A9A4208D10021A1
:104020007868FFF79CFEFFF729FF01E000BF00E082
:1040300000BF00BF1037BD4680BD00BF6C2C002004
:1040400080B582B000AF78600B4B1B780133DAB2D9
:10405000094B1A70084B1B78032B08D9064B00221A
:104060001A7008217868FFF77AFEFFF707FF00BF94
:104070000837BD4680BD00BF6C2C002080B584B0E1
:1040800000AF78601C4B5B6E042B01D100232EE047
:10409000194B1A6E184B5B6E1344032B05D8164B45
:1040A0001A6E154B5B6E134405E0134B1A6E124BE0
:1040B0005B6E1344043BFB600F4B5B6E01330E4A97
:1040C0005366FA6813465B001344DB000A4A134444
:1040D000182200211846FBF73BF9FA6813465B00EB
:1040E0001344DB00044A1A447B681A600123184613
:1040F0001037BD4680BD00BF042C002080B586B0BF
:1041000000AFF860B9607A607B80304B1B7803F0B9
:104110000103002B01D1012354E0F868FFF758FE9A
:10412000034683F00103DBB2002B01D0022349E0F8
:104130007B68002B02D0BB68002B01D1032341E038
:104140007B6803F00303002B04D1BB6803F0030377
:10415000002B01D0062335E0FB681A68BB689A4241
:1041600007D8FB685A687B889B00B9680B449A4261
:1041700001D2052326E07B88002B01D1042321E016
:1041800007F114031846FFF779FF034683F0010394
:10419000DBB2002B01D0072314E07B693A6A5A6036
:1041A0007B69FA681A607B6901221A727B697A68F6
:1041B000DA607B69BA681A617B697A889A82FFF74C
:1041C000CBFE002318461837BD4680BD022C0020C8
:1041D00080B586B000AFF860B9603B601346FB80E5
:1041E0002B4B1B7803F00103002B01D101234BE083
:1041F000F868FFF7EDFD034683F00103DBB2002B07
:1042000001D0022340E0BB68002B01D103233BE037
:10421000BB68C3F30B03002B01D0062334E0FB681B
:104220001A68BB689A4207D8FB881B03BA681A440D
:10423000FB685B689A4201D9052325E0FB88002BC7
:1042400001D1042320E007F114031846FFF716FFFD
:10425000034683F00103DBB2002B01D0072313E0F8
:104260007B693A685A607B69FA681A607B69022246
:104270001A727B69BA68120B92B29A817B69FA88CA
:104280001A82FFF769FE002318461837BD4680BD25
:10429000022C002080B483B000AF78607B68002BD4
:1042A00001D1032304E0054B5A6E7B681A6000239A
:1042B00018460C37BD465DF8047B7047042C00207F
:1042C00080B584B000AF78601D4B1A6E13465B005A
:1042D0001344DB001A4A1344FB601A4B1B7803F0AB
:1042E0000203002B0ED07B68022B02D0032B04D0DC
:1042F00020E0F868FFF74CFE1CE0F868FFF7A0FE2E
:1043000000BF17E00F4B1B7803F00403002B11D004
:104310000C4B1B7823F00403DAB20A4B1A70084BDB
:104320005B6E002B06D0074B1B7843F00203DAB21A
:10433000044B1A70FFF7CAFD00BF1037BD4680BDA1
:10434000042C0020022C002080B586B000AF7860DD
:104350000023BB8100233B617B687B6107F10C0379
:104360001A46002144F2010000F018F800BF183787
:10437000BD4680BD80B400AFBFF34F8F0549054BEC
:10438000DB6803F4E062044B1343CB60BFF34F8F51
:1043900000BFFDE700ED00E00400FA0580B584B041
:1043A00000AFF860B9607A60FFF7E4FF00BF103734
:1043B000BD4680BD80B400AF72B6054B1B680133AB
:1043C000034A136000BFBD465DF8047B704700BF21
:1043D000702C002080B400AF074B1B68013B064ADD
:1043E0001360054B1B68002B00D162B600BFBD46B1
:1043F0005DF8047B704700BF702C002080B582B050
:1044000000AF7860FFF7D6FF00BF0837BD4680BD1C
:1044100080B582B000AF0346FB71FFF7DBFF00BF42
:104420000837BD4680BD80B483B000AF78600B46CE
:104430007B807B681A687B88012101FA03F31A43A9
:104440007B681A6000BF0C37BD465DF8047B70477F
:1044500080B483B000AF78600B467B807B681A68BD
:104460007B88012101FA03F3DB431A407B681A6061
:1044700000BF0C37BD465DF8047B704780B483B045
:1044800000AF78600B467B807B88012202FA03F341
:104490001A467B681340002B14BF01230023DBB2B4
:1044A00018460C37BD465DF8047B704780B584B074
:1044B00000AF78600023FB810CE0FB891946786827
:1044C000FFF7DCFF0346002B01D0FB8907E0FB89E7
:1044D0000133FB81FB891F2BEFD94FF6FF73184681
:1044E0001037BD4680BD80B586B002AFF860B960B8
:1044F00011461A460B46FB8013467B71FA887B797E
:10450000009313460122B968F86800F004F800BF70
:104510001037BD4680BD80B586B000AFF860B96089
:104520007A607B80FB68002B3AD0BB68002B37D0C9
:104530007B68002B34D000237B612EE07B695B001D
:10454000FA6813441B887A889A4223D100233B617E
:104550001BE097F82030002B0AD03B699B00BA681B
:1045600013447A6992B211461846FFF75CFF09E0DE
:104570003B699B00BA6813447A6992B211461846A7
:10458000FFF766FF3B6901333B613A697B689A42FA
:10459000DFD305E07B6901337B617B691F2BCDD9BC
:1045A0001837BD4680BD80B586B000AFF860B960F1
:1045B0001346FB80FB68002B18D000237B6112E0C0
:1045C0007B695B00FA6813441B88FA889A4207D11A
:1045D0007B699BB21946B868FFF750FF034606E0B7
:1045E0007B6901337B617B691F2BE9D90023184666
:1045F0001837BD4680BD80B596B000AFF860B96091
:104600007A6000233B61BB68002B1FD000237B65D1
:1046100019E07B6D9BB219467868FFF72FFF0346C0
:10462000002B0DD03B695A1C3A617A6D5200B96873
:104630000A4412885B0007F158010B4423F8442C0C
:104640007B6D01337B657B6D1F2BE2D9FB681846C0
:1046500007F11003442219460BF037FEF86858376B
:10466000BD4680BD80B483B000AF78604FF0A043FA
:1046700018460C37BD465DF8047B704780B584B0A2
:1046800000AF78600B46FB703B1D1846FFF7EAFF52
:10469000F8607A687968FB6801F5E07153F82130B9
:1046A00023F44031FB6802F5E07243F822107A6887
:1046B0007968FB6801F5E07153F82130F978090455
:1046C0001943FB6802F5E07243F8221000BF10376F
:1046D000BD4680BD80B586B000AF03460A46FB717B
:1046E0001346BB710023FB7500233B61FB79184621
:1046F000FAF7BEFF38613B69032B5CD8BB79012B0D
:1047000004D0022B4CD0002B2ED054E032493A6911
:1047100013465B0013440B441B78FB752E493A6922
:1047200013465B0013440B4401331B78002B0DD060
:104730002A4B2B4A4FF480511846FDF79BFEF86038
:10474000FB68002B02D1264AFB79137022493A6993
:1047500013465B0013440B4402331978214A3B692A
:1047600013440A461A7026E01C4B1846FDF7B6FEA5
:104770001C4A3B691344197817483A6913465B0091
:104780001344034402331B78994213D112493A6906
:1047900013465B0013440B4402331B78FB7509E09E
:1047A0000D493A6913465B0013440B4401331B78EF
:1047B000FB7500E000BFFB7D002B08D00A4B1B6897
:1047C000002B04D0084B1B68FA7D1046984700BFA9
:1047D0001837BD4680BD00BFC42C0020D02C00205F
:1047E000F02C0020F42C0020C02C002080B582B0DA
:1047F00000AF78607B681B7802211846FFF76AFFDC
:1048000000BF0837BD4680BD80B582B000AF0D4BFC
:104810001B78002B0FD000237B6008E07B68022B05
:1048200002D07868FAF7BCFE7B6801337B607B6856
:10483000022BF3D901E0FAF7C5FE00BF0837BD46E9
:1048400080BD00BF7C2C00202DE9F04F8BB000AF65
:104850000346FB7700237B6200233B62C64B1B7839
:10486000002B04D0C44A00231370FFF7CDFFFB7F59
:10487000172B00F2088201A252F823F0DD48020053
:10488000E9480200E94802006D490200E9490200D6
:104890004F4A0200C74A0200E54A0200F34A0200FA
:1048A000114B02002F4B02004D4B02006B4B0200DC
:1048B000854B0200854B0200854B0200854B0200B0
:1048C000854B0200334C02003F4C0200514C020069
:1048D000634C02007B4C02007B4C0200FFF794FF0C
:1048E000A64AFB7F1370CFE10020FAF723FE0346B0
:1048F000002B0CD00020FAF753FEFB7F022B02D1D5
:104900004FF4E16301E04FF47A633B620AE0002078
:10491000FAF734FEFB7F022B01D1C82301E04FF4EC
:10492000C8733B62954AFB7F1370954D3B6A4FF00D
:104930000004E2037A617A6942EA53427A61DB0356
:104940003B61D7E9040110F57A6041F100014FF4B1
:10495000FA524FF000030BF01BFB03460C460022FB
:1049600019462846FDF786FD78628DE10020FAF7AA
:10497000E1FD0346002B0CD00020FAF711FEFB7F6F
:10498000032B02D14FF4487301E04FF47A633B628A
:104990000AE00020FAF7F2FDFB7F032B01D1C823C8
:1049A00001E04FF4C8733B62744AFB7F1370744D8F
:1049B0003B6A4FF000044FEAC43B4BEA534B4FEACB
:1049C000C33A1AF57A604BF100014FF4FA524FF0F6
:1049D00000030BF0DDFA03460C4600221946284678
:1049E000FDF748FD78624FE10020FAF7A3FD03468A
:1049F000002B06D00020FAF7D3FD4FF47A633B6218
:104A000005E00020FAF7BAFD4FF4C8733B625B4A39
:104A1000FB7F13705A4D3B6A4FF000044FEAC439D4
:104A200049EA53494FEAC33818F57A6049F1000161
:104A30004FF4FA524FF000030BF0AAFA03460C466B
:104A4000002219462846FDF715FD78621CE100207A
:104A5000FAF770FD0346002B0BD00020FAF7A0FDFB
:104A6000FB7F052B01D1C82301E04FF47A633B6241
:104A70000AE00020FAF782FDFB7F052B01D1C82355
:104A800001E04FF4C8733B623C4AFB7F13703C4B20
:104A90003B613B6A4FF00004E60346EA5346DD0300
:104AA00015F57A6046F100014FF4FA524FF0000319
:104AB0000BF06EFA03460C46002219463869FDF7E2
:104AC000D9FC7862E0E00020FAF7A4FD2B4AFB7FD6
