:020000021000EC
:10F0000000000120D5150300FD150300FF150300C6
:10F01000011603000316030005160300000000009C
:10F0200000000000000000000000000007160300C0
:10F0300009160300000000000B1603000D16030064
:10F04000A17202000F1603000D930200C98C02008A
:10F050009D7102000F160300757C0200E994020006
:10F06000F99B02000F1603000F1603000F16030092
:10F070000F1603000F1603000F1603000F160300F0
:10F080000F160300713702000F1603000F1603005E
:10F09000B13702000F160300511503000F160300CD
:10F0A0000F1603000F1603000F1603000F160300C0
:10F0B0000F1603000F160300000000000000000000
:10F0C0000F1603000F1603000F1603000F160300A0
:10F0D0000F1603000F1603000F16030000000000B8
:10F0E0000000000000000000000000000000000020
:10F0F0000000000000000000000000000000000010
:10F1000000000000000000000000000000000000FF
:10F1100000000000000000000000000000000000EF
:10F1200000000000000000000000000000000000DF
:10F1300000000000000000000000000000000000CF
:10F1400000000000000000000000000000000000BF
:10F1500000000000000000000000000000000000AF
:10F16000000000000000000000000000000000009F
:10F17000000000000000000000000000000000008F
:10F18000000000000000000000000000000000007F
:10F19000000000000000000000000000000000006F
:10F1A000000000000000000000000000000000005F
:10F1B000000000000000000000000000000000004F
:10F1C000000000000000000000000000000000003F
:10F1D000000000000000000000000000000000002F
:10F1E000000000000000000000000000000000001F
:10F1F000000000000000000000000000000000000F
:10F2000010B5054C237833B9044B13B10448AFF360
:10F2100000800123237010BD3C2600200000000068
:10F220005C3503000C4B43B10C480D4910B5AFF3EE
:10F2300000800C48036823B910BD0A48036833B93D
:10F240007047094B002BF7D0BDE810401847064B1C
:10F25000002BF5D0184700BF000000005C3503000C
:10F26000402600202826002000000000154B002B1F
:10F2700008BF134B9D46A3F5803A00218B460F46ED
:10F280001348144A121A00F063F80F4B002B00D0F9
:10F2900098470E4B002B00D0984700200021040017
:10F2A0000D000D48002802D00C48AFF3008000F09C
:10F2B0002BF82000290001F059FD00F011F800BFE3
:10F2C0000000080000000120000000000000000015
:10F2D0003C260020943800200000000000000000C0
:10F2E00008B5074B044613B10021AFF30080054B6E
:10F2F0001868836A03B19847204600F031F800BFD0
:10F3000000000000C030030070B50D4E0D4CA41B72
:10F31000A4100025A54209D10B4E0C4C13F0C4FEDD
:10F32000A41BA4100025A54205D170BD56F82530B8
:10F3300098470135EEE756F8253098470135F2E752
:10F340002026002020260020202600202426002021
:10F3500002440346934200D1704703F8011BF9E7CA
:10F36000FEE700BF80B483B000AF78604FF0A043E9
:10F3700018460C37BD465DF8047B704780B584B0F5
:10F3800000AF7860084611461A460346FB700B46EC
:10F39000BB7013467B703B1D1846FFF7E3FFF86018
:10F3A0007A68F978BB785B0019437B789B00194336
:10F3B0003B7E1B0219433B7F1B041943FB6802F58C
:10F3C000E07243F8221000BF1037BD4680BD80B503
:10F3D00084B002AF786000230193002300930023E0
:10F3E000012201217868FFF7C9FF00BF0837BD4639
:10F3F00080BD80B584B000AF78603B1D1846FFF734
:10F40000B1FFF8607B68012202FA03F31946F8683D
:10F4100000F072F800BF1037BD4680BD80B584B0E3
:10F4200000AF78603B1D1846FFF79CFFF8607B68D3
:10F43000012202FA03F31946F86800F06CF800BFE5
:10F440001037BD4680BD80B584B000AF78603B1DED
:10F450001846FFF787FFF860FB68D3F80435BB60F8
:10F46000BB68DA437B68012101FA03F31A40FB68A9
:10F47000C3F808257B6801229A40BB681A40FB68E4
:10F48000C3F80C2500BF1037BD4680BD80B582B0E3
:10F4900000AF786039603B68002B03D17868FFF7D4
:10F4A000BDFF02E07868FFF7A4FF00BF0837BD4644
:10F4B00080BD80B584B000AF78603B1D1846FFF773
:10F4C00051FFF860F86800F00AF802467B6822FAFB
:10F4D00003F303F0010318461037BD4680BD80B426
:10F4E00083B000AF78607B68D3F8043518460C37DA
:10F4F000BD465DF8047B704780B483B000AF786090
:10F5000039607B683A68C3F8082500BF0C37BD46F0
:10F510005DF8047B704780B483B000AF78603960D9
:10F520007B683A68C3F80C2500BF0C37BD465DF810
:10F53000047B704780B584B000AF78600E4A7B686A
:10F5400013441B781846FFF7B4FF0346002B14BF83
:10F5500001230023FB73FB7B002B14BF012300233B
:10F56000DBB283F00103DBB203F00103DBB2184628
:10F570001037BD4680BD00BFC430030080B582B0E7
:10F5800000AF7860054A7B6813441B780021184659
:10F59000FFF77CFF00BF0837BD4680BDC4300300C5
:10F5A00080B582B000AF7860054A7B6813441B7851
:10F5B00001211846FFF76AFF00BF0837BD4680BD2E
:10F5C000C430030080B582B000AF0023FB7106E0B9
:10F5D000FB791846FFF7E4FFFB790133FB71FB79F8
:10F5E000022BF5D900BF0837BD4680BD80B582B07B
:10F5F00000AF0023FB7106E0FB791846FFF7BEFF62
:10F60000FB790133FB71FB79022BF5D900BF083779
:10F61000BD4680BD80B582B000AF7860054A7B688A
:10F6200013441B781846FFF70EFF00BF0837BD468E
:10F6300080BD00BFC430030080B582B000AF00239E
:10F640007B6009E0094A7B6813441B781846FFF782
:10F65000BEFE7B6801337B607B68022BF2D9FFF72B
:10F66000B1FF00BF0837BD4680BD00BFC4300300F6
:10F6700080B485B000AF78604FF0FF33BB600023EB
:10F68000FB600DE00B4AFB6813441B781A467B684D
:10F690009A4202D1FB68BB6005E0FB680133FB6066
:10F6A000FB68032BEED9BB6818461437BD465DF8DE
:10F6B000047B7047C830030080B483B000AF78602B
:10F6C000044A7B6813441B7818460C37BD465DF826
:10F6D000047B7047C830030076DF704700BF1846D0
:10F6E00078DF704700BF18467ADF704700BF1846C2
:10F6F0007CDF704700BF1846A8DF704700BF184680
:10F7000069DF704700BF184666DF704700BF1846C4
:10F7100032DF704700BF184680B485B000AF786014
:10F72000254BFB607B68002B40D0244B1A68F9689E
:10F730007B6800BF00BF00BF00BF00BF00BF00BFAD
:10F7400000BF8A422FD000BF00BF00BF00BF00BF74
:10F7500000BF00BF00BF00BF00BF00BF00BF00BFB1
:10F7600000BF00BF00BF00BF00BF00BF00BF00BFA1
:10F7700000BF00BF00BF00BF00BF00BF00BF00BF91
:10F7800000BF00BF00BF00BF00BF00BF00BF00BF81
:10F7900000BF00BF00BF00BF00BF00BF00BF00BF71
:10F7A00000BF00BF00BF013BC3D17B6000BF143767
:10F7B000BD465DF8047B70470024F4001C26002041
:10F7C00080B582B000AF78607B684FF47A7202FB3C
:10F7D00003F31846FFF7A0FF00BF0837BD4680BD02
:10F7E00080B500AF0120FFF7C9FE1920FFF7E8FF41
:10F7F0000120FFF7D5FE00BF80BD80B500AF02201D
:10F80000FFF7BCFE1920FFF7DBFF0220FFF7C8FE61
:10F8100000BF80BD80B582B000AF0A49012006F06C
:10F8200055FF0246084B1A60074B1B687B607B68DC
:10F83000002B02D0786806F05FFA00BF0837BD469B
:10F8400080BD00BF21050200A037002080B582B036
:10F8500000AF0FF09DFB0246074B1A60064B1B687A
:10F860007B607B68002B02D0786806F045FA00BF09
:10F870000837BD4680BD00BFA037002080B584B0EA
:10F8800000AF0346FB71FB79002B02D0FFF7DEFFD0
:10F890000BE003200AF098FCF860FB68BB60BB68D3
:10F8A000002B02D0B86806F027FA00BF1037BD461B
:10F8B00080BD80B483B000AF786000BF0C37BD4618
:10F8C0005DF8047B7047000080B588B000AF7860B9
:10F8D0007B681B780E2B72D801A252F823F000BF70
:10F8E000BFF90100BFF90100BFF90100BFF9010034
:10F8F0001DF9010033F90100ABF90100BFF9010066
:10F900006FF90100BFF9010083F9010061F90100FD
:10F9100097F90100BFF9010069F9010000233B726A
:10F920007B685B8807F10802114618460FF0F6FA6B
:10F9300050E005F0BFFD0246284B1A60274B1B68BC
:10F940000E2B3ED0254B1B68082B3AD0234B1B684F
:10F95000FB61FB69002B34D0F86906F0CDF930E08B
:10F960000020FFF78BFF35E00FF0E8FA32E07B680C
:10F970001B69BB61BB69002B25D0B86906F0BCF9D7
:10F9800021E07B689B687B617B69002B1DD07869D7
:10F9900006F0B2F919E07B689B683B613B69002B7C
:10F9A00015D0386906F0A8F911E07B689B68FB6008
:10F9B000FB68002B0DD0F86806F09EF909E000BF47
:10F9C00008E000BF06E000BF04E000BF02E000BFA7
:10F9D00000E000BF00BF2037BD4680BDA03700203B
:10F9E00080B582B000AF03F0E9FE02460F4B1A600B
:10F9F0000E4B1B687B607B68002B02D0786806F09A
:10FA00007BF90B4A01210B4803F00EFF0246074B1E
:10FA10001A60064B1B683B603B68002B02D03868BD
:10FA200006F06AF900BF0837BD4680BDA037002048
:10FA3000590D0200CC30030080B582B000AF0B4BF3
:10FA400000224FF48051184603F022FF0246084B73
:10FA50001A60074B1B687B607B68002B02D07868BC
:10FA600006F04AF900BF0837BD4680BDA826002031
:10FA7000A037002080B586B000AF3B78012262F34A
:10FA800003033B703B78012262F307133B70244869
:10FA900013F002FB03469AB23B4621491846FFF792
:10FAA00027FE02461F4B1A601E4B1B687B617B6959
:10FAB000002B02D0786906F01FF940F24130FFF7C1
:10FAC0000FFE0246174B1A60164B1B683B613B69E1
:10FAD000002B02D0386906F00FF93B1D08220021E7
:10FAE0001846FFF735FC1823BB80A023FB800023BA
:10FAF0003B814FF4C8737B813B1D1846FFF7F4FD33
:10FB00000246084B1A60074B1B68FB60FB68002B22
:10FB100002D0F86806F0F0F800BF1837BD4680BD87
:10FB2000D0300300A037002080B582B000AF7860ED
:10FB300039603968034802F069FF00BF0837BD46E5
:10FB400080BD00BF7026002080B582B000AF0A499A
:10FB50000A480DF065FA0246094B1A60084B1B680B
:10FB60007B607B68002B02D0786806F0C5F800BF88
:10FB70000837BD4680BD00BF29FB01009426002048
:10FB8000A037002080B59EB000AF07F154031422C7
:10FB900000211846FFF7DCFB00237B6597F85C30FB
:10FBA000012262F3030387F85C3097F85C3001228E
:10FBB00062F3071387F85C3097F85D306FF3030347
:10FBC00087F85D3097F85D306FF3071387F85D3085
:10FBD00097F85E306FF3030387F85E3097F85E3076
:10FBE0006FF3071387F85E3097F85F306FF3030306
:10FBF00087F85F3097F85F306FF3071387F85F304F
:10FC000097F86030012262F3030387F8603097F8B9
:10FC10006030012262F3071387F86030002387F811
:10FC20007730764B1B78002B05D097F8773043F070
:10FC3000010387F87730724B1B78002B05D097F8BB
:10FC4000773043F0020387F877306E4B1B78002B38
:10FC500005D097F8773043F0040387F8773097F8AA
:10FC6000773087F8643097F86130012262F303033C
:10FC700087F8613097F86130012262F3071387F843
:10FC8000613097F862306FF3030387F8623097F8BA
:10FC900062306FF3071387F8623097F863306FF3C1
:10FCA000030387F8633097F863306FF3071387F81F
:10FCB000633007F154031946534802F0B3FD02467E
:10FCC000524B1A60514B1B683B673B6F002B02D0B5
:10FCD000386F06F011F807F140031422002118468E
:10FCE000FFF736FB97F84D30012262F3030387F8E4
:10FCF0004D3097F84D30012262F3071387F84D30ED
:10FD000097F84E30012262F3030387F84E3097F8DC
:10FD10004E30012262F3071387F84E3097F84F30C8
:10FD20006FF3030387F84F3097F84F306FF30713E3
:10FD300087F84F3097F85030012262F3030387F8B9
:10FD4000503097F85030012262F3071387F8503093
:10FD500000233B64012387F844300023BB64642301
:10FD600087F84C3007F140031946294810F091FFFD
:10FD70000246264B1A60254B1B68FB66FB6E002B68
:10FD800002D0F86E05F0B8FF3B464022002118462D
:10FD9000FFF7DEFA3B461F4918460BF074FD97F853
:10FDA0003C30012262F3030387F83C3097F83C3083
:10FDB000012262F3071387F83C3097F83D306FF368
:10FDC000030387F83D3097F83D306FF3071387F84A
:10FDD0003D303B46184611F06BF902460B4B1A605A
:10FDE0000A4B1B68BB66BB6E002B02D0B86E05F0D9
:10FDF00083FF00BF7837BD4680BD00BFFF270020CE
:10FE0000C8250020C925002070260020A03700202A
:10FE100058260020D830030080B584B000AF786049
:10FE20007B681B78002B11D10A4B1B883B2118469D
:10FE3000FFF752FC0246084B1A60074B1B68FB6039
:10FE4000FB68002B02D0F86805F056FF00BF1037A2
:10FE5000BD4680BDB8250020A037002080B582B007
:10FE600000AF7860786805F047FF00BF0837BD46EF
:10FE700080BD000080B588B000AF3B461C22002149
:10FE80001846FFF765FA00233B604FF4A0437B6000
:10FE90004FF4F033BB6003233B730E4B9B89FB8114
:10FEA00000233B740C4B7B610C4BBB613B461846FB
:10FEB0000BF024F902460A4B1A60094B1B68FB61E0
:10FEC000FB69002B02D0F86905F016FF00BF203750
:10FED000BD4680BD7026002019FE01005DFE0100B8
:10FEE000A037002080B584B000AF002006F0D4FB1E
:10FEF0000246154B1A60144B1B68FB60FB68002B15
:10FF000002D0F86805F0F8FE06F00FFD02460E4B31
:10FF10001A600D4B1B68BB60BB68002B02D0B86831
:10FF200005F0EAFEFFF7F4FB0246074B1A60064BAA
:10FF30001B687B607B68002B02D0786805F0DCFED4
:10FF400000BF1037BD4680BDA037002080B584B00B
:10FF500000AF0346FB71FB79002B12D0032B00D0BE
:10FF600012E0022006F098FB0246094B1A60084B8B
:10FF70001B68FB60FB68002B05D0F86805F0BCFE31
:10FF800001E000BF00E000BF00BF1037BD4680BDEC
:10FF9000A037002080B582B000AF0023FB71104B6A
:10FFA0001B78002B03D0FB7943F00103FB710D4B51
:10FFB0001B78002B03D0FB7943F00203FB710A4B43
:10FFC0001B78002B03D0FB7943F00403FB71FB7912
:10FFD0001946064802F0DCFC00BF0837BD4680BD6C
:10FFE000FF270020C8250020C925002070260020FA
:10FFF00090B593B000AF78607B681B883B2B32D004
:020000022000DC
:100000003B2B07DC102B0DD0112B23D0012B00F044
:10001000D8803AE1512B00F0EB80562B3BD0502B8F
:1000200051D032E19B49002011F04EFF072006F02D
:1000300033FB0246984B1A60974B1B687B647B6CC2
:10004000002B02D0786C05F057FE7B689A88934BA2
:100050001A801AE19249002011F036FF8F4B4FF6BB
:10006000FF721A8011E18F49002011F02DFF7B688B
:100070009B8813211846FFF72FFB0246864B1A6018
:10008000854B1B683B643B6C002B00F0F580386CA3
:1000900005F032FEF0E08449002011F015FF7B6886
:1000A0009B8813211846FFF717FB02467A4B1A600C
:1000B000794B1B68FB63FB6B002B00F0DF80F86B58
:1000C00005F01AFEDAE07949002011F0FDFE7B68A8
:1000D0001233BB63BB6B1B7887F8373097F8373028
:1000E0001A467349002012F02BFA97F83730202B6C
:1000F00009D1704B00221A70FFF74CFF6E490020A7
:1001000011F0E2FEBCE097F83730212B09D1694BA2
:1001100001221A70FFF73EFF6849002011F0D4FE5B
:10012000AEE097F837300C2B09D1654B00221A70DE
:10013000FFF730FF6349002011F0C6FEA0E097F8FA
:1001400037300D2B09D15E4B01221A70FFF722FFC9
:100150005D49002011F0B8FE92E097F83730222B6D
:1001600009D15A4B00221A70FFF714FF584900209A
:1001700011F0AAFE84E097F83730232B09D1534BB6
:1001800001221A70FFF706FF5249002011F09CFE71
:1001900076E097F837302A2B07D14F49002011F02D
:1001A00093FE4E4B01221A706AE097F837302B2BE2
:1001B00066D14B49002011F087FE4A4B01221A708C
:1001C0005EE04949002011F07FFE344B1B8800217E
:1001D0001846FFF799FA02462F4B1A602E4B1B6800
:1001E0003B633B6B002B4DD0386B05F085FD49E040
:1001F0003E49002011F068FE7B6807F11C040633BD
:10020000186859689A68DB680FC43B7F002B3BD0A5
:1002100097F82430042B07D097F82430062B03D00E
:1002200097F82430052B2FD13B7F022B06D10223D8
:100230003B732F49002011F047FE05E001233B737B
:100240002C49002011F040FE4FF4C1733B827B68C3
:100250009B8807F10C0211461846FFF74DFA02463B
:100260000D4B1A600C4B1B68FB62FB6A002B0BD01A
:10027000F86A05F041FD07E000BF06E000BF04E0BA
:1002800000BF02E000BF00E000BF00BF4C37BD462A
:1002900090BD00BFEC300300A0370020B82500203F
:1002A00004310300203103003831030050310300D2
:1002B00068310300FF2700207C31030098310300E0
:1002C000C8250020B4310300CC310300C92500202B
:1002D000E4310300FC310300143203000028002045
:1002E0002832030001280020703203008C32030002
:1002F000B0320300DC32030080B582B000AF78601A
:1003000078680BF01BF978680EF022FD79680D48CB
:1003100002F0BDF879680C4810F092FB78680BF099
:1003200023F8786806F022FB7868FFF761FE7868AA
:100330000AF034F8796805480CF09EFE00BF0837D3
:10034000BD4680BD7026002058260020942600203F
:1003500080B582B000AF7860786805F089FC786875
:100360000AF03AF800BF0837BD4680BD80B590B0AE
:1003700000AF664B1B687B6107F114000023D82295
:10038000634911F079F8F863FB6BBB63BB6B002B1F
:1003900002D0B86B05F0B0FC00233B6107F11003FD
:1003A000184611F0F1F802465A4B1A60594B1B6877
:1003B0007B637B6B002B02D0786B05F09DFC3B1DB3
:1003C0000C2200211846FEF7C3FF00233B713A6957
:1003D0003B1D19460120FFF793F902464D4B1A6069
:1003E0004C4B1B683B633B6B002B02D0386B05F01A
:1003F00083FC3B1D0C2200211846FEF7A9FF0123B8
:100400003B7100237B710023BB713A693B1D194688
:100410004020FFF775F902463E4B1A603D4B1B68C2
:10042000FB62FB6A002B02D0F86A05F065FC3B1DFD
:100430000C2200211846FEF78BFF01233B719E23FF
:10044000FB803A693B1D19462320FFF759F9024604
:10045000304B1A602F4B1B68BB62BB6A002B02D06B
:10046000B86A05F049FC3B1D0C2200211846FEF736
:100470006FFF01233B714FF4A0733B810123BB71DC
:100480003A693B1D19462020FFF73AF90246214BF5
:100490001A60204B1B687B627B6A002B02D0786A53
:1004A00005F02AFC07F11003184611F081F8024606
:1004B000184B1A60174B1B683B623B6A002B02D03B
:1004C000386A05F019FC144811F016F80246114B71
:1004D0001A60104B1B68FB61FB69002B02D0F869A6
:1004E00005F00AFC0D4811F01DF80246094B1A6090
:1004F000084B1B68BB61BB69002B02D0B86905F0D3
:10050000FBFB00BF4037BD4680BD00BF0833030082
:1005100004280020A0370020F90202005103020045
:1005200080B584B000AF0346FB71FB79072B1ED06A
:100530000A2B02D0042B03D035E0FFF7D3FC32E0C6
:100540001B4B1B8813211846FFF7C6F80246194BB0
:100550001A60184B1B68082B22D0164B1B68FB60D7
:10056000FB68002B1CD0F86805F0C6FB18E0104BA8
:100570001B884FF6FF72934214D109F05BFF0246CD
:100580000C4B1A600B4B1B68082B0BD0094B1B68DC
:10059000BB60BB68002B05D0B86805F0ADFB01E07F
:1005A00000BF00E000BF00BF1037BD4680BD00BFE8
:1005B000B8250020A037002080B586B000AF0EF02F
:1005C000FFFB0246334B1A60324B1B687B617B6931
:1005D000002B02D0786905F08FFB3B4605220021F5
:1005E0001846FEF7B5FE3B7843F001033B703B78BD
:1005F0006FF341033B703B78032262F306133B70B9
:100600003B786FF3C7133B7007237B701023BB70DD
:10061000FB7843F00103FB70FB7843F00203FB70AF
:100620003B7943F001033B713B7943F002033B719B
:100630003B4618460EF05AFC0246164B1A60154B04
:100640001B683B613B69002B02D0386905F054FB05
:1006500011480EF01DFC02460E4B1A600D4B1B6834
:10066000FB60FB68002B02D0F86805F045FB0B48E7
:1006700004F02EFD0246074B1A60064B1B68BB6058
:10068000BB68002B02D0B86805F036FB00BF1837F6
:10069000BD4680BDA0370020C9F80100B3F80100B5
:1006A00080B59AB002AF07F120033C220021184622
:1006B000FEF74EFE022387F82030012387F8223010
:1006C000062387F8233003233B86154B7B633B4689
:1006D000202200211846FEF73BFE0123FB704FF459
:1006E000C8633B6164237B613A4607F12000002325
:1006F00000930C4B002109F061FC02460A4B1A6082
:10070000094B1B68FB65FB6D002B02D0F86D05F0F3
:10071000F3FA012009F042FC00BF6037BD4680BDFE
:10072000BC2500204DFF0100A037002080B584B01B
:1007300002AF78605B4B1B780F2B00F28580594B22
:100740001B781B017A681178574AD154554B1B7896
:100750001B0101337A685178534AD154514B1B78AD
:100760001B0102337A6891784F4AD1544D4B1B7864
:100770001B0103337A68D1784B4AD154494B1B781B
:100780001B0104337A681179474AD154454B1B78D1
:100790001B0105337A685179434AD154414B1B7888
:1007A0001B0106337A6891793F4AD1543D4B1B783F
:1007B0001B0107337A68D1793B4AD154394B1B78F6
:1007C0001B0108337A68117A374AD154354B1B78AC
:1007D0001B0109337A68517A334AD154314B1B7863
:1007E0001B010A337A68917A2F4AD1542D4B1B781A
:1007F0001B010B337A68D17A2B4AD154294B1B78D1
:100800001B010C337A68117B274AD154254B1B7886
:100810001B010D337A68517B234AD154214B1B783D
:100820001B010E337A68917B1F4AD1541D4B1B78F4
:100830001B010F337A68D17B1B4AD154194B1B78AB
:100840000133DAB2174B1A70164B1B780F2B24D9D1
:10085000FEF7C6FF154B1B881A46154B1B78194629
:10086000144B1B8800930B461349002011F068FEBF
:10087000104B1B880C49184601F012FA0D4B1B88CF
:1008800001339AB20B4B1A804FF480720021064854
:10089000FEF75EFD034B00221A7000BF0837BD460D
:1008A00080BD00BFF8260020FC260020C8260020BE
:1008B000E6260020FC2700200C33030080B584B01E
:1008C00000AF78607B680E33134A1288D2B21A7078
:1008D0007B680F33104A1288120A92B2D2B21A7091
:1008E0000023FB6079680D4801F0E7FFF860FB68C2
:1008F000002B0DD0FB68082B0AD0FB68132B07D008
:10090000FB6843F20142934202D0F86805F0F4F923
:1009100000BF1037BD4680BDFC2700207026002098
:1009200090B583B000AF0446084611461A462346E8
:10093000FB710346BB800B46BB711346FB70102254
:1009400000213248FEF704FDBB88DAB22F4B1A7043
:10095000BB881B0A9BB2DAB22C4B5A702B4ABB796C
:1009600093702A4AFB78D370284A3B7E1371274A3A
:100970003B7F53713B8CDAB2244B9A713B8C1B0A40
:100980009BB2DAB2214BDA71BB8CDAB21F4B1A720E
:10099000B7F924301B121BB2DAB21C4B5A723B8DD2
:1009A000DAB21A4B9A72B7F928301B121BB2DAB2BC
:1009B000164BDA72BB8DDAB2144B1A73B7F92C30BE
:1009C0001B121BB2DAB2114B5A73104B00229A73EE
:1009D0000E4B0022DA73FB79002B03D10B48FFF793
:1009E000A5FE0FE0FB79012B03D10848FFF766FF56
:1009F00008E0FB79022B05D10448FFF797FE034876
:100A0000FFF75CFF00BF0C37BD4690BDE826002015
:100A100090B583B000AF08F0CDFF00F0FFFF0346B4
:100A200007EE903AF8EEE77A17EE900A11F004FF1D
:100A30004FF000021E4B11F053FF03460C461846C0
:100A400021464FF000021B4B12F074F803460C468F
:100A50001846214612F056F90346DAB2164B1A70C0
:100A600000F0DCFF0346DBB22C3BDAB2134B1A700A
:100A7000FFF790FA00237B600F4B1B781946104854
:100A800010F03FF978607B68002B0DD07B68082B55
:100A90000AD07B68132B07D07B6843F20142934254
:100AA00002D0786805F028F900BF0C37BD4690BD2C
:100AB0000000594000407A40E7260020E62600204A
:100AC00058260020000000002DE9F04188B006AF54
:100AD000914B1B7883F00103DBB2002B40F01181B6
:100AE0008E49002011F0F0F9FEF77AFE8C4B1B784E
:100AF000032B05D9FFF78CFF894B00221A7005E004
:100B0000874B1B780133DAB2854B1A70854B1B88F3
:100B100001339AB2834B1A80834800F005FD824B63
:100B20001B68184611F076FE4FF000027F4B12F062
:100B300001F803460C461846214675A3D3E9002365
:100B400011F01AFD03460C461846214612F0DAF859
:100B50000346DAB2764B1A70734B5B68184611F095
:100B600059FE4FF00002714B11F0E4FF03460C46B2
:100B7000184621464FF000026E4B11F0FDFC034673
:100B80000C461846214612F0BDF80346DAB26A4B0D
:100B90001A70654B9B68184611F03CFE4FF000023E
:100BA000664B11F0C7FF03460C461846214612F06B
:100BB000A9F80346DAB2624B1A70624801F0F5F9FF
:100BC000614801F002FB0023FB71604B1B78002B96
:100BD0002DD05F4B1B78002B29D00223FB71514B8A
:100BE000B3F800E05B4B93F800C0514B93F80080E2
:100BF000514B1B78524A12785249B1F9061089B20A
:100C00005148B0F90000504CB4F902404E4DB5F9CE
:100C10000450FE790595049403900291019200938B
:100C20004346624671463046FFF77AFE6AE0474B1C
:100C30001B78002B30D0464B1B7883F00103DBB2CE
:100C4000002B29D00023FB71364BB3F800E0414B59
:100C500093F800C0364B93F80080374B1B78384A26
:100C600012783849B1F9061089B23748B0F9000056
:100C7000354CB4F90240344DB5F90450FE79059570
:100C80000494039002910192009343466246714698
:100C90003046FFF745FE35E02C4B1B7883F001030F
:100CA000DBB2002B2ED02A4B1B78002B2AD001233D
:100CB000FB711C4BB3F800E0264B93F800C01C4BB3
:100CC00093F800801C4B1B781D4A12781D49B1F91E
:100CD000061089B21C48B0F900001B4CB4F9024060
:100CE000194DB5F90450FE790595049403900291CD
:100CF000019200934346624671463046FFF710FE6C
:100D000000E000BF0837BD46BDE8F081AFF30080CA
:100D1000000000000088C340C825002020330300E5
:100D2000FE270020C8260020CC26002000002440FA
:100D3000A537002000006940A437002000408F4004
:100D40009C370020D8260020E0260020FF27002026
:100D5000C9250020E626002080B582B000AF78606B
:100D6000FFF7B2FE00BF0837BD4680BD80B584B036
:100D700000AF6C49002011F0A7F8FEF731FEFEF736
:100D800049FD01237B73FFF7F1FAFEF773FEFEF7CF
:100D9000DBFEFFF785FCFEF7F5FEFFF76BF8FFF7CC
:100DA0000BFC00F0ADFD00F0D3F800F069FA4FF451
:100DB000FA70FEF705FD01F0E5F84FF4FA70FEF762
:100DC000FFFC01F0A9F94FF4FA70FEF7F9FC01F00D
:100DD00029FA4FF4FA70FEF7F3FC01F0D5F900F0B0
:100DE0008DFE00F0A1FE4FF4FA70FEF7E9FC01F071
:100DF00059F803461A464C4B1A804B4B1B881A462F
:100E00004A49002011F09CFBFEF7F7FCFEF714FEA8
:100E10007B7B1846FEF732FDFFF7BCF8444B1B788E
:100E2000002B41D0434B1B787B72434B1B783B72AA
:100E3000424B1B78FB713F4B00221A703E4B002245
:100E40001A703E4B00221A70374B1B881B01BB8067
:100E50000023FB8118E06420FEF7B2FCFB893849CF
:100E6000184600F0DBFEFB89DAB2354B9A73FB893A
:100E70001B0A9BB2DAB2324BDA733149314801F0C6
:100E80001CFDFB890133FB81FA89BB889A42E2D3BE
:100E9000284A7B7A1370284A3B7A1370274AFB79D9
:100EA0001370234B00221A70274B1B78002B37D06E
:100EB000204B1B783B73204B1B78FB721F4B1B781E
:100EC000BB721C4B00221A701B4B00221A701B4B6A
:100ED00000221A7001F00EF800F0E4FF03461A46F3
:100EE000114B1A80104B1B881A461049002011F034
:100EF00027FB0D4B1B88002B06D00B4B1B881A467B
:100F00001249002011F01CFB0A4A3B7B13700A4A6D
:100F1000FB7A1370094ABB7A13700B4B00221A70CC
:100F200020BF7BE728330300FC2700203833030071
:100F300000280020C8250020FF270020C925002008
:100F4000DC280020702600200128002050330300F8
:100F500080B586B000AF3B4600221A605A609A60A6
:100F6000DA6008233B6005237B604FF0CC73BB60E5
:100F700003233B7339460023094A0A4807F048FA1D
:100F800078617B693B613B69002B02D0386904F0D2
:100F9000B3FE044807F0B6FA00BF1837BD4680BD5F
:100FA0000D1102008433030080B588B002AF034600
:100FB000FB710B46BB7113467B71BB793B737B792D
:100FC0007B73114B00221A7007F10C02F97901238F
:100FD000009302230D4807F08DFD78617B693B612A
:100FE0003B69002B02D0386904F086FE00BF064B37
:100FF0001B78DBB283F00103DBB2002BF7D100BF1B
:101000001837BD4680BD00BFEC28002084330300A4
:1010100080B586B002AF03463960FB711346BB71E1
:10102000104B00221A70BA79F97900230093134605
:101030003A680D4807F05EFDF860FB68BB60BB686E
:10104000002B02D0B86804F057FE00BF054B1B7898
:10105000DBB283F00103DBB2002BF7D100BF103706
:10106000BD4680BDEC2800208433030080B588B0E5
:1010700002AF03460A46FB711346BB7100237B6136
:10108000204B00221A70BA1DF97901230093012325
:101090001D4807F02FFD78617B693B613B69002BA0
:1010A00002D0386904F028FE00BF164B1B78DBB273
:1010B00083F00103DBB2002BF7D17B69002B1BD13E
:1010C000104B00221A7007F10B02F97901230E4828
:1010D00007F038FD78617B69FB60FB68002B02D06C
:1010E000F86804F009FE00BF064B1B78DBB283F002
:1010F0000103DBB2002BF7D1FB7A18461837BD4647
:1011000080BD00BFEC2800208433030080B483B08E
:1011100000AF786039607B681B78002B00D003E05B
:10112000044B01221A7000BF00BF0C37BD465DF8AA
:10113000047B7047EC28002080B586B002AF3A608F
:101140001A460346FB710B46BB7113467B710023A5
:10115000FB60174B00221A70BA1DF9790123009326
:101160000123144807F0C6FCF86000BF104B1B7841
:10117000DBB283F00103DBB2002BF7D1FB68002B5D
:1011800012D10B4B00221A707B79F9793A68094821
:1011900007F0D8FCF86000BF054B1B78DBB283F08A
:1011A0000103DBB2002BF7D100BF1037BD4680BD75
:1011B000EC2800208433030080B485B000AF786051
:1011C000254BFB607B68002B40D0244B1A68F968E4
:1011D0007B6800BF00BF00BF00BF00BF00BF00BFF3
:1011E00000BF8A422FD000BF00BF00BF00BF00BFBA
:1011F00000BF00BF00BF00BF00BF00BF00BF00BFF7
:1012000000BF00BF00BF00BF00BF00BF00BF00BFE6
:1012100000BF00BF00BF00BF00BF00BF00BF00BFD6
:1012200000BF00BF00BF00BF00BF00BF00BF00BFC6
:1012300000BF00BF00BF00BF00BF00BF00BF00BFB6
:1012400000BF00BF00BF013BC3D17B6000BF1437AC
:10125000BD465DF8047B70470024F4001C26002086
:1012600080B582B000AF78607B684FF47A7202FB81
:1012700003F31846FFF7A0FF00BF0837BD4680BD47
:1012800080B582B000AFD0217620FFF7EFFE034695
:10129000FB71FB791A460C49002011F051F9FB79DA
:1012A000602B0DD1B622E0217620FFF77DFE642071
:1012B000FFF7D6FF762000F009F86420FFF7D0FF93
:1012C00000BF0837BD4680BD8C33030080B582B0B7
:1012D00000AF0346FB717A4B1B7803F00703DAB2C9
:1012E000FB79F2211846FFF75FFE764B1B785B0116
:1012F0005AB2754B1B789B005BB213435AB2734BC7
:101300001B785BB213435BB2DAB2FB79F421184667
:10131000FFF74AFE6E4B1B785B015AB26D4B1B7890
:101320009B005BB213435BB2DAB2FB79F52118463E
:10133000FFF73AFEF8791A23674A8821FFF7FCFE87
:10134000654B5B781B021AB2634B1B781BB21343CD
:101350001BB29AB2614B1A805F4BDB781B021AB248
:101360005D4B9B781BB213431AB25D4B1A805A4BEC
:101370005B791B021AB2584B1B791BB213431AB28A
:10138000584B1A80544BDB791B021AB2524B9B7993
:101390001BB213431BB29AB2534B1A804E4B5B7A6B
:1013A0001B021AB24C4B1B7A1BB213431AB24F4B9F
:1013B0001A80494BDB7A1B021AB2474B9B7A1BB24D
:1013C00013431AB24A4B1A80434B5B7B1B021AB27F
:1013D000414B1B7B1BB213431AB2464B1A803E4B48
:1013E000DB7B1B021AB23C4B9B7B1BB213431AB232
:1013F000414B1A80384B5B7C1B021AB2364B1B7C6C
:101400001BB213431AB23D4B1A80334BDB7C1B02D9
:101410001AB2314B9B7C1BB213431AB2384B1A8061
:101420002D4B5B7D1B021AB22B4B1B7D1BB2134352
:101430001AB2344B1A80284BDB7D1B021AB2264BA2
:101440009B7D1BB213431AB22F4B1A80224B5A7E3C
:101450002E4B1A70F87907232D4AE121FFF76CFE15
:101460002B4B5B781B021AB2294B1B781BB2134320
:101470001AB2284B1A80264B9A78274B1A70244BA5
:10148000DB781A02224B1B791B01DBB213431B11C1
:101490009AB2224B1A801E4B5B791A021C4B1B79A5
:1014A00003F0F00313431B119AB21D4B1A80184B23
:1014B0009A791C4B1A7000BF0837BD4680BD00BF2B
:1014C000CB250020CC250020CA250020CD250020DA
:1014D000CF250020CE250020BC370020AA370020D1
:1014E000AE3700200E380020F4370020D637002019
:1014F000F6370020D8370020EC37002010380020C5
:10150000A8370020F83700200C380020B037002022
:10151000E0370020123800200A380020AC370020C5
:1015200008380020E737002090B583B000AF78601E
:101530000823424AF7217620FFF7FEFD3F4B1B7838
:101540001A043E4B5B781B0213433C4A92781343C8
:101550001B091A463A4B1A60384BDB781A04374B92
:101560001B791B021343354A527913431B091A4650
:10157000334B5A60314B9B791B021AB22F4BDB79EC
:101580001BB213431BB29BB21A462D4B9A602C4BD5
:101590005B682C4A13602B4B1B68DA102A4B1B88A4
:1015A0005B00D31A294AB2F9002002FB03F3DB12D5
:1015B000274A1360234B1B681B11234A12889B1A6E
:1015C000204A1268121120490988521A02FB03F3BB
:1015D0001B13204AB2F9002002FB03F39B131E4A9F
:1015E00013601B4B1A681C4B1B6813441B4A136087
:1015F000134B1A68194B1B681946104600F0AAF8DD
:1016000003461A467B681A607B681C1D134B1B68D7
:10161000184600F08DF8034623607B6803F1080448
:10162000074B9A680D4B1B681946104600F018F8D6
:101630000346236000BF0C37BD4690BDF028002054
:10164000FC370020E8370020AA370020AE37002002
:10165000B43700200E380020F03700201838002062
:1016600080B485B000AF786039603B68A3F59633ED
:10167000FB607B689A03284B1B881B05D21A274BFB
:101680001B881946FB6803FB01F3D31A03F580435B
:10169000DB13234A12781146FA6802FB01F2921218
:1016A000204909780846F96801FB00F1C91201F5E3
:1016B000004101FB02F2921202F500121A49B1F93F
:1016C000001001FB02F202F50052921302FB03F339
:1016D000FB60FB68DB13FA68D21302FB03F3DB1138
:1016E000124A127802FB03F31B11FA68D31AFB604B
:1016F000FB6823EAE373FB60FB68B3F1C85FA8BF34
:101700004FF0C853FB60FB681B1318461437BD46E7
:101710005DF8047B704700BFAC370020083800201C
:10172000E73700200A38002012380020B0370020A8
:1017300080B485B000AF78607A6813469B0013448C
:1017400080331B12FB60FB6818461437BD465DF8FA
:10175000047B704780B483B000AF786039603B6829
:101760005B10A3F57A435A4A1360594B1B689B10D0
:10177000574A1268921002FB03F3DB12554AB2F982
:10178000002002FB03F3544A1360544BB3F90030BA
:101790001A464F4B1B6803FB02F35A004E4B1B6863
:1017A00013444D4A13604C4B1B689A104C4BB3F9D1
:1017B00000301B041344484A13604A4BB3F900300D
:1017C0001946434B1B689B10414A1268921002FB5A
:1017D00003F35B1303FB01F3DA10434BB3F900305F
:1017E00019463B4B1B6803FB01F35B1013449B142E
:1017F000374A1360364B1B6803F500433B4A128897
:1018000002FB03F3DB13324A1360314B1B68002BDE
:1018100001D1002356E07B685B422F4A1268121305
:101820009B1A40F6354202FB03F303F1434303F5F1
:10183000A0032F4A13602E4B1B68002B09DB2C4B97
:101840001B685B00224A1268B3FBF2F3284A13605C
:1018500008E0274B1B681E4A1268B3FBF2F35B00DB
:10186000234A1360234BB3F900301946204B1B6801
:10187000DB081F4A1268D20802FB03F35B0B03FB71
:1018800001F31B13124A1360194B1B689B081A467D
:10189000194BB3F9003003FB02F35B130E4A1360DC
:1018A0000B4B1A680C4B1B681344144AB2F9002006
:1018B00013441B110E4A126813441A460C4B1A604B
:1018C0000B4B1B6818460C37BD465DF8047B704710
:1018D000B837002010380020DC370020EC3700201B
:1018E000D8370020F6370020D6370020F437002004
:1018F000143800200C380020F8370020A8370020CA
:1019000080B588B000AF184A3B1D07CA03C31A70E0
:101910001649002007F008FFF861FB69BB61BB694D
:10192000002B02D0B86904F0E7F93B1D19460020EE
:1019300007F062FFF861FB697B617B69002B02D0D5
:10194000786904F0D9F90121094807F0B1FFF8617D
:10195000FB693B613B69002B02D0386904F0CCF98C
:1019600000BF2037BD4680BDAC33030075190200AF
:10197000F828002080B584B000AF78607B681B78C1
:10198000002B3BD17B685B680121184607F090FF74
:10199000F860FB68BB60BB68002B02D0B86804F03D
:1019A000ABF97B685B68B3F9003007EE903AB8EEAC
:1019B000E77ADFED146AC7EE267A134BC3ED007A9F
:1019C000114BD3ED007A9FED117A67EE877A9FED88
:1019D000107A67EE877A0C4BC3ED007A0A4BD3ED91
:1019E000007A9FED0C7A67EE877AFCEEE77AC7ED16
:1019F000007A3B889BB21AB2074B1A8000BF10379F
:101A0000BD4680BD00008045FC28002085EBB13F2D
:101A1000333353400000C8420029002080B400AF97
:101A2000034BB3F900301846BD465DF8047B7047A0
:101A30000029002080B485B000AF7860254BFB60A2
:101A40007B68002B40D0244B1A68F9687B6800BF84
:101A500000BF00BF00BF00BF00BF00BF00BF8A4281
:101A60002FD000BF00BF00BF00BF00BF00BF00BF3E
:101A700000BF00BF00BF00BF00BF00BF00BF00BF6E
:101A800000BF00BF00BF00BF00BF00BF00BF00BF5E
:101A900000BF00BF00BF00BF00BF00BF00BF00BF4E
:101AA00000BF00BF00BF00BF00BF00BF00BF00BF3E
:101AB00000BF00BF00BF00BF00BF00BF00BF00BF2E
:101AC00000BF013BC3D17B6000BF1437BD465DF84A
:101AD000047B70470024F4001C26002080B582B0EF
:101AE00000AF78607B684FF47A7202FB03F318460C
:101AF000FFF7A0FF00BF0837BD4680BD90B585B099
:101B000000AF074B3C460FCB84E80F00394600235B
:101B10000022044805F0E0F800BF1437BD4690BD30
:101B2000C0330300B833030080B582B002AF104B5E
:101B30009F221A70042200210E48FDF709FC04239D
:101B400000930C4B01220A490B4805F089F9094B17
:101B50005B781A46074B9B781946064BDB78009357
:101B60000B460649002010F0EBFC00BFBD4680BDCF
:101B70000429002010290020B8330300D0330300CB
:101B800080B582B002AF022200210E48FDF7E0FBD3
:101B90000D4B05221A70022300930A4B01220A49B9
:101BA0000A4805F05DF9074B5B785B08DBB203F090
:101BB0000103002B01D1002300E001231846BD469C
:101BC00080BD00BF0C29002004290020B833030089
:101BD00080B582B002AF022200210D48FDF7B8FBAC
:101BE0000C4B05221A7002230093094B012209496C
:101BF000094805F035F9064B5B7803F00103002B2B
:101C000001D0012300E000231846BD4680BD00BF7F
:101C10000C29002004290020B833030080B586B0C9
:101C200002AF03463960FB80FB881B01BB60194B88
:101C300003221A70BB681B14DAB2164B5A70BB68C9
:101C40001B12DAB2134B9A70BB68DAB2114BDA701E
:101C5000142200211048FDF77BFB142300930E4B48
:101C600004220C490D4805F0FBF80423FB810AE02F
:101C7000FB89043B3A681344FA8907498A5C1A7065
:101C8000FB890133FB81FB89132BF1D91037BD464A
:101C900080BD00BF08290020A0290020B833030020
:101CA00080B586B002AF03463960FB80FB88B3F590
:101CB000805F80F0928000F041F9034683F00103D9
:101CC000DBB2002B40F08B80FFF782FF0346002B36
:101CD00040F08780FB88184600F08EF8034683F0BA
:101CE0000103DBB2002B7ED1FB88184600F0F6F82A
:101CF000B860842200213E48FDF72AFB3C4B0222BB
:101D00001A70BB681B14DAB2394B5A70BB681B12CD
:101D1000DAB2374B9A70BB68DAB2354BDA7000230F
:101D2000FB810423FB810AE0FB89FA89043A3968C4
:101D30000A4411782E4AD154FB890133FB81FB8977
:101D4000832BF1D9002300930023842228492948BA
:101D500005F086F80023FB810AE01420FFF7BEFEA1
:101D6000FFF736FF0346002B06D0FB890133FB81CA
:101D7000FB89092BF1D900E000BF0023FB810AE0B9
:101D80001420FFF7ABFE00F0D9F80346002B06D174
:101D9000FB890133FB81FB89092BF1D900E000BFEE
:101DA000134B8022DA700423FB810AE0FB89FA8955
:101DB0007C3239680A4411780D4AD154FB890133C9
:101DC000FB81FB89832BF1D900230093002384221C
:101DD0000749084805F044F806E000BF04E000BFEA
:101DE00002E000BF00E000BF1037BD4680BD00BF6D
:101DF0001C290020B833030080B586B002AF03462B
:101E0000FB80FB88B3F5805F01D3002340E0042210
:101E100000212148FDF79CFA082200211F48FDF708
:101E200097FAFB88184600F059F8F8601A4B03221D
:101E30001A70FB681B14DAB2174B5A70FB681B123E
:101E4000DAB2154B9A70FB68DAB2134BDA700823DA
:101E50000093124B04221049114805F001F80F4B72
:101E60001B799AB20D4B5B799BB213449AB20B4B20
:101E70009B799BB213449AB2084BDB799BB2134413
:101E80007B817B89B3F57F7F01D1012300E00023B3
:101E900018461037BD4680BD0829002014290020AF
:101EA000B833030080B582B000AF0023FB800BE0A5
:101EB000FB881846FFF7A0FF0346002B01D0FB88E4
:101EC00008E0FB880133FB80FB88B3F5805FEFD32C
:101ED0004FF4805318460837BD4680BD80B483B0A8
:101EE00000AF78607B681B0218460C37BD465DF872
:101EF000047B704780B582B002AF00F01FF8FFF797
:101F000067FE0C4BC7221A700023009300230122A6
:101F10000849094804F0A4FF03E040F2DC50FFF751
:101F2000DDFDFFF755FE0346002BF6D100BFBD4691
:101F300080BD00BF04290020B833030080B584B001
:101F400002AF0023FB710D4B06221A700023009391
:101F50000023012209490A4804F082FFFFF710FE1E
:101F60000346002B02D00123FB7101E00023FB712B
:101F7000FB7918460837BD4680BD00BF0429002004
:101F8000B833030080B582B000AF00233B7150230B
:101F90007B710023BB713B1D032219461020FFF704
:101FA00037F800BF0837BD4680BD80B584B000AFAC
:101FB000786000233B7300237B7307F10C0202233C
:101FC00008211020FFF7B8F87B7B1B021AB23B7B7D
:101FD0001BB213431BB29AB27B681A8007F10C0242
:101FE000022309211020FFF7A7F87B6802337A7BD0
:101FF000120211B23A7B12B20A4312B292B21A80A2
:1020000007F10C0202230A211020FFF795F87B68E4
:1020100004337A7B120211B23A7B12B20A4312B233
:1020200092B21A8007F10C0202230B211020FFF755
:1020300083F87B6806337A7B120211B23A7B12B2C4
:102040000A4312B292B21A8000BF1037BD4680BD5B
:1020500080B485B000AF7860254BFB607B68002BB7
:1020600040D0244B1A68F9687B6800BF00BF00BFEE
:1020700000BF00BF00BF00BF00BF8A422FD000BF1B
:1020800000BF00BF00BF00BF00BF00BF00BF00BF58
:1020900000BF00BF00BF00BF00BF00BF00BF00BF48
:1020A00000BF00BF00BF00BF00BF00BF00BF00BF38
:1020B00000BF00BF00BF00BF00BF00BF00BF00BF28
:1020C00000BF00BF00BF00BF00BF00BF00BF00BF18
:1020D00000BF00BF00BF00BF00BF00BF00BF013B8B
:1020E000C3D17B6000BF1437BD465DF8047B7047E9
:1020F0000024F4001C26002080B582B000AF786078
:102100007B684FF47A7202FB03F31846FFF7A0FFD7
:1021100000BF0837BD4680BD80B582B000AF00214A
:102120001820FEF7A3FF0346FB71FB791A461549F9
:10213000002010F005FA0223BB710E237B710023EF
:102140003B710E23FB70BB791A460F211820FEF756
:102150002BFF7B791A4610211820FEF725FF3B79CB
:102160005B015AB2FB785B005BB213435BB2DBB23C
:102170001A4611211820FEF717FF00BF0837BD4689
:1021800080BD00BFF833030080B582B000AF0823E4
:10219000FB710223BB710E237B71FB791A46102160
:1021A0001820FEF701FFBB795B015AB27B795B0017
:1021B0005BB213435BB2DBB21A4611211820FEF763
:1021C000F3FE00BF0837BD4680BD80B584B000AFC8
:1021D000786007F10802062302211820FEF7ACFF01
:1021E0007B7A1B021AB23B7A1BB213431AB27B688A
:1021F0001A807B680233FA7A120211B2BA7A12B2EA
:102200000A4312B21A807B6804337A7B120211B23D
:102210003A7B12B20A4312B21A8000BF1037BD4691
:1022200080BD000080B586B000AF5E49002010F090
:1022300087F940F6B830FFF75FFF5B4B7B612122E7
:1022400037211820FEF7B0FE202236211820FEF795
:10225000ABFE00BF36211820FEF708FF034603F04F
:102260001003DBB2002BF5D0402236211820FEF7F8
:102270009BFE00BF36211820FEF7F8FE034603F050
:102280001003DBB2002BF5D0602236211820FEF7B8
:102290008BFE00BF36211820FEF7E8FE034603F050
:1022A0001003DBB2002BF5D007F10C02022338211A
:1022B0001820FEF741FF7B7B1B027B8207F10C029B
:1022C000022339211820FEF737FF7B7B1B023B825C
:1022D00007F10C0202233A211820FEF72DFF7B7B29
:1022E0001B02FB813149002010F02AF9B7F91230A6
:1022F00007EE903AF8EEE77A9FED2D7A27EE877A8F
:10230000D7ED057A27EE277ADFED2A6AC7EE267A1F
:10231000FDEEE77AC7ED017ABB881BB21A46264963
:10232000002010F00DF9B7F9103007EE903AF8EEF2
:10233000E77A9FED1F7A27EE877AD7ED057A27EEA9
:10234000277ADFED1C6AC7EE267AFDEEE77AC7ED45
:10235000017ABB881BB21A461849002010F0F0F829
:10236000B7F90E3007EE903AF8EEE77A9FED107A63
:1023700027EE877AD7ED057A27EE277ADFED0D6A0B
:10238000C7EE267AFDEEE77AC7ED017ABB881BB26D
:102390001A460B49002010F0D3F800BF1837BD468D
:1023A00080BD00BF183403000000FA404834030029
:1023B0000000C84200008043643403007C34030002
:1023C00094340300A0DF704700BF1846A2DF7047B7
:1023D00000BF1846A6DF704700BF184680B483B020
:1023E00000AF786039603B689A887B681A8400BFC8
:1023F0000C37BD465DF8047B704780B483B000AFF6
:10240000786039607B684FF6FF721A8400BF0C3722
:10241000BD465DF8047B704780B584B000AF78603E
:1024200039603B685B89022B17D17B681B68002BE6
:1024300013D03B680C33184609F0E5F90346002B2E
:1024400002D000233B7301E001233B737B681B68D0
:1024500007F10C0211467868984700BF1037BD4657
:1024600080BD80B584B000AF786039603B680633CA
:10247000FB60FB681A887B689B899A4203D1F968E4
:102480007868FFF7C9FF00BF1037BD4680BD80B533
:1024900082B000AF786039603B681B88112B09D08F
:1024A000502B0CD0102B00D00EE039687868FFF765
:1024B00095FF09E039687868FFF79FFF04E0396805
:1024C0007868FFF7CEFF00BF00BF0837BD4680BD6C
:1024D00080B5B8B000AF7860396007F10803032217
:1024E00000211846FCF734FF3B7A012262F3030314
:1024F0003B723B7A012262F307133B723B681B7A03
:102500007B72BB7A012262F34203BB7207F1C40300
:102510001C2200211846FCF71BFF97F8C43043F03B
:10252000100387F8C4303C4BC7F8C8303A4810F065
:10253000B3FD03469BB2A7F8CE30374810F0ACFD90
:1025400003469BB2A7F8CC300023C7F8D030002355
:10255000C7F8D43007F10803C7F8D8300023C7F80C
:10256000DC30012387F8AE3042F64A23A7F8AC30BE
:1025700007F1A803032200211846FCF7E9FE3B6897
:102580005B7A87F8A8303B689B7A87F8A93097F880
:10259000AA30012262F3420387F8AA3097F8AA30E2
:1025A0006FF3C30387F8AA3097F8AA306FF30413C8
:1025B00087F8AA3097F8AA3043F0010387F8AA30C9
:1025C00007F1B003142200211846FCF7C1FE07F101
:1025D000AC03C7F8B03007F1A803C7F8B430012343
:1025E000A7F8B8300023A7F8BA309B23A7F8BC306F
:1025F00007F10C03C7F8C0307B6898887B68083304
:1026000007F1B00207F1C401FFF7E0FE03461846E8
:10261000E037BD4680BD00BFD025002080B592B018
:1026200000AF7860396007F10C03032200211846DF
:10263000FCF78EFE3B7B012262F303033B733B7B83
:10264000012262F307133B733B681B7A7B73BB7BEE
:10265000012262F34203BB7307F12C031C22002109
:102660001846FCF775FE97F82C3043F0100387F8F6
:102670002C302F4B3B632E4810F00EFD03469BB2CF
:10268000FB862B4810F008FD03469BB2BB86002357
:10269000BB630023FB6307F10C033B6400237B64F3
:1026A0000123BB7542F64C23BB8207F110030322C2
:1026B00000211846FCF74CFE3B689B7B3B743B6853
:1026C000DB7B7B74BB7C012262F34203BB74BB7C6B
:1026D0006FF3C303BB74BB7C6FF30413BB74BB7C8D
:1026E00043F00103BB7407F11803142200211846BC
:1026F000FCF72EFE07F11403BB6107F11003FB6129
:1027000001233B8400237B840123BB840C23BB6215
:102710007B6898887B68183307F1180207F12C0151
:10272000FFF754FE034618464837BD4680BD00BF3C
:10273000E025002080B590B000AF7860396007F1E7
:1027400024031C2200211846FCF702FE97F82430CF
:1027500043F0080387F8243097F824306FF382039E
:1027600087F824302E4BBB622D4810F095FC0346B1
:102770009BB2FB852A4810F08FFC03469BB2BB85B9
:1027800000233B6300237B630023BB630023FB63C5
:102790000123BB7342F64B23BB8107F108030322DD
:1027A00000211846FCF7D4FD3B68DB7A3B723B689E
:1027B0001B7B7B72BB7A012262F34203BB72BB7A42
:1027C0006FF3C303BB72BB7A6FF30413BB72BB7AA4
:1027D0006FF30003BB7207F11003142200211846A7
:1027E000FCF7B6FD07F10C033B6107F108037B61C1
:1027F00001233B8300237B830123BB8300233B62B4
:102800007B6898887B68103307F1100207F1240178
:10281000FFF7DCFD034618464037BD4680BD00BFCC
:10282000F825002080B584B000AF786039603B683F
:102830001A687B681A603B681A7C7B689A717B68AF
:102840004FF6FF721A847B689B2283F822200123B3
:10285000BB7241F60D033B817B681A1D07F108032B
:1028600019460120FFF7AEFDF860FB68002B01D090
:10287000FB681EE039687868FFF72AFEF860FB689D
:10288000002B01D0FB6814E039687868FFF752FF2D
:10289000F860FB68002B01D0FB680AE039687868B3
:1028A000FFF7BCFEF860FB68002B01D0FB6800E07E
:1028B000002318461037BD4680BD80B5B0B000AFCC
:1028C000786039607B681B8C4FF6FF72934256D05C
:1028D0001123A7F8B83000233B72012387F8BB30DF
:1028E00011E097F8BB3097F8BB20013A39680A44E9
:1028F000127807F1C0010B4403F8B82C97F8BB30ED
:10290000013387F8BB3097F8BB309BB2B7F8B820DB
:102910009A42E6D8B7F8B830A7F8B63007F1A40362
:10292000102200211846FCF713FD7B681B89A7F8CD
:10293000A430012387F8A6300023A7F8A83007F1B8
:10294000B603C7F8AC3007F10803C7F8B0307B68AE
:102950001B8C07F1A40211461846FFF73BFDC7F890
:10296000BC00D7F8BC30002B0CD1B7F8B630B7F8A4
:10297000B8209A4206D00C23C7F8BC3002E00823E6
:10298000C7F8BC30D7F8BC301846C037BD4680BD4C
:1029900080B58AB000AF78600B46FB707B681B8CFB
:1029A0004FF6FF7293422AD0FB7887F8203001233C
:1029B000FB8307F10C03102200211846FCF7C8FC2A
:1029C0007B681B8BBB810123BB7300233B8207F118
:1029D0001E037B6107F12003BB617B681B8C07F141
:1029E0000C0211461846FFF7F5FC78627B6A002B53
:1029F00007D1FB8B012B04D00C237B6201E0082361
:102A00007B627B6A18462837BD4680BD80B483B0A0
:102A100000AF786039607B681A8C3B685B889A42AB
:102A20000DD13B681B8840F67722934207D13B6863
:102A30009B88DBB2033BDAB27B6883F8222000BFBD
:102A40000C37BD465DF8047B7047000080B588B048
:102A500000AF78600023FB774BE02A4B1A68FB7FBE
:102A6000DB001344BB61BB691B781A46012393400A
:102A70007B61254B1A687B691340002B36D07B693C
:102A8000DA43214B1B6813401F4A1360BB691B7854
:102A9000184605F0DDF80346FB74BB691B781A463F
:102AA000012393401A46194B1B681340FA7CB969FD
:102AB00009788A40934219D1FB7CBA695278012A7D
:102AC0000CBF01220022D2B293420CBF012300238B
:102AD000DBB2FB60BB695B68002B07D0BB695B683E
:102AE000BA691278F968C9B210469847FB7F01337A
:102AF000FB77074B1B78FA7F9A42AED300BF203793
:102B0000BD4680BDB4290020E4290020E029002032
:102B1000B829002080B584B000AF78600B46FB7008
:102B200001227B6802FA03F3FB601E4B184600F09B
:102B3000E3FEB860BB68002B30D11B4B1A68FB6802
:102B40001340002B22D1786805F082F80346002B51
:102B500006D0164B1A68FB681343144A136006E04C
:102B6000FB68DA43114B1B681340104A13600E4B8D
:102B70001A68FB6813430C4A13600A480C4B1B6825
:102B80000022194600F084FEB86008E0FB68DA43D2
:102B9000054B1B681340044A136000E000BF103768
:102BA000BD4680BDC0290020E4290020E029002086
:102BB000BC29002080B588B000AFF8600B467A6071
:102BC000FB727B68042B01D8072349E004F06CFFFB
:102BD000034683F00103DBB2002B07D004F024FF8F
:102BE000F861FB69002B01D0FB6939E01E4AFB68E4
:102BF00013601E4AFB7A13701D4A7B6813601D4BDD
:102C000000221A601C4B00221A601EE0FB7ADB00D7
:102C1000FA681344BB6103233B7500237B750023D3
:102C2000BB750023FB75BB699B787B75BB691B7803
:102C3000184607F11403114A194604F047FFF861DA
:102C4000FB69002B01D0FB690AE0FB7A5A1EFA727D
:102C5000002BDBD10A4A00210A4800F0E5FD0346BB
:102C600018462037BD4680BDB4290020B829002071
:102C7000BC290020E0290020E4290020152B0200B7
:102C80004D2A0200AC34030080B582B000AF0023AF
:102C90007B600CE00B4B1A687B68DB0013441B78ED
:102CA0000121184604F06CFF7B6801337B60064B02
:102CB0001B781A467B689A42ECD8002318460837DE
:102CC000BD4680BDB4290020B829002080B483B05F
:102CD00000AF0346FB71094997F907305B09FA79A0
:102CE00002F01F02012000FA02F241F8232000BF87
:102CF0000C37BD465DF8047B704700BF00E100E083
:102D000080B483B000AF0346FB71094997F90730DF
:102D10005B09FA7902F01F02012000FA02F2203367
:102D200041F8232000BF0C37BD465DF8047B704797
:102D300000E100E080B483B000AF0346FB710949B5
:102D400097F907305B09FA7902F01F02012000FAB7
:102D500002F2403341F8232000BF0C37BD465DF836
:102D6000047B704700E100E080B483B000AF03460D
:102D7000FB71094997F907305B09FA7902F01F02E4
:102D8000012000FA02F2603341F8232000BF0C3723
:102D9000BD465DF8047B704700E100E080B483B07D
:102DA00000AF03463960FB7197F90730002B0BDA4F
:102DB0000D49FB7903F00F03043B3A68D2B252018C
:102DC000D2B20B441A7609E0084997F907303A68FD
:102DD000D2B25201D2B20B4483F8002300BF0C37A9
:102DE000BD465DF8047B704700ED00E000E100E0C7
:102DF00080B485B000AF7860254BFB607B68002B0A
:102E000040D0244B1A68F9687B6800BF00BF00BF40
:102E100000BF00BF00BF00BF00BF8A422FD000BF6D
:102E200000BF00BF00BF00BF00BF00BF00BF00BFAA
:102E300000BF00BF00BF00BF00BF00BF00BF00BF9A
:102E400000BF00BF00BF00BF00BF00BF00BF00BF8A
:102E500000BF00BF00BF00BF00BF00BF00BF00BF7A
:102E600000BF00BF00BF00BF00BF00BF00BF00BF6A
:102E700000BF00BF00BF00BF00BF00BF00BF013BDD
:102E8000C3D17B6000BF1437BD465DF8047B70473B
:102E90000024F4001C26002080B582B000AF7860CA
:102EA000054A7B68C2F8083507211120FFF776FF35
:102EB00000BF0837BD4680BD0010014080B500AF9F
:102EC0000D4B4FF48032C3F844230B4B4FF4803248
:102ED000C3F804231120FFF747FF1120FFF7F6FE88
:102EE000054B01221A602F20FFF782FF034B0122BE
:102EF0001A7000BF80BD00BF00100140062B0020EB
:102F000080B500AF1120FFF7FBFE0F4B4FF480326E
:102F1000C3F848230C4B4FF48032C3F808230A4B04
:102F200001225A602F20FFF763FF074B01229A60AE
:102F3000064B00221A602F20FFF75AFF044B002295
:102F40001A7000BF80BD00BF00100140F82A0020A9
:102F5000062B002080B400AF034BD3F8043518468D
:102F6000BD465DF8047B70470010014080B483B01B
:102F700000AF786039607A683B68D31A23F07F43EA
:102F800018460C37BD465DF8047B704780B483B0AB
:102F900000AF7860044A7B68C2F8403500BF0C3748
:102FA000BD465DF8047B70470010014080B487B0D7
:102FB00000AF7860294B1B68002B03D1274A7B6840
:102FC000136045E07B681A68244B1B681B689A42B3
:102FD00010D8224B1B68214A126811687A6812685F
:102FE0008A1A1A601D4B1A687B68DA611B4A7B6873
:102FF00013602DE07B681B68FB60184B1B687B61CE
:10300000164B1B683B6109E03B691B68FA68D31AE1
:10301000FB603B697B613B69DB693B613B69002B82
:1030200004D03B691A68FB689A42EDD33B69002BD8
:1030300005D03B691A68FB68D21A3B691A607B6845
:10304000FA681A607B683A69DA617B697A68DA61E2
:1030500000BF1C37BD465DF8047B7047F42A002092
:1030600080B586B000AF7860294B1B68FB60284BA9
:103070001B687B617B693B6108E03A697B689A4227
:1030800008D03B697B613B69DB693B613B69002B95
:10309000F3D100E000BF3B69002B01D1002333E0F6
:1030A0007A693B699A4214D1194B1B68DB69184A4B
:1030B0001360174B1B68002B0BD1164B01229A6033
:1030C000154B00221A60154B01221A702F20FFF7B2
:1030D0008FFE3B691B68BB603B69DA697B69DA611B
:1030E0007B69DB693B613B69002B05D03B691A6852
:1030F000BB681A443B691A60054B1B68FA689A4220
:1031000014BF01230023DBB218461837BD4680BD2B
:10311000F42A002000100140F82A0020072B00208C
:1031200080B500AF1120FFF705FE00BF80BD80B560
:1031300000AF1420FFF7FEFD00BF80BD80B582B058
:1031400000AF78607B685B697A689269104698473F
:1031500000BF0837BD4680BD80B584B000AF2B4BA3
:103160001B68002B4ED000237B60FFF7F3FE024666
:10317000274B1B6819461046FFF7F8FEB860234B33
:103180001B68FB601DE0FB681A68BB689A421CD88C
:10319000FB681B68BA68D31ABB60FB681B687A6857
:1031A00013447B60FB683B60FB68DB69FB603B684A
:1031B0001B7C002B05D03B6800221A743868FFF78F
:1031C000BDFFFB68002BDED100E000BF114B1A7879
:1031D000114B1B789A420CD10F4B1B780133DAB29A
:1031E0000D4B1A700C4B1B78022B02D10A4B00229C
:1031F0001A70094B1B781946084A7B6842F821303F
:10320000FFF795FF00BF1037BD4680BDF42A0020B0
:10321000F82A0020042B0020052B0020FC2A002087
:1032200080B483B000AF7860194B1A78194B1B78C3
:103230009A4223D0164B1B780133DAB2144B1A7022
:10324000134B1B78022B02D1114B00221A70104B2A
:103250001B781A46104B53F822207B681A607B6853
:103260001A680E4B1B6813440C4A13600B4B1B6807
:1032700023F07F43094A1360012303E07B680022A7
:103280001A60002318460C37BD465DF8047B704772
:10329000042B0020052B0020FC2A0020F82A002007
:1032A00080B489B000AFF860B9607A600023FB6138
:1032B00038E0214B1B68BB61BB691A68FB689A4206
:1032C00006D9BB691A68FB68D21ABB691A602DE07F
:1032D000BB691B68FA68D31AFB60BB691B68FA6993
:1032E0001344FB61BB6900221A60134B1B687B61AE
:1032F000BB69DB69104A1360BB69DB68002B11D026
:10330000BA68FB69134423F07F42BB695A60BB690A
:10331000DA68BB699A607B681A68BB69DA617B68A6
:103320007A691A60044B1B68002BC2D100BF243796
:10333000BD465DF8047B7047F42A002080B588B054
:1033400000AF78600023FB77654B1B687B61A9E0C9
:103350007B68002B05D07B68BB61BB69DB697B6048
:1033600060E0604B1B781A4613465B001344DB0099
:103370005C4A134404333B615A4B1B780133DAB285
:10338000584B1A70574B1A78564B9B789A4202D179
:10339000544B00221A703B695B68BB613B691B7828
:1033A000022B04D0032B1AD0012B1ED01CE03B694A
:1033B0005B681846FFF754FE0346002B01D001233B
:1033C000FB77BB6900221A746CE0454B1B68FB60FD
:1033D000FB6800221A74FB68DB69414A1360404BAA
:1033E0001B68002BF1D15DE05CE000BFBB691B7C7A
:1033F000002B00D056E03B699A68BB695A603B6974
:10340000DA68BB699A603B691A69BB69DA603B6933
:103410005A69BB699A61344B1B78002B02D0BB6997
:1034200000225A60BB695A68304B1B68D31A23F0DC
:103430007F432F4A93420ED8BB695A682B4B1B68B7
:1034400019461046FFF792FD0246BB699B681A4475
:10345000BB691A6017E0254B1A68BB695B6819469F
:103460001046FFF783FDB860BB699A68BB689A4253
:1034700006D9BB699A68BB68D21ABB691A6002E0B8
:10348000BB6900221A60BB6900225A60BB69002236
:103490009A60BB6901221A74BB690022DA61B869BB
:1034A000FFF784FD7B68002B7FF452AF0D4B1A7839
:1034B0000C4B5B789A427FF44BAFFB7F002B04D11F
:1034C000074B1A687B699A4201D0012300E0002370
:1034D00003F00103DBB218462037BD4680BD00BFB4
:1034E000F42A0020E8290020072B0020F82A0020D9
:1034F000FEFF7F0090B589B000AF7860274B1B6856
:10350000002B44D0254B1B681B68FB61FFF722FD95
:10351000B861234B1B687B617969B869FFF726FDA9
:10352000034603333B611F4B1B7883F00103DBB27F
:10353000002B01D0FFF7C2FC3A69FB69934238BF08
:1035400013467A6913447B617B6923F07F437B6177
:103550007869FFF71BFDFFF7FDFCF860B969F868B3
:10356000FFF704FD0346DC1CB9697869FFF7FEFC30
:1035700003469C420DD9FFF7EDFC03461846FFF7C2
:1035800005FD2F20FFF734FCFFF7CAFD01E0FFF730
:10359000B7FC00BF2437BD4690BD00BFF42A002011
:1035A000F82A0020062B002080B586B000AF00234B
:1035B0007B600023FB75164B1B683B61154B1B683A
:1035C000FB603B461846FFF72BFE0346FB72FB7A77
:1035D000002B07D03B683A1D39691846FFF760FE9B
:1035E0000123FB757B681846FFF7A8FE0346002BF6
:1035F00001D00123FB75FB7D002B02D0F868FFF79B
:1036000079FF054B00221A7000BF1837BD4680BDF8
:10361000F82A0020F42A0020072B002080B483B071
:1036200000AF0346FB71044AFB79537000BF0C37AF
:10363000BD465DF8047B7047E829002080B485B062
:1036400000AF7860134B5B780133FB73114B9B78B1
:10365000FA7B9A4201D10023FB730E4B1B78FA7B55
:103660009A4201D100230EE07B68FA7B1A70094B65
:103670005B781A4613465B001344DB00054A13448B
:103680000433BB60BB6818461437BD465DF8047B45
:10369000704700BFE829002080B588B000AFF8600F
:1036A000B9607A603B600023FB61002002F07EFB82
:1036B00007F117031846FFF7C1FFB861BB69002B7C
:1036C00002D10423FB6117E0BB6901221A70BB69B8
:1036D000FA685A60FFF73EFC0246BB699A60BB6914
:1036E000BA68DA60BB697A681A61BB693A685A617C
:1036F000FB7D1846FFF792FF002002F061FBFB699B
:10370000002B01D1FFF713FDFB6918462037BD469A
:1037100080BD80B586B000AF78600B46FB7000239B
:103720007B61002002F042FB07F10F031846FFF710
:1037300085FF38613B69002B02D104237B6109E0DE
:103740003B69FA781A703B697A685A60FB7B1846C5
:10375000FFF764FF002002F033FB7B69002B01D1EF
:10376000FFF7E5FC7B6918461837BD4680BD0000B1
:1037700080B500AF0D4B0022C3F840210B4B002257
:10378000C3F84421094B0022C3F84821074B00220B
:10379000C3F84C21054B0022C3F80021034B002243
:1037A000C3F80421FFF7D8FC00BF80BD0010014022
:1037B00080B500AFFFF7F8FE00BF80BD80B500AF59
:1037C000FFF79EFB134B00221A70124B00225A7017
:1037D000104B0B229A70104B00221A600F4B0022E4
:1037E0001A700F4B00221A701420FFF7BDFA072140
:1037F0001420FFF7D3FA1420FFF768FA0720FFF729
:103800004BFBFFF7A7FB0246064B1A600023184646
:1038100080BD00BFE8290020F42A0020042B0020EE
:10382000052B0020F82A002080B487B000AFF86094
:103830000B467A60FB72154B9B78002B01D1082355
:103840001DE07B68002B01D1072318E0FB68002BEB
:1038500001D1072313E0FB681B681B7C002B01D000
:1038600008230CE0FB681B687B617B6900221A74EB
:103870007B69FA7A5A747B697A685A610023184620
:103880001C37BD465DF8047B704700BFE829002067
:1038900080B586B000AFF860B9607A60FB687B6184
:1038A000144B9B78002B01D108231EE0FB68002BF2
:1038B00001D1082319E0BB68042B01D8072314E0C9
:1038C0007B695B69002B01D108230EE07B695B7C7F
:1038D000012B01D1BB6800E000233B617B683A69A2
:1038E000B9687869FFF7D8FE034618461837BD4611
:1038F00080BD00BFE829002080B584B000AF7860AB
:103900007B68FB600D4B9B78002B01D1082310E0F6
:103910007B68002B03D0FB685B69002B01D1082377
:1039200007E0FB6800221A740221F868FFF7F1FE35
:10393000034618461037BD4680BD00BFE829002069
:1039400080B483B000AF78607B6803F00303002B82
:103950000CBF01230023DBB218460C37BD465DF8CF
:10396000047B704780B483B000AF0346FB71064B05
:103970001A78FB791343DAB2034B1A7000BF0C3785
:10398000BD465DF8047B7047082B002080B483B0EF
:1039900000AF0346FB7197F90730DB435AB2074B80
:1039A0001B785BB213405BB2DAB2044B1A7000BFF3
:1039B0000C37BD465DF8047B704700BF082B002024
:1039C00080B483B000AF0346FB71084B1A78FB79D3
:1039D0001340DBB2002B14BF01230023DBB21846D7
:1039E0000C37BD465DF8047B704700BF082B0020F4
:1039F00080B584B000AF78600023FB600EE00B4A16
:103A0000FB6852F82330002B05D0084AFB6852F8B7
:103A1000233078689847FB680133FB60FB68072B0D
:103A2000EDD900BF1037BD4680BD00BF0C2B002074
:103A300080B483B000AF786039607B681B78013B4D
:103A4000052B5BD801A252F823F000BF653A0200B3
:103A50006D3A02008D3A0200BF3A0200DF3A0200DE
:103A6000F53A02003B6800221A7048E03B680122E8
:103A70001A707B681A893B689A817B689A883B68D0
:103A8000DA817B68DA683B689A6038E03B6802223A
:103A90001A707B681A893B689A817B689A883B68B0
:103AA000DA817B68DA683B689A607B681B7C062B4E
:103AB0000CBF01230023DAB23B681A741FE03B6895
:103AC00003221A707B68DA883B689A817B681A89BE
:103AD0003B68DA817B68DA683B689A600FE03B6894
:103AE00004221A707B68DA883B689A813B6800225E
:103AF000DA8104E03B6805221A7000E000BF00BFD5
:103B00000C37BD465DF8047B704700BF80B483B0BE
:103B100000AF78607B689B884FF6FF72934205D0B8
:103B20007B681B88002B01D0012300E0002303F0F9
:103B30000103DBB218460C37BD465DF8047B7047C5
:103B400080B582B000AF78607B68002B11D00D4B40
:103B50001A687B689A420CD80A4B5A687B689A426A
:103B600007D37868FFF7ECFE0346002B01D0012352
:103B700000E0002303F00103DBB218460837BD461E
:103B800080BD00BF2C26002080B584B000AF7860D7
:103B900039600023FB6012E0FB68DB007A681344A5
:103BA0001B681846FFF7CCFE034683F00103DBB227
:103BB000002B01D0002307E0FB680133FB60FA68AB
:103BC0003B689A42E8D3012318461037BD4680BDB2
:103BD00080B483B000AF78607B681B680C4A934266
:103BE00001D003230DE07B6804331B68094A93422C
:103BF00004D0094A934203D1012302E0002300E0EC
:103C0000032318460C37BD465DF8047B704700BFA0
:103C1000DEC0ADDEFE011EF1FF011EF180B485B0F5
:103C200000AF78600023FB600CE0FB689B007A68C3
:103C300013441B68B3F1FF3F01D0002307E0FB688A
:103C40000133FB60FB68B3F5806FEED301231846A8
:103C50001437BD465DF8047B7047000080B483B024
:103C600000AF03460A46FB801346BB80FB880F4A21
:103C70001B01134408331A88BB881344BB80FB889C
:103C80000A4A1B0113440A331A88BB881344BB80B9
:103C9000BB8840F2FF32934294BF01230023DBB282
:103CA00018460C37BD465DF8047B7047F02B0020AA
:103CB00080B485B000AF786039600A23FB600023D0
:103CC0007B811CE07B89134A1B01134404331A686F
:103CD0003B689A4210D27B890E4A1B01134404337D
:103CE0001B6803F580523B689A4205D90023FB60AC
:103CF0007B687A891A8005E07B8901337B817B8927
:103D0000012BDFD9FB6818461437BD465DF8047BEC
:103D1000704700BFF02B002080B588B000AFF8607E
:103D2000B9607A60FB6803F58053BB610023FB77C1
:103D3000FB680833FB60BB6802221A8028E0FB683E
:103D40007B617869FFF7E2FE034683F00103DBB293
:103D5000002B02D00123FB7709E07B699A68164BA0
:103D60001B689A4203D97B699B68134A13607B697D
:103D70005B8803339B00FA681344FB60BB681A88B6
:103D80007B695B8813449BB203339AB2BB681A8089
:103D9000FA68BB699A4204D2FB681B68B3F1FF3F23
:103DA000CDD17B68002B02D07B68FA7F1A7000BFF0
:103DB0002037BD4680BD00BF2C2B002080B483B0CF
:103DC00000AF78600B467B807B681A897B88134440
:103DD0009BB203339AB27B681A817B685A897B88CD
:103DE000D31A9BB2033B9AB27B685A8100BF0C374F
:103DF000BD465DF8047B704780B582B002AF064BCC
:103E00001968002300930223044A054801F04EFE7E
:103E100003461846BD4680BD102C0020B434030074
:103E20002C26002080B584B002AF78600023009378
:103E30000223054A7968054801F038FE0346184612
:103E40000837BD4680BD00BFBC3403002C260020CF
:103E500080B584B000AF03463960FB800023FB735C
:103E6000FB8803337B817B8940F2FD32934201D989
:103E7000092334E00023BB8128E0BB891A4A1B01D7
:103E800013441B78002B1ED17A89BB891146184632
:103E9000FFF7E4FE0346002B15D00123FB733B68BC
:103EA000BA891A80BB89BA890F4912010A440A32B9
:103EB00011887A890A4491B20B4A1B0113440A33D0
:103EC0000A461A8005E0BB890133BB81BB89012BFF
:103ED000D3D9FB7B002B01D0002300E00723184639
:103EE0001037BD4680BD00BFF02B002080B483B0EA
:103EF00000AF03460A46FB801346BB80BB88BA88E6
:103F00000A4912010A440A321188FA888A1A92B2BE
:103F1000033A91B2054A1B0113440A330A461A8038
:103F200000BF0C37BD465DF8047B7047F02B0020C6
:103F300080B400AF054B1B680133044A1360034B88
:103F40001B681846BD465DF8047B70472C2B00208B
:103F500080B584B000AF03463960FB803B681B68C6
:103F6000FB60FB68002B09D0FB68BB60BB685B880B
:103F700003339B00FA681344FB601CE0FB88184A7B
:103F80001B01134404331B680833FB6013E0FB6818
:103F9000BB60B868FFF7BAFD0346002B04D03B684E
:103FA000FA681A60012317E0BB685B8803339B0043
:103FB000FA681344FB60FB88094A1B01134404336D
:103FC0001B6803F58052FB689A4204D9FB681B68A2
:103FD000B3F1FF3FDBD1002318461037BD4680BD4B
:103FE000F02B002080B584B000AF786039607B682A
:103FF0005B681846FFF7A4FD0346002B19D07B68C9
:104000001A89254B1B899A4213D17B681A687B68F1
:104010005B689B689A420CD17B685B68194638687C
:10402000FFF746FE0346002B0CBF01230023DBB243
:104030002DE03B6800221A8024E00023BB6010E0E2
:10404000BB68FB60FB689A687B681B689A4208D172
:10405000BA687B685A60104B1A897B681A81012301
:1040600015E03B681B8807F1080211461846FFF768
:104070006FFF0346002BE3D13B681B8801339AB2E4
:104080003B681A803B681B88012BD6D90023184651
:104090001037BD4680BD00BF182C002080B586B00B
:1040A00000AFF860B9607A603B600220FFF788FCDF
:1040B000034683F00103DBB2002B01D002234FE063
:1040C0007B68002B02D03B68002B44D1052347E0DE
:1040D0003B689B88244A1B0113441B78002B33D177
:1040E00024E03B681B687B61FB68002B06D07B6982
:1040F0009A88FB681B889A4200D017E0BB68002BA7
:1041000006D07B691A88BB681B889A4200D00DE0F4
:104110007B699A687B681A603B681A687B685A609A
:10412000124B1A897B681A81002319E03B689B882F
:104130003A6811461846FFF70BFF0346002BD0D113
:104140003B6800221A6000E000BF3B689B88013397
:104150009AB23B689A803B689B88012BB8D90A23A6
:1041600018461837BD4680BDF02B0020182C0020C3
:1041700080B500AF124B1A6F1346DB009B1A9B00F1
:104180000F4A13441C2200211846FBF7E1F80C4BA0
:104190005B6F002B0BD00A4B1B6F013303F0030343
:1041A000074A1367064B5B6F013B054A5367044B95
:1041B0005B6F002B14BF01230023DBB2184680BDC8
:1041C000302B002080B483B000AF78607B681B6820
:1041D000084A934206D07B681B6803F108027B689B
:1041E0001A6002E07B68044A1A600C37BD465DF82D
:1041F000047B7047E02B0020A82B002080B483B004
:1042000000AF78600E4B5B6C002B12D00C4B1B6C1C
:10421000DB000B4A1A447B681A60094B1B6C0133A4
:1042200003F00703064A1364054B5B6C013B044A29
:10423000536400BF0C37BD465DF8047B704700BF78
:10424000A82B002080B483B000AF78607B681B7817
:10425000022B03D07B681B78032B0DD1094B1B6C01
:104260007A68927D1344074A1364064B5B6C7A6844
:10427000927D9B1A034A536400BF0C37BD465DF81C
:10428000047B7047A82B0020B0B588B000AFF86061
:10429000B9607A600023FB772E4B5B6F032B54D8F9
:1042A0002D4B5A6CBB68C3F108039A424DD8294B79
:1042B0005A6F284B1B6F134403F003037B6125499E
:1042C0007A691346DB009B1A9B00CA18FB681446E8
:1042D0001D460FCD0FC495E8070084E807001D4B6D
:1042E0005B6F01331B4A5367BB68002B2BD01A4B03
:1042F0005A6C194B1B6C134403F007037B617B69F9
:10430000DB00154A13443B610023BB6111E03969AE
:10431000BB69DB007A681A440B4692E8030083E825
:10432000030007F110031846FFF74CFFBB69013388
:10433000BB61BA69BB689A42E9D3074B5A6CBB6848
:104340001344054A53640123FB77FB7F184620374B
:10435000BD46B0BD302B0020A82B002080B586B014
:1043600000AF00237B6100237B8200237B7400234A
:10437000FB81A2E0564B1B68FA8912031344BB6011
:10438000B868FFF725FC0346FB71FB79012B63D06E
:10439000032B02D0002B3BD08CE0B868FFF73EFC2B
:1043A0000346002B2BD04B4B1B68002B1AD07B8A6B
:1043B000494A1B01134402221A707B8A464A1B0198
:1043C00013440433BA681A607B8A434A1B011344BE
:1043D000083302221A80414A7B8A53807B8A013348
:1043E0007B8207E03B4ABB6813603A4B02229A800B
:1043F00001237B747B6943F001037B615AE07B8A74
:104400005A1C7A82344A1B01134403221A7051E069
:104410007B8A314A1B01134400221A707B8A2E4A80
:104420001B0113440433BA681A607B8A1B010833EA
:10443000294A99187B8A1B010833274A13440633FB
:104440001A46B868FFF768FC7B6943F002037B619A
:104450007B8A01337B822DE07B7C002B17D07B8A0B
:104460001D4A1B01134402221A707B8A194A1268E2
:1044700019491B010B4404331A607B8A164A1B013D
:104480001344083302221A807B8A01337B82114A4B
:10449000BB68136000221249B868FFF73DFC0D4B62
:1044A0009B88022B01D1042300E008237A6913437F
:1044B0007B6100BFFB890133FB81FB89022B7FF607
:1044C00059AF7B69DBB218461837BD4680BD00BFC7
:1044D0002C260020102C0020F02B0020182C00206F
:1044E000142C002080B586B002AF786039607B68FC
:1044F0001A1D0023009301233968094801F0D6FAF8
:104500000346FB607B6802221A74FB68002B01D112
:10451000002300E00E2318461037BD4680BD00BFC3
:104520002C26002080B586B002AF786039603B68E9
:1045300003F108017B6803F10C02002300930123BF
:104540000B4801F0B3FA0346FB607B689B7D002BB0
:1045500001D0032200E001227B681A74FB68002B63
:1045600001D1002300E00E2318461037BD4680BD60
:104570002C26002080B586B002AF786039603B6899
:10458000191D7B6803F108020023009301230C48E6
:1045900001F08CFA0346FB607B681B78032B01D18A
:1045A000052200E006227B681A74FB68002B01D10B
:1045B000002300E00E2318461037BD4680BD00BF23
:1045C0002C26002080B586B002AF78600B467B8039
:1045D0000023009301230C4A79680C4801F066FA25
:1045E0000346FB73FB7B002B01D00E2307E07B8887
:1045F000074A1B0113440E3301221A700023184688
:104600001037BD4680BD00BFB03403002C2600200B
:10461000F02B002080B588B000AF786007F1080368
:1046200000221A605A609A607B68DB68BB6007F101
:10463000160207F1080311461846FFF7D3FC03469C
:10464000002B11D0FB68BB61BB699A887B68DA805C
:10465000BB691A887B681A81FB68FA8A114618467A
:10466000FFF7B0FFF86101E00A23FB61FB69184620
:104670002037BD4680BD000080B586B000AF7860B1
:104680007B68981D07F108020D4B0021FFF706FD1E
:1046900078617B69002B08D1FA68094B9B88194621
:1046A0001046FFF78FFF786104E0082200210448DC
:1046B000FAF74EFE7B6918461837BD4680BD00BF2D
:1046C000282C002080B586B002AF786039600023C6
:1046D000BB6007F108031846FFF790FD7B689B8AD3
:1046E0009B003A68D118BB681A68BB689888002399
:1046F00000930346114801F0D9F90346FB607B683B
:104700009A8ABB689B8813449AB27B689A827B68BA
:104710009B7D013BDAB27B689A757B689B7D002BA1
:1047200002D17B6801221A74FB68002B01D100239F
:1047300000E00E2318461037BD4680BD2C26002011
:1047400080B483B000AF154B1B8901339AB2134B71
:104750001A81124B00225A80104B00221A73002338
:10476000FB8011E0FB88FA880D4912010A44127897
:10477000002A0CBF01220022D1B2084A13440A4683
:104780009A72FB880133FB80FB88012BEAD900BFBA
:104790000C37BD465DF8047B704700BF182C002025
:1047A000F02B002080B485B000AF78600023FB734D
:1047B0000023BB8123E0BB89164A13449B7A002B5C
:1047C0001AD0BB89134A134400229A72BB89124A39
:1047D0001B0113440C331B88002B0DD1BB890E4ADF
:1047E0001B0113440E331B78002B05D07B68BA895C
:1047F0001A800123FB7305E0BB890133BB81BB89B0
:10480000012BD8D9FB7B18461437BD465DF8047BD5
:10481000704700BF182C0020F02B002080B500AF9F
:10482000074B05221A70074B02229A80054B196824
:1048300000230122044801F0A3F90346184680BD75
:10484000182C0020102C00202C26002080B582B0CF
:1048500000AF124B5B887B807B88114A1B0113449D
:104860000C331B88002B10D17B880D4A1B0113448D
:1048700004331968002301220A4801F081F9034634
:104880007B60064B04221A7002E0FFF7C7FF7860D6
:104890007B6818460837BD4680BD00BF182C002035
:1048A000F02B00202C26002080B586B002AF104BE4
:1048B0005B68FB600F4B1A680E4B9B889B00134490
:1048C000BB60FB685B880333FB80094B03221A70D3
:1048D000074B5A68F988002300930B46B9680648CD
:1048E00001F0E4F8034618461037BD4680BD00BF0E
:1048F000182C0020102C00202C26002080B582B01F
:1049000000AF0A4B5B880A491846FFF721FB0346B4
:10491000002B03D0FFF7C8FF786002E0FFF796FF97
:1049200078607B6818460837BD4680BD182C00208B
:104930001C2C002080B500AF074B06221A70064BD6
:104940005B88064A1B01134404331B681846FFF7B3
:1049500069FA0346184680BD182C0020F02B002071
:1049600080B500AF054B07221A70044B00225A6035
:10497000FFF742FA0346184680BD00BF182C0020FE
:1049800080B500AF0C48FFF70DFF034683F001032D
:10499000DBB2002B0BD0094B00221A70074B002210
:1049A0005A80064B00225A6041F61D5302E0FFF781
:1049B000A5FF0346184680BD1A2C0020182C0020A5
:1049C00080B483B000AF0A4B5B687B607B685B8818
:1049D00003337B80074B9A887B8813449AB2054B3C
:1049E0009A8000BF0C37BD465DF8047B704700BF5E
:1049F000182C0020102C002080B483B000AF144B82
:104A00001B687B60134B5B88134A1B011344043300
:104A10001B680F4A13600F4B5B880F4A1B0113443E
:104A200004337A681A600B4B5B881846084B9988E8
:104A3000094A0301134408330A461A80044B022230
:104A40009A8000BF0C37BD465DF8047B704700BFFD
:104A5000102C0020182C0020F02B002080B500AF77
:104A60001A4B1B78072B2DD801A252F823F000BF58
:104A7000914A0200C54A0200C54A02009D4A02004E
:104A8000A94A0200B54A0200B54A0200BD4A020026
:104A9000FFF756FE0D4B01221A7014E0FFF790FF4E
:104AA0000A4B02221A700EE0FFF7A6FF074B062200
:104AB0001A7008E0054B07221A7004E0034B01222C
:104AC0001A7000E000BF00BF80BD00BF182C00209E
