:020000021000EC
:10F00000000001203914030061140300631403009D
:10F010006514030067140300691403000000000076
:10F020000000000000000000000000006B1403005E
:10F030006D140300000000006F140300711403003E
:10F040000571020073140300719102002D8B020000
:10F050000170020073140300D97A02004D9302007C
:10F060005D9A020073140300731403007314030009
:10F070007314030073140300731403007314030068
:10F0800073140300D53502007314030073140300D6
:10F090001536020073140300B51303007314030044
:10F0A0007314030073140300731403007314030038
:10F0B000731403007314030000000000000000003C
:10F0C0007314030073140300731403007314030018
:10F0D0007314030073140300731403000000000092
:10F0E0000000000000000000000000000000000020
:10F0F0000000000000000000000000000000000010
:10F1000000000000000000000000000000000000FF
:10F1100000000000000000000000000000000000EF
:10F1200000000000000000000000000000000000DF
:10F1300000000000000000000000000000000000CF
:10F1400000000000000000000000000000000000BF
:10F1500000000000000000000000000000000000AF
:10F16000000000000000000000000000000000009F
:10F17000000000000000000000000000000000008F
:10F18000000000000000000000000000000000007F
:10F19000000000000000000000000000000000006F
:10F1A000000000000000000000000000000000005F
:10F1B000000000000000000000000000000000004F
:10F1C000000000000000000000000000000000003F
:10F1D000000000000000000000000000000000002F
:10F1E000000000000000000000000000000000001F
:10F1F000000000000000000000000000000000000F
:10F2000010B5054C237833B9044B13B10448AFF360
:10F2100000800123237010BD0426002000000000A0
:10F22000443303000C4B43B10C480D4910B5AFF308
:10F2300000800C48036823B910BD0A48036833B93D
:10F240007047094B002BF7D0BDE810401847064B1C
:10F25000002BF5D0184700BF000000004433030026
:10F2600008260020F025002000000000154B002B90
:10F2700008BF134B9D46A3F5803A00218B460F46ED
:10F280001348144A121A00F063F80F4B002B00D0F9
:10F2900098470E4B002B00D0984700200021040017
:10F2A0000D000D48002802D00C48AFF3008000F09C
:10F2B0002BF82000290001F03DFD00F011F800BFFF
:10F2C0000000080000000120000000000000000015
:10F2D000042600205C380020000000000000000030
:10F2E00008B5074B044613B10021AFF30080054B6E
:10F2F0001868836A03B19847204600F031F800BFD0
:10F3000000000000242F030070B50D4E0D4CA41B0F
:10F31000A4100025A54209D10B4E0C4C13F0F6FDAC
:10F32000A41BA4100025A54205D170BD56F82530B8
:10F3300098470135EEE756F8253098470135F2E752
:10F34000E8250020E8250020E8250020EC25002005
:10F3500002440346934200D1704703F8011BF9E7CA
:10F36000FEE700BF80B483B000AF78604FF0A043E9
:10F3700018460C37BD465DF8047B704780B584B0F5
:10F3800000AF7860084611461A460346FB700B46EC
:10F39000BB7013467B703B1D1846FFF7E3FFF86018
:10F3A0007A68F978BB785B0019437B789B00194336
:10F3B0003B7E1B0219433B7F1B041943FB6802F58C
:10F3C000E07243F8221000BF1037BD4680BD80B503
:10F3D00084B002AF786000230193002300930023E0
:10F3E000012201217868FFF7C9FF00BF0837BD4639
:10F3F00080BD80B584B000AF78603B1D1846FFF734
:10F40000B1FFF8607B68012202FA03F31946F8683D
:10F4100000F072F800BF1037BD4680BD80B584B0E3
:10F4200000AF78603B1D1846FFF79CFFF8607B68D3
:10F43000012202FA03F31946F86800F06CF800BFE5
:10F440001037BD4680BD80B584B000AF78603B1DED
:10F450001846FFF787FFF860FB68D3F80435BB60F8
:10F46000BB68DA437B68012101FA03F31A40FB68A9
:10F47000C3F808257B6801229A40BB681A40FB68E4
:10F48000C3F80C2500BF1037BD4680BD80B582B0E3
:10F4900000AF786039603B68002B03D17868FFF7D4
:10F4A000BDFF02E07868FFF7A4FF00BF0837BD4644
:10F4B00080BD80B584B000AF78603B1D1846FFF773
:10F4C00051FFF860F86800F00AF802467B6822FAFB
:10F4D00003F303F0010318461037BD4680BD80B426
:10F4E00083B000AF78607B68D3F8043518460C37DA
:10F4F000BD465DF8047B704780B483B000AF786090
:10F5000039607B683A68C3F8082500BF0C37BD46F0
:10F510005DF8047B704780B483B000AF78603960D9
:10F520007B683A68C3F80C2500BF0C37BD465DF810
:10F53000047B704780B584B000AF78600E4A7B686A
:10F5400013441B781846FFF7B4FF0346002B14BF83
:10F5500001230023FB73FB7B002B14BF012300233B
:10F56000DBB283F00103DBB203F00103DBB2184628
:10F570001037BD4680BD00BF282F030080B582B084
:10F5800000AF7860054A7B6813441B780021184659
:10F59000FFF77CFF00BF0837BD4680BD282F030062
:10F5A00080B582B000AF7860054A7B6813441B7851
:10F5B00001211846FFF76AFF00BF0837BD4680BD2E
:10F5C000282F030080B582B000AF0023FB7106E056
:10F5D000FB791846FFF7E4FFFB790133FB71FB79F8
:10F5E000022BF5D900BF0837BD4680BD80B582B07B
:10F5F00000AF0023FB7106E0FB791846FFF7BEFF62
:10F60000FB790133FB71FB79022BF5D900BF083779
:10F61000BD4680BD80B582B000AF7860054A7B688A
:10F6200013441B781846FFF70EFF00BF0837BD468E
:10F6300080BD00BF282F030080B582B000AF00233B
:10F640007B6009E0094A7B6813441B781846FFF782
:10F65000BEFE7B6801337B607B68022BF2D9FFF72B
:10F66000B1FF00BF0837BD4680BD00BF282F030093
:10F6700080B485B000AF78604FF0FF33BB600023EB
:10F68000FB600DE00B4AFB6813441B781A467B684D
:10F690009A4202D1FB68BB6005E0FB680133FB6066
:10F6A000FB68032BEED9BB6818461437BD465DF8DE
:10F6B000047B70472C2F030080B483B000AF7860C8
:10F6C000044A7B6813441B7818460C37BD465DF826
:10F6D000047B70472C2F030076DF704700BF18466D
:10F6E00078DF704700BF18467ADF704700BF1846C2
:10F6F0007CDF704700BF1846A8DF704700BF184680
:10F7000069DF704700BF184666DF704700BF1846C4
:10F7100032DF704700BF184680B485B000AF786014
:10F72000254BFB607B68002B40D0244B1A68F9689E
:10F730007B6800BF00BF00BF00BF00BF00BF00BFAD
:10F7400000BF8A422FD000BF00BF00BF00BF00BF74
:10F7500000BF00BF00BF00BF00BF00BF00BF00BFB1
:10F7600000BF00BF00BF00BF00BF00BF00BF00BFA1
:10F7700000BF00BF00BF00BF00BF00BF00BF00BF91
:10F7800000BF00BF00BF00BF00BF00BF00BF00BF81
:10F7900000BF00BF00BF00BF00BF00BF00BF00BF71
:10F7A00000BF00BF00BF013BC3D17B6000BF143767
:10F7B000BD465DF8047B70470024F400E42500207A
:10F7C00080B582B000AF78607B684FF47A7202FB3C
:10F7D00003F31846FFF7A0FF00BF0837BD4680BD02
:10F7E00080B500AF0120FFF7C9FE1920FFF7E8FF41
:10F7F0000120FFF7D5FE00BF80BD80B500AF02201D
:10F80000FFF7BCFE1920FFF7DBFF0220FFF7C8FE61
:10F8100000BF80BD80B582B000AF0A49012006F06C
:10F8200087FE0246084B1A60074B1B687B607B68AB
:10F83000002B02D0786806F091F900BF0837BD466A
:10F8400080BD00BFED0402006837002080B582B0A3
:10F8500000AF0FF0CFFA0246074B1A60064B1B6849
:10F860007B607B68002B02D0786806F077F900BFD8
:10F870000837BD4680BD00BF6837002080B584B022
:10F8800000AF0346FB71FB79002B02D0FFF7DEFFD0
:10F890000BE003200AF0CAFBF860FB68BB60BB68A2
:10F8A000002B02D0B86806F059F900BF1037BD46EA
:10F8B00080BD80B483B000AF786000BF0C37BD4618
:10F8C0005DF8047B7047000080B588B000AF7860B9
:10F8D0007B681B780E2B72D801A252F823F000BF70
:10F8E000BFF90100BFF90100BFF90100BFF9010034
:10F8F0001DF9010033F90100ABF90100BFF9010066
:10F900006FF90100BFF9010083F9010061F90100FD
:10F9100097F90100BFF9010069F9010000233B726A
:10F920007B685B8807F10802114618460FF028FA39
:10F9300050E005F0F1FC0246284B1A60274B1B688B
:10F940000E2B3ED0254B1B68082B3AD0234B1B684F
:10F95000FB61FB69002B34D0F86906F0FFF830E05A
:10F960000020FFF78BFF35E00FF01AFA32E07B68DA
:10F970001B69BB61BB69002B25D0B86906F0EEF8A6
:10F9800021E07B689B687B617B69002B1DD07869D7
:10F9900006F0E4F819E07B689B683B613B69002B4B
:10F9A00015D0386906F0DAF811E07B689B68FB60D7
:10F9B000FB68002B0DD0F86806F0D0F809E000BF16
:10F9C00008E000BF06E000BF04E000BF02E000BFA7
:10F9D00000E000BF00BF2037BD4680BD6837002073
:10F9E00080B582B000AF03F01BFE02460F4B1A60D9
:10F9F0000E4B1B687B607B68002B02D0786806F09A
:10FA0000ADF80B4A01210B4803F040FE0246074BBC
:10FA10001A60064B1B683B603B68002B02D03868BD
:10FA200006F09CF800BF0837BD4680BD683700204F
:10FA3000210D0200302F030080B582B000AF0B4BC8
:10FA400000224FF48051184603F054FE0246084B42
:10FA50001A60074B1B687B607B68002B02D07868BC
:10FA600006F07CF800BF0837BD4680BD7026002038
:10FA70006837002080B586B000AF3B78012262F382
:10FA800003033B703B78012262F307133B70244869
:10FA900013F034FA03469AB23B4621491846FFF761
:10FAA00027FE02461F4B1A601E4B1B687B617B6959
:10FAB000002B02D0786906F051F840F24130FFF790
:10FAC0000FFE0246174B1A60164B1B683B613B69E1
:10FAD000002B02D0386906F041F83B1D08220021B6
:10FAE0001846FFF735FC1823BB80A023FB800023BA
:10FAF0003B814FF4C8737B813B1D1846FFF7F4FD33
:10FB00000246084B1A60074B1B68FB60FB68002B22
:10FB100002D0F86806F022F800BF1837BD4680BD55
:10FB2000342F03006837002080B582B000AF7860C2
:10FB300039603968034802F09CFE00BF0837BD46B3
:10FB400080BD00BF3826002080B582B000AF0A49D2
:10FB50000A480DF097F90246094B1A60084B1B68DA
:10FB60007B607B68002B02D0786805F0F7FF00BF50
:10FB70000837BD4680BD00BF29FB01005C26002080
:10FB80006837002080B59EB000AF07F158031022FF
:10FB900000211846FFF7DCFB0023BB6597F86030B7
:10FBA000012262F3030387F8603097F86030012286
:10FBB00062F3071387F8603097F861306FF303033F
:10FBC00087F8613097F861306FF3071387F8613079
:10FBD00097F862306FF3030387F8623097F862306A
:10FBE0006FF3071387F8623097F86330012262F3EE
:10FBF000030387F8633097F86330012262F3071339
:10FC000087F8633097F86430012262F3030387F8C2
:10FC1000643097F86430012262F3071387F8643088
:10FC2000002387F87730704B1B78002B05D097F8AE
:10FC3000773043F0010387F877306C4B1B78002B4B
:10FC400005D097F8773043F0020387F87730684B98
:10FC50001B78002B05D097F8773043F0040387F822
:10FC6000773097F8773087F8673097F8653001225A
:10FC700062F3030387F8653097F86530012262F379
:10FC8000071387F8653097F866306FF3030387F83A
:10FC9000663097F866306FF3071387F8663007F120
:10FCA00058031946534802F00AFD0246524B1A60A7
:10FCB000514B1B683B673B6F002B02D0386F05F040
:10FCC0004DFF07F14403142200211846FFF740FBC3
:10FCD00097F85130012262F3030387F8513097F807
:10FCE0005130012262F3071387F8513097F85230F0
:10FCF000012262F3030387F8523097F85230012251
:10FD000062F3071387F8523097F853306FF3030309
:10FD100087F8533097F853306FF3071387F8533051
:10FD200097F85430012262F3030387F8543097F8B0
:10FD30005430012262F3071387F8543000237B64A8
:10FD4000012387F848300023FB64642387F8503090
:10FD500007F144031946294810F0CDFE0246264B10
:10FD60001A60254B1B68FB66FB6E002B02D0F86EF9
:10FD700005F0F4FE3B1D402200211846FFF7E8FA8B
:10FD80003B1D1F4918460BF0B0FC97F8403001228C
:10FD900062F3030387F8403097F84030012262F3A2
:10FDA000071387F8403097F841306FF3030387F863
:10FDB000413097F841306FF3071387F841303B1D0E
:10FDC000184611F0A7F802460B4B1A600A4B1B6845
:10FDD000BB66BB6E002B02D0B86E05F0BFFE00BF45
:10FDE0007837BD4680BD00BFC7270020C82500204A
:10FDF000C925002038260020683700202026002052
:10FE00003C2F030080B584B000AF78607B681B781E
:10FE1000002B11D10A4B1B883B211846FFF75CFCD5
:10FE20000246084B1A60074B1B68FB60FB68002BFF
:10FE300002D0F86805F092FE00BF1037BD4680BDC5
:10FE4000B82500206837002080B582B000AF786008
:10FE5000786805F083FE00BF0837BD4680BD00000E
:10FE600080B588B000AF3B461C2200211846FFF742
:10FE70006FFA00233B604FF4A0437B604FF4F033F4
:10FE8000BB6003233B730E4B9B89FB8100233B74B8
:10FE90000C4B7B610C4BBB613B4618460BF060F88A
:10FEA00002460A4B1A60094B1B68FB61FB69002B79
:10FEB00002D0F86905F052FE00BF2037BD4680BD74
:10FEC0003826002005FE010049FE010068370020A9
:10FED00080B584B000AF002006F010FB0246154B41
:10FEE0001A60144B1B68FB60FB68002B02D0F8689B
:10FEF00005F034FE06F04BFC02460E4B1A600D4B2B
:10FF00001B68BB60BB68002B02D0B86805F026FEFA
:10FF1000FFF7FEFB0246074B1A60064B1B687B602F
:10FF20007B68002B02D0786805F018FE00BF103700
:10FF3000BD4680BD6837002080B584B000AF034661
:10FF4000FB71FB79002B12D0032B00D012E00220B2
:10FF500006F0D4FA0246094B1A60084B1B68FB6096
:10FF6000FB68002B05D0F86805F0F8FD01E000BF44
:10FF700000E000BF00BF1037BD4680BD68370020DD
:10FF800080B582B000AF0023FB71104B1B78002BB3
:10FF900003D0FB7943F00103FB710D4B1B78002B61
:10FFA00003D0FB7943F00203FB710A4B1B78002B53
:10FFB00003D0FB7943F00403FB71FB791946064833
:10FFC00002F033FC00BF0837BD4680BDC7270020C4
:10FFD000C8250020C92500203826002090B593B000
:10FFE00000AF78607B681B883B2B32D03B2B07DC53
:10FFF000102B0DD0112B23D0012B00F0CC802EE143
:020000022000DC
:10000000512B00F0DF80562B3BD0502B51D026E1F6
:100010009549002011F08AFE072006F06FFA02468B
:10002000924B1A60914B1B687B647B6C002B02D057
:10003000786C05F093FD7B689A888D4B1A800EE1F1
:100040008C49002011F072FE894B4FF6FF721A8026
:1000500005E18949002011F069FE7B689B88132126
:100060001846FFF739FB0246804B1A607F4B1B682E
:100070003B643B6C002B00F0E980386C05F06EFDB2
:10008000E4E07E49002011F051FE7B689B8813213B
:100090001846FFF721FB0246744B1A60734B1B682E
:1000A000FB63FB6B002B00F0D380F86B05F056FD73
:1000B000CEE07349002011F039FE7B681233BB6338
:1000C000BB6B1B7887F8373097F837301A466D4985
:1000D000002012F067F997F83730202B09D16A4BCE
:1000E00000221A70FFF74CFF6849002011F01EFE35
:1000F000B0E097F83730212B09D1634B01221A70F9
:10010000FFF73EFF6249002011F010FEA2E097F8D1
:1001100037300C2B09D15F4B00221A70FFF730FFEC
:100120005D49002011F002FE94E097F837300D2B66
:1001300009D1584B01221A70FFF722FF57490020BE
:1001400011F0F4FD86E097F83730222B09D1544B9B
:1001500000221A70FFF714FF5249002011F0E6FD4B
:1001600078E097F83730232B09D14D4B01221A70D4
:10017000FFF706FF4C49002011F0D8FD6AE097F820
:1001800037302A2B66D14949002011F0CFFD484B6A
:1001900001221A705EE04749002011F0C7FD344B80
:1001A0001B8800211846FFF7AFFA02462F4B1A6052
:1001B0002E4B1B683B633B6B002B4DD0386B05F01F
:1001C000CDFC49E03C49002011F0B0FD7B6807F10F
:1001D0001C040633186859689A68DB680FC43B7FB3
:1001E000002B3BD097F82430042B07D097F824300D
:1001F000062B03D097F82430052B2FD13B7F022B01
:1002000006D102233B732D49002011F08FFD05E03C
:1002100001233B732A49002011F088FD4FF4C1737C
:100220003B827B689B8807F10C0211461846FFF75A
:1002300063FA02460D4B1A600C4B1B68FB62FB6AAB
:10024000002B0BD0F86A05F089FC07E000BF06E040
:1002500000BF04E000BF02E000BF00E000BF00BF3D
:100260004C37BD4690BD00BF502F030068370020BB
:10027000B8250020682F0300842F03009C2F030063
:10028000B42F0300CC2F0300C7270020E02F03006A
:10029000FC2F0300C8250020183003003030030075
:1002A000C925002048300300603003007830030087
:1002B000C82700208C300300A8300300CC30030096
:1002C000F830030080B582B000AF786078680BF03A
:1002D00067F878680EF06EFC79680D4802F059F8FE
:1002E00079680C4810F0DEFA78680AF06FFF7868D9
:1002F00006F06EFA7868FFF771FE786809F080FF03
:10030000796805480CF0EAFD00BF0837BD4680BD9E
:1003100038260020202600205C26002080B582B0F0
:1003200000AF7860786805F0D5FB786809F086FF43
:1003300000BF0837BD4680BD80B590B000AF664BAA
:100340001B687B6107F114000023D822634910F079
:10035000C5FFF863FB6BBB63BB6B002B02D0B86BB4
:1003600005F0FCFB00233B6107F11003184611F078
:100370003DF802465A4B1A60594B1B687B637B6BF6
:10038000002B02D0786B05F0E9FB3B1D0C2200210D
:100390001846FEF7DDFF00233B713A693B1D194605
:1003A0000120FFF7ADF902464D4B1A604C4B1B681C
:1003B0003B633B6B002B02D0386B05F0CFFB3B1D42
:1003C0000C2200211846FEF7C3FF01233B710023D6
:1003D0007B710023BB713A693B1D19464020FFF732
:1003E0008FF902463E4B1A603D4B1B68FB62FB6A6D
:1003F000002B02D0F86A05F0B1FB3B1D0C22002156
:100400001846FEF7A5FF01233B719E23FB803A6946
:100410003B1D19462320FFF773F90246304B1A6043
:100420002F4B1B68BB62BB6A002B02D0B86A05F079
:1004300095FB3B1D0C2200211846FEF789FF012386
:100440003B714FF4A0733B810123BB713A693B1DA3
:1004500019462020FFF754F90246214B1A60204B21
:100460001B687B627B6A002B02D0786A05F076FB02
:1004700007F11003184610F0CDFF0246184B1A6022
:10048000174B1B683B623B6A002B02D0386A05F0B1
:1004900065FB144810F062FF0246114B1A60104BC6
:1004A0001B68FB61FB69002B02D0F86905F056FB65
:1004B0000D4810F069FF0246094B1A60084B1B6893
:1004C000BB61BB69002B02D0B86905F047FB00BFD8
:1004D0004037BD4680BD00BF24310300CC2700203B
:1004E00068370020C50202001D03020080B584B0F9
:1004F00000AF0346FB71FB79072B1ED00A2B02D0FD
:10050000042B03D035E0FFF7E3FC32E01B4B1B88E4
:1005100013211846FFF7E0F80246194B1A60184BF2
:100520001B68082B22D0164B1B68FB60FB68002B56
:100530001CD0F86805F012FB18E0104B1B884FF632
:10054000FF72934214D109F0A7FE02460C4B1A60C9
:100550000B4B1B68082B0BD0094B1B68BB60BB689F
:10056000002B05D0B86805F0F9FA01E000BF00E003
:1005700000BF00BF1037BD4680BD00BFB8250020BA
:100580006837002080B586B000AF0EF04BFB024606
:10059000334B1A60324B1B687B617B69002B02D0A6
:1005A000786905F0DBFA3B46052200211846FEF784
:1005B000CFFE3B7843F001033B703B786FF3410380
:1005C0003B703B78032262F306133B703B786FF37A
:1005D000C7133B7007237B701023BB70FB7843F07D
:1005E0000103FB70FB7843F00203FB703B7943F09F
:1005F00001033B713B7943F002033B713B461846D4
:100600000EF0A6FB0246164B1A60154B1B683B61A9
:100610003B69002B02D0386905F0A0FA11480EF0B2
:1006200069FB02460E4B1A600D4B1B68FB60FB68B2
:10063000002B02D0F86805F091FA0B4804F07AFC20
:100640000246074B1A60064B1B68BB60BB68002B59
:1006500002D0B86805F082FA00BF1837BD4680BDE9
:1006600068370020C9F80100B3F8010080B59AB0DE
:1006700002AF07F120033C2200211846FEF768FE76
:10068000022387F82030012387F82230062387F8D9
:10069000233003233B86154B7B633B4620220021FE
:1006A0001846FEF755FE0123FB704FF4C8633B610B
:1006B00064237B613A4607F12000002300930C4B32
:1006C000002109F0ADFB02460A4B1A60094B1B687A
:1006D000FB65FB6D002B02D0F86D05F03FFA0120A1
:1006E00009F08EFB00BF6037BD4680BDBC250020F1
:1006F00039FF01006837002080B584B002AF786010
:100700005B4B1B780F2B00F28580594B1B781B012C
:100710007A681178574AD154554B1B781B01013325
:100720007A685178534AD154514B1B781B010233DC
:100730007A6891784F4AD1544D4B1B781B01033393
:100740007A68D1784B4AD154494B1B781B0104334A
:100750007A681179474AD154454B1B781B01053300
:100760007A685179434AD154414B1B781B010633B7
:100770007A6891793F4AD1543D4B1B781B0107336E
:100780007A68D1793B4AD154394B1B781B01083325
:100790007A68117A374AD154354B1B781B010933DB
:1007A0007A68517A334AD154314B1B781B010A3392
:1007B0007A68917A2F4AD1542D4B1B781B010B3349
:1007C0007A68D17A2B4AD154294B1B781B010C3300
:1007D0007A68117B274AD154254B1B781B010D33B6
:1007E0007A68517B234AD154214B1B781B010E336D
:1007F0007A68917B1F4AD1541D4B1B781B010F3324
:100800007A68D17B1B4AD154194B1B780133DAB279
:10081000174B1A70164B1B780F2B24D9FEF7E0FFED
:10082000154B1B881A46154B1B781946144B1B8811
:1008300000930B461349002011F0B4FD104B1B88A8
:100840000C49184601F0CEF90D4B1B8801339AB2C2
:100850000B4B1A804FF4807200210648FEF778FD9A
:10086000034B00221A7000BF0837BD4680BD00BF91
:10087000C0260020C426002090260020AE2600209E
:10088000C42700202831030080B584B000AF786011
:100890007B680E33134A1288D2B21A707B680F330A
:1008A000104A1288120A92B2D2B21A700023FB6068
:1008B00079680D4801F04EFFF860FB68002B0DD001
:1008C000FB68082B0AD0FB68132B07D0FB6843F2A8
:1008D0000142934202D0F86805F040F900BF10379A
:1008E000BD4680BDC42700203826002090B583B0C7
:1008F00000AF0446084611461A462346FB710346DC
:10090000BB800B46BB711346FB701022002132489E
:10091000FEF71EFDBB88DAB22F4B1A70BB881B0A8C
:100920009BB2DAB22C4B5A702B4ABB7993702A4A8D
:10093000FB78D370284A3B7E1371274A3B7F537163
:100940003B8CDAB2244B9A713B8C1B0A9BB2DAB215
:10095000214BDA71BB8CDAB21F4B1A72B7F9243013
:100960001B121BB2DAB21C4B5A723B8DDAB21A4B15
:100970009A72B7F928301B121BB2DAB2164BDA7230
:10098000BB8DDAB2144B1A73B7F92C301B121BB2A1
:10099000DAB2114B5A73104B00229A730E4B00229D
:1009A000DA73FB79002B03D10B48FFF7A5FE0FE0AC
:1009B000FB79012B03D10848FFF766FF08E0FB79BC
:1009C000022B05D10448FFF797FE0348FFF75CFFB1
:1009D00000BF0C37BD4690BDB026002090B583B057
:1009E00000AF08F019FF00F0BBFF034607EE903A96
:1009F000F8EEE77A17EE900A11F050FE4FF0000281
:100A00001D4B11F09FFE03460C46184621464FF041
:100A100000021A4B11F0C0FF03460C46184621464F
:100A200012F0A2F80346DAB2154B1A7000F098FFE4
:100A30000346DBB22C3BDAB2124B1A7000237B6008
:100A40000F4B1B781946104810F08DF878607B68C2
:100A5000002B0DD07B68082B0AD07B68132B07D0A6
:100A60007B6843F20142934202D0786805F076F841
:100A700000BF0C37BD4690BD0000594000407A4091
:100A8000AF260020AE260020202600200000000017
:100A90002DE9F04188B006AF914B1B7883F001033C
:100AA000DBB2002B40F011818E49002011F03EF99D
:100AB000FEF796FE8C4B1B78032B05D9FFF78EFFB4
:100AC000894B00221A7005E0874B1B780133DAB29C
:100AD000854B1A70854B1B8801339AB2834B1A8061
:100AE000834800F0C3FC824B1B68184611F0C4FD1C
:100AF0004FF000027F4B11F04FFF03460C461846A3
:100B0000214675A3D3E9002311F068FC03460C4687
:100B10001846214612F028F80346DAB2764B1A70CE
:100B2000734B5B68184611F0A7FD4FF00002714B44
:100B300011F032FF03460C46184621464FF00002E2
:100B40006E4B11F04BFC03460C461846214612F042
:100B50000BF80346DAB26A4B1A70654B9B6818466D
:100B600011F08AFD4FF00002664B11F015FF0346AD
:100B70000C461846214611F0F7FF0346DAB2624BE5
:100B80001A70624801F08FF9614801F09CFA002365
:100B9000FB71604B1B78002B2DD05F4B1B78002B1B
:100BA00029D00223FB71514BB3F800E05B4B93F863
:100BB00000C0514B93F80080514B1B78524A127879
:100BC0005249B1F9061089B25148B0F90000504CB1
:100BD000B4F902404E4DB5F90450FE7905950494E0
:100BE000039002910192009343466246714630465B
:100BF000FFF77CFE6AE0474B1B78002B30D0464B5A
:100C00001B7883F00103DBB2002B29D00023FB719A
:100C1000364BB3F800E0414B93F800C0364B93F8E5
:100C20000080374B1B78384A12783849B1F90610E2
:100C300089B23748B0F90000354CB4F90240344D60
:100C4000B5F90450FE790595049403900291019240
:100C500000934346624671463046FFF747FE35E053
:100C60002C4B1B7883F00103DBB2002B2ED02A4BD8
:100C70001B78002B2AD00123FB711C4BB3F800E03A
:100C8000264B93F800C01C4B93F800801C4B1B783C
:100C90001D4A12781D49B1F9061089B21C48B0F9F5
:100CA00000001B4CB4F90240194DB5F90450FE790F
:100CB0000595049403900291019200934346624685
:100CC00071463046FFF712FE00E000BF0837BD4610
:100CD000BDE8F081AFF30080000000000088C34051
:100CE000C82500203C310300C627002090260020A4
:100CF00094260020000024406D3700200000694049
:100D00006C37002000408F4064370020A026002070
:100D1000A8260020C7270020C9250020AE260020D5
:100D200080B582B000AF7860FFF7B2FE00BF083731
:100D3000BD4680BD80B582B000AF4D49002010F0A7
:100D4000F5FFFEF74DFEFEF765FD01237B71FFF712
:100D5000F3FAFEF78FFEFEF7F7FEFFF787FCFEF7CC
:100D600011FFFFF77DF8FFF70DFC00F06BFD00F0C1
:100D700091F800F027FA4FF4FA70FEF721FD01F028
:100D80007FF84FF4FA70FEF71BFD01F043F94FF4C2
:100D9000FA70FEF715FD01F0C3F94FF4FA70FEF793
:100DA0000FFD01F06FF900F04BFE00F05FFE4FF415
:100DB000FA70FEF705FD01F017F803461A462D4BB1
:100DC0001A802C4B1B881A462B49002011F0EAFA96
:100DD000FEF713FDFEF730FE7B791846FEF74EFD59
:100DE000264B1B78002B41D0254B1B783B71254BA4
:100DF0001B78FB70244B1B78BB70214B00221A70B0
:100E0000204B00221A70204B00221A70194B1B88AD
:100E10001B013B800023FB8018E06420FEF7D0FC20
:100E2000FB881A49184600F09BFEFB88DAB2174B84
:100E30009A73FB881B0A9BB2DAB2144BDA7313491C
:100E4000134801F087FCFB880133FB80FA883B885C
:100E50009A42E2D30A4A3B7913700A4AFB7813702C
:100E6000094ABB781370054B00221A7020BFB7E700
:100E700044310300C427002054310300C827002058
:100E8000C8250020C7270020C9250020A42800204D
:100E90003826002080B586B000AF3B4600221A609D
:100EA0005A609A60DA6008233B6005237B604FF04C
:100EB000CC73BB6003233B7339460023094A0A48BD
:100EC00007F0D8F978617B693B613B69002B02D060
:100ED000386904F043FE044807F046FA00BF1837AB
:100EE000BD4680BD511002006C31030080B588B052
:100EF00002AF0346FB710B46BB7113467B71BB7996
:100F00003B737B797B73114B00221A7007F10C0243
:100F1000F9790123009302230D4807F01DFD786144
:100F20007B693B613B69002B02D0386904F016FEF7
:100F300000BF064B1B78DBB283F00103DBB2002B52
:100F4000F7D100BF1837BD4680BD00BFB4280020D0
:100F50006C31030080B586B002AF03463960FB7187
:100F60001346BB71104B00221A70BA79F97900232D
:100F7000009313463A680D4807F0EEFCF860FB68F2
:100F8000BB60BB68002B02D0B86804F0E7FD00BF6F
:100F9000054B1B78DBB283F00103DBB2002BF7D1EA
:100FA00000BF1037BD4680BDB42800206C3103005F
:100FB00080B588B002AF03460A46FB711346BB7189
:100FC00000237B61204B00221A70BA1DF97901239E
:100FD000009301231D4807F0BFFC78617B693B61EA
:100FE0003B69002B02D0386904F0B8FD00BF164BF6
:100FF0001B78DBB283F00103DBB2002BF7D17B69F6
:10100000002B1BD1104B00221A7007F10B02F9794B
:1010100001230E4807F0C8FC78617B69FB60FB6820
:10102000002B02D0F86804F099FD00BF064B1B7836
:10103000DBB283F00103DBB2002BF7D1FB7A184659
:101040001837BD4680BD00BFB42800206C310300B6
:1010500080B483B000AF786039607B681B78002B68
:1010600000D003E0044B01221A7000BF00BF0C3710
:10107000BD465DF8047B7047B428002080B586B07B
:1010800002AF3A601A460346FB710B46BB7113462A
:101090007B710023FB60174B00221A70BA1DF9798F
:1010A000012300930123144807F056FCF86000BFA9
:1010B000104B1B78DBB283F00103DBB2002BF7D1BE
:1010C000FB68002B12D10B4B00221A707B79F97947
:1010D0003A68094807F068FCF86000BF054B1B78C8
:1010E000DBB283F00103DBB2002BF7D100BF103776
:1010F000BD4680BDB42800206C31030080B485B0AB
:1011000000AF7860254BFB607B68002B40D0244B00
:101110001A68F9687B6800BF00BF00BF00BF00BF4E
:1011200000BF00BF00BF8A422FD000BF00BF00BF7A
:1011300000BF00BF00BF00BF00BF00BF00BF00BFB7
:1011400000BF00BF00BF00BF00BF00BF00BF00BFA7
:1011500000BF00BF00BF00BF00BF00BF00BF00BF97
:1011600000BF00BF00BF00BF00BF00BF00BF00BF87
:1011700000BF00BF00BF00BF00BF00BF00BF00BF77
:1011800000BF00BF00BF00BF00BF013BC3D17B60F9
:1011900000BF1437BD465DF8047B70470024F4009F
:1011A000E425002080B582B000AF78607B684FF402
:1011B0007A7202FB03F31846FFF7A0FF00BF08375F
:1011C000BD4680BD80B582B000AFD0217620FFF74C
:1011D000EFFE0346FB71FB791A460C49002011F023
:1011E000E1F8FB79602B0DD1B622E0217620FFF7E4
:1011F0007DFE6420FFF7D6FF762000F009F864201A
:10120000FFF7D0FF00BF0837BD4680BD7431030033
:1012100080B582B000AF0346FB717A4B1B7803F0B8
:101220000703DAB2FB79F2211846FFF75FFE764B2F
:101230001B785B015AB2754B1B789B005BB2134362
:101240005AB2734B1B785BB213435BB2DAB2FB79D1
:10125000F4211846FFF74AFE6E4B1B785B015AB229
:101260006D4B1B789B005BB213435BB2DAB2FB7928
:10127000F5211846FFF73AFEF8791A23674A8821C4
:10128000FFF7FCFE654B5B781B021AB2634B1B78C1
:101290001BB213431BB29AB2614B1A805F4BDB78CF
:1012A0001B021AB25D4B9B781BB213431AB25D4B03
:1012B0001A805A4B5B791B021AB2584B1B791BB22E
:1012C00013431AB2584B1A80544BDB791B021AB2E3
:1012D000524B9B791BB213431BB29AB2534B1A80E9
:1012E0004E4B5B7A1B021AB24C4B1B7A1BB2134358
:1012F0001AB24F4B1A80494BDB7A1B021AB2474B8A
:101300009B7A1BB213431AB24A4B1A80434B5B7B46
:101310001B021AB2414B1B7B1BB213431AB2464B42
:101320001A803E4BDB7B1B021AB23C4B9B7B1BB2F1
:1013300013431AB2414B1A80384B5B7C1B021AB222
:10134000364B1B7C1BB213431AB23D4B1A80334BF6
:10135000DB7C1B021AB2314B9B7C1BB213431AB2CB
:10136000384B1A802D4B5B7D1B021AB22B4B1B7D19
:101370001BB213431AB2344B1A80284BDB7D1B027D
:101380001AB2264B9B7D1BB213431AB22F4B1A8005
:10139000224B5A7E2E4B1A70F87907232D4AE121F1
:1013A000FFF76CFE2B4B5B781B021AB2294B1B78A4
:1013B0001BB213431AB2284B1A80264B9A78274B3C
:1013C0001A70244BDB781A02224B1B791B01DBB20B
:1013D00013431B119AB2224B1A801E4B5B791A02DF
:1013E0001C4B1B7903F0F00313431B119AB21D4BE6
:1013F0001A80184B9A791C4B1A7000BF0837BD46EB
:1014000080BD00BFCB250020CC250020CA250020B0
:10141000CD250020CF250020CE25002084370020B8
:101420007237002076370020D6370020BC370020E6
:101430009E370020BE370020A0370020B4370020A0
:10144000D837002070370020C0370020D437002064
:1014500078370020A8370020DA370020D237002064
:1014600074370020D0370020AF37002090B583B00C
:1014700000AF78600823424AF7217620FFF7FEFD8F
:101480003F4B1B781A043E4B5B781B0213433C4ACC
:10149000927813431B091A463A4B1A60384BDB7893
:1014A0001A04374B1B791B021343354A52791343F5
:1014B0001B091A46334B5A60314B9B791B021AB2F7
:1014C0002F4BDB791BB213431BB29BB21A462D4B39
:1014D0009A602C4B5B682C4A13602B4B1B68DA100C
:1014E0002A4B1B885B00D31A294AB2F9002002FB61
:1014F00003F3DB12274A1360234B1B681B11234A9B
:1015000012889B1A204A1268121120490988521A1F
:1015100002FB03F31B13204AB2F9002002FB03F382
:101520009B131E4A13601B4B1A681C4B1B68134409
:101530001B4A1360134B1A68194B1B681946104657
:1015400000F0AAF803461A467B681A607B681C1DE7
:10155000134B1B68184600F08DF8034623607B6828
:1015600003F10804074B9A680D4B1B681946104697
:1015700000F018F80346236000BF0C37BD4690BD4D
:10158000B8280020C4370020B03700207237002070
:10159000763700207C370020D6370020B83700206F
:1015A000E037002080B485B000AF786039603B68D8
:1015B000A3F59633FB607B689A03284B1B881B05B9
:1015C000D21A274B1B881946FB6803FB01F3D31A79
:1015D00003F58043DB13234A12781146FA6802FBB5
:1015E00001F29212204909780846F96801FB00F1DE
:1015F000C91201F5004101FB02F2921202F500123C
:101600001A49B1F9001001FB02F202F500529213DF
:1016100002FB03F3FB60FB68DB13FA68D21302FBE7
:1016200003F3DB11124A127802FB03F31B11FA6871
:10163000D31AFB60FB6823EAE373FB60FB68B3F13A
:10164000C85FA8BF4FF0C853FB60FB681B13184668
:101650001437BD465DF8047B704700BF7437002027
:10166000D0370020AF370020D2370020DA370020F3
:101670007837002080B485B000AF78607A68134670
:101680009B00134480331B12FB60FB681846143721
:10169000BD465DF8047B704780B483B000AF7860CE
:1016A00039603B685B10A3F57A435A4A1360594B83
:1016B0001B689B10574A1268921002FB03F3DB125F
:1016C000554AB2F9002002FB03F3544A1360544B0D
:1016D000B3F900301A464F4B1B6803FB02F35A0064
:1016E0004E4B1B6813444D4A13604C4B1B689A10B9
:1016F0004C4BB3F900301B041344484A13604A4B67
:10170000B3F900301946434B1B689B10414A1268DD
:10171000921002FB03F35B1303FB01F3DA10434B5C
:10172000B3F9003019463B4B1B6803FB01F35B1018
:1017300013449B14374A1360364B1B6803F5004370
:101740003B4A128802FB03F3DB13324A1360314B2E
:101750001B68002B01D1002356E07B685B422F4AB7
:10176000126812139B1A40F6354202FB03F303F191
:10177000434303F5A0032F4A13602E4B1B68002B35
:1017800009DB2C4B1B685B00224A1268B3FBF2F3A7
:10179000284A136008E0274B1B681E4A1268B3FBF7
:1017A000F2F35B00234A1360234BB3F90030194670
:1017B000204B1B68DB081F4A1268D20802FB03F3A8
:1017C0005B0B03FB01F31B13124A1360194B1B68DD
:1017D0009B081A46194BB3F9003003FB02F35B1365
:1017E0000E4A13600B4B1A680C4B1B681344144AC7
:1017F000B2F9002013441B110E4A126813441A4612
:101800000C4B1A600B4B1B6818460C37BD465DF835
:10181000047B704780370020D8370020A437002091
:10182000B4370020A0370020BE3700209E370020AC
:10183000BC370020DC370020D4370020C037002020
:101840007037002080B588B000AF184A3B1D07CA2A
:1018500003C31A701649002007F098FEF861FB696F
:10186000BB61BB69002B02D0B86904F077F93B1D5E
:101870001946002007F0F2FEF861FB697B617B6985
:10188000002B02D0786904F069F90121094807F0BA
:1018900041FFF861FB693B613B69002B02D038696D
:1018A00004F05CF900BF2037BD4680BD94310300D1
:1018B000B9180200C028002080B584B000AF78605D
:1018C0007B681B78002B3BD17B685B680121184645
:1018D00007F020FFF860FB68BB60BB68002B02D0FC
:1018E000B86804F03BF97B685B68B3F9003007EE39
:1018F000903AB8EEE77ADFED146AC7EE267A134B1A
:10190000C3ED007A114BD3ED007A9FED117A67EEAB
:10191000877A9FED107A67EE877A0C4BC3ED007AD9
:101920000A4BD3ED007A9FED0C7A67EE877AFCEED6
:10193000E77AC7ED007A3B889BB21AB2074B1A8050
:1019400000BF1037BD4680BD00008045C428002080
:1019500085EBB13F333353400000C842C828002014
:1019600080B400AF034BB3F900301846BD465DF8B4
:10197000047B7047C828002080B485B000AF786031
:10198000254BFB607B68002B40D0244B1A68F9681C
:101990007B6800BF00BF00BF00BF00BF00BF00BF2B
:1019A00000BF8A422FD000BF00BF00BF00BF00BFF2
:1019B00000BF00BF00BF00BF00BF00BF00BF00BF2F
:1019C00000BF00BF00BF00BF00BF00BF00BF00BF1F
:1019D00000BF00BF00BF00BF00BF00BF00BF00BF0F
:1019E00000BF00BF00BF00BF00BF00BF00BF00BFFF
:1019F00000BF00BF00BF00BF00BF00BF00BF00BFEF
:101A000000BF00BF00BF013BC3D17B6000BF1437E4
:101A1000BD465DF8047B70470024F400E4250020F7
:101A200080B582B000AF78607B684FF47A7202FBB9
:101A300003F31846FFF7A0FF00BF0837BD4680BD7F
:101A400090B585B000AF074B3C460FCB84E80F0044
:101A5000394600230022044805F070F800BF14370F
:101A6000BD4690BDA8310300A031030080B582B00F
:101A700002AF104B9F221A70042200210E48FDF77E
:101A800067FC042300930C4B01220A490B4805F024
:101A900019F9094B5B781A46074B9B781946064B98
:101AA000DB7800930B460649002010F07BFC00BF5A
:101AB000BD4680BDCC280020D8280020A0310300DE
:101AC000B831030080B582B002AF022200210E4877
:101AD000FDF73EFC0D4B05221A70022300930A4BC2
:101AE00001220A490A4805F0EDF8074B5B785B08CC
:101AF000DBB203F00103002B01D1002300E001233E
:101B00001846BD4680BD00BFD4280020CC28002048
:101B1000A031030080B582B002AF022200210D483F
:101B2000FDF716FC0C4B05221A7002230093094B9B
:101B300001220949094805F0C5F8064B5B7803F016
:101B40000103002B01D0012300E000231846BD460D
:101B500080BD00BFD4280020CC280020A031030085
:101B600080B586B002AF03463960FB80FB881B015D
:101B7000BB60194B03221A70BB681B14DAB2164BF8
:101B80005A70BB681B12DAB2134B9A70BB68DAB298
:101B9000114BDA70142200211048FDF7D9FB1423F1
:101BA00000930E4B04220C490D4805F08BF80423DA
:101BB000FB810AE0FB89043B3A681344FA89074930
:101BC0008A5C1A70FB890133FB81FB89132BF1D9E5
:101BD0001037BD4680BD00BFD028002068290020F6
:101BE000A031030080B586B002AF03463960FB80A8
:101BF000FB88B3F5805F80F0928000F01DF903460A
:101C000083F00103DBB2002B40F08B80FFF782FFF3
:101C10000346002B40F08780FB88184600F08EF8C2
:101C2000034683F00103DBB2002B7ED1FB8818460C
:101C300000F0F6F8B860842200213E48FDF788FBEA
:101C40003C4B02221A70BB681B14DAB2394B5A7033
:101C5000BB681B12DAB2374B9A70BB68DAB2354BED
:101C6000DA700023FB810423FB810AE0FB89FA89F7
:101C7000043A39680A4411782E4AD154FB89013359
:101C8000FB81FB89832BF1D900230093002384225D
:101C90002849294805F016F80023FB810AE01420A2
:101CA000FFF7BEFEFFF736FF0346002B06D0FB8989
:101CB0000133FB81FB89092BF1D900E000BF002330
:101CC000FB810AE01420FFF7ABFE00F0B5F80346F5
:101CD000002B06D1FB890133FB81FB89092BF1D94C
:101CE00000E000BF134B8022DA700423FB810AE07E
:101CF000FB89FA897C3239680A4411780D4AD1543B
:101D0000FB890133FB81FB89832BF1D900230093ED
:101D1000002384220749084804F0D4FF06E000BFEE
:101D200004E000BF02E000BF00E000BF1037BD4686
:101D300080BD00BFE4280020A031030080B586B03C
:101D400002AF0346FB80FB88B3F5805F01D300231D
:101D500040E0042200212148FDF7FAFA0822002180
:101D60001F48FDF7F5FAFB88184600F059F8F860AF
:101D70001A4B03221A70FB681B14DAB2174B5A7005
:101D8000FB681B12DAB2154B9A70FB68DAB2134B80
:101D9000DA7008230093124B04221049114804F012
:101DA00091FF0F4B1B799AB20D4B5B799BB2134499
:101DB0009AB20B4B9B799BB213449AB2084BDB79D6
:101DC0009BB213447B817B89B3F57F7F01D10123D3
:101DD00000E0002318461037BD4680BDD028002003
:101DE000DC280020A031030080B582B000AF0023C2
:101DF000FB800BE0FB881846FFF7A0FF0346002B93
:101E000001D0FB8808E0FB880133FB80FB88B3F539
:101E1000805FEFD34FF4805318460837BD4680BD2E
:101E200080B483B000AF78607B681B0218460C3723
:101E3000BD465DF8047B704780B584B002AF0023D7
:101E4000FB710D4B06221A70002300930023012220
:101E500009490A4804F036FFFFF734FE0346002B19
:101E600002D00123FB7101E00023FB71FB791846CE
:101E70000837BD4680BD00BFCC280020A03103003C
:101E800080B582B000AF00233B7150237B710023EB
:101E9000BB713B1D032219461020FFF75BF800BF02
:101EA0000837BD4680BD80B584B000AF78600023A0
:101EB0003B7300237B7307F10C02022308211020DF
:101EC000FFF7DCF87B7B1B021AB23B7B1BB2134390
:101ED0001BB29AB27B681A8007F10C020223092117
:101EE0001020FFF7CBF87B6802337A7B120211B225
:101EF0003A7B12B20A4312B292B21A8007F10C0274
:101F000002230A211020FFF7B9F87B6804337A7B9B
:101F1000120211B23A7B12B20A4312B292B21A8082
:101F200007F10C0202230B211020FFF7A7F87B68B2
:101F300006337A7B120211B23A7B12B20A4312B212
:101F400092B21A8000BF1037BD4680BD80B485B004
:101F500000AF7860254BFB607B68002B40D0244BA2
:101F60001A68F9687B6800BF00BF00BF00BF00BFF0
:101F700000BF00BF00BF8A422FD000BF00BF00BF1C
:101F800000BF00BF00BF00BF00BF00BF00BF00BF59
:101F900000BF00BF00BF00BF00BF00BF00BF00BF49
:101FA00000BF00BF00BF00BF00BF00BF00BF00BF39
:101FB00000BF00BF00BF00BF00BF00BF00BF00BF29
:101FC00000BF00BF00BF00BF00BF00BF00BF00BF19
:101FD00000BF00BF00BF00BF00BF013BC3D17B609B
:101FE00000BF1437BD465DF8047B70470024F40041
:101FF000E425002080B582B000AF78607B684FF4A4
:102000007A7202FB03F31846FFF7A0FF00BF083700
:10201000BD4680BD80B582B000AF00211820FEF71C
:10202000C7FF0346FB71FB791A461549002010F0E3
:10203000B9F90223BB710E237B7100233B710E2380
:10204000FB70BB791A460F211820FEF74FFF7B79F2
:102050001A4610211820FEF749FF3B795B015AB25E
:10206000FB785B005BB213435BB2DBB21A46112113
:102070001820FEF73BFF00BF0837BD4680BD00BFFC
:10208000E031030080B582B000AF0823FB7102236A
:10209000BB710E237B71FB791A4610211820FEF7C5
:1020A00025FFBB795B015AB27B795B005BB21343BE
:1020B0005BB2DBB21A4611211820FEF717FF00BFF2
:1020C0000837BD4680BD80B584B000AF786007F1A9
:1020D0000802062302211820FEF7D0FF7B7A1B029C
:1020E0001AB23B7A1BB213431AB27B681A807B6820
:1020F0000233FA7A120211B2BA7A12B20A4312B257
:102100001A807B6804337A7B120211B23A7B12B2D6
:102110000A4312B21A8000BF1037BD4680BD0000CE
:1021200080B586B000AF5E49002010F03BF940F664
:10213000B830FFF75FFF5B4B7B612122372118200E
:10214000FEF7D4FE202236211820FEF7CFFE00BF76
:1021500036211820FEF72CFF034603F01003DBB2F4
:10216000002BF5D0402236211820FEF7BFFE00BF1D
:1021700036211820FEF71CFF034603F01003DBB2E4
:10218000002BF5D0602236211820FEF7AFFE00BFED
:1021900036211820FEF70CFF034603F01003DBB2D4
:1021A000002BF5D007F10C02022338211820FEF78E
:1021B00065FF7B7B1B027B8207F10C020223392126
:1021C0001820FEF75BFF7B7B1B023B8207F10C02B2
:1021D00002233A211820FEF751FF7B7B1B02FB8173
:1021E0003149002010F0DEF8B7F9123007EE903ACE
:1021F000F8EEE77A9FED2D7A27EE877AD7ED057A0C
:1022000027EE277ADFED2A6AC7EE267AFDEEE77A17
:10221000C7ED017ABB881BB21A462649002010F090
:10222000C1F8B7F9103007EE903AF8EEE77A9FED73
:102230001F7A27EE877AD7ED057A27EE277ADFED2A
:102240001C6AC7EE267AFDEEE77AC7ED017ABB88F5
:102250001BB21A461849002010F0A4F8B7F90E3046
:1022600007EE903AF8EEE77A9FED107A27EE877A3C
:10227000D7ED057A27EE277ADFED0D6AC7EE267ACD
:10228000FDEEE77AC7ED017ABB881BB21A460B490F
:10229000002010F087F800BF1837BD4680BD00BF92
:1022A000003203000000FA40303203000000C84250
:1022B000000080434C320300643203007C32030090
:1022C000A0DF704700BF1846A2DF704700BF184666
:1022D000A4DF704700BF1846A6DF704700BF18464E
:1022E00080B483B000AF786039603B689A887B68BF
:1022F0001A8400BF0C37BD465DF8047B704780B47C
:1023000083B000AF786039607B684FF6FF721A8443
:1023100000BF0C37BD465DF8047B704780B584B0C4
:1023200000AF786039603B685B89022B17D17B680E
:102330001B68002B13D03B680C33184609F095F945
:102340000346002B02D000233B7301E001233B73C3
:102350007B681B6807F10C0211467868984700BF3C
:102360001037BD4680BD80B584B000AF786039605D
:102370003B680633FB60FB681A887B689B899A423E
:1023800003D1F9687868FFF7C9FF00BF1037BD4671
:1023900080BD80B582B000AF786039603B681B8833
:1023A000112B09D0502B0CD0102B00D00EE0396827
:1023B0007868FFF795FF09E039687868FFF79FFFB5
:1023C00004E039687868FFF7CEFF00BF00BF083728
:1023D000BD4680BD80B5B8B000AF7860396007F108
:1023E000C003032200211846FCF7B2FF97F8C03063
:1023F000012262F3030387F8C03097F8C03001224E
:1024000062F3071387F8C0303B681B7A87F8C13046
:1024100097F8C230012262F3420387F8C23007F115
:10242000C4031C2200211846FCF792FF97F8C43021
:1024300043F0100387F8C4300023C7F8C8300023E6
:10244000C7F8D0300023C7F8D43007F1C003C7F86D
:10245000D8300023C7F8DC30012387F8AA3042F6D1
:102460003723A7F8A83007F1A40303220021184658
:10247000FCF76EFF3B685B7A87F8A4303B689B7A79
:1024800087F8A53097F8A630012262F3420387F857
:10249000A63097F8A6306FF3C30387F8A63097F8F5
:1024A000A6306FF3041387F8A63097F8A63043F0F0
:1024B000010387F8A63007F1AC0314220021184667
:1024C000FCF746FF07F1A803C7F8AC3007F1A403F7
:1024D000C7F8B0300123A7F8B4300023A7F8B6300E
:1024E0009B23A7F8B83007F10803C7F8BC307B6816
:1024F00098887B68083307F1AC0207F1C401FFF745
:10250000E3FE03461846E037BD4680BD80B592B075
:1025100000AF7860396007F12C031C2200211846B7
:10252000FCF716FF97F82C3043F0020387F82C30A5
:1025300000233B630023BB630023FB6300233B6456
:1025400000237B640123BB7542F63923BB8207F16C
:102550001003032200211846FCF7FAFE3B685B7B60
:102560003B743B689B7B7B74BB7C012262F3420320
:10257000BB74BB7C6FF3C303BB74BB7C6FF30413EE
:10258000BB74BB7C6FF30003BB7407F11803142208
:1025900000211846FCF7DCFE07F11403BB6107F1CC
:1025A0001003FB6101233B8400237B840123BB8454
:1025B0003B68DB7B3B7307F10C03BB627B6898884D
:1025C0007B68183307F1180207F12C01FFF77CFE36
:1025D000034618464837BD4680BD80B592B000AF6F
:1025E0007860396007F12C031C2200211846FCF7A3
:1025F000AFFE97F82C3043F0020387F82C3097F8A1
:102600002C3043F0080387F82C3097F82C306FF308
:10261000820387F82C3000233B630023BB63002335
:10262000FB6300233B6400237B640123BB7542F6FC
:102630003823BB8207F11003032200211846FCF760
:1026400087FE3B68DB7A3B743B681B7B7B74BB7CFF
:10265000012262F34203BB74BB7C6FF3C303BB7400
:10266000BB7C6FF30413BB74BB7C6FF30003BB74C0
:1026700007F11803142200211846FCF769FE07F140
:102680001403BB6107F11003FB6101233B840023AA
:102690007B840123BB8400233B7307F10C03BB62E3
:1026A0007B6898887B68103307F1180207F12C01CA
:1026B000FFF70AFE034618464837BD4680BD80B581
:1026C00084B000AF786039603B681A687B681A6034
:1026D0003B68DA7B7B689A717B684FF6FF721A84DD
:1026E0007B689B2283F822200123BB7241F60D03F5
:1026F0003B817B681A1D07F1080319460120FFF78B
:10270000DFFDF860FB68002B01D0FB681EE0396834
:102710007868FFF75FFEF860FB68002B01D0FB686C
:1027200014E039687868FFF758FFF860FB68002B01
:1027300001D0FB680AE039687868FFF7E7FEF860C7
:10274000FB68002B01D0FB6800E00023184610371F
:10275000BD4680BD80B5B0B000AF786039607B68A1
:102760001B8C4FF6FF72934256D01123A7F8B83056
:1027700000233B72012387F8BB3011E097F8BB3090
:1027800097F8BB20013A39680A44127807F1C00172
:102790000B4403F8B82C97F8BB30013387F8BB30F3
:1027A00097F8BB309BB2B7F8B8209A42E6D8B7F892
:1027B000B830A7F8B63007F1A4031022002118465C
:1027C000FCF7C6FD7B681B89A7F8A430012387F8B6
:1027D000A6300023A7F8A83007F1B603C7F8AC303D
:1027E00007F10803C7F8B0307B681B8C07F1A4021F
:1027F00011461846FFF770FDC7F8BC00D7F8BC308B
:10280000002B0CD1B7F8B630B7F8B8209A4206D0F2
:102810000C23C7F8BC3002E00823C7F8BC30D7F857
:10282000BC301846C037BD4680BD80B586B000AF0D
:1028300078600B46FB7007F1100308220021184650
:10284000FCF786FD01233B8200237B82FB783B73F0
:1028500007F10C037B617B68188C7B681B8B07F18D
:1028600010021946FFF734FD034618461837BD46D7
:1028700080BD80B483B000AF786039607B681A8C0B
:102880003B685B889A420DD13B681B8840F67722F3
:10289000934207D13B689B88DBB2033BDAB27B688B
:1028A00083F8222000BF0C37BD465DF8047B7047DB
:1028B00080B588B000AF78600023FB774BE02A4BEF
:1028C0001A68FB7FDB001344BB61BB691B781A46A7
:1028D000012393407B61254B1A687B691340002BD1
:1028E00036D07B69DA43214B1B6813401F4A1360C3
:1028F000BB691B78184605F0DDF80346FB74BB691D
:102900001B781A46012393401A46194B1B68134043
:10291000FA7CB96909788A40934219D1FB7CBA697B
:102920005278012A0CBF01220022D2B293420CBF7E
:1029300001230023DBB2FB60BB695B68002B07D07F
:10294000BB695B68BA691278F968C9B210469847E2
:10295000FB7F0133FB77074B1B78FA7F9A42AED39C
:1029600000BF2037BD4680BD7C290020AC29002057
:10297000A82900208029002080B584B000AF7860AD
:102980000B46FB7001227B6802FA03F3FB601E4BCF
:10299000184600F0E3FEB860BB68002B30D11B4B3B
:1029A0001A68FB681340002B22D1786805F082F882
:1029B0000346002B06D0164B1A68FB681343144AD3
:1029C000136006E0FB68DA43114B1B681340104AA2
:1029D00013600E4B1A68FB6813430C4A13600A48D5
:1029E0000C4B1B680022194600F084FEB86008E01A
:1029F000FB68DA43054B1B681340044A136000E090
:102A000000BF1037BD4680BD88290020AC290020BA
:102A1000A82900208429002080B588B000AFF86084
:102A20000B467A60FB727B68042B01D8072349E0D0
:102A300004F06CFF034683F00103DBB2002B07D0E8
:102A400004F024FFF861FB69002B01D0FB6939E039
:102A50001E4AFB6813601E4AFB7A13701D4A7B688E
:102A600013601D4B00221A601C4B00221A601EE0EE
:102A7000FB7ADB00FA681344BB6103233B75002338
:102A80007B750023BB750023FB75BB699B787B7549
:102A9000BB691B78184607F11403114A194604F064
:102AA00047FFF861FB69002B01D0FB690AE0FB7A64
:102AB0005A1EFA72002BDBD10A4A00210A4800F0A4
:102AC000E5FD034618462037BD4680BD7C29002021
:102AD0008029002084290020A8290020AC2900207A
:102AE00079290200B12802009432030080B582B037
:102AF00000AF00237B600CE00B4B1A687B68DB00A7
:102B000013441B780121184604F06CFF7B680133E5
:102B10007B60064B1B781A467B689A42ECD80023F0
:102B200018460837BD4680BD7C290020802900203A
:102B300080B483B000AF0346FB71094997F90730B1
:102B40005B09FA7902F01F02012000FA02F241F853
:102B5000232000BF0C37BD465DF8047B704700BFE3
:102B600000E100E080B483B000AF0346FB71094987
:102B700097F907305B09FA7902F01F02012000FA89
:102B800002F2203341F8232000BF0C37BD465DF828
:102B9000047B704700E100E080B483B000AF0346DF
:102BA000FB71094997F907305B09FA7902F01F02B6
:102BB000012000FA02F2403341F8232000BF0C3715
:102BC000BD465DF8047B704700E100E080B483B04F
:102BD00000AF0346FB71094997F907305B09FA79A1
:102BE00002F01F02012000FA02F2603341F82320B4
:102BF00000BF0C37BD465DF8047B704700E100E084
:102C000080B483B000AF03463960FB7197F9073099
:102C1000002B0BDA0D49FB7903F00F03043B3A68F4
:102C2000D2B25201D2B20B441A7609E0084997F9A0
:102C300007303A68D2B25201D2B20B4483F8002373
:102C400000BF0C37BD465DF8047B704700ED00E027
:102C500000E100E080B485B000AF7860254BFB60F8
:102C60007B68002B40D0244B1A68F9687B6800BF52
:102C700000BF00BF00BF00BF00BF00BF00BF8A424F
:102C80002FD000BF00BF00BF00BF00BF00BF00BF0C
:102C900000BF00BF00BF00BF00BF00BF00BF00BF3C
:102CA00000BF00BF00BF00BF00BF00BF00BF00BF2C
:102CB00000BF00BF00BF00BF00BF00BF00BF00BF1C
:102CC00000BF00BF00BF00BF00BF00BF00BF00BF0C
:102CD00000BF00BF00BF00BF00BF00BF00BF00BFFC
:102CE00000BF013BC3D17B6000BF1437BD465DF818
:102CF000047B70470024F400E425002080B582B0F6
:102D000000AF7860054A7B68C2F8083507211120BA
:102D1000FFF776FF00BF0837BD4680BD00100140B9
:102D200080B500AF0D4B4FF48032C3F844230B4BFA
:102D30004FF48032C3F804231120FFF747FF11201E
:102D4000FFF7F6FE054B01221A602F20FFF782FFE6
:102D5000034B01221A7000BF80BD00BF001001406C
:102D6000CE2A002080B500AF1120FFF7FBFE0F4BED
:102D70004FF48032C3F848230C4B4FF48032C3F831
:102D800008230A4B01225A602F20FFF763FF074BED
:102D900001229A60064B00221A602F20FFF75AFF8B
:102DA000044B00221A7000BF80BD00BF001001401C
:102DB000C02A0020CE2A002080B400AF034BD3F8F5
:102DC00004351846BD465DF8047B7047001001408D
:102DD00080B483B000AF786039607A683B68D31AFA
:102DE00023F07F4318460C37BD465DF8047B7047DF
:102DF00080B483B000AF7860044A7B68C2F8403585
:102E000000BF0C37BD465DF8047B704700100140E1
:102E100080B487B000AF7860294B1B68002B03D1CA
:102E2000274A7B68136045E07B681A68244B1B685F
:102E30001B689A4210D8224B1B68214A12681168FD
:102E40007A6812688A1A1A601D4B1A687B68DA6100
:102E50001B4A7B6813602DE07B681B68FB60184B86
:102E60001B687B61164B1B683B6109E03B691B6873
:102E7000FA68D31AFB603B697B613B69DB693B61A4
:102E80003B69002B04D03B691A68FB689A42EDD37A
:102E90003B69002B05D03B691A68FB68D21A3B6975
:102EA0001A607B68FA681A607B683A69DA617B6944
:102EB0007A68DA6100BF1C37BD465DF8047B704755
:102EC000BC2A002080B586B000AF7860294B1B6813
:102ED000FB60284B1B687B617B693B6108E03A69BA
:102EE0007B689A4208D03B697B613B69DB693B6147
:102EF0003B69002BF3D100E000BF3B69002B01D1FF
:102F0000002333E07A693B699A4214D1194B1B685C
:102F1000DB69184A1360174B1B68002B0BD1164B4B
:102F200001229A60154B00221A60154B01221A707B
:102F30002F20FFF78FFE3B691B68BB603B69DA6996
:102F40007B69DA617B69DB693B613B69002B05D0FA
:102F50003B691A68BB681A443B691A60054B1B68D9
:102F6000FA689A4214BF01230023DBB218461837CF
:102F7000BD4680BDBC2A002000100140C02A0020B0
:102F8000CF2A002080B500AF1120FFF705FE00BF5B
:102F900080BD80B500AF1420FFF7FEFD00BF80BDEF
:102FA00080B582B000AF78607B685B697A689269AF
:102FB0001046984700BF0837BD4680BD80B584B035
:102FC00000AF2B4B1B68002B4ED000237B60FFF71C
:102FD000F3FE0246274B1B6819461046FFF7F8FE22
:102FE000B860234B1B68FB601DE0FB681A68BB6878
:102FF0009A421CD8FB681B68BA68D31ABB60FB688E
:103000001B687A6813447B60FB683B60FB68DB6984
:10301000FB603B681B7C002B05D03B6800221A74C8
:103020003868FFF7BDFFFB68002BDED100E000BF72
:10303000114B1A78114B1B789A420CD10F4B1B780D
:103040000133DAB20D4B1A700C4B1B78022B02D1F4
:103050000A4B00221A70094B1B781946084A7B68F4
:1030600042F82130FFF795FF00BF1037BD4680BD05
:10307000BC2A0020C02A0020CC2A0020CD2A002013
:10308000C42A002080B483B000AF7860194B1A784E
:10309000194B1B789A4223D0164B1B780133DAB2B6
:1030A000144B1A70134B1B78022B02D1114B0022C8
:1030B0001A70104B1B781A46104B53F822207B686D
:1030C0001A607B681A680E4B1B6813440C4A136025
:1030D0000B4B1B6823F07F43094A1360012303E075
:1030E0007B6800221A60002318460C37BD465DF845
:1030F000047B7047CC2A0020CD2A0020C42A00205F
:10310000C02A002080B489B000AFF860B9607A604E
:103110000023FB6138E0214B1B68BB61BB691A6867
:10312000FB689A4206D9BB691A68FB68D21ABB6968
:103130001A602DE0BB691B68FA68D31AFB60BB6993
:103140001B68FA691344FB61BB6900221A60134BC8
:103150001B687B61BB69DB69104A1360BB69DB6874
:10316000002B11D0BA68FB69134423F07F42BB697E
:103170005A60BB69DA68BB699A607B681A68BB6988
:10318000DA617B687A691A60044B1B68002BC2D134
:1031900000BF2437BD465DF8047B7047BC2A002081
:1031A00080B588B000AF78600023FB77654B1B6863
:1031B0007B61A9E07B68002B05D07B68BB61BB69A4
:1031C000DB697B6060E0604B1B781A4613465B004E
:1031D0001344DB005C4A134404333B615A4B1B78B5
:1031E0000133DAB2584B1A70574B1A78564B9B780A
:1031F0009A4202D1544B00221A703B695B68BB6152
:103200003B691B78022B04D0032B1AD0012B1ED054
:103210001CE03B695B681846FFF754FE0346002B31
:1032200001D00123FB77BB6900221A746CE0454B87
:103230001B68FB60FB6800221A74FB68DB69414A6B
:103240001360404B1B68002BF1D15DE05CE000BFD8
:10325000BB691B7C002B00D056E03B699A68BB69B8
:103260005A603B69DA68BB699A603B691A69BB6955
:10327000DA603B695A69BB699A61344B1B78002B51
:1032800002D0BB6900225A60BB695A68304B1B6888
:10329000D31A23F07F432F4A93420ED8BB695A6852
:1032A0002B4B1B6819461046FFF792FD0246BB697F
:1032B0009B681A44BB691A6017E0254B1A68BB6902
:1032C0005B6819461046FFF783FDB860BB699A68D2
:1032D000BB689A4206D9BB699A68BB68D21ABB69B7
:1032E0001A6002E0BB6900221A60BB6900225A60C2
:1032F000BB6900229A60BB6901221A74BB69002273
:10330000DA61B869FFF784FD7B68002B7FF452AF68
:103310000D4B1A780C4B5B789A427FF44BAFFB7FD6
:10332000002B04D1074B1A687B699A4201D0012314
:1033300000E0002303F00103DBB218462037BD464E
:1033400080BD00BFBC2A0020B0290020CF2A002069
:10335000C02A0020FEFF7F0090B589B000AF7860E2
:10336000274B1B68002B44D0254B1B681B68FB6157
:10337000FFF722FDB861234B1B687B617969B8694F
:10338000FFF726FD034603333B611F4B1B7883F099
:103390000103DBB2002B01D0FFF7C2FC3A69FB69E5
:1033A000934238BF13467A6913447B617B6923F0EB
:1033B0007F437B617869FFF71BFDFFF7FDFCF86039
:1033C000B969F868FFF704FD0346DC1CB969786940
:1033D000FFF7FEFC03469C420DD9FFF7EDFC0346C8
:1033E0001846FFF705FD2F20FFF734FCFFF7CAFD55
:1033F00001E0FFF7B7FC00BF2437BD4690BD00BF1A
:10340000BC2A0020C02A0020CE2A002080B586B029
:1034100000AF00237B600023FB75164B1B683B61EC
:10342000154B1B68FB603B461846FFF72BFE034617
:10343000FB72FB7A002B07D03B683A1D39691846AE
:10344000FFF760FE0123FB757B681846FFF7A8FEB7
:103450000346002B01D00123FB75FB7D002B02D01E
:10346000F868FFF779FF054B00221A7000BF183784
:10347000BD4680BDC02A0020BC2A0020CF2A0020E3
:1034800080B483B000AF0346FB71044AFB795370EC
:1034900000BF0C37BD465DF8047B7047B0290020A3
:1034A00080B485B000AF7860134B5B780133FB7359
:1034B000114B9B78FA7B9A4201D10023FB730E4B90
:1034C0001B78FA7B9A4201D100230EE07B68FA7BDD
:1034D0001A70094B5B781A4613465B001344DB00F5
:1034E000054A13440433BB60BB6818461437BD4615
:1034F0005DF8047B704700BFB029002080B588B01C
:1035000000AFF860B9607A603B600023FB61002087
:1035100002F07EFB07F117031846FFF7C1FFB86101
:10352000BB69002B02D10423FB6117E0BB690122B8
:103530001A70BB69FA685A60FFF73EFC0246BB6925
:103540009A60BB69BA68DA60BB697A681A61BB695C
:103550003A685A61FB7D1846FFF792FF002002F09F
:1035600061FBFB69002B01D1FFF713FDFB691846D6
:103570002037BD4680BD80B586B000AF78600B4671
:10358000FB7000237B61002002F042FB07F10F0378
:103590001846FFF785FF38613B69002B02D10423F1
:1035A0007B6109E03B69FA781A703B697A685A6076
:1035B000FB7B1846FFF764FF002002F033FB7B69BA
:1035C000002B01D1FFF7E5FC7B6918461837BD4693
:1035D00080BD000080B500AF0D4B0022C3F8402134
:1035E0000B4B0022C3F84421094B0022C3F84821A9
:1035F000074B0022C3F84C21054B0022C3F80021E1
:10360000034B0022C3F80421FFF7D8FC00BF80BDA4
:103610000010014080B500AFFFF7F8FE00BF80BD8D
:1036200080B500AFFFF79EFB134B00221A70124BC0
:1036300000225A70104B0B229A70104B00221A6015
:103640000F4B00221A700F4B00221A701420FFF744
:10365000BDFA07211420FFF7D3FA1420FFF768FA08
:103660000720FFF74BFBFFF7A7FB0246064B1A604C
:103670000023184680BD00BFB0290020BC2A0020CE
:10368000CC2A0020CD2A0020C02A002080B487B098
:1036900000AFF8600B467A60FB72154B9B78002BED
:1036A00001D108231DE07B68002B01D1072318E01E
:1036B000FB68002B01D1072313E0FB681B681B7C10
:1036C000002B01D008230CE0FB681B687B617B6941
:1036D00000221A747B69FA7A5A747B697A685A6193
:1036E000002318461C37BD465DF8047B704700BFB9
:1036F000B029002080B586B000AFF860B9607A606C
:10370000FB687B61144B9B78002B01D108231EE0E2
:10371000FB68002B01D1082319E0BB68042B01D8FA
:10372000072314E07B695B69002B01D108230EE0BD
:103730007B695B7C012B01D1BB6800E000233B610E
:103740007B683A69B9687869FFF7D8FE034618467E
:103750001837BD4680BD00BFB029002080B584B0B9
:1037600000AF78607B68FB600D4B9B78002B01D12C
:10377000082310E07B68002B03D0FB685B69002BFB
:1037800001D1082307E0FB6800221A740221F868BF
:10379000FFF7F1FE034618461037BD4680BD00BF57
:1037A000B029002080B483B000AF78607B6803F05C
:1037B0000303002B0CBF01230023DBB218460C3798
:1037C000BD465DF8047B704780B483B000AF03460C
:1037D000FB71064B1A78FB791343DAB2034B1A706C
:1037E00000BF0C37BD465DF8047B7047D02A00202F
:1037F00080B483B000AF0346FB7197F90730DB4319
:103800005AB2074B1B785BB213405BB2DAB2044B7F
:103810001A7000BF0C37BD465DF8047B704700BFCF
:10382000D02A002080B483B000AF0346FB71084B60
:103830001A78FB791340DBB2002B14BF012300235D
:10384000DBB218460C37BD465DF8047B704700BFFD
:10385000D02A002080B584B000AF78600023FB60E0
:103860000EE00B4AFB6852F82330002B05D0084AC3
:10387000FB6852F8233078689847FB680133FB6097
:10388000FB68072BEDD900BF1037BD4680BD00BFD8
:10389000D42A002080B483B000AF786039607B68A0
:1038A0001B78013B052B5BD801A252F823F000BF27
:1038B000C9380200D1380200F13802002339020071
:1038C00043390200593902003B6800221A7048E06F
:1038D0003B6801221A707B681A893B689A817B6871
:1038E0009A883B68DA817B68DA683B689A6038E0DE
:1038F0003B6802221A707B681A893B689A817B6850
:103900009A883B68DA817B68DA683B689A607B68F2
:103910001B7C062B0CBF01230023DAB23B681A7410
:103920001FE03B6803221A707B68DA883B689A8143
:103930007B681A893B68DA817B68DA683B689A6041
:103940000FE03B6804221A707B68DA883B689A8132
:103950003B680022DA8104E03B6805221A7000E02F
:1039600000BF00BF0C37BD465DF8047B704700BF49
:1039700080B483B000AF78607B689B884FF6FF729D
:10398000934205D07B681B88002B01D0012300E007
:10399000002303F00103DBB218460C37BD465DF887
:1039A000047B704780B582B000AF78607B68002BE5
:1039B00011D00D4B1A687B689A420CD80A4B5A6892
:1039C0007B689A4207D37868FFF7ECFE0346002B2A
:1039D00001D0012300E0002303F00103DBB218460D
:1039E0000837BD4680BD00BFF425002080B584B0F7
:1039F00000AF786039600023FB6012E0FB68DB00F9
:103A00007A6813441B681846FFF7CCFE034683F020
:103A10000103DBB2002B01D0002307E0FB68013378
:103A2000FB60FA683B689A42E8D3012318461037D6
:103A3000BD4680BD80B483B000AF78607B681B68F2
:103A40000C4A934201D003230DE07B6804331B68CA
:103A5000094A934204D0094A934203D1012302E068
:103A6000002300E0032318460C37BD465DF8047BB5
:103A7000704700BFDEC0ADDEFE011EF1FF011EF18A
:103A800080B485B000AF78600023FB600CE0FB6879
:103A90009B007A6813441B68B3F1FF3F01D00023F9
:103AA00007E0FB680133FB60FB68B3F5806FEED382
:103AB000012318461437BD465DF8047B70470000AB
:103AC00080B483B000AF03460A46FB801346BB8038
:103AD000FB880F4A1B01134408331A88BB88134420
:103AE000BB80FB880A4A1B0113440A331A88BB882F
:103AF0001344BB80BB8840F2FF32934294BF012342
:103B00000023DBB218460C37BD465DF8047B7047D6
:103B1000B82B002080B485B000AF786039600A23EC
:103B2000FB6000237B811CE07B89134A1B0113444B
:103B300004331A683B689A4210D27B890E4A1B01F3
:103B4000134404331B6803F580523B689A4205D93D
:103B50000023FB607B687A891A8005E07B8901334A
:103B60007B817B89012BDFD9FB6818461437BD4662
:103B70005DF8047B704700BFB82B002080B588B08B
:103B800000AFF860B9607A60FB6803F58053BB61F1
:103B90000023FB77FB680833FB60BB6802221A80B6
:103BA00028E0FB687B617869FFF7E2FE034683F05B
:103BB0000103DBB2002B02D00123FB7709E07B6914
:103BC0009A68164B1B689A4203D97B699B68134A13
:103BD00013607B695B8803339B00FA681344FB60C6
:103BE000BB681A887B695B8813449BB203339AB223
:103BF000BB681A80FA68BB699A4204D2FB681B68EA
:103C0000B3F1FF3FCDD17B68002B02D07B68FA7FF8
:103C10001A7000BF2037BD4680BD00BFF42A0020C7
:103C200080B483B000AF78600B467B807B681A89D4
:103C30007B8813449BB203339AB27B681A817B68FA
:103C40005A897B88D31A9BB2033B9AB27B685A810C
:103C500000BF0C37BD465DF8047B704780B582B06D
:103C600002AF064B1968002300930223044A05485B
:103C700001F04EFE03461846BD4680BDD82B0020FD
:103C80009C320300F425002080B584B002AF786038
:103C9000002300930223054A7968054801F038FEA5
:103CA000034618460837BD4680BD00BFA432030056
:103CB000F425002080B584B000AF03463960FB8056
:103CC0000023FB73FB8803337B817B8940F2FD3249
:103CD000934201D9092334E00023BB8128E0BB894A
:103CE0001A4A1B0113441B78002B1ED17A89BB8909
:103CF00011461846FFF7E4FE0346002B15D00123BA
:103D0000FB733B68BA891A80BB89BA890F491201D3
:103D10000A440A3211887A890A4491B20B4A1B017B
:103D200013440A330A461A8005E0BB890133BB817C
:103D3000BB89012BD3D9FB7B002B01D0002300E0F2
:103D4000072318461037BD4680BD00BFB82B0020A2
:103D500080B483B000AF03460A46FB801346BB80A5
:103D6000BB88BA880A4912010A440A321188FA88C3
:103D70008A1A92B2033A91B2054A1B0113440A33DC
:103D80000A461A8000BF0C37BD465DF8047B7047B9
:103D9000B82B002080B400AF054B1B680133044AE8
:103DA0001360034B1B681846BD465DF8047B7047E3
:103DB000F42A002080B584B000AF03463960FB8050
:103DC0003B681B68FB60FB68002B09D0FB68BB608D
:103DD000BB685B8803339B00FA681344FB601CE0FC
:103DE000FB88184A1B01134404331B680833FB602B
:103DF00013E0FB68BB60B868FFF7BAFD0346002B11
:103E000004D03B68FA681A60012317E0BB685B883E
:103E100003339B00FA681344FB60FB88094A1B01CB
:103E2000134404331B6803F58052FB689A4204D99B
:103E3000FB681B68B3F1FF3FDBD100231846103746
:103E4000BD4680BDB82B002080B584B000AF78603F
:103E500039607B685B681846FFF7A4FD0346002BBA
:103E600019D07B681A89254B1B899A4213D17B682C
:103E70001A687B685B689B689A420CD17B685B68B8
:103E800019463868FFF746FE0346002B0CBF012396
:103E90000023DBB22DE03B6800221A8024E00023DF
:103EA000BB6010E0BB68FB60FB689A687B681B68BE
:103EB0009A4208D1BA687B685A60104B1A897B68AD
:103EC0001A81012315E03B681B8807F1080211469F
:103ED0001846FFF76FFF0346002BE3D13B681B88B2
:103EE00001339AB23B681A803B681B88012BD6D9F4
:103EF000002318461037BD4680BD00BFE02B0020D0
:103F000080B586B000AFF860B9607A603B6002208F
:103F1000FFF788FC034683F00103DBB2002B01D0DE
:103F200002234FE07B68002B02D03B68002B44D17A
:103F3000052347E03B689B88244A1B0113441B78F8
:103F4000002B33D124E03B681B687B61FB68002BAE
:103F500006D07B699A88FB681B889A4200D017E0DC
:103F6000BB68002B06D07B691A88BB681B889A4205
:103F700000D00DE07B699A687B681A603B681A681C
:103F80007B685A60124B1A897B681A81002319E0FA
:103F90003B689B883A6811461846FFF70BFF0346BB
:103FA000002BD0D13B6800221A6000E000BF3B68C4
:103FB0009B8801339AB23B689A803B689B88012BAF
:103FC000B8D90A2318461837BD4680BDB82B002043
:103FD000E02B002080B500AF124B1A6F1346DB00B8
:103FE0009B1A9B000F4A13441C2200211846FBF722
:103FF000AFF90C4B5B6F002B0BD00A4B1B6F0133DF
:1040000003F00303074A1367064B5B6F013B054A46
:104010005367044B5B6F002B14BF01230023DBB2FB
:10402000184680BDF82A002080B483B000AF7860C5
:104030007B681B68084A934206D07B681B6803F1C3
:1040400008027B681A6002E07B68044A1A600C3739
:10405000BD465DF8047B7047A82B0020702B002024
:1040600080B483B000AF78600E4B5B6C002B12D035
:104070000C4B1B6CDB000B4A1A447B681A60094B23
:104080001B6C013303F00703064A1364054B5B6C9A
:10409000013B044A536400BF0C37BD465DF8047B06
:1040A000704700BF702B002080B483B000AF7860F1
:1040B0007B681B78022B03D07B681B78032B0DD108
:1040C000094B1B6C7A68927D1344074A1364064BB4
:1040D0005B6C7A68927D9B1A034A536400BF0C376D
:1040E000BD465DF8047B7047702B0020B0B588B0EA
:1040F00000AFF860B9607A600023FB772E4B5B6FEE
:10410000032B54D82D4B5A6CBB68C3F108039A4259
:104110004DD8294B5A6F284B1B6F134403F00303F0
:104120007B6125497A691346DB009B1A9B00CA18FC
:10413000FB6814461D460FCD0FC495E8070084E8C0
:1041400007001D4B5B6F01331B4A5367BB68002B95
:104150002BD01A4B5A6C194B1B6C134403F00703FA
:104160007B617B69DB00154A13443B610023BB6123
:1041700011E03969BB69DB007A681A440B4692E8A2
:10418000030083E8030007F110031846FFF74CFF14
:10419000BB690133BB61BA69BB689A42E9D3074B7B
:1041A0005A6CBB681344054A53640123FB77FB7FB9
:1041B00018462037BD46B0BDF82A0020702B0020DD
:1041C00080B586B000AF00237B6100237B82002393
:1041D0007B740023FB81A2E0564B1B68FA89120313
:1041E0001344BB60B868FFF725FC0346FB71FB79FD
:1041F000012B63D0032B02D0002B3BD08CE0B8689E
:10420000FFF73EFC0346002B2BD04B4B1B68002BCB
:104210001AD07B8A494A1B01134402221A707B8AF6
:10422000464A1B0113440433BA681A607B8A434A26
:104230001B011344083302221A80414A7B8A5380AF
:104240007B8A01337B8207E03B4ABB6813603A4BB1
:1042500002229A8001237B747B6943F001037B6116
:104260005AE07B8A5A1C7A82344A1B011344032287
:104270001A7051E07B8A314A1B01134400221A70E4
:104280007B8A2E4A1B0113440433BA681A607B8A66
:104290001B010833294A99187B8A1B010833274AD6
:1042A000134406331A46B868FFF768FC7B6943F08D
:1042B00002037B617B8A01337B822DE07B7C002BB8
:1042C00017D07B8A1D4A1B01134402221A707B8A75
:1042D000194A126819491B010B4404331A607B8A7E
:1042E000164A1B011344083302221A807B8A0133C9
:1042F0007B82114ABB68136000221249B868FFF73D
:104300003DFC0D4B9B88022B01D1042300E00823C8
:104310007A6913437B6100BFFB890133FB81FB8911
:10432000022B7FF659AF7B69DBB218461837BD46C2
:1043300080BD00BFF4250020D82B0020B82B002022
:10434000E02B0020DC2B002080B586B002AF786027
:1043500039607B681A1D00230093012339680948DE
:1043600001F0D6FA0346FB607B6802221A74FB68F0
:10437000002B01D1002300E00E2318461037BD4664
:1043800080BD00BFF425002080B586B002AF786004
:1043900039603B6803F108017B6803F10C020023DC
:1043A000009301230B4801F0B3FA0346FB607B68DE
:1043B0009B7D002B01D0032200E001227B681A7450
:1043C000FB68002B01D1002300E00E2318461037B4
:1043D000BD4680BDF425002080B586B002AF786070
:1043E00039603B68191D7B6803F1080200230093C4
:1043F00001230C4801F08CFA0346FB607B681B78B4
:10440000032B01D1052200E006227B681A74FB68A9
:10441000002B01D1002300E00E2318461037BD46C3
:1044200080BD00BFF425002080B586B002AF786063
:104430000B467B800023009301230C4A79680C48CB
:1044400001F066FA0346FB73FB7B002B01D00E23C1
:1044500007E07B88074A1B0113440E3301221A70C0
:10446000002318461037BD4680BD00BF98320300B8
:10447000F4250020B82B002080B588B000AF78600C
:1044800007F1080300221A605A609A607B68DB68B3
:10449000BB6007F1160207F1080311461846FFF743
:1044A000D3FC0346002B11D0FB68BB61BB699A8823
:1044B0007B68DA80BB691A887B681A81FB68FA8A94
:1044C00011461846FFF7B0FFF86101E00A23FB61CF
:1044D000FB6918462037BD4680BD000080B586B018
:1044E00000AF78607B68981D07F108020D4B002132
:1044F000FFF706FD78617B69002B08D1FA68094B4C
:104500009B8819461046FFF78FFF786104E0082268
:1045100000210448FAF71CFF7B6918461837BD468E
:1045200080BD00BFF02B002080B586B002AF786060
:1045300039600023BB6007F108031846FFF790FDC0
:104540007B689B8A9B003A68D118BB681A68BB6875
:104550009888002300930346114801F0D9F90346D7
:10456000FB607B689A8ABB689B8813449AB27B681D
:104570009A827B689B7D013BDAB27B689A757B6887
:104580009B7D002B02D17B6801221A74FB68002BF3
:1045900001D1002300E00E2318461037BD4680BD30
:1045A000F425002080B483B000AF154B1B89013384
:1045B0009AB2134B1A81124B00225A80104B0022E0
:1045C0001A730023FB8011E0FB88FA880D49120161
:1045D0000A441278002A0CBF01220022D1B2084AF4
:1045E00013440A469A72FB880133FB80FB88012B37
:1045F000EAD900BF0C37BD465DF8047B704700BFA9
:10460000E02B0020B82B002080B485B000AF78608C
:104610000023FB730023BB8123E0BB89164A1344AC
:104620009B7A002B1AD0BB89134A134400229A723A
:10463000BB89124A1B0113440C331B88002B0DD17C
:10464000BB890E4A1B0113440E331B78002B05D087
:104650007B68BA891A800123FB7305E0BB890133AB
:10466000BB81BB89012BD8D9FB7B18461437BD46CB
:104670005DF8047B704700BFE02B0020B82B0020C2
:1046800080B500AF074B05221A70074B02229A80B3
:10469000054B196800230122044801F0A3F90346E1
:1046A000184680BDE02B0020D82B0020F4250020E8
:1046B00080B582B000AF124B5B887B807B88114A4B
:1046C0001B0113440C331B88002B10D17B880D4A2F
:1046D0001B01134404331968002301220A4801F026
:1046E00081F903467B60064B04221A7002E0FFF753
:1046F000C7FF78607B6818460837BD4680BD00BF9D
:10470000E02B0020B82B0020F425002080B586B0D7
:1047100002AF104B5B68FB600F4B1A680E4B9B8817
:104720009B001344BB60FB685B880333FB80094B31
:1047300003221A70074B5A68F988002300930B462E
:10474000B968064801F0E4F8034618461037BD463C
:1047500080BD00BFE02B0020D82B0020F4250020D6
:1047600080B582B000AF0A4B5B880A491846FFF754
:1047700021FB0346002B03D0FFF7C8FF786002E05F
:10478000FFF796FF78607B6818460837BD4680BD06
:10479000E02B0020E42B002080B500AF074B062261
:1047A0001A70064B5B88064A1B01134404331B68CE
:1047B0001846FFF769FA0346184680BDE02B002033
:1047C000B82B002080B500AF054B07221A70044BB0
:1047D00000225A60FFF742FA0346184680BD00BF28
:1047E000E02B002080B500AF0C48FFF70DFF03461B
:1047F00083F00103DBB2002B0BD0094B00221A70AF
:10480000074B00225A80064B00225A6041F61D5386
:1048100002E0FFF7A5FF0346184680BDE22B00200B
:10482000E02B002080B483B000AF0A4B5B687B6054
:104830007B685B8803337B80074B9A887B881344B3
:104840009AB2054B9A8000BF0C37BD465DF8047BD9
:10485000704700BFE02B0020D82B002080B483B02D
:1048600000AF144B1B687B60134B5B88134A1B0122
:10487000134404331B680F4A13600F4B5B880F4AC5
:104880001B01134404337A681A600B4B5B8818468B
:10489000084B9988094A0301134408330A461A80D1
:1048A000044B02229A8000BF0C37BD465DF8047BA2
:1048B000704700BFD82B0020E02B0020B82B002031
:1048C00080B500AF1A4B1B78072B2DD801A252F8E8
:1048D00023F000BFF54802002949020029490200DF
:1048E000014902000D49020019490200194902005C
:1048F00021490200FFF756FE0D4B01221A7014E009
:10490000FFF790FF0A4B02221A700EE0FFF7A6FF96
:10491000074B06221A7008E0054B07221A7004E0C4
:10492000034B01221A7000E000BF00BF80BD00BF32
:10493000E02B002080B586B000AF786039600F238F
:104940007B617B68002B04D00120FEF751FF01231F
:1049500098E03B681B79032B00F2888001A252F893
:1049600023F000BF7549020083490200EB490200B1
:104970000B4A0200FFF772F978613B6801221A7155
:1049800077E00023FB7400233B821CE03B8A3F4A14
:104990001B0113441B78022B12D13B8A3B4A1B019B
:1049A000134404331B681846FFF76EF978613B8A9D
:1049B000364A1B01134400221A700123FB7405E0E0
:1049C0003B8A01333B823B8A012BDFD9FB7C83F09E
:1049D0000103DBB2002B4BD00220FEF7F5FE0120D5
:1049E000FEF706FF41F61D534CE0294B19680023E2
:1049F0000122284800F0F6FF03467B61244B022287
:104A00009A803B6800221A7133E0214B1B681846DC
:104A1000FFF73AF97861204B5B88FB811C4B1B68E0
:104A2000BB60FB89194A1B01134404331B68184AF5
:104A30001360FB89154A1B0113440433BA681A60DA
:104A4000FB89134A9188114A1B01134408330A4613
:104A50001A800F4B02229A80FB890C4A1B011344D7
:104A600000221A703B6800221A7102E000BF00E0C9
:104A700000BF7B69002B04D00120FEF7B9FE0E2396
:104A800000E0002318461837BD4680BDB82B002033
:104A9000D82B0020F4250020E02B002080B586B024
:104AA00000AF786039603B685B8A1B013B4A134466
:104AB0003B617B68002B07D03B68DB88194638696F
:104AC000FFF7AEF8012364E03B695A683B691B8934
